{
	"bc-lab5/singleinheritance.sol": {
		"parent": {
			"abi": [
				{
					"inputs": [],
					"name": "setValue",
					"outputs": [],
					"stateMutability": "nonpayable",
					"type": "function"
				}
			],
			"devdoc": {
				"kind": "dev",
				"methods": {},
				"version": 1
			},
			"evm": {
				"assembly": "    /* \"bc-lab5/singleinheritance.sol\":59:216  contract parent {\r... */\n  mstore(0x40, 0x80)\n  callvalue\n  dup1\n  iszero\n  tag_1\n  jumpi\n  0x00\n  dup1\n  revert\ntag_1:\n  pop\n  dataSize(sub_0)\n  dup1\n  dataOffset(sub_0)\n  0x00\n  codecopy\n  0x00\n  return\nstop\n\nsub_0: assembly {\n        /* \"bc-lab5/singleinheritance.sol\":59:216  contract parent {\r... */\n      mstore(0x40, 0x80)\n      callvalue\n      dup1\n      iszero\n      tag_1\n      jumpi\n      0x00\n      dup1\n      revert\n    tag_1:\n      pop\n      jumpi(tag_2, lt(calldatasize, 0x04))\n      shr(0xe0, calldataload(0x00))\n      dup1\n      0x4fa519fa\n      eq\n      tag_3\n      jumpi\n    tag_2:\n      0x00\n      dup1\n      revert\n        /* \"bc-lab5/singleinheritance.sol\":108:213  function setValue() external {\r... */\n    tag_3:\n      tag_4\n      tag_5\n      jump\t// in\n    tag_4:\n      stop\n    tag_5:\n        /* \"bc-lab5/singleinheritance.sol\":148:154  uint a */\n      0x00\n        /* \"bc-lab5/singleinheritance.sol\":157:159  20 */\n      0x14\n        /* \"bc-lab5/singleinheritance.sol\":148:159  uint a = 20 */\n      swap1\n      pop\n        /* \"bc-lab5/singleinheritance.sol\":170:176  uint b */\n      0x00\n        /* \"bc-lab5/singleinheritance.sol\":179:181  50 */\n      0x32\n        /* \"bc-lab5/singleinheritance.sol\":170:181  uint b = 50 */\n      swap1\n      pop\n        /* \"bc-lab5/singleinheritance.sol\":204:205  b */\n      dup1\n        /* \"bc-lab5/singleinheritance.sol\":200:201  a */\n      dup3\n        /* \"bc-lab5/singleinheritance.sol\":200:205  a + b */\n      tag_7\n      swap2\n      swap1\n      tag_8\n      jump\t// in\n    tag_7:\n        /* \"bc-lab5/singleinheritance.sol\":194:197  sum */\n      0x00\n        /* \"bc-lab5/singleinheritance.sol\":194:205  sum = a + b */\n      dup2\n      swap1\n      sstore\n      pop\n        /* \"bc-lab5/singleinheritance.sol\":108:213  function setValue() external {\r... */\n      pop\n      pop\n      jump\t// out\n        /* \"#utility.yul\":7:312   */\n    tag_8:\n      0x00\n        /* \"#utility.yul\":66:86   */\n      tag_11\n        /* \"#utility.yul\":84:85   */\n      dup3\n        /* \"#utility.yul\":66:86   */\n      tag_12\n      jump\t// in\n    tag_11:\n        /* \"#utility.yul\":61:86   */\n      swap2\n      pop\n        /* \"#utility.yul\":100:120   */\n      tag_13\n        /* \"#utility.yul\":118:119   */\n      dup4\n        /* \"#utility.yul\":100:120   */\n      tag_12\n      jump\t// in\n    tag_13:\n        /* \"#utility.yul\":95:120   */\n      swap3\n      pop\n        /* \"#utility.yul\":254:255   */\n      dup3\n        /* \"#utility.yul\":186:252   */\n      0xffffffffffffffffffffffffffffffffffffffffffffffffffffffffffffffff\n        /* \"#utility.yul\":182:256   */\n      sub\n        /* \"#utility.yul\":179:180   */\n      dup3\n        /* \"#utility.yul\":176:257   */\n      gt\n        /* \"#utility.yul\":173:175   */\n      iszero\n      tag_14\n      jumpi\n        /* \"#utility.yul\":260:278   */\n      tag_15\n      tag_16\n      jump\t// in\n    tag_15:\n        /* \"#utility.yul\":173:175   */\n    tag_14:\n        /* \"#utility.yul\":304:305   */\n      dup3\n        /* \"#utility.yul\":301:302   */\n      dup3\n        /* \"#utility.yul\":297:306   */\n      add\n        /* \"#utility.yul\":290:306   */\n      swap1\n      pop\n        /* \"#utility.yul\":51:312   */\n      swap3\n      swap2\n      pop\n      pop\n      jump\t// out\n        /* \"#utility.yul\":318:395   */\n    tag_12:\n      0x00\n        /* \"#utility.yul\":384:389   */\n      dup2\n        /* \"#utility.yul\":373:389   */\n      swap1\n      pop\n        /* \"#utility.yul\":363:395   */\n      swap2\n      swap1\n      pop\n      jump\t// out\n        /* \"#utility.yul\":401:581   */\n    tag_16:\n        /* \"#utility.yul\":449:526   */\n      0x4e487b7100000000000000000000000000000000000000000000000000000000\n        /* \"#utility.yul\":446:447   */\n      0x00\n        /* \"#utility.yul\":439:527   */\n      mstore\n        /* \"#utility.yul\":546:550   */\n      0x11\n        /* \"#utility.yul\":543:544   */\n      0x04\n        /* \"#utility.yul\":536:551   */\n      mstore\n        /* \"#utility.yul\":570:574   */\n      0x24\n        /* \"#utility.yul\":567:568   */\n      0x00\n        /* \"#utility.yul\":560:575   */\n      revert\n\n    auxdata: 0xa2646970667358221220b81d881a9a20b82dc5c3ef53c49167342ce6412b1a4c43307acc013fa578ccf664736f6c63430008000033\n}\n",
				"bytecode": {
					"linkReferences": {},
					"object": "608060405234801561001057600080fd5b50610113806100206000396000f3fe6080604052348015600f57600080fd5b506004361060285760003560e01c80634fa519fa14602d575b600080fd5b60336035565b005b6000601490506000603290508082604b91906055565b6000819055505050565b6000605e8260a4565b915060678360a4565b9250827fffffffffffffffffffffffffffffffffffffffffffffffffffffffffffffffff03821115609957609860ae565b5b828201905092915050565b6000819050919050565b7f4e487b7100000000000000000000000000000000000000000000000000000000600052601160045260246000fdfea2646970667358221220b81d881a9a20b82dc5c3ef53c49167342ce6412b1a4c43307acc013fa578ccf664736f6c63430008000033",
					"opcodes": "PUSH1 0x80 PUSH1 0x40 MSTORE CALLVALUE DUP1 ISZERO PUSH2 0x10 JUMPI PUSH1 0x0 DUP1 REVERT JUMPDEST POP PUSH2 0x113 DUP1 PUSH2 0x20 PUSH1 0x0 CODECOPY PUSH1 0x0 RETURN INVALID PUSH1 0x80 PUSH1 0x40 MSTORE CALLVALUE DUP1 ISZERO PUSH1 0xF JUMPI PUSH1 0x0 DUP1 REVERT JUMPDEST POP PUSH1 0x4 CALLDATASIZE LT PUSH1 0x28 JUMPI PUSH1 0x0 CALLDATALOAD PUSH1 0xE0 SHR DUP1 PUSH4 0x4FA519FA EQ PUSH1 0x2D JUMPI JUMPDEST PUSH1 0x0 DUP1 REVERT JUMPDEST PUSH1 0x33 PUSH1 0x35 JUMP JUMPDEST STOP JUMPDEST PUSH1 0x0 PUSH1 0x14 SWAP1 POP PUSH1 0x0 PUSH1 0x32 SWAP1 POP DUP1 DUP3 PUSH1 0x4B SWAP2 SWAP1 PUSH1 0x55 JUMP JUMPDEST PUSH1 0x0 DUP2 SWAP1 SSTORE POP POP POP JUMP JUMPDEST PUSH1 0x0 PUSH1 0x5E DUP3 PUSH1 0xA4 JUMP JUMPDEST SWAP2 POP PUSH1 0x67 DUP4 PUSH1 0xA4 JUMP JUMPDEST SWAP3 POP DUP3 PUSH32 0xFFFFFFFFFFFFFFFFFFFFFFFFFFFFFFFFFFFFFFFFFFFFFFFFFFFFFFFFFFFFFFFF SUB DUP3 GT ISZERO PUSH1 0x99 JUMPI PUSH1 0x98 PUSH1 0xAE JUMP JUMPDEST JUMPDEST DUP3 DUP3 ADD SWAP1 POP SWAP3 SWAP2 POP POP JUMP JUMPDEST PUSH1 0x0 DUP2 SWAP1 POP SWAP2 SWAP1 POP JUMP JUMPDEST PUSH32 0x4E487B7100000000000000000000000000000000000000000000000000000000 PUSH1 0x0 MSTORE PUSH1 0x11 PUSH1 0x4 MSTORE PUSH1 0x24 PUSH1 0x0 REVERT INVALID LOG2 PUSH5 0x6970667358 0x22 SLT KECCAK256 0xB8 SAR DUP9 BYTE SWAP11 KECCAK256 0xB8 0x2D 0xC5 0xC3 0xEF MSTORE8 0xC4 SWAP2 PUSH8 0x342CE6412B1A4C43 ADDRESS PUSH27 0xCC013FA578CCF664736F6C63430008000033000000000000000000 "
				},
				"gasEstimates": {
					"creation": {
						"codeDepositCost": "55000",
						"executionCost": "105",
						"totalCost": "55105"
					},
					"external": {
						"setValue()": "infinite"
					}
				},
				"methodIdentifiers": {
					"setValue()": "4fa519fa"
				}
			},
			"storageLayout": {
				"storage": [
					{
						"astId": 3,
						"contract": "bc-lab5/singleinheritance.sol:parent",
						"label": "sum",
						"offset": 0,
						"slot": "0",
						"type": "t_uint256"
					}
				],
				"types": {
					"t_uint256": {
						"encoding": "inplace",
						"label": "uint256",
						"numberOfBytes": "32"
					}
				}
			},
			"userdoc": {
				"kind": "user",
				"methods": {},
				"version": 1
			}
		}
	}
}