{
	"bc-lab6/transfer.sol": {
		"transfer": {
			"abi": [
				{
					"inputs": [],
					"name": "buyProduct",
					"outputs": [],
					"stateMutability": "payable",
					"type": "function"
				},
				{
					"inputs": [],
					"name": "buyer",
					"outputs": [
						{
							"internalType": "address payable",
							"name": "",
							"type": "address"
						}
					],
					"stateMutability": "view",
					"type": "function"
				},
				{
					"inputs": [],
					"name": "product",
					"outputs": [
						{
							"internalType": "string",
							"name": "",
							"type": "string"
						}
					],
					"stateMutability": "view",
					"type": "function"
				},
				{
					"inputs": [],
					"name": "seller",
					"outputs": [
						{
							"internalType": "address payable",
							"name": "",
							"type": "address"
						}
					],
					"stateMutability": "view",
					"type": "function"
				},
				{
					"inputs": [
						{
							"internalType": "string",
							"name": "_nameP",
							"type": "string"
						}
					],
					"name": "setProduct",
					"outputs": [],
					"stateMutability": "nonpayable",
					"type": "function"
				}
			],
			"devdoc": {
				"kind": "dev",
				"methods": {},
				"version": 1
			},
			"evm": {
				"assembly": "    /* \"bc-lab6/transfer.sol\":56:740  contract transfer {\r... */\n  mstore(0x40, 0x80)\n  callvalue\n  dup1\n  iszero\n  tag_1\n  jumpi\n  0x00\n  dup1\n  revert\ntag_1:\n  pop\n  dataSize(sub_0)\n  dup1\n  dataOffset(sub_0)\n  0x00\n  codecopy\n  0x00\n  return\nstop\n\nsub_0: assembly {\n        /* \"bc-lab6/transfer.sol\":56:740  contract transfer {\r... */\n      mstore(0x40, 0x80)\n      jumpi(tag_1, lt(calldatasize, 0x04))\n      shr(0xe0, calldataload(0x00))\n      dup1\n      0x08551a53\n      eq\n      tag_2\n      jumpi\n      dup1\n      0x572d5298\n      eq\n      tag_3\n      jumpi\n      dup1\n      0x7150d8ae\n      eq\n      tag_4\n      jumpi\n      dup1\n      0x9ada9b7b\n      eq\n      tag_5\n      jumpi\n      dup1\n      0xbf9ce952\n      eq\n      tag_6\n      jumpi\n    tag_1:\n      0x00\n      dup1\n      revert\n        /* \"bc-lab6/transfer.sol\":116:145  address payable public seller */\n    tag_2:\n      callvalue\n      dup1\n      iszero\n      tag_7\n      jumpi\n      0x00\n      dup1\n      revert\n    tag_7:\n      pop\n      tag_8\n      tag_9\n      jump\t// in\n    tag_8:\n      mload(0x40)\n      tag_10\n      swap2\n      swap1\n      tag_11\n      jump\t// in\n    tag_10:\n      mload(0x40)\n      dup1\n      swap2\n      sub\n      swap1\n      return\n        /* \"bc-lab6/transfer.sol\":253:377  function setProduct(string memory _nameP) public {\r... */\n    tag_3:\n      callvalue\n      dup1\n      iszero\n      tag_12\n      jumpi\n      0x00\n      dup1\n      revert\n    tag_12:\n      pop\n      tag_13\n      0x04\n      dup1\n      calldatasize\n      sub\n      dup2\n      add\n      swap1\n      tag_14\n      swap2\n      swap1\n      tag_15\n      jump\t// in\n    tag_14:\n      tag_16\n      jump\t// in\n    tag_13:\n      stop\n        /* \"bc-lab6/transfer.sol\":81:109  address payable public buyer */\n    tag_4:\n      callvalue\n      dup1\n      iszero\n      tag_17\n      jumpi\n      0x00\n      dup1\n      revert\n    tag_17:\n      pop\n      tag_18\n      tag_19\n      jump\t// in\n    tag_18:\n      mload(0x40)\n      tag_20\n      swap2\n      swap1\n      tag_11\n      jump\t// in\n    tag_20:\n      mload(0x40)\n      dup1\n      swap2\n      sub\n      swap1\n      return\n        /* \"bc-lab6/transfer.sol\":385:537  function buyProduct() public payable{\r... */\n    tag_5:\n      tag_21\n      tag_22\n      jump\t// in\n    tag_21:\n      stop\n        /* \"bc-lab6/transfer.sol\":152:173  string public product */\n    tag_6:\n      callvalue\n      dup1\n      iszero\n      tag_23\n      jumpi\n      0x00\n      dup1\n      revert\n    tag_23:\n      pop\n      tag_24\n      tag_25\n      jump\t// in\n    tag_24:\n      mload(0x40)\n      tag_26\n      swap2\n      swap1\n      tag_27\n      jump\t// in\n    tag_26:\n      mload(0x40)\n      dup1\n      swap2\n      sub\n      swap1\n      return\n        /* \"bc-lab6/transfer.sol\":116:145  address payable public seller */\n    tag_9:\n      0x01\n      0x00\n      swap1\n      sload\n      swap1\n      0x0100\n      exp\n      swap1\n      div\n      0xffffffffffffffffffffffffffffffffffffffff\n      and\n      dup2\n      jump\t// out\n        /* \"bc-lab6/transfer.sol\":253:377  function setProduct(string memory _nameP) public {\r... */\n    tag_16:\n        /* \"bc-lab6/transfer.sol\":323:329  _nameP */\n      dup1\n        /* \"bc-lab6/transfer.sol\":313:320  product */\n      0x02\n        /* \"bc-lab6/transfer.sol\":313:329  product = _nameP */\n      swap1\n      dup1\n      mload\n      swap1\n      0x20\n      add\n      swap1\n      tag_29\n      swap3\n      swap2\n      swap1\n      tag_30\n      jump\t// in\n    tag_29:\n      pop\n        /* \"bc-lab6/transfer.sol\":358:368  msg.sender */\n      caller\n        /* \"bc-lab6/transfer.sol\":340:346  seller */\n      0x01\n      0x00\n        /* \"bc-lab6/transfer.sol\":340:369  seller = payable (msg.sender) */\n      0x0100\n      exp\n      dup2\n      sload\n      dup2\n      0xffffffffffffffffffffffffffffffffffffffff\n      mul\n      not\n      and\n      swap1\n      dup4\n      0xffffffffffffffffffffffffffffffffffffffff\n      and\n      mul\n      or\n      swap1\n      sstore\n      pop\n        /* \"bc-lab6/transfer.sol\":253:377  function setProduct(string memory _nameP) public {\r... */\n      pop\n      jump\t// out\n        /* \"bc-lab6/transfer.sol\":81:109  address payable public buyer */\n    tag_19:\n      0x00\n      dup1\n      sload\n      swap1\n      0x0100\n      exp\n      swap1\n      div\n      0xffffffffffffffffffffffffffffffffffffffff\n      and\n      dup2\n      jump\t// out\n        /* \"bc-lab6/transfer.sol\":385:537  function buyProduct() public payable{\r... */\n    tag_22:\n        /* \"bc-lab6/transfer.sol\":448:458  msg.sender */\n      caller\n        /* \"bc-lab6/transfer.sol\":432:437  buyer */\n      0x00\n      dup1\n        /* \"bc-lab6/transfer.sol\":432:459  buyer = payable(msg.sender) */\n      0x0100\n      exp\n      dup2\n      sload\n      dup2\n      0xffffffffffffffffffffffffffffffffffffffff\n      mul\n      not\n      and\n      swap1\n      dup4\n      0xffffffffffffffffffffffffffffffffffffffff\n      and\n      mul\n      or\n      swap1\n      sstore\n      pop\n        /* \"bc-lab6/transfer.sol\":503:509  seller */\n      0x01\n      0x00\n      swap1\n      sload\n      swap1\n      0x0100\n      exp\n      swap1\n      div\n      0xffffffffffffffffffffffffffffffffffffffff\n      and\n        /* \"bc-lab6/transfer.sol\":503:518  seller.transfer */\n      0xffffffffffffffffffffffffffffffffffffffff\n      and\n        /* \"bc-lab6/transfer.sol\":503:529  seller.transfer(msg.value) */\n      0x08fc\n        /* \"bc-lab6/transfer.sol\":519:528  msg.value */\n      callvalue\n        /* \"bc-lab6/transfer.sol\":503:529  seller.transfer(msg.value) */\n      swap1\n      dup2\n      iszero\n      mul\n      swap1\n      mload(0x40)\n      0x00\n      mload(0x40)\n      dup1\n      dup4\n      sub\n      dup2\n      dup6\n      dup9\n      dup9\n      call\n      swap4\n      pop\n      pop\n      pop\n      pop\n      iszero\n      dup1\n      iszero\n      tag_33\n      jumpi\n      returndatasize\n      0x00\n      dup1\n      returndatacopy\n      revert(0x00, returndatasize)\n    tag_33:\n      pop\n        /* \"bc-lab6/transfer.sol\":385:537  function buyProduct() public payable{\r... */\n      jump\t// out\n        /* \"bc-lab6/transfer.sol\":152:173  string public product */\n    tag_25:\n      0x02\n      dup1\n      sload\n      tag_34\n      swap1\n      tag_35\n      jump\t// in\n    tag_34:\n      dup1\n      0x1f\n      add\n      0x20\n      dup1\n      swap2\n      div\n      mul\n      0x20\n      add\n      mload(0x40)\n      swap1\n      dup2\n      add\n      0x40\n      mstore\n      dup1\n      swap3\n      swap2\n      swap1\n      dup2\n      dup2\n      mstore\n      0x20\n      add\n      dup3\n      dup1\n      sload\n      tag_36\n      swap1\n      tag_35\n      jump\t// in\n    tag_36:\n      dup1\n      iszero\n      tag_37\n      jumpi\n      dup1\n      0x1f\n      lt\n      tag_38\n      jumpi\n      0x0100\n      dup1\n      dup4\n      sload\n      div\n      mul\n      dup4\n      mstore\n      swap2\n      0x20\n      add\n      swap2\n      jump(tag_37)\n    tag_38:\n      dup3\n      add\n      swap2\n      swap1\n      0x00\n      mstore\n      keccak256(0x00, 0x20)\n      swap1\n    tag_39:\n      dup2\n      sload\n      dup2\n      mstore\n      swap1\n      0x01\n      add\n      swap1\n      0x20\n      add\n      dup1\n      dup4\n      gt\n      tag_39\n      jumpi\n      dup3\n      swap1\n      sub\n      0x1f\n      and\n      dup3\n      add\n      swap2\n    tag_37:\n      pop\n      pop\n      pop\n      pop\n      pop\n      dup2\n      jump\t// out\n    tag_30:\n      dup3\n      dup1\n      sload\n      tag_40\n      swap1\n      tag_35\n      jump\t// in\n    tag_40:\n      swap1\n      0x00\n      mstore\n      keccak256(0x00, 0x20)\n      swap1\n      0x1f\n      add\n      0x20\n      swap1\n      div\n      dup2\n      add\n      swap3\n      dup3\n      tag_42\n      jumpi\n      0x00\n      dup6\n      sstore\n      jump(tag_41)\n    tag_42:\n      dup3\n      0x1f\n      lt\n      tag_43\n      jumpi\n      dup1\n      mload\n      not(0xff)\n      and\n      dup4\n      dup1\n      add\n      or\n      dup6\n      sstore\n      jump(tag_41)\n    tag_43:\n      dup3\n      dup1\n      add\n      0x01\n      add\n      dup6\n      sstore\n      dup3\n      iszero\n      tag_41\n      jumpi\n      swap2\n      dup3\n      add\n    tag_44:\n      dup3\n      dup2\n      gt\n      iszero\n      tag_45\n      jumpi\n      dup3\n      mload\n      dup3\n      sstore\n      swap2\n      0x20\n      add\n      swap2\n      swap1\n      0x01\n      add\n      swap1\n      jump(tag_44)\n    tag_45:\n    tag_41:\n      pop\n      swap1\n      pop\n      tag_46\n      swap2\n      swap1\n      tag_47\n      jump\t// in\n    tag_46:\n      pop\n      swap1\n      jump\t// out\n    tag_47:\n    tag_48:\n      dup1\n      dup3\n      gt\n      iszero\n      tag_49\n      jumpi\n      0x00\n      dup2\n      0x00\n      swap1\n      sstore\n      pop\n      0x01\n      add\n      jump(tag_48)\n    tag_49:\n      pop\n      swap1\n      jump\t// out\n        /* \"#utility.yul\":7:351   */\n    tag_51:\n      0x00\n        /* \"#utility.yul\":110:175   */\n      tag_53\n        /* \"#utility.yul\":125:174   */\n      tag_54\n        /* \"#utility.yul\":167:173   */\n      dup5\n        /* \"#utility.yul\":125:174   */\n      tag_55\n      jump\t// in\n    tag_54:\n        /* \"#utility.yul\":110:175   */\n      tag_56\n      jump\t// in\n    tag_53:\n        /* \"#utility.yul\":101:175   */\n      swap1\n      pop\n        /* \"#utility.yul\":198:204   */\n      dup3\n        /* \"#utility.yul\":191:196   */\n      dup2\n        /* \"#utility.yul\":184:205   */\n      mstore\n        /* \"#utility.yul\":236:240   */\n      0x20\n        /* \"#utility.yul\":229:234   */\n      dup2\n        /* \"#utility.yul\":225:241   */\n      add\n        /* \"#utility.yul\":274:277   */\n      dup5\n        /* \"#utility.yul\":265:271   */\n      dup5\n        /* \"#utility.yul\":260:263   */\n      dup5\n        /* \"#utility.yul\":256:272   */\n      add\n        /* \"#utility.yul\":253:278   */\n      gt\n        /* \"#utility.yul\":250:252   */\n      iszero\n      tag_57\n      jumpi\n        /* \"#utility.yul\":291:292   */\n      0x00\n        /* \"#utility.yul\":288:289   */\n      dup1\n        /* \"#utility.yul\":281:293   */\n      revert\n        /* \"#utility.yul\":250:252   */\n    tag_57:\n        /* \"#utility.yul\":304:345   */\n      tag_58\n        /* \"#utility.yul\":338:344   */\n      dup5\n        /* \"#utility.yul\":333:336   */\n      dup3\n        /* \"#utility.yul\":328:331   */\n      dup6\n        /* \"#utility.yul\":304:345   */\n      tag_59\n      jump\t// in\n    tag_58:\n        /* \"#utility.yul\":91:351   */\n      pop\n      swap4\n      swap3\n      pop\n      pop\n      pop\n      jump\t// out\n        /* \"#utility.yul\":371:644   */\n    tag_60:\n      0x00\n        /* \"#utility.yul\":476:479   */\n      dup3\n        /* \"#utility.yul\":469:473   */\n      0x1f\n        /* \"#utility.yul\":461:467   */\n      dup4\n        /* \"#utility.yul\":457:474   */\n      add\n        /* \"#utility.yul\":453:480   */\n      slt\n        /* \"#utility.yul\":443:445   */\n      tag_62\n      jumpi\n        /* \"#utility.yul\":494:495   */\n      0x00\n        /* \"#utility.yul\":491:492   */\n      dup1\n        /* \"#utility.yul\":484:496   */\n      revert\n        /* \"#utility.yul\":443:445   */\n    tag_62:\n        /* \"#utility.yul\":534:540   */\n      dup2\n        /* \"#utility.yul\":521:541   */\n      calldataload\n        /* \"#utility.yul\":559:638   */\n      tag_63\n        /* \"#utility.yul\":634:637   */\n      dup5\n        /* \"#utility.yul\":626:632   */\n      dup3\n        /* \"#utility.yul\":619:623   */\n      0x20\n        /* \"#utility.yul\":611:617   */\n      dup7\n        /* \"#utility.yul\":607:624   */\n      add\n        /* \"#utility.yul\":559:638   */\n      tag_51\n      jump\t// in\n    tag_63:\n        /* \"#utility.yul\":550:638   */\n      swap2\n      pop\n        /* \"#utility.yul\":433:644   */\n      pop\n      swap3\n      swap2\n      pop\n      pop\n      jump\t// out\n        /* \"#utility.yul\":650:1025   */\n    tag_15:\n      0x00\n        /* \"#utility.yul\":768:770   */\n      0x20\n        /* \"#utility.yul\":756:765   */\n      dup3\n        /* \"#utility.yul\":747:754   */\n      dup5\n        /* \"#utility.yul\":743:766   */\n      sub\n        /* \"#utility.yul\":739:771   */\n      slt\n        /* \"#utility.yul\":736:738   */\n      iszero\n      tag_65\n      jumpi\n        /* \"#utility.yul\":784:785   */\n      0x00\n        /* \"#utility.yul\":781:782   */\n      dup1\n        /* \"#utility.yul\":774:786   */\n      revert\n        /* \"#utility.yul\":736:738   */\n    tag_65:\n        /* \"#utility.yul\":855:856   */\n      0x00\n        /* \"#utility.yul\":844:853   */\n      dup3\n        /* \"#utility.yul\":840:857   */\n      add\n        /* \"#utility.yul\":827:858   */\n      calldataload\n        /* \"#utility.yul\":885:903   */\n      0xffffffffffffffff\n        /* \"#utility.yul\":877:883   */\n      dup2\n        /* \"#utility.yul\":874:904   */\n      gt\n        /* \"#utility.yul\":871:873   */\n      iszero\n      tag_66\n      jumpi\n        /* \"#utility.yul\":917:918   */\n      0x00\n        /* \"#utility.yul\":914:915   */\n      dup1\n        /* \"#utility.yul\":907:919   */\n      revert\n        /* \"#utility.yul\":871:873   */\n    tag_66:\n        /* \"#utility.yul\":945:1008   */\n      tag_67\n        /* \"#utility.yul\":1000:1007   */\n      dup5\n        /* \"#utility.yul\":991:997   */\n      dup3\n        /* \"#utility.yul\":980:989   */\n      dup6\n        /* \"#utility.yul\":976:998   */\n      add\n        /* \"#utility.yul\":945:1008   */\n      tag_60\n      jump\t// in\n    tag_67:\n        /* \"#utility.yul\":935:1008   */\n      swap2\n      pop\n        /* \"#utility.yul\":798:1018   */\n      pop\n        /* \"#utility.yul\":726:1025   */\n      swap3\n      swap2\n      pop\n      pop\n      jump\t// out\n        /* \"#utility.yul\":1031:1173   */\n    tag_68:\n        /* \"#utility.yul\":1134:1166   */\n      tag_70\n        /* \"#utility.yul\":1160:1165   */\n      dup2\n        /* \"#utility.yul\":1134:1166   */\n      tag_71\n      jump\t// in\n    tag_70:\n        /* \"#utility.yul\":1129:1132   */\n      dup3\n        /* \"#utility.yul\":1122:1167   */\n      mstore\n        /* \"#utility.yul\":1112:1173   */\n      pop\n      pop\n      jump\t// out\n        /* \"#utility.yul\":1179:1543   */\n    tag_72:\n      0x00\n        /* \"#utility.yul\":1295:1334   */\n      tag_74\n        /* \"#utility.yul\":1328:1333   */\n      dup3\n        /* \"#utility.yul\":1295:1334   */\n      tag_75\n      jump\t// in\n    tag_74:\n        /* \"#utility.yul\":1350:1421   */\n      tag_76\n        /* \"#utility.yul\":1414:1420   */\n      dup2\n        /* \"#utility.yul\":1409:1412   */\n      dup6\n        /* \"#utility.yul\":1350:1421   */\n      tag_77\n      jump\t// in\n    tag_76:\n        /* \"#utility.yul\":1343:1421   */\n      swap4\n      pop\n        /* \"#utility.yul\":1430:1482   */\n      tag_78\n        /* \"#utility.yul\":1475:1481   */\n      dup2\n        /* \"#utility.yul\":1470:1473   */\n      dup6\n        /* \"#utility.yul\":1463:1467   */\n      0x20\n        /* \"#utility.yul\":1456:1461   */\n      dup7\n        /* \"#utility.yul\":1452:1468   */\n      add\n        /* \"#utility.yul\":1430:1482   */\n      tag_79\n      jump\t// in\n    tag_78:\n        /* \"#utility.yul\":1507:1536   */\n      tag_80\n        /* \"#utility.yul\":1529:1535   */\n      dup2\n        /* \"#utility.yul\":1507:1536   */\n      tag_81\n      jump\t// in\n    tag_80:\n        /* \"#utility.yul\":1502:1505   */\n      dup5\n        /* \"#utility.yul\":1498:1537   */\n      add\n        /* \"#utility.yul\":1491:1537   */\n      swap2\n      pop\n        /* \"#utility.yul\":1271:1543   */\n      pop\n      swap3\n      swap2\n      pop\n      pop\n      jump\t// out\n        /* \"#utility.yul\":1549:1803   */\n    tag_11:\n      0x00\n        /* \"#utility.yul\":1696:1698   */\n      0x20\n        /* \"#utility.yul\":1685:1694   */\n      dup3\n        /* \"#utility.yul\":1681:1699   */\n      add\n        /* \"#utility.yul\":1673:1699   */\n      swap1\n      pop\n        /* \"#utility.yul\":1709:1796   */\n      tag_83\n        /* \"#utility.yul\":1793:1794   */\n      0x00\n        /* \"#utility.yul\":1782:1791   */\n      dup4\n        /* \"#utility.yul\":1778:1795   */\n      add\n        /* \"#utility.yul\":1769:1775   */\n      dup5\n        /* \"#utility.yul\":1709:1796   */\n      tag_68\n      jump\t// in\n    tag_83:\n        /* \"#utility.yul\":1663:1803   */\n      swap3\n      swap2\n      pop\n      pop\n      jump\t// out\n        /* \"#utility.yul\":1809:2122   */\n    tag_27:\n      0x00\n        /* \"#utility.yul\":1960:1962   */\n      0x20\n        /* \"#utility.yul\":1949:1958   */\n      dup3\n        /* \"#utility.yul\":1945:1963   */\n      add\n        /* \"#utility.yul\":1937:1963   */\n      swap1\n      pop\n        /* \"#utility.yul\":2009:2018   */\n      dup2\n        /* \"#utility.yul\":2003:2007   */\n      dup2\n        /* \"#utility.yul\":1999:2019   */\n      sub\n        /* \"#utility.yul\":1995:1996   */\n      0x00\n        /* \"#utility.yul\":1984:1993   */\n      dup4\n        /* \"#utility.yul\":1980:1997   */\n      add\n        /* \"#utility.yul\":1973:2020   */\n      mstore\n        /* \"#utility.yul\":2037:2115   */\n      tag_85\n        /* \"#utility.yul\":2110:2114   */\n      dup2\n        /* \"#utility.yul\":2101:2107   */\n      dup5\n        /* \"#utility.yul\":2037:2115   */\n      tag_72\n      jump\t// in\n    tag_85:\n        /* \"#utility.yul\":2029:2115   */\n      swap1\n      pop\n        /* \"#utility.yul\":1927:2122   */\n      swap3\n      swap2\n      pop\n      pop\n      jump\t// out\n        /* \"#utility.yul\":2128:2411   */\n    tag_56:\n      0x00\n        /* \"#utility.yul\":2194:2196   */\n      0x40\n        /* \"#utility.yul\":2188:2197   */\n      mload\n        /* \"#utility.yul\":2178:2197   */\n      swap1\n      pop\n        /* \"#utility.yul\":2236:2240   */\n      dup2\n        /* \"#utility.yul\":2228:2234   */\n      dup2\n        /* \"#utility.yul\":2224:2241   */\n      add\n        /* \"#utility.yul\":2343:2349   */\n      dup2\n        /* \"#utility.yul\":2331:2341   */\n      dup2\n        /* \"#utility.yul\":2328:2350   */\n      lt\n        /* \"#utility.yul\":2307:2325   */\n      0xffffffffffffffff\n        /* \"#utility.yul\":2295:2305   */\n      dup3\n        /* \"#utility.yul\":2292:2326   */\n      gt\n        /* \"#utility.yul\":2289:2351   */\n      or\n        /* \"#utility.yul\":2286:2288   */\n      iszero\n      tag_87\n      jumpi\n        /* \"#utility.yul\":2354:2372   */\n      tag_88\n      tag_89\n      jump\t// in\n    tag_88:\n        /* \"#utility.yul\":2286:2288   */\n    tag_87:\n        /* \"#utility.yul\":2394:2404   */\n      dup1\n        /* \"#utility.yul\":2390:2392   */\n      0x40\n        /* \"#utility.yul\":2383:2405   */\n      mstore\n        /* \"#utility.yul\":2168:2411   */\n      pop\n      swap2\n      swap1\n      pop\n      jump\t// out\n        /* \"#utility.yul\":2417:2749   */\n    tag_55:\n      0x00\n        /* \"#utility.yul\":2569:2587   */\n      0xffffffffffffffff\n        /* \"#utility.yul\":2561:2567   */\n      dup3\n        /* \"#utility.yul\":2558:2588   */\n      gt\n        /* \"#utility.yul\":2555:2557   */\n      iszero\n      tag_91\n      jumpi\n        /* \"#utility.yul\":2591:2609   */\n      tag_92\n      tag_89\n      jump\t// in\n    tag_92:\n        /* \"#utility.yul\":2555:2557   */\n    tag_91:\n        /* \"#utility.yul\":2676:2680   */\n      0x1f\n        /* \"#utility.yul\":2672:2681   */\n      not\n        /* \"#utility.yul\":2665:2669   */\n      0x1f\n        /* \"#utility.yul\":2657:2663   */\n      dup4\n        /* \"#utility.yul\":2653:2670   */\n      add\n        /* \"#utility.yul\":2649:2682   */\n      and\n        /* \"#utility.yul\":2641:2682   */\n      swap1\n      pop\n        /* \"#utility.yul\":2737:2741   */\n      0x20\n        /* \"#utility.yul\":2731:2735   */\n      dup2\n        /* \"#utility.yul\":2727:2742   */\n      add\n        /* \"#utility.yul\":2719:2742   */\n      swap1\n      pop\n        /* \"#utility.yul\":2484:2749   */\n      swap2\n      swap1\n      pop\n      jump\t// out\n        /* \"#utility.yul\":2755:2854   */\n    tag_75:\n      0x00\n        /* \"#utility.yul\":2841:2846   */\n      dup2\n        /* \"#utility.yul\":2835:2847   */\n      mload\n        /* \"#utility.yul\":2825:2847   */\n      swap1\n      pop\n        /* \"#utility.yul\":2814:2854   */\n      swap2\n      swap1\n      pop\n      jump\t// out\n        /* \"#utility.yul\":2860:3029   */\n    tag_77:\n      0x00\n        /* \"#utility.yul\":2978:2984   */\n      dup3\n        /* \"#utility.yul\":2973:2976   */\n      dup3\n        /* \"#utility.yul\":2966:2985   */\n      mstore\n        /* \"#utility.yul\":3018:3022   */\n      0x20\n        /* \"#utility.yul\":3013:3016   */\n      dup3\n        /* \"#utility.yul\":3009:3023   */\n      add\n        /* \"#utility.yul\":2994:3023   */\n      swap1\n      pop\n        /* \"#utility.yul\":2956:3029   */\n      swap3\n      swap2\n      pop\n      pop\n      jump\t// out\n        /* \"#utility.yul\":3035:3139   */\n    tag_71:\n      0x00\n        /* \"#utility.yul\":3109:3133   */\n      tag_96\n        /* \"#utility.yul\":3127:3132   */\n      dup3\n        /* \"#utility.yul\":3109:3133   */\n      tag_97\n      jump\t// in\n    tag_96:\n        /* \"#utility.yul\":3098:3133   */\n      swap1\n      pop\n        /* \"#utility.yul\":3088:3139   */\n      swap2\n      swap1\n      pop\n      jump\t// out\n        /* \"#utility.yul\":3145:3271   */\n    tag_97:\n      0x00\n        /* \"#utility.yul\":3222:3264   */\n      0xffffffffffffffffffffffffffffffffffffffff\n        /* \"#utility.yul\":3215:3220   */\n      dup3\n        /* \"#utility.yul\":3211:3265   */\n      and\n        /* \"#utility.yul\":3200:3265   */\n      swap1\n      pop\n        /* \"#utility.yul\":3190:3271   */\n      swap2\n      swap1\n      pop\n      jump\t// out\n        /* \"#utility.yul\":3277:3431   */\n    tag_59:\n        /* \"#utility.yul\":3361:3367   */\n      dup3\n        /* \"#utility.yul\":3356:3359   */\n      dup2\n        /* \"#utility.yul\":3351:3354   */\n      dup4\n        /* \"#utility.yul\":3338:3368   */\n      calldatacopy\n        /* \"#utility.yul\":3423:3424   */\n      0x00\n        /* \"#utility.yul\":3414:3420   */\n      dup4\n        /* \"#utility.yul\":3409:3412   */\n      dup4\n        /* \"#utility.yul\":3405:3421   */\n      add\n        /* \"#utility.yul\":3398:3425   */\n      mstore\n        /* \"#utility.yul\":3328:3431   */\n      pop\n      pop\n      pop\n      jump\t// out\n        /* \"#utility.yul\":3437:3744   */\n    tag_79:\n        /* \"#utility.yul\":3505:3506   */\n      0x00\n        /* \"#utility.yul\":3515:3628   */\n    tag_101:\n        /* \"#utility.yul\":3529:3535   */\n      dup4\n        /* \"#utility.yul\":3526:3527   */\n      dup2\n        /* \"#utility.yul\":3523:3536   */\n      lt\n        /* \"#utility.yul\":3515:3628   */\n      iszero\n      tag_103\n      jumpi\n        /* \"#utility.yul\":3614:3615   */\n      dup1\n        /* \"#utility.yul\":3609:3612   */\n      dup3\n        /* \"#utility.yul\":3605:3616   */\n      add\n        /* \"#utility.yul\":3599:3617   */\n      mload\n        /* \"#utility.yul\":3595:3596   */\n      dup2\n        /* \"#utility.yul\":3590:3593   */\n      dup5\n        /* \"#utility.yul\":3586:3597   */\n      add\n        /* \"#utility.yul\":3579:3618   */\n      mstore\n        /* \"#utility.yul\":3551:3553   */\n      0x20\n        /* \"#utility.yul\":3548:3549   */\n      dup2\n        /* \"#utility.yul\":3544:3554   */\n      add\n        /* \"#utility.yul\":3539:3554   */\n      swap1\n      pop\n        /* \"#utility.yul\":3515:3628   */\n      jump(tag_101)\n    tag_103:\n        /* \"#utility.yul\":3646:3652   */\n      dup4\n        /* \"#utility.yul\":3643:3644   */\n      dup2\n        /* \"#utility.yul\":3640:3653   */\n      gt\n        /* \"#utility.yul\":3637:3639   */\n      iszero\n      tag_104\n      jumpi\n        /* \"#utility.yul\":3726:3727   */\n      0x00\n        /* \"#utility.yul\":3717:3723   */\n      dup5\n        /* \"#utility.yul\":3712:3715   */\n      dup5\n        /* \"#utility.yul\":3708:3724   */\n      add\n        /* \"#utility.yul\":3701:3728   */\n      mstore\n        /* \"#utility.yul\":3637:3639   */\n    tag_104:\n        /* \"#utility.yul\":3486:3744   */\n      pop\n      pop\n      pop\n      pop\n      jump\t// out\n        /* \"#utility.yul\":3750:4070   */\n    tag_35:\n      0x00\n        /* \"#utility.yul\":3831:3832   */\n      0x02\n        /* \"#utility.yul\":3825:3829   */\n      dup3\n        /* \"#utility.yul\":3821:3833   */\n      div\n        /* \"#utility.yul\":3811:3833   */\n      swap1\n      pop\n        /* \"#utility.yul\":3878:3879   */\n      0x01\n        /* \"#utility.yul\":3872:3876   */\n      dup3\n        /* \"#utility.yul\":3868:3880   */\n      and\n        /* \"#utility.yul\":3899:3917   */\n      dup1\n        /* \"#utility.yul\":3889:3891   */\n      tag_106\n      jumpi\n        /* \"#utility.yul\":3955:3959   */\n      0x7f\n        /* \"#utility.yul\":3947:3953   */\n      dup3\n        /* \"#utility.yul\":3943:3960   */\n      and\n        /* \"#utility.yul\":3933:3960   */\n      swap2\n      pop\n        /* \"#utility.yul\":3889:3891   */\n    tag_106:\n        /* \"#utility.yul\":4017:4019   */\n      0x20\n        /* \"#utility.yul\":4009:4015   */\n      dup3\n        /* \"#utility.yul\":4006:4020   */\n      lt\n        /* \"#utility.yul\":3986:4004   */\n      dup2\n        /* \"#utility.yul\":3983:4021   */\n      eq\n        /* \"#utility.yul\":3980:3982   */\n      iszero\n      tag_107\n      jumpi\n        /* \"#utility.yul\":4036:4054   */\n      tag_108\n      tag_109\n      jump\t// in\n    tag_108:\n        /* \"#utility.yul\":3980:3982   */\n    tag_107:\n        /* \"#utility.yul\":3801:4070   */\n      pop\n      swap2\n      swap1\n      pop\n      jump\t// out\n        /* \"#utility.yul\":4076:4256   */\n    tag_109:\n        /* \"#utility.yul\":4124:4201   */\n      0x4e487b7100000000000000000000000000000000000000000000000000000000\n        /* \"#utility.yul\":4121:4122   */\n      0x00\n        /* \"#utility.yul\":4114:4202   */\n      mstore\n        /* \"#utility.yul\":4221:4225   */\n      0x22\n        /* \"#utility.yul\":4218:4219   */\n      0x04\n        /* \"#utility.yul\":4211:4226   */\n      mstore\n        /* \"#utility.yul\":4245:4249   */\n      0x24\n        /* \"#utility.yul\":4242:4243   */\n      0x00\n        /* \"#utility.yul\":4235:4250   */\n      revert\n        /* \"#utility.yul\":4262:4442   */\n    tag_89:\n        /* \"#utility.yul\":4310:4387   */\n      0x4e487b7100000000000000000000000000000000000000000000000000000000\n        /* \"#utility.yul\":4307:4308   */\n      0x00\n        /* \"#utility.yul\":4300:4388   */\n      mstore\n        /* \"#utility.yul\":4407:4411   */\n      0x41\n        /* \"#utility.yul\":4404:4405   */\n      0x04\n        /* \"#utility.yul\":4397:4412   */\n      mstore\n        /* \"#utility.yul\":4431:4435   */\n      0x24\n        /* \"#utility.yul\":4428:4429   */\n      0x00\n        /* \"#utility.yul\":4421:4436   */\n      revert\n        /* \"#utility.yul\":4448:4550   */\n    tag_81:\n      0x00\n        /* \"#utility.yul\":4540:4542   */\n      0x1f\n        /* \"#utility.yul\":4536:4543   */\n      not\n        /* \"#utility.yul\":4531:4533   */\n      0x1f\n        /* \"#utility.yul\":4524:4529   */\n      dup4\n        /* \"#utility.yul\":4520:4534   */\n      add\n        /* \"#utility.yul\":4516:4544   */\n      and\n        /* \"#utility.yul\":4506:4544   */\n      swap1\n      pop\n        /* \"#utility.yul\":4496:4550   */\n      swap2\n      swap1\n      pop\n      jump\t// out\n\n    auxdata: 0xa2646970667358221220d62dbf8e31bf182cc0b5c36c6d558a98533e1d5437c7c151ec02e60c99c3b00664736f6c63430008000033\n}\n",
				"bytecode": {
					"linkReferences": {},
					"object": "608060405234801561001057600080fd5b5061067a806100206000396000f3fe60806040526004361061004a5760003560e01c806308551a531461004f578063572d52981461007a5780637150d8ae146100a35780639ada9b7b146100ce578063bf9ce952146100d8575b600080fd5b34801561005b57600080fd5b50610064610103565b6040516100719190610475565b60405180910390f35b34801561008657600080fd5b506100a1600480360381019061009c91906103ec565b610129565b005b3480156100af57600080fd5b506100b8610184565b6040516100c59190610475565b60405180910390f35b6100d66101a8565b005b3480156100e457600080fd5b506100ed610253565b6040516100fa9190610490565b60405180910390f35b600160009054906101000a900473ffffffffffffffffffffffffffffffffffffffff1681565b806002908051906020019061013f9291906102e1565b5033600160006101000a81548173ffffffffffffffffffffffffffffffffffffffff021916908373ffffffffffffffffffffffffffffffffffffffff16021790555050565b60008054906101000a900473ffffffffffffffffffffffffffffffffffffffff1681565b336000806101000a81548173ffffffffffffffffffffffffffffffffffffffff021916908373ffffffffffffffffffffffffffffffffffffffff160217905550600160009054906101000a900473ffffffffffffffffffffffffffffffffffffffff1673ffffffffffffffffffffffffffffffffffffffff166108fc349081150290604051600060405180830381858888f19350505050158015610250573d6000803e3d6000fd5b50565b60028054610260906105a3565b80601f016020809104026020016040519081016040528092919081815260200182805461028c906105a3565b80156102d95780601f106102ae576101008083540402835291602001916102d9565b820191906000526020600020905b8154815290600101906020018083116102bc57829003601f168201915b505050505081565b8280546102ed906105a3565b90600052602060002090601f01602090048101928261030f5760008555610356565b82601f1061032857805160ff1916838001178555610356565b82800160010185558215610356579182015b8281111561035557825182559160200191906001019061033a565b5b5090506103639190610367565b5090565b5b80821115610380576000816000905550600101610368565b5090565b6000610397610392846104e3565b6104b2565b9050828152602081018484840111156103af57600080fd5b6103ba848285610561565b509392505050565b600082601f8301126103d357600080fd5b81356103e3848260208601610384565b91505092915050565b6000602082840312156103fe57600080fd5b600082013567ffffffffffffffff81111561041857600080fd5b610424848285016103c2565b91505092915050565b6104368161052f565b82525050565b600061044782610513565b610451818561051e565b9350610461818560208601610570565b61046a81610633565b840191505092915050565b600060208201905061048a600083018461042d565b92915050565b600060208201905081810360008301526104aa818461043c565b905092915050565b6000604051905081810181811067ffffffffffffffff821117156104d9576104d8610604565b5b8060405250919050565b600067ffffffffffffffff8211156104fe576104fd610604565b5b601f19601f8301169050602081019050919050565b600081519050919050565b600082825260208201905092915050565b600061053a82610541565b9050919050565b600073ffffffffffffffffffffffffffffffffffffffff82169050919050565b82818337600083830152505050565b60005b8381101561058e578082015181840152602081019050610573565b8381111561059d576000848401525b50505050565b600060028204905060018216806105bb57607f821691505b602082108114156105cf576105ce6105d5565b5b50919050565b7f4e487b7100000000000000000000000000000000000000000000000000000000600052602260045260246000fd5b7f4e487b7100000000000000000000000000000000000000000000000000000000600052604160045260246000fd5b6000601f19601f830116905091905056fea2646970667358221220d62dbf8e31bf182cc0b5c36c6d558a98533e1d5437c7c151ec02e60c99c3b00664736f6c63430008000033",
					"opcodes": "PUSH1 0x80 PUSH1 0x40 MSTORE CALLVALUE DUP1 ISZERO PUSH2 0x10 JUMPI PUSH1 0x0 DUP1 REVERT JUMPDEST POP PUSH2 0x67A DUP1 PUSH2 0x20 PUSH1 0x0 CODECOPY PUSH1 0x0 RETURN INVALID PUSH1 0x80 PUSH1 0x40 MSTORE PUSH1 0x4 CALLDATASIZE LT PUSH2 0x4A JUMPI PUSH1 0x0 CALLDATALOAD PUSH1 0xE0 SHR DUP1 PUSH4 0x8551A53 EQ PUSH2 0x4F JUMPI DUP1 PUSH4 0x572D5298 EQ PUSH2 0x7A JUMPI DUP1 PUSH4 0x7150D8AE EQ PUSH2 0xA3 JUMPI DUP1 PUSH4 0x9ADA9B7B EQ PUSH2 0xCE JUMPI DUP1 PUSH4 0xBF9CE952 EQ PUSH2 0xD8 JUMPI JUMPDEST PUSH1 0x0 DUP1 REVERT JUMPDEST CALLVALUE DUP1 ISZERO PUSH2 0x5B JUMPI PUSH1 0x0 DUP1 REVERT JUMPDEST POP PUSH2 0x64 PUSH2 0x103 JUMP JUMPDEST PUSH1 0x40 MLOAD PUSH2 0x71 SWAP2 SWAP1 PUSH2 0x475 JUMP JUMPDEST PUSH1 0x40 MLOAD DUP1 SWAP2 SUB SWAP1 RETURN JUMPDEST CALLVALUE DUP1 ISZERO PUSH2 0x86 JUMPI PUSH1 0x0 DUP1 REVERT JUMPDEST POP PUSH2 0xA1 PUSH1 0x4 DUP1 CALLDATASIZE SUB DUP2 ADD SWAP1 PUSH2 0x9C SWAP2 SWAP1 PUSH2 0x3EC JUMP JUMPDEST PUSH2 0x129 JUMP JUMPDEST STOP JUMPDEST CALLVALUE DUP1 ISZERO PUSH2 0xAF JUMPI PUSH1 0x0 DUP1 REVERT JUMPDEST POP PUSH2 0xB8 PUSH2 0x184 JUMP JUMPDEST PUSH1 0x40 MLOAD PUSH2 0xC5 SWAP2 SWAP1 PUSH2 0x475 JUMP JUMPDEST PUSH1 0x40 MLOAD DUP1 SWAP2 SUB SWAP1 RETURN JUMPDEST PUSH2 0xD6 PUSH2 0x1A8 JUMP JUMPDEST STOP JUMPDEST CALLVALUE DUP1 ISZERO PUSH2 0xE4 JUMPI PUSH1 0x0 DUP1 REVERT JUMPDEST POP PUSH2 0xED PUSH2 0x253 JUMP JUMPDEST PUSH1 0x40 MLOAD PUSH2 0xFA SWAP2 SWAP1 PUSH2 0x490 JUMP JUMPDEST PUSH1 0x40 MLOAD DUP1 SWAP2 SUB SWAP1 RETURN JUMPDEST PUSH1 0x1 PUSH1 0x0 SWAP1 SLOAD SWAP1 PUSH2 0x100 EXP SWAP1 DIV PUSH20 0xFFFFFFFFFFFFFFFFFFFFFFFFFFFFFFFFFFFFFFFF AND DUP2 JUMP JUMPDEST DUP1 PUSH1 0x2 SWAP1 DUP1 MLOAD SWAP1 PUSH1 0x20 ADD SWAP1 PUSH2 0x13F SWAP3 SWAP2 SWAP1 PUSH2 0x2E1 JUMP JUMPDEST POP CALLER PUSH1 0x1 PUSH1 0x0 PUSH2 0x100 EXP DUP2 SLOAD DUP2 PUSH20 0xFFFFFFFFFFFFFFFFFFFFFFFFFFFFFFFFFFFFFFFF MUL NOT AND SWAP1 DUP4 PUSH20 0xFFFFFFFFFFFFFFFFFFFFFFFFFFFFFFFFFFFFFFFF AND MUL OR SWAP1 SSTORE POP POP JUMP JUMPDEST PUSH1 0x0 DUP1 SLOAD SWAP1 PUSH2 0x100 EXP SWAP1 DIV PUSH20 0xFFFFFFFFFFFFFFFFFFFFFFFFFFFFFFFFFFFFFFFF AND DUP2 JUMP JUMPDEST CALLER PUSH1 0x0 DUP1 PUSH2 0x100 EXP DUP2 SLOAD DUP2 PUSH20 0xFFFFFFFFFFFFFFFFFFFFFFFFFFFFFFFFFFFFFFFF MUL NOT AND SWAP1 DUP4 PUSH20 0xFFFFFFFFFFFFFFFFFFFFFFFFFFFFFFFFFFFFFFFF AND MUL OR SWAP1 SSTORE POP PUSH1 0x1 PUSH1 0x0 SWAP1 SLOAD SWAP1 PUSH2 0x100 EXP SWAP1 DIV PUSH20 0xFFFFFFFFFFFFFFFFFFFFFFFFFFFFFFFFFFFFFFFF AND PUSH20 0xFFFFFFFFFFFFFFFFFFFFFFFFFFFFFFFFFFFFFFFF AND PUSH2 0x8FC CALLVALUE SWAP1 DUP2 ISZERO MUL SWAP1 PUSH1 0x40 MLOAD PUSH1 0x0 PUSH1 0x40 MLOAD DUP1 DUP4 SUB DUP2 DUP6 DUP9 DUP9 CALL SWAP4 POP POP POP POP ISZERO DUP1 ISZERO PUSH2 0x250 JUMPI RETURNDATASIZE PUSH1 0x0 DUP1 RETURNDATACOPY RETURNDATASIZE PUSH1 0x0 REVERT JUMPDEST POP JUMP JUMPDEST PUSH1 0x2 DUP1 SLOAD PUSH2 0x260 SWAP1 PUSH2 0x5A3 JUMP JUMPDEST DUP1 PUSH1 0x1F ADD PUSH1 0x20 DUP1 SWAP2 DIV MUL PUSH1 0x20 ADD PUSH1 0x40 MLOAD SWAP1 DUP2 ADD PUSH1 0x40 MSTORE DUP1 SWAP3 SWAP2 SWAP1 DUP2 DUP2 MSTORE PUSH1 0x20 ADD DUP3 DUP1 SLOAD PUSH2 0x28C SWAP1 PUSH2 0x5A3 JUMP JUMPDEST DUP1 ISZERO PUSH2 0x2D9 JUMPI DUP1 PUSH1 0x1F LT PUSH2 0x2AE JUMPI PUSH2 0x100 DUP1 DUP4 SLOAD DIV MUL DUP4 MSTORE SWAP2 PUSH1 0x20 ADD SWAP2 PUSH2 0x2D9 JUMP JUMPDEST DUP3 ADD SWAP2 SWAP1 PUSH1 0x0 MSTORE PUSH1 0x20 PUSH1 0x0 KECCAK256 SWAP1 JUMPDEST DUP2 SLOAD DUP2 MSTORE SWAP1 PUSH1 0x1 ADD SWAP1 PUSH1 0x20 ADD DUP1 DUP4 GT PUSH2 0x2BC JUMPI DUP3 SWAP1 SUB PUSH1 0x1F AND DUP3 ADD SWAP2 JUMPDEST POP POP POP POP POP DUP2 JUMP JUMPDEST DUP3 DUP1 SLOAD PUSH2 0x2ED SWAP1 PUSH2 0x5A3 JUMP JUMPDEST SWAP1 PUSH1 0x0 MSTORE PUSH1 0x20 PUSH1 0x0 KECCAK256 SWAP1 PUSH1 0x1F ADD PUSH1 0x20 SWAP1 DIV DUP2 ADD SWAP3 DUP3 PUSH2 0x30F JUMPI PUSH1 0x0 DUP6 SSTORE PUSH2 0x356 JUMP JUMPDEST DUP3 PUSH1 0x1F LT PUSH2 0x328 JUMPI DUP1 MLOAD PUSH1 0xFF NOT AND DUP4 DUP1 ADD OR DUP6 SSTORE PUSH2 0x356 JUMP JUMPDEST DUP3 DUP1 ADD PUSH1 0x1 ADD DUP6 SSTORE DUP3 ISZERO PUSH2 0x356 JUMPI SWAP2 DUP3 ADD JUMPDEST DUP3 DUP2 GT ISZERO PUSH2 0x355 JUMPI DUP3 MLOAD DUP3 SSTORE SWAP2 PUSH1 0x20 ADD SWAP2 SWAP1 PUSH1 0x1 ADD SWAP1 PUSH2 0x33A JUMP JUMPDEST JUMPDEST POP SWAP1 POP PUSH2 0x363 SWAP2 SWAP1 PUSH2 0x367 JUMP JUMPDEST POP SWAP1 JUMP JUMPDEST JUMPDEST DUP1 DUP3 GT ISZERO PUSH2 0x380 JUMPI PUSH1 0x0 DUP2 PUSH1 0x0 SWAP1 SSTORE POP PUSH1 0x1 ADD PUSH2 0x368 JUMP JUMPDEST POP SWAP1 JUMP JUMPDEST PUSH1 0x0 PUSH2 0x397 PUSH2 0x392 DUP5 PUSH2 0x4E3 JUMP JUMPDEST PUSH2 0x4B2 JUMP JUMPDEST SWAP1 POP DUP3 DUP2 MSTORE PUSH1 0x20 DUP2 ADD DUP5 DUP5 DUP5 ADD GT ISZERO PUSH2 0x3AF JUMPI PUSH1 0x0 DUP1 REVERT JUMPDEST PUSH2 0x3BA DUP5 DUP3 DUP6 PUSH2 0x561 JUMP JUMPDEST POP SWAP4 SWAP3 POP POP POP JUMP JUMPDEST PUSH1 0x0 DUP3 PUSH1 0x1F DUP4 ADD SLT PUSH2 0x3D3 JUMPI PUSH1 0x0 DUP1 REVERT JUMPDEST DUP2 CALLDATALOAD PUSH2 0x3E3 DUP5 DUP3 PUSH1 0x20 DUP7 ADD PUSH2 0x384 JUMP JUMPDEST SWAP2 POP POP SWAP3 SWAP2 POP POP JUMP JUMPDEST PUSH1 0x0 PUSH1 0x20 DUP3 DUP5 SUB SLT ISZERO PUSH2 0x3FE JUMPI PUSH1 0x0 DUP1 REVERT JUMPDEST PUSH1 0x0 DUP3 ADD CALLDATALOAD PUSH8 0xFFFFFFFFFFFFFFFF DUP2 GT ISZERO PUSH2 0x418 JUMPI PUSH1 0x0 DUP1 REVERT JUMPDEST PUSH2 0x424 DUP5 DUP3 DUP6 ADD PUSH2 0x3C2 JUMP JUMPDEST SWAP2 POP POP SWAP3 SWAP2 POP POP JUMP JUMPDEST PUSH2 0x436 DUP2 PUSH2 0x52F JUMP JUMPDEST DUP3 MSTORE POP POP JUMP JUMPDEST PUSH1 0x0 PUSH2 0x447 DUP3 PUSH2 0x513 JUMP JUMPDEST PUSH2 0x451 DUP2 DUP6 PUSH2 0x51E JUMP JUMPDEST SWAP4 POP PUSH2 0x461 DUP2 DUP6 PUSH1 0x20 DUP7 ADD PUSH2 0x570 JUMP JUMPDEST PUSH2 0x46A DUP2 PUSH2 0x633 JUMP JUMPDEST DUP5 ADD SWAP2 POP POP SWAP3 SWAP2 POP POP JUMP JUMPDEST PUSH1 0x0 PUSH1 0x20 DUP3 ADD SWAP1 POP PUSH2 0x48A PUSH1 0x0 DUP4 ADD DUP5 PUSH2 0x42D JUMP JUMPDEST SWAP3 SWAP2 POP POP JUMP JUMPDEST PUSH1 0x0 PUSH1 0x20 DUP3 ADD SWAP1 POP DUP2 DUP2 SUB PUSH1 0x0 DUP4 ADD MSTORE PUSH2 0x4AA DUP2 DUP5 PUSH2 0x43C JUMP JUMPDEST SWAP1 POP SWAP3 SWAP2 POP POP JUMP JUMPDEST PUSH1 0x0 PUSH1 0x40 MLOAD SWAP1 POP DUP2 DUP2 ADD DUP2 DUP2 LT PUSH8 0xFFFFFFFFFFFFFFFF DUP3 GT OR ISZERO PUSH2 0x4D9 JUMPI PUSH2 0x4D8 PUSH2 0x604 JUMP JUMPDEST JUMPDEST DUP1 PUSH1 0x40 MSTORE POP SWAP2 SWAP1 POP JUMP JUMPDEST PUSH1 0x0 PUSH8 0xFFFFFFFFFFFFFFFF DUP3 GT ISZERO PUSH2 0x4FE JUMPI PUSH2 0x4FD PUSH2 0x604 JUMP JUMPDEST JUMPDEST PUSH1 0x1F NOT PUSH1 0x1F DUP4 ADD AND SWAP1 POP PUSH1 0x20 DUP2 ADD SWAP1 POP SWAP2 SWAP1 POP JUMP JUMPDEST PUSH1 0x0 DUP2 MLOAD SWAP1 POP SWAP2 SWAP1 POP JUMP JUMPDEST PUSH1 0x0 DUP3 DUP3 MSTORE PUSH1 0x20 DUP3 ADD SWAP1 POP SWAP3 SWAP2 POP POP JUMP JUMPDEST PUSH1 0x0 PUSH2 0x53A DUP3 PUSH2 0x541 JUMP JUMPDEST SWAP1 POP SWAP2 SWAP1 POP JUMP JUMPDEST PUSH1 0x0 PUSH20 0xFFFFFFFFFFFFFFFFFFFFFFFFFFFFFFFFFFFFFFFF DUP3 AND SWAP1 POP SWAP2 SWAP1 POP JUMP JUMPDEST DUP3 DUP2 DUP4 CALLDATACOPY PUSH1 0x0 DUP4 DUP4 ADD MSTORE POP POP POP JUMP JUMPDEST PUSH1 0x0 JUMPDEST DUP4 DUP2 LT ISZERO PUSH2 0x58E JUMPI DUP1 DUP3 ADD MLOAD DUP2 DUP5 ADD MSTORE PUSH1 0x20 DUP2 ADD SWAP1 POP PUSH2 0x573 JUMP JUMPDEST DUP4 DUP2 GT ISZERO PUSH2 0x59D JUMPI PUSH1 0x0 DUP5 DUP5 ADD MSTORE JUMPDEST POP POP POP POP JUMP JUMPDEST PUSH1 0x0 PUSH1 0x2 DUP3 DIV SWAP1 POP PUSH1 0x1 DUP3 AND DUP1 PUSH2 0x5BB JUMPI PUSH1 0x7F DUP3 AND SWAP2 POP JUMPDEST PUSH1 0x20 DUP3 LT DUP2 EQ ISZERO PUSH2 0x5CF JUMPI PUSH2 0x5CE PUSH2 0x5D5 JUMP JUMPDEST JUMPDEST POP SWAP2 SWAP1 POP JUMP JUMPDEST PUSH32 0x4E487B7100000000000000000000000000000000000000000000000000000000 PUSH1 0x0 MSTORE PUSH1 0x22 PUSH1 0x4 MSTORE PUSH1 0x24 PUSH1 0x0 REVERT JUMPDEST PUSH32 0x4E487B7100000000000000000000000000000000000000000000000000000000 PUSH1 0x0 MSTORE PUSH1 0x41 PUSH1 0x4 MSTORE PUSH1 0x24 PUSH1 0x0 REVERT JUMPDEST PUSH1 0x0 PUSH1 0x1F NOT PUSH1 0x1F DUP4 ADD AND SWAP1 POP SWAP2 SWAP1 POP JUMP INVALID LOG2 PUSH5 0x6970667358 0x22 SLT KECCAK256 0xD6 0x2D 0xBF DUP15 BALANCE 0xBF XOR 0x2C 0xC0 0xB5 0xC3 PUSH13 0x6D558A98533E1D5437C7C151EC MUL 0xE6 0xC SWAP10 0xC3 0xB0 MOD PUSH5 0x736F6C6343 STOP ADDMOD STOP STOP CALLER "
				},
				"gasEstimates": {
					"creation": {
						"codeDepositCost": "331600",
						"executionCost": "368",
						"totalCost": "331968"
					},
					"external": {
						"buyProduct()": "infinite",
						"buyer()": "1233",
						"product()": "infinite",
						"seller()": "1192",
						"setProduct(string)": "infinite"
					}
				},
				"methodIdentifiers": {
					"buyProduct()": "9ada9b7b",
					"buyer()": "7150d8ae",
					"product()": "bf9ce952",
					"seller()": "08551a53",
					"setProduct(string)": "572d5298"
				}
			},
			"storageLayout": {
				"storage": [
					{
						"astId": 3,
						"contract": "bc-lab6/transfer.sol:transfer",
						"label": "buyer",
						"offset": 0,
						"slot": "0",
						"type": "t_address_payable"
					},
					{
						"astId": 5,
						"contract": "bc-lab6/transfer.sol:transfer",
						"label": "seller",
						"offset": 0,
						"slot": "1",
						"type": "t_address_payable"
					},
					{
						"astId": 7,
						"contract": "bc-lab6/transfer.sol:transfer",
						"label": "product",
						"offset": 0,
						"slot": "2",
						"type": "t_string_storage"
					}
				],
				"types": {
					"t_address_payable": {
						"encoding": "inplace",
						"label": "address payable",
						"numberOfBytes": "20"
					},
					"t_string_storage": {
						"encoding": "bytes",
						"label": "string",
						"numberOfBytes": "32"
					}
				}
			},
			"userdoc": {
				"kind": "user",
				"methods": {},
				"version": 1
			}
		}
	}
}