{
	"bc-lab6/myContractStruct2.sol": {
		"myContractMapping": {
			"abi": [
				{
					"inputs": [],
					"stateMutability": "nonpayable",
					"type": "constructor"
				},
				{
					"inputs": [
						{
							"internalType": "string",
							"name": "_firstName",
							"type": "string"
						},
						{
							"internalType": "string",
							"name": "_lastName",
							"type": "string"
						}
					],
					"name": "addPerson",
					"outputs": [],
					"stateMutability": "nonpayable",
					"type": "function"
				},
				{
					"inputs": [
						{
							"internalType": "uint256",
							"name": "",
							"type": "uint256"
						}
					],
					"name": "people",
					"outputs": [
						{
							"internalType": "uint256",
							"name": "_id",
							"type": "uint256"
						},
						{
							"internalType": "string",
							"name": "_firstName",
							"type": "string"
						},
						{
							"internalType": "string",
							"name": "_lastName",
							"type": "string"
						}
					],
					"stateMutability": "view",
					"type": "function"
				},
				{
					"inputs": [],
					"name": "peopleCount",
					"outputs": [
						{
							"internalType": "uint256",
							"name": "",
							"type": "uint256"
						}
					],
					"stateMutability": "view",
					"type": "function"
				}
			],
			"devdoc": {
				"kind": "dev",
				"methods": {},
				"version": 1
			},
			"evm": {
				"assembly": "    /* \"bc-lab6/myContractStruct2.sol\":60:523  contract myContractMapping {\r... */\n  mstore(0x40, 0x80)\n    /* \"bc-lab6/myContractStruct2.sol\":279:327  constructor() {\r... */\n  callvalue\n  dup1\n  iszero\n  tag_1\n  jumpi\n  0x00\n  dup1\n  revert\ntag_1:\n  pop\n    /* \"bc-lab6/myContractStruct2.sol\":318:319  1 */\n  0x01\n    /* \"bc-lab6/myContractStruct2.sol\":304:315  peopleCount */\n  dup1\n    /* \"bc-lab6/myContractStruct2.sol\":304:319  peopleCount = 1 */\n  dup2\n  swap1\n  sstore\n  pop\n    /* \"bc-lab6/myContractStruct2.sol\":60:523  contract myContractMapping {\r... */\n  dataSize(sub_0)\n  dup1\n  dataOffset(sub_0)\n  0x00\n  codecopy\n  0x00\n  return\nstop\n\nsub_0: assembly {\n        /* \"bc-lab6/myContractStruct2.sol\":60:523  contract myContractMapping {\r... */\n      mstore(0x40, 0x80)\n      callvalue\n      dup1\n      iszero\n      tag_1\n      jumpi\n      0x00\n      dup1\n      revert\n    tag_1:\n      pop\n      jumpi(tag_2, lt(calldatasize, 0x04))\n      shr(0xe0, calldataload(0x00))\n      dup1\n      0x22f5b58d\n      eq\n      tag_3\n      jumpi\n      dup1\n      0x267c68e0\n      eq\n      tag_4\n      jumpi\n      dup1\n      0x9e7a13ad\n      eq\n      tag_5\n      jumpi\n    tag_2:\n      0x00\n      dup1\n      revert\n        /* \"bc-lab6/myContractStruct2.sol\":335:520  function addPerson(string memory _firstName, string memory _lastName) public {\r... */\n    tag_3:\n      tag_6\n      0x04\n      dup1\n      calldatasize\n      sub\n      dup2\n      add\n      swap1\n      tag_7\n      swap2\n      swap1\n      tag_8\n      jump\t// in\n    tag_7:\n      tag_9\n      jump\t// in\n    tag_6:\n      stop\n        /* \"bc-lab6/myContractStruct2.sol\":243:269  uint256 public peopleCount */\n    tag_4:\n      tag_10\n      tag_11\n      jump\t// in\n    tag_10:\n      mload(0x40)\n      tag_12\n      swap2\n      swap1\n      tag_13\n      jump\t// in\n    tag_12:\n      mload(0x40)\n      dup1\n      swap2\n      sub\n      swap1\n      return\n        /* \"bc-lab6/myContractStruct2.sol\":198:236  mapping (uint => Person) public people */\n    tag_5:\n      tag_14\n      0x04\n      dup1\n      calldatasize\n      sub\n      dup2\n      add\n      swap1\n      tag_15\n      swap2\n      swap1\n      tag_16\n      jump\t// in\n    tag_15:\n      tag_17\n      jump\t// in\n    tag_14:\n      mload(0x40)\n      tag_18\n      swap4\n      swap3\n      swap2\n      swap1\n      tag_19\n      jump\t// in\n    tag_18:\n      mload(0x40)\n      dup1\n      swap2\n      sub\n      swap1\n      return\n        /* \"bc-lab6/myContractStruct2.sol\":335:520  function addPerson(string memory _firstName, string memory _lastName) public {\r... */\n    tag_9:\n        /* \"bc-lab6/myContractStruct2.sol\":445:487  Person(peopleCount, _firstName, _lastName) */\n      mload(0x40)\n      dup1\n      0x60\n      add\n      0x40\n      mstore\n      dup1\n        /* \"bc-lab6/myContractStruct2.sol\":452:463  peopleCount */\n      sload(0x01)\n        /* \"bc-lab6/myContractStruct2.sol\":445:487  Person(peopleCount, _firstName, _lastName) */\n      dup2\n      mstore\n      0x20\n      add\n        /* \"bc-lab6/myContractStruct2.sol\":465:475  _firstName */\n      dup4\n        /* \"bc-lab6/myContractStruct2.sol\":445:487  Person(peopleCount, _firstName, _lastName) */\n      dup2\n      mstore\n      0x20\n      add\n        /* \"bc-lab6/myContractStruct2.sol\":477:486  _lastName */\n      dup3\n        /* \"bc-lab6/myContractStruct2.sol\":445:487  Person(peopleCount, _firstName, _lastName) */\n      dup2\n      mstore\n      pop\n        /* \"bc-lab6/myContractStruct2.sol\":423:429  people */\n      0x00\n        /* \"bc-lab6/myContractStruct2.sol\":423:442  people[peopleCount] */\n      dup1\n        /* \"bc-lab6/myContractStruct2.sol\":430:441  peopleCount */\n      sload(0x01)\n        /* \"bc-lab6/myContractStruct2.sol\":423:442  people[peopleCount] */\n      dup2\n      mstore\n      0x20\n      add\n      swap1\n      dup2\n      mstore\n      0x20\n      add\n      0x00\n      keccak256\n        /* \"bc-lab6/myContractStruct2.sol\":423:487  people[peopleCount] = Person(peopleCount, _firstName, _lastName) */\n      0x00\n      dup3\n      add\n      mload\n      dup2\n      0x00\n      add\n      sstore\n      0x20\n      dup3\n      add\n      mload\n      dup2\n      0x01\n      add\n      swap1\n      dup1\n      mload\n      swap1\n      0x20\n      add\n      swap1\n      tag_21\n      swap3\n      swap2\n      swap1\n      tag_22\n      jump\t// in\n    tag_21:\n      pop\n      0x40\n      dup3\n      add\n      mload\n      dup2\n      0x02\n      add\n      swap1\n      dup1\n      mload\n      swap1\n      0x20\n      add\n      swap1\n      tag_23\n      swap3\n      swap2\n      swap1\n      tag_22\n      jump\t// in\n    tag_23:\n      pop\n      swap1\n      pop\n      pop\n        /* \"bc-lab6/myContractStruct2.sol\":498:509  peopleCount */\n      0x01\n      0x00\n        /* \"bc-lab6/myContractStruct2.sol\":498:512  peopleCount ++ */\n      dup2\n      sload\n      dup1\n      swap3\n      swap2\n      swap1\n      tag_24\n      swap1\n      tag_25\n      jump\t// in\n    tag_24:\n      swap2\n      swap1\n      pop\n      sstore\n      pop\n        /* \"bc-lab6/myContractStruct2.sol\":335:520  function addPerson(string memory _firstName, string memory _lastName) public {\r... */\n      pop\n      pop\n      jump\t// out\n        /* \"bc-lab6/myContractStruct2.sol\":243:269  uint256 public peopleCount */\n    tag_11:\n      sload(0x01)\n      dup2\n      jump\t// out\n        /* \"bc-lab6/myContractStruct2.sol\":198:236  mapping (uint => Person) public people */\n    tag_17:\n      mstore(0x20, 0x00)\n      dup1\n      0x00\n      mstore\n      keccak256(0x00, 0x40)\n      0x00\n      swap2\n      pop\n      swap1\n      pop\n      dup1\n      0x00\n      add\n      sload\n      swap1\n      dup1\n      0x01\n      add\n      dup1\n      sload\n      tag_26\n      swap1\n      tag_27\n      jump\t// in\n    tag_26:\n      dup1\n      0x1f\n      add\n      0x20\n      dup1\n      swap2\n      div\n      mul\n      0x20\n      add\n      mload(0x40)\n      swap1\n      dup2\n      add\n      0x40\n      mstore\n      dup1\n      swap3\n      swap2\n      swap1\n      dup2\n      dup2\n      mstore\n      0x20\n      add\n      dup3\n      dup1\n      sload\n      tag_28\n      swap1\n      tag_27\n      jump\t// in\n    tag_28:\n      dup1\n      iszero\n      tag_29\n      jumpi\n      dup1\n      0x1f\n      lt\n      tag_30\n      jumpi\n      0x0100\n      dup1\n      dup4\n      sload\n      div\n      mul\n      dup4\n      mstore\n      swap2\n      0x20\n      add\n      swap2\n      jump(tag_29)\n    tag_30:\n      dup3\n      add\n      swap2\n      swap1\n      0x00\n      mstore\n      keccak256(0x00, 0x20)\n      swap1\n    tag_31:\n      dup2\n      sload\n      dup2\n      mstore\n      swap1\n      0x01\n      add\n      swap1\n      0x20\n      add\n      dup1\n      dup4\n      gt\n      tag_31\n      jumpi\n      dup3\n      swap1\n      sub\n      0x1f\n      and\n      dup3\n      add\n      swap2\n    tag_29:\n      pop\n      pop\n      pop\n      pop\n      pop\n      swap1\n      dup1\n      0x02\n      add\n      dup1\n      sload\n      tag_32\n      swap1\n      tag_27\n      jump\t// in\n    tag_32:\n      dup1\n      0x1f\n      add\n      0x20\n      dup1\n      swap2\n      div\n      mul\n      0x20\n      add\n      mload(0x40)\n      swap1\n      dup2\n      add\n      0x40\n      mstore\n      dup1\n      swap3\n      swap2\n      swap1\n      dup2\n      dup2\n      mstore\n      0x20\n      add\n      dup3\n      dup1\n      sload\n      tag_33\n      swap1\n      tag_27\n      jump\t// in\n    tag_33:\n      dup1\n      iszero\n      tag_34\n      jumpi\n      dup1\n      0x1f\n      lt\n      tag_35\n      jumpi\n      0x0100\n      dup1\n      dup4\n      sload\n      div\n      mul\n      dup4\n      mstore\n      swap2\n      0x20\n      add\n      swap2\n      jump(tag_34)\n    tag_35:\n      dup3\n      add\n      swap2\n      swap1\n      0x00\n      mstore\n      keccak256(0x00, 0x20)\n      swap1\n    tag_36:\n      dup2\n      sload\n      dup2\n      mstore\n      swap1\n      0x01\n      add\n      swap1\n      0x20\n      add\n      dup1\n      dup4\n      gt\n      tag_36\n      jumpi\n      dup3\n      swap1\n      sub\n      0x1f\n      and\n      dup3\n      add\n      swap2\n    tag_34:\n      pop\n      pop\n      pop\n      pop\n      pop\n      swap1\n      pop\n      dup4\n      jump\t// out\n    tag_22:\n      dup3\n      dup1\n      sload\n      tag_37\n      swap1\n      tag_27\n      jump\t// in\n    tag_37:\n      swap1\n      0x00\n      mstore\n      keccak256(0x00, 0x20)\n      swap1\n      0x1f\n      add\n      0x20\n      swap1\n      div\n      dup2\n      add\n      swap3\n      dup3\n      tag_39\n      jumpi\n      0x00\n      dup6\n      sstore\n      jump(tag_38)\n    tag_39:\n      dup3\n      0x1f\n      lt\n      tag_40\n      jumpi\n      dup1\n      mload\n      not(0xff)\n      and\n      dup4\n      dup1\n      add\n      or\n      dup6\n      sstore\n      jump(tag_38)\n    tag_40:\n      dup3\n      dup1\n      add\n      0x01\n      add\n      dup6\n      sstore\n      dup3\n      iszero\n      tag_38\n      jumpi\n      swap2\n      dup3\n      add\n    tag_41:\n      dup3\n      dup2\n      gt\n      iszero\n      tag_42\n      jumpi\n      dup3\n      mload\n      dup3\n      sstore\n      swap2\n      0x20\n      add\n      swap2\n      swap1\n      0x01\n      add\n      swap1\n      jump(tag_41)\n    tag_42:\n    tag_38:\n      pop\n      swap1\n      pop\n      tag_43\n      swap2\n      swap1\n      tag_44\n      jump\t// in\n    tag_43:\n      pop\n      swap1\n      jump\t// out\n    tag_44:\n    tag_45:\n      dup1\n      dup3\n      gt\n      iszero\n      tag_46\n      jumpi\n      0x00\n      dup2\n      0x00\n      swap1\n      sstore\n      pop\n      0x01\n      add\n      jump(tag_45)\n    tag_46:\n      pop\n      swap1\n      jump\t// out\n        /* \"#utility.yul\":7:352   */\n    tag_48:\n      0x00\n        /* \"#utility.yul\":110:176   */\n      tag_50\n        /* \"#utility.yul\":126:175   */\n      tag_51\n        /* \"#utility.yul\":168:174   */\n      dup5\n        /* \"#utility.yul\":126:175   */\n      tag_52\n      jump\t// in\n    tag_51:\n        /* \"#utility.yul\":110:176   */\n      tag_53\n      jump\t// in\n    tag_50:\n        /* \"#utility.yul\":101:176   */\n      swap1\n      pop\n        /* \"#utility.yul\":199:205   */\n      dup3\n        /* \"#utility.yul\":192:197   */\n      dup2\n        /* \"#utility.yul\":185:206   */\n      mstore\n        /* \"#utility.yul\":237:241   */\n      0x20\n        /* \"#utility.yul\":230:235   */\n      dup2\n        /* \"#utility.yul\":226:242   */\n      add\n        /* \"#utility.yul\":275:278   */\n      dup5\n        /* \"#utility.yul\":266:272   */\n      dup5\n        /* \"#utility.yul\":261:264   */\n      dup5\n        /* \"#utility.yul\":257:273   */\n      add\n        /* \"#utility.yul\":254:279   */\n      gt\n        /* \"#utility.yul\":251:253   */\n      iszero\n      tag_54\n      jumpi\n        /* \"#utility.yul\":292:293   */\n      0x00\n        /* \"#utility.yul\":289:290   */\n      dup1\n        /* \"#utility.yul\":282:294   */\n      revert\n        /* \"#utility.yul\":251:253   */\n    tag_54:\n        /* \"#utility.yul\":305:346   */\n      tag_55\n        /* \"#utility.yul\":339:345   */\n      dup5\n        /* \"#utility.yul\":334:337   */\n      dup3\n        /* \"#utility.yul\":329:332   */\n      dup6\n        /* \"#utility.yul\":305:346   */\n      tag_56\n      jump\t// in\n    tag_55:\n        /* \"#utility.yul\":91:352   */\n      pop\n      swap4\n      swap3\n      pop\n      pop\n      pop\n      jump\t// out\n        /* \"#utility.yul\":372:645   */\n    tag_57:\n      0x00\n        /* \"#utility.yul\":477:480   */\n      dup3\n        /* \"#utility.yul\":470:474   */\n      0x1f\n        /* \"#utility.yul\":462:468   */\n      dup4\n        /* \"#utility.yul\":458:475   */\n      add\n        /* \"#utility.yul\":454:481   */\n      slt\n        /* \"#utility.yul\":444:446   */\n      tag_59\n      jumpi\n        /* \"#utility.yul\":495:496   */\n      0x00\n        /* \"#utility.yul\":492:493   */\n      dup1\n        /* \"#utility.yul\":485:497   */\n      revert\n        /* \"#utility.yul\":444:446   */\n    tag_59:\n        /* \"#utility.yul\":535:541   */\n      dup2\n        /* \"#utility.yul\":522:542   */\n      calldataload\n        /* \"#utility.yul\":560:639   */\n      tag_60\n        /* \"#utility.yul\":635:638   */\n      dup5\n        /* \"#utility.yul\":627:633   */\n      dup3\n        /* \"#utility.yul\":620:624   */\n      0x20\n        /* \"#utility.yul\":612:618   */\n      dup7\n        /* \"#utility.yul\":608:625   */\n      add\n        /* \"#utility.yul\":560:639   */\n      tag_48\n      jump\t// in\n    tag_60:\n        /* \"#utility.yul\":551:639   */\n      swap2\n      pop\n        /* \"#utility.yul\":434:645   */\n      pop\n      swap3\n      swap2\n      pop\n      pop\n      jump\t// out\n        /* \"#utility.yul\":651:790   */\n    tag_61:\n      0x00\n        /* \"#utility.yul\":735:741   */\n      dup2\n        /* \"#utility.yul\":722:742   */\n      calldataload\n        /* \"#utility.yul\":713:742   */\n      swap1\n      pop\n        /* \"#utility.yul\":751:784   */\n      tag_63\n        /* \"#utility.yul\":778:783   */\n      dup2\n        /* \"#utility.yul\":751:784   */\n      tag_64\n      jump\t// in\n    tag_63:\n        /* \"#utility.yul\":703:790   */\n      swap3\n      swap2\n      pop\n      pop\n      jump\t// out\n        /* \"#utility.yul\":796:1429   */\n    tag_8:\n      0x00\n      dup1\n        /* \"#utility.yul\":941:943   */\n      0x40\n        /* \"#utility.yul\":929:938   */\n      dup4\n        /* \"#utility.yul\":920:927   */\n      dup6\n        /* \"#utility.yul\":916:939   */\n      sub\n        /* \"#utility.yul\":912:944   */\n      slt\n        /* \"#utility.yul\":909:911   */\n      iszero\n      tag_66\n      jumpi\n        /* \"#utility.yul\":957:958   */\n      0x00\n        /* \"#utility.yul\":954:955   */\n      dup1\n        /* \"#utility.yul\":947:959   */\n      revert\n        /* \"#utility.yul\":909:911   */\n    tag_66:\n        /* \"#utility.yul\":1028:1029   */\n      0x00\n        /* \"#utility.yul\":1017:1026   */\n      dup4\n        /* \"#utility.yul\":1013:1030   */\n      add\n        /* \"#utility.yul\":1000:1031   */\n      calldataload\n        /* \"#utility.yul\":1058:1076   */\n      0xffffffffffffffff\n        /* \"#utility.yul\":1050:1056   */\n      dup2\n        /* \"#utility.yul\":1047:1077   */\n      gt\n        /* \"#utility.yul\":1044:1046   */\n      iszero\n      tag_67\n      jumpi\n        /* \"#utility.yul\":1090:1091   */\n      0x00\n        /* \"#utility.yul\":1087:1088   */\n      dup1\n        /* \"#utility.yul\":1080:1092   */\n      revert\n        /* \"#utility.yul\":1044:1046   */\n    tag_67:\n        /* \"#utility.yul\":1118:1181   */\n      tag_68\n        /* \"#utility.yul\":1173:1180   */\n      dup6\n        /* \"#utility.yul\":1164:1170   */\n      dup3\n        /* \"#utility.yul\":1153:1162   */\n      dup7\n        /* \"#utility.yul\":1149:1171   */\n      add\n        /* \"#utility.yul\":1118:1181   */\n      tag_57\n      jump\t// in\n    tag_68:\n        /* \"#utility.yul\":1108:1181   */\n      swap3\n      pop\n        /* \"#utility.yul\":971:1191   */\n      pop\n        /* \"#utility.yul\":1258:1260   */\n      0x20\n        /* \"#utility.yul\":1247:1256   */\n      dup4\n        /* \"#utility.yul\":1243:1261   */\n      add\n        /* \"#utility.yul\":1230:1262   */\n      calldataload\n        /* \"#utility.yul\":1289:1307   */\n      0xffffffffffffffff\n        /* \"#utility.yul\":1281:1287   */\n      dup2\n        /* \"#utility.yul\":1278:1308   */\n      gt\n        /* \"#utility.yul\":1275:1277   */\n      iszero\n      tag_69\n      jumpi\n        /* \"#utility.yul\":1321:1322   */\n      0x00\n        /* \"#utility.yul\":1318:1319   */\n      dup1\n        /* \"#utility.yul\":1311:1323   */\n      revert\n        /* \"#utility.yul\":1275:1277   */\n    tag_69:\n        /* \"#utility.yul\":1349:1412   */\n      tag_70\n        /* \"#utility.yul\":1404:1411   */\n      dup6\n        /* \"#utility.yul\":1395:1401   */\n      dup3\n        /* \"#utility.yul\":1384:1393   */\n      dup7\n        /* \"#utility.yul\":1380:1402   */\n      add\n        /* \"#utility.yul\":1349:1412   */\n      tag_57\n      jump\t// in\n    tag_70:\n        /* \"#utility.yul\":1339:1412   */\n      swap2\n      pop\n        /* \"#utility.yul\":1201:1422   */\n      pop\n        /* \"#utility.yul\":899:1429   */\n      swap3\n      pop\n      swap3\n      swap1\n      pop\n      jump\t// out\n        /* \"#utility.yul\":1435:1697   */\n    tag_16:\n      0x00\n        /* \"#utility.yul\":1543:1545   */\n      0x20\n        /* \"#utility.yul\":1531:1540   */\n      dup3\n        /* \"#utility.yul\":1522:1529   */\n      dup5\n        /* \"#utility.yul\":1518:1541   */\n      sub\n        /* \"#utility.yul\":1514:1546   */\n      slt\n        /* \"#utility.yul\":1511:1513   */\n      iszero\n      tag_72\n      jumpi\n        /* \"#utility.yul\":1559:1560   */\n      0x00\n        /* \"#utility.yul\":1556:1557   */\n      dup1\n        /* \"#utility.yul\":1549:1561   */\n      revert\n        /* \"#utility.yul\":1511:1513   */\n    tag_72:\n        /* \"#utility.yul\":1602:1603   */\n      0x00\n        /* \"#utility.yul\":1627:1680   */\n      tag_73\n        /* \"#utility.yul\":1672:1679   */\n      dup5\n        /* \"#utility.yul\":1663:1669   */\n      dup3\n        /* \"#utility.yul\":1652:1661   */\n      dup6\n        /* \"#utility.yul\":1648:1670   */\n      add\n        /* \"#utility.yul\":1627:1680   */\n      tag_61\n      jump\t// in\n    tag_73:\n        /* \"#utility.yul\":1617:1680   */\n      swap2\n      pop\n        /* \"#utility.yul\":1573:1690   */\n      pop\n        /* \"#utility.yul\":1501:1697   */\n      swap3\n      swap2\n      pop\n      pop\n      jump\t// out\n        /* \"#utility.yul\":1703:2067   */\n    tag_74:\n      0x00\n        /* \"#utility.yul\":1819:1858   */\n      tag_76\n        /* \"#utility.yul\":1852:1857   */\n      dup3\n        /* \"#utility.yul\":1819:1858   */\n      tag_77\n      jump\t// in\n    tag_76:\n        /* \"#utility.yul\":1874:1945   */\n      tag_78\n        /* \"#utility.yul\":1938:1944   */\n      dup2\n        /* \"#utility.yul\":1933:1936   */\n      dup6\n        /* \"#utility.yul\":1874:1945   */\n      tag_79\n      jump\t// in\n    tag_78:\n        /* \"#utility.yul\":1867:1945   */\n      swap4\n      pop\n        /* \"#utility.yul\":1954:2006   */\n      tag_80\n        /* \"#utility.yul\":1999:2005   */\n      dup2\n        /* \"#utility.yul\":1994:1997   */\n      dup6\n        /* \"#utility.yul\":1987:1991   */\n      0x20\n        /* \"#utility.yul\":1980:1985   */\n      dup7\n        /* \"#utility.yul\":1976:1992   */\n      add\n        /* \"#utility.yul\":1954:2006   */\n      tag_81\n      jump\t// in\n    tag_80:\n        /* \"#utility.yul\":2031:2060   */\n      tag_82\n        /* \"#utility.yul\":2053:2059   */\n      dup2\n        /* \"#utility.yul\":2031:2060   */\n      tag_83\n      jump\t// in\n    tag_82:\n        /* \"#utility.yul\":2026:2029   */\n      dup5\n        /* \"#utility.yul\":2022:2061   */\n      add\n        /* \"#utility.yul\":2015:2061   */\n      swap2\n      pop\n        /* \"#utility.yul\":1795:2067   */\n      pop\n      swap3\n      swap2\n      pop\n      pop\n      jump\t// out\n        /* \"#utility.yul\":2073:2191   */\n    tag_84:\n        /* \"#utility.yul\":2160:2184   */\n      tag_86\n        /* \"#utility.yul\":2178:2183   */\n      dup2\n        /* \"#utility.yul\":2160:2184   */\n      tag_87\n      jump\t// in\n    tag_86:\n        /* \"#utility.yul\":2155:2158   */\n      dup3\n        /* \"#utility.yul\":2148:2185   */\n      mstore\n        /* \"#utility.yul\":2138:2191   */\n      pop\n      pop\n      jump\t// out\n        /* \"#utility.yul\":2197:2419   */\n    tag_13:\n      0x00\n        /* \"#utility.yul\":2328:2330   */\n      0x20\n        /* \"#utility.yul\":2317:2326   */\n      dup3\n        /* \"#utility.yul\":2313:2331   */\n      add\n        /* \"#utility.yul\":2305:2331   */\n      swap1\n      pop\n        /* \"#utility.yul\":2341:2412   */\n      tag_89\n        /* \"#utility.yul\":2409:2410   */\n      0x00\n        /* \"#utility.yul\":2398:2407   */\n      dup4\n        /* \"#utility.yul\":2394:2411   */\n      add\n        /* \"#utility.yul\":2385:2391   */\n      dup5\n        /* \"#utility.yul\":2341:2412   */\n      tag_84\n      jump\t// in\n    tag_89:\n        /* \"#utility.yul\":2295:2419   */\n      swap3\n      swap2\n      pop\n      pop\n      jump\t// out\n        /* \"#utility.yul\":2425:3049   */\n    tag_19:\n      0x00\n        /* \"#utility.yul\":2652:2654   */\n      0x60\n        /* \"#utility.yul\":2641:2650   */\n      dup3\n        /* \"#utility.yul\":2637:2655   */\n      add\n        /* \"#utility.yul\":2629:2655   */\n      swap1\n      pop\n        /* \"#utility.yul\":2665:2736   */\n      tag_91\n        /* \"#utility.yul\":2733:2734   */\n      0x00\n        /* \"#utility.yul\":2722:2731   */\n      dup4\n        /* \"#utility.yul\":2718:2735   */\n      add\n        /* \"#utility.yul\":2709:2715   */\n      dup7\n        /* \"#utility.yul\":2665:2736   */\n      tag_84\n      jump\t// in\n    tag_91:\n        /* \"#utility.yul\":2783:2792   */\n      dup2\n        /* \"#utility.yul\":2777:2781   */\n      dup2\n        /* \"#utility.yul\":2773:2793   */\n      sub\n        /* \"#utility.yul\":2768:2770   */\n      0x20\n        /* \"#utility.yul\":2757:2766   */\n      dup4\n        /* \"#utility.yul\":2753:2771   */\n      add\n        /* \"#utility.yul\":2746:2794   */\n      mstore\n        /* \"#utility.yul\":2811:2889   */\n      tag_92\n        /* \"#utility.yul\":2884:2888   */\n      dup2\n        /* \"#utility.yul\":2875:2881   */\n      dup6\n        /* \"#utility.yul\":2811:2889   */\n      tag_74\n      jump\t// in\n    tag_92:\n        /* \"#utility.yul\":2803:2889   */\n      swap1\n      pop\n        /* \"#utility.yul\":2936:2945   */\n      dup2\n        /* \"#utility.yul\":2930:2934   */\n      dup2\n        /* \"#utility.yul\":2926:2946   */\n      sub\n        /* \"#utility.yul\":2921:2923   */\n      0x40\n        /* \"#utility.yul\":2910:2919   */\n      dup4\n        /* \"#utility.yul\":2906:2924   */\n      add\n        /* \"#utility.yul\":2899:2947   */\n      mstore\n        /* \"#utility.yul\":2964:3042   */\n      tag_93\n        /* \"#utility.yul\":3037:3041   */\n      dup2\n        /* \"#utility.yul\":3028:3034   */\n      dup5\n        /* \"#utility.yul\":2964:3042   */\n      tag_74\n      jump\t// in\n    tag_93:\n        /* \"#utility.yul\":2956:3042   */\n      swap1\n      pop\n        /* \"#utility.yul\":2619:3049   */\n      swap5\n      swap4\n      pop\n      pop\n      pop\n      pop\n      jump\t// out\n        /* \"#utility.yul\":3055:3184   */\n    tag_53:\n      0x00\n        /* \"#utility.yul\":3116:3136   */\n      tag_95\n      tag_96\n      jump\t// in\n    tag_95:\n        /* \"#utility.yul\":3106:3136   */\n      swap1\n      pop\n        /* \"#utility.yul\":3145:3178   */\n      tag_97\n        /* \"#utility.yul\":3173:3177   */\n      dup3\n        /* \"#utility.yul\":3165:3171   */\n      dup3\n        /* \"#utility.yul\":3145:3178   */\n      tag_98\n      jump\t// in\n    tag_97:\n        /* \"#utility.yul\":3096:3184   */\n      swap2\n      swap1\n      pop\n      jump\t// out\n        /* \"#utility.yul\":3190:3265   */\n    tag_96:\n      0x00\n        /* \"#utility.yul\":3256:3258   */\n      0x40\n        /* \"#utility.yul\":3250:3259   */\n      mload\n        /* \"#utility.yul\":3240:3259   */\n      swap1\n      pop\n        /* \"#utility.yul\":3230:3265   */\n      swap1\n      jump\t// out\n        /* \"#utility.yul\":3271:3579   */\n    tag_52:\n      0x00\n        /* \"#utility.yul\":3423:3441   */\n      0xffffffffffffffff\n        /* \"#utility.yul\":3415:3421   */\n      dup3\n        /* \"#utility.yul\":3412:3442   */\n      gt\n        /* \"#utility.yul\":3409:3411   */\n      iszero\n      tag_101\n      jumpi\n        /* \"#utility.yul\":3445:3463   */\n      tag_102\n      tag_103\n      jump\t// in\n    tag_102:\n        /* \"#utility.yul\":3409:3411   */\n    tag_101:\n        /* \"#utility.yul\":3483:3512   */\n      tag_104\n        /* \"#utility.yul\":3505:3511   */\n      dup3\n        /* \"#utility.yul\":3483:3512   */\n      tag_83\n      jump\t// in\n    tag_104:\n        /* \"#utility.yul\":3475:3512   */\n      swap1\n      pop\n        /* \"#utility.yul\":3567:3571   */\n      0x20\n        /* \"#utility.yul\":3561:3565   */\n      dup2\n        /* \"#utility.yul\":3557:3572   */\n      add\n        /* \"#utility.yul\":3549:3572   */\n      swap1\n      pop\n        /* \"#utility.yul\":3338:3579   */\n      swap2\n      swap1\n      pop\n      jump\t// out\n        /* \"#utility.yul\":3585:3684   */\n    tag_77:\n      0x00\n        /* \"#utility.yul\":3671:3676   */\n      dup2\n        /* \"#utility.yul\":3665:3677   */\n      mload\n        /* \"#utility.yul\":3655:3677   */\n      swap1\n      pop\n        /* \"#utility.yul\":3644:3684   */\n      swap2\n      swap1\n      pop\n      jump\t// out\n        /* \"#utility.yul\":3690:3859   */\n    tag_79:\n      0x00\n        /* \"#utility.yul\":3808:3814   */\n      dup3\n        /* \"#utility.yul\":3803:3806   */\n      dup3\n        /* \"#utility.yul\":3796:3815   */\n      mstore\n        /* \"#utility.yul\":3848:3852   */\n      0x20\n        /* \"#utility.yul\":3843:3846   */\n      dup3\n        /* \"#utility.yul\":3839:3853   */\n      add\n        /* \"#utility.yul\":3824:3853   */\n      swap1\n      pop\n        /* \"#utility.yul\":3786:3859   */\n      swap3\n      swap2\n      pop\n      pop\n      jump\t// out\n        /* \"#utility.yul\":3865:3942   */\n    tag_87:\n      0x00\n        /* \"#utility.yul\":3931:3936   */\n      dup2\n        /* \"#utility.yul\":3920:3936   */\n      swap1\n      pop\n        /* \"#utility.yul\":3910:3942   */\n      swap2\n      swap1\n      pop\n      jump\t// out\n        /* \"#utility.yul\":3948:4102   */\n    tag_56:\n        /* \"#utility.yul\":4032:4038   */\n      dup3\n        /* \"#utility.yul\":4027:4030   */\n      dup2\n        /* \"#utility.yul\":4022:4025   */\n      dup4\n        /* \"#utility.yul\":4009:4039   */\n      calldatacopy\n        /* \"#utility.yul\":4094:4095   */\n      0x00\n        /* \"#utility.yul\":4085:4091   */\n      dup4\n        /* \"#utility.yul\":4080:4083   */\n      dup4\n        /* \"#utility.yul\":4076:4092   */\n      add\n        /* \"#utility.yul\":4069:4096   */\n      mstore\n        /* \"#utility.yul\":3999:4102   */\n      pop\n      pop\n      pop\n      jump\t// out\n        /* \"#utility.yul\":4108:4415   */\n    tag_81:\n        /* \"#utility.yul\":4176:4177   */\n      0x00\n        /* \"#utility.yul\":4186:4299   */\n    tag_110:\n        /* \"#utility.yul\":4200:4206   */\n      dup4\n        /* \"#utility.yul\":4197:4198   */\n      dup2\n        /* \"#utility.yul\":4194:4207   */\n      lt\n        /* \"#utility.yul\":4186:4299   */\n      iszero\n      tag_112\n      jumpi\n        /* \"#utility.yul\":4285:4286   */\n      dup1\n        /* \"#utility.yul\":4280:4283   */\n      dup3\n        /* \"#utility.yul\":4276:4287   */\n      add\n        /* \"#utility.yul\":4270:4288   */\n      mload\n        /* \"#utility.yul\":4266:4267   */\n      dup2\n        /* \"#utility.yul\":4261:4264   */\n      dup5\n        /* \"#utility.yul\":4257:4268   */\n      add\n        /* \"#utility.yul\":4250:4289   */\n      mstore\n        /* \"#utility.yul\":4222:4224   */\n      0x20\n        /* \"#utility.yul\":4219:4220   */\n      dup2\n        /* \"#utility.yul\":4215:4225   */\n      add\n        /* \"#utility.yul\":4210:4225   */\n      swap1\n      pop\n        /* \"#utility.yul\":4186:4299   */\n      jump(tag_110)\n    tag_112:\n        /* \"#utility.yul\":4317:4323   */\n      dup4\n        /* \"#utility.yul\":4314:4315   */\n      dup2\n        /* \"#utility.yul\":4311:4324   */\n      gt\n        /* \"#utility.yul\":4308:4310   */\n      iszero\n      tag_113\n      jumpi\n        /* \"#utility.yul\":4397:4398   */\n      0x00\n        /* \"#utility.yul\":4388:4394   */\n      dup5\n        /* \"#utility.yul\":4383:4386   */\n      dup5\n        /* \"#utility.yul\":4379:4395   */\n      add\n        /* \"#utility.yul\":4372:4399   */\n      mstore\n        /* \"#utility.yul\":4308:4310   */\n    tag_113:\n        /* \"#utility.yul\":4157:4415   */\n      pop\n      pop\n      pop\n      pop\n      jump\t// out\n        /* \"#utility.yul\":4421:4741   */\n    tag_27:\n      0x00\n        /* \"#utility.yul\":4502:4503   */\n      0x02\n        /* \"#utility.yul\":4496:4500   */\n      dup3\n        /* \"#utility.yul\":4492:4504   */\n      div\n        /* \"#utility.yul\":4482:4504   */\n      swap1\n      pop\n        /* \"#utility.yul\":4549:4550   */\n      0x01\n        /* \"#utility.yul\":4543:4547   */\n      dup3\n        /* \"#utility.yul\":4539:4551   */\n      and\n        /* \"#utility.yul\":4570:4588   */\n      dup1\n        /* \"#utility.yul\":4560:4562   */\n      tag_115\n      jumpi\n        /* \"#utility.yul\":4626:4630   */\n      0x7f\n        /* \"#utility.yul\":4618:4624   */\n      dup3\n        /* \"#utility.yul\":4614:4631   */\n      and\n        /* \"#utility.yul\":4604:4631   */\n      swap2\n      pop\n        /* \"#utility.yul\":4560:4562   */\n    tag_115:\n        /* \"#utility.yul\":4688:4690   */\n      0x20\n        /* \"#utility.yul\":4680:4686   */\n      dup3\n        /* \"#utility.yul\":4677:4691   */\n      lt\n        /* \"#utility.yul\":4657:4675   */\n      dup2\n        /* \"#utility.yul\":4654:4692   */\n      eq\n        /* \"#utility.yul\":4651:4653   */\n      iszero\n      tag_116\n      jumpi\n        /* \"#utility.yul\":4707:4725   */\n      tag_117\n      tag_118\n      jump\t// in\n    tag_117:\n        /* \"#utility.yul\":4651:4653   */\n    tag_116:\n        /* \"#utility.yul\":4472:4741   */\n      pop\n      swap2\n      swap1\n      pop\n      jump\t// out\n        /* \"#utility.yul\":4747:5028   */\n    tag_98:\n        /* \"#utility.yul\":4830:4857   */\n      tag_120\n        /* \"#utility.yul\":4852:4856   */\n      dup3\n        /* \"#utility.yul\":4830:4857   */\n      tag_83\n      jump\t// in\n    tag_120:\n        /* \"#utility.yul\":4822:4828   */\n      dup2\n        /* \"#utility.yul\":4818:4858   */\n      add\n        /* \"#utility.yul\":4960:4966   */\n      dup2\n        /* \"#utility.yul\":4948:4958   */\n      dup2\n        /* \"#utility.yul\":4945:4967   */\n      lt\n        /* \"#utility.yul\":4924:4942   */\n      0xffffffffffffffff\n        /* \"#utility.yul\":4912:4922   */\n      dup3\n        /* \"#utility.yul\":4909:4943   */\n      gt\n        /* \"#utility.yul\":4906:4968   */\n      or\n        /* \"#utility.yul\":4903:4905   */\n      iszero\n      tag_121\n      jumpi\n        /* \"#utility.yul\":4971:4989   */\n      tag_122\n      tag_103\n      jump\t// in\n    tag_122:\n        /* \"#utility.yul\":4903:4905   */\n    tag_121:\n        /* \"#utility.yul\":5011:5021   */\n      dup1\n        /* \"#utility.yul\":5007:5009   */\n      0x40\n        /* \"#utility.yul\":5000:5022   */\n      mstore\n        /* \"#utility.yul\":4790:5028   */\n      pop\n      pop\n      pop\n      jump\t// out\n        /* \"#utility.yul\":5034:5267   */\n    tag_25:\n      0x00\n        /* \"#utility.yul\":5096:5120   */\n      tag_124\n        /* \"#utility.yul\":5114:5119   */\n      dup3\n        /* \"#utility.yul\":5096:5120   */\n      tag_87\n      jump\t// in\n    tag_124:\n        /* \"#utility.yul\":5087:5120   */\n      swap2\n      pop\n        /* \"#utility.yul\":5142:5208   */\n      0xffffffffffffffffffffffffffffffffffffffffffffffffffffffffffffffff\n        /* \"#utility.yul\":5135:5140   */\n      dup3\n        /* \"#utility.yul\":5132:5209   */\n      eq\n        /* \"#utility.yul\":5129:5131   */\n      iszero\n      tag_125\n      jumpi\n        /* \"#utility.yul\":5212:5230   */\n      tag_126\n      tag_127\n      jump\t// in\n    tag_126:\n        /* \"#utility.yul\":5129:5131   */\n    tag_125:\n        /* \"#utility.yul\":5259:5260   */\n      0x01\n        /* \"#utility.yul\":5252:5257   */\n      dup3\n        /* \"#utility.yul\":5248:5261   */\n      add\n        /* \"#utility.yul\":5241:5261   */\n      swap1\n      pop\n        /* \"#utility.yul\":5077:5267   */\n      swap2\n      swap1\n      pop\n      jump\t// out\n        /* \"#utility.yul\":5273:5453   */\n    tag_127:\n        /* \"#utility.yul\":5321:5398   */\n      0x4e487b7100000000000000000000000000000000000000000000000000000000\n        /* \"#utility.yul\":5318:5319   */\n      0x00\n        /* \"#utility.yul\":5311:5399   */\n      mstore\n        /* \"#utility.yul\":5418:5422   */\n      0x11\n        /* \"#utility.yul\":5415:5416   */\n      0x04\n        /* \"#utility.yul\":5408:5423   */\n      mstore\n        /* \"#utility.yul\":5442:5446   */\n      0x24\n        /* \"#utility.yul\":5439:5440   */\n      0x00\n        /* \"#utility.yul\":5432:5447   */\n      revert\n        /* \"#utility.yul\":5459:5639   */\n    tag_118:\n        /* \"#utility.yul\":5507:5584   */\n      0x4e487b7100000000000000000000000000000000000000000000000000000000\n        /* \"#utility.yul\":5504:5505   */\n      0x00\n        /* \"#utility.yul\":5497:5585   */\n      mstore\n        /* \"#utility.yul\":5604:5608   */\n      0x22\n        /* \"#utility.yul\":5601:5602   */\n      0x04\n        /* \"#utility.yul\":5594:5609   */\n      mstore\n        /* \"#utility.yul\":5628:5632   */\n      0x24\n        /* \"#utility.yul\":5625:5626   */\n      0x00\n        /* \"#utility.yul\":5618:5633   */\n      revert\n        /* \"#utility.yul\":5645:5825   */\n    tag_103:\n        /* \"#utility.yul\":5693:5770   */\n      0x4e487b7100000000000000000000000000000000000000000000000000000000\n        /* \"#utility.yul\":5690:5691   */\n      0x00\n        /* \"#utility.yul\":5683:5771   */\n      mstore\n        /* \"#utility.yul\":5790:5794   */\n      0x41\n        /* \"#utility.yul\":5787:5788   */\n      0x04\n        /* \"#utility.yul\":5780:5795   */\n      mstore\n        /* \"#utility.yul\":5814:5818   */\n      0x24\n        /* \"#utility.yul\":5811:5812   */\n      0x00\n        /* \"#utility.yul\":5804:5819   */\n      revert\n        /* \"#utility.yul\":5831:5933   */\n    tag_83:\n      0x00\n        /* \"#utility.yul\":5923:5925   */\n      0x1f\n        /* \"#utility.yul\":5919:5926   */\n      not\n        /* \"#utility.yul\":5914:5916   */\n      0x1f\n        /* \"#utility.yul\":5907:5912   */\n      dup4\n        /* \"#utility.yul\":5903:5917   */\n      add\n        /* \"#utility.yul\":5899:5927   */\n      and\n        /* \"#utility.yul\":5889:5927   */\n      swap1\n      pop\n        /* \"#utility.yul\":5879:5933   */\n      swap2\n      swap1\n      pop\n      jump\t// out\n        /* \"#utility.yul\":5939:6061   */\n    tag_64:\n        /* \"#utility.yul\":6012:6036   */\n      tag_133\n        /* \"#utility.yul\":6030:6035   */\n      dup2\n        /* \"#utility.yul\":6012:6036   */\n      tag_87\n      jump\t// in\n    tag_133:\n        /* \"#utility.yul\":6005:6010   */\n      dup2\n        /* \"#utility.yul\":6002:6037   */\n      eq\n        /* \"#utility.yul\":5992:5994   */\n      tag_134\n      jumpi\n        /* \"#utility.yul\":6051:6052   */\n      0x00\n        /* \"#utility.yul\":6048:6049   */\n      dup1\n        /* \"#utility.yul\":6041:6053   */\n      revert\n        /* \"#utility.yul\":5992:5994   */\n    tag_134:\n        /* \"#utility.yul\":5982:6061   */\n      pop\n      jump\t// out\n\n    auxdata: 0xa2646970667358221220a9e42c1b1d1bca3b852d79cb879c6b716e6047b44623ef44265c420cb000622064736f6c63430008020033\n}\n",
				"bytecode": {
					"linkReferences": {},
					"object": "608060405234801561001057600080fd5b5060018081905550610738806100276000396000f3fe608060405234801561001057600080fd5b50600436106100415760003560e01c806322f5b58d14610046578063267c68e0146100625780639e7a13ad14610080575b600080fd5b610060600480360381019061005b91906103a6565b6100b2565b005b61006a610146565b6040516100779190610483565b60405180910390f35b61009a60048036038101906100959190610412565b61014c565b6040516100a99392919061049e565b60405180910390f35b60405180606001604052806001548152602001838152602001828152506000806001548152602001908152602001600020600082015181600001556020820151816001019080519060200190610109929190610286565b506040820151816002019080519060200190610126929190610286565b509050506001600081548092919061013d90610604565b91905055505050565b60015481565b6000602052806000526040600020600091509050806000015490806001018054610175906105a1565b80601f01602080910402602001604051908101604052809291908181526020018280546101a1906105a1565b80156101ee5780601f106101c3576101008083540402835291602001916101ee565b820191906000526020600020905b8154815290600101906020018083116101d157829003601f168201915b505050505090806002018054610203906105a1565b80601f016020809104026020016040519081016040528092919081815260200182805461022f906105a1565b801561027c5780601f106102515761010080835404028352916020019161027c565b820191906000526020600020905b81548152906001019060200180831161025f57829003601f168201915b5050505050905083565b828054610292906105a1565b90600052602060002090601f0160209004810192826102b457600085556102fb565b82601f106102cd57805160ff19168380011785556102fb565b828001600101855582156102fb579182015b828111156102fa5782518255916020019190600101906102df565b5b509050610308919061030c565b5090565b5b8082111561032557600081600090555060010161030d565b5090565b600061033c61033784610508565b6104e3565b90508281526020810184848401111561035457600080fd5b61035f84828561055f565b509392505050565b600082601f83011261037857600080fd5b8135610388848260208601610329565b91505092915050565b6000813590506103a0816106eb565b92915050565b600080604083850312156103b957600080fd5b600083013567ffffffffffffffff8111156103d357600080fd5b6103df85828601610367565b925050602083013567ffffffffffffffff8111156103fc57600080fd5b61040885828601610367565b9150509250929050565b60006020828403121561042457600080fd5b600061043284828501610391565b91505092915050565b600061044682610539565b6104508185610544565b935061046081856020860161056e565b610469816106da565b840191505092915050565b61047d81610555565b82525050565b60006020820190506104986000830184610474565b92915050565b60006060820190506104b36000830186610474565b81810360208301526104c5818561043b565b905081810360408301526104d9818461043b565b9050949350505050565b60006104ed6104fe565b90506104f982826105d3565b919050565b6000604051905090565b600067ffffffffffffffff821115610523576105226106ab565b5b61052c826106da565b9050602081019050919050565b600081519050919050565b600082825260208201905092915050565b6000819050919050565b82818337600083830152505050565b60005b8381101561058c578082015181840152602081019050610571565b8381111561059b576000848401525b50505050565b600060028204905060018216806105b957607f821691505b602082108114156105cd576105cc61067c565b5b50919050565b6105dc826106da565b810181811067ffffffffffffffff821117156105fb576105fa6106ab565b5b80604052505050565b600061060f82610555565b91507fffffffffffffffffffffffffffffffffffffffffffffffffffffffffffffffff8214156106425761064161064d565b5b600182019050919050565b7f4e487b7100000000000000000000000000000000000000000000000000000000600052601160045260246000fd5b7f4e487b7100000000000000000000000000000000000000000000000000000000600052602260045260246000fd5b7f4e487b7100000000000000000000000000000000000000000000000000000000600052604160045260246000fd5b6000601f19601f8301169050919050565b6106f481610555565b81146106ff57600080fd5b5056fea2646970667358221220a9e42c1b1d1bca3b852d79cb879c6b716e6047b44623ef44265c420cb000622064736f6c63430008020033",
					"opcodes": "PUSH1 0x80 PUSH1 0x40 MSTORE CALLVALUE DUP1 ISZERO PUSH2 0x10 JUMPI PUSH1 0x0 DUP1 REVERT JUMPDEST POP PUSH1 0x1 DUP1 DUP2 SWAP1 SSTORE POP PUSH2 0x738 DUP1 PUSH2 0x27 PUSH1 0x0 CODECOPY PUSH1 0x0 RETURN INVALID PUSH1 0x80 PUSH1 0x40 MSTORE CALLVALUE DUP1 ISZERO PUSH2 0x10 JUMPI PUSH1 0x0 DUP1 REVERT JUMPDEST POP PUSH1 0x4 CALLDATASIZE LT PUSH2 0x41 JUMPI PUSH1 0x0 CALLDATALOAD PUSH1 0xE0 SHR DUP1 PUSH4 0x22F5B58D EQ PUSH2 0x46 JUMPI DUP1 PUSH4 0x267C68E0 EQ PUSH2 0x62 JUMPI DUP1 PUSH4 0x9E7A13AD EQ PUSH2 0x80 JUMPI JUMPDEST PUSH1 0x0 DUP1 REVERT JUMPDEST PUSH2 0x60 PUSH1 0x4 DUP1 CALLDATASIZE SUB DUP2 ADD SWAP1 PUSH2 0x5B SWAP2 SWAP1 PUSH2 0x3A6 JUMP JUMPDEST PUSH2 0xB2 JUMP JUMPDEST STOP JUMPDEST PUSH2 0x6A PUSH2 0x146 JUMP JUMPDEST PUSH1 0x40 MLOAD PUSH2 0x77 SWAP2 SWAP1 PUSH2 0x483 JUMP JUMPDEST PUSH1 0x40 MLOAD DUP1 SWAP2 SUB SWAP1 RETURN JUMPDEST PUSH2 0x9A PUSH1 0x4 DUP1 CALLDATASIZE SUB DUP2 ADD SWAP1 PUSH2 0x95 SWAP2 SWAP1 PUSH2 0x412 JUMP JUMPDEST PUSH2 0x14C JUMP JUMPDEST PUSH1 0x40 MLOAD PUSH2 0xA9 SWAP4 SWAP3 SWAP2 SWAP1 PUSH2 0x49E JUMP JUMPDEST PUSH1 0x40 MLOAD DUP1 SWAP2 SUB SWAP1 RETURN JUMPDEST PUSH1 0x40 MLOAD DUP1 PUSH1 0x60 ADD PUSH1 0x40 MSTORE DUP1 PUSH1 0x1 SLOAD DUP2 MSTORE PUSH1 0x20 ADD DUP4 DUP2 MSTORE PUSH1 0x20 ADD DUP3 DUP2 MSTORE POP PUSH1 0x0 DUP1 PUSH1 0x1 SLOAD DUP2 MSTORE PUSH1 0x20 ADD SWAP1 DUP2 MSTORE PUSH1 0x20 ADD PUSH1 0x0 KECCAK256 PUSH1 0x0 DUP3 ADD MLOAD DUP2 PUSH1 0x0 ADD SSTORE PUSH1 0x20 DUP3 ADD MLOAD DUP2 PUSH1 0x1 ADD SWAP1 DUP1 MLOAD SWAP1 PUSH1 0x20 ADD SWAP1 PUSH2 0x109 SWAP3 SWAP2 SWAP1 PUSH2 0x286 JUMP JUMPDEST POP PUSH1 0x40 DUP3 ADD MLOAD DUP2 PUSH1 0x2 ADD SWAP1 DUP1 MLOAD SWAP1 PUSH1 0x20 ADD SWAP1 PUSH2 0x126 SWAP3 SWAP2 SWAP1 PUSH2 0x286 JUMP JUMPDEST POP SWAP1 POP POP PUSH1 0x1 PUSH1 0x0 DUP2 SLOAD DUP1 SWAP3 SWAP2 SWAP1 PUSH2 0x13D SWAP1 PUSH2 0x604 JUMP JUMPDEST SWAP2 SWAP1 POP SSTORE POP POP POP JUMP JUMPDEST PUSH1 0x1 SLOAD DUP2 JUMP JUMPDEST PUSH1 0x0 PUSH1 0x20 MSTORE DUP1 PUSH1 0x0 MSTORE PUSH1 0x40 PUSH1 0x0 KECCAK256 PUSH1 0x0 SWAP2 POP SWAP1 POP DUP1 PUSH1 0x0 ADD SLOAD SWAP1 DUP1 PUSH1 0x1 ADD DUP1 SLOAD PUSH2 0x175 SWAP1 PUSH2 0x5A1 JUMP JUMPDEST DUP1 PUSH1 0x1F ADD PUSH1 0x20 DUP1 SWAP2 DIV MUL PUSH1 0x20 ADD PUSH1 0x40 MLOAD SWAP1 DUP2 ADD PUSH1 0x40 MSTORE DUP1 SWAP3 SWAP2 SWAP1 DUP2 DUP2 MSTORE PUSH1 0x20 ADD DUP3 DUP1 SLOAD PUSH2 0x1A1 SWAP1 PUSH2 0x5A1 JUMP JUMPDEST DUP1 ISZERO PUSH2 0x1EE JUMPI DUP1 PUSH1 0x1F LT PUSH2 0x1C3 JUMPI PUSH2 0x100 DUP1 DUP4 SLOAD DIV MUL DUP4 MSTORE SWAP2 PUSH1 0x20 ADD SWAP2 PUSH2 0x1EE JUMP JUMPDEST DUP3 ADD SWAP2 SWAP1 PUSH1 0x0 MSTORE PUSH1 0x20 PUSH1 0x0 KECCAK256 SWAP1 JUMPDEST DUP2 SLOAD DUP2 MSTORE SWAP1 PUSH1 0x1 ADD SWAP1 PUSH1 0x20 ADD DUP1 DUP4 GT PUSH2 0x1D1 JUMPI DUP3 SWAP1 SUB PUSH1 0x1F AND DUP3 ADD SWAP2 JUMPDEST POP POP POP POP POP SWAP1 DUP1 PUSH1 0x2 ADD DUP1 SLOAD PUSH2 0x203 SWAP1 PUSH2 0x5A1 JUMP JUMPDEST DUP1 PUSH1 0x1F ADD PUSH1 0x20 DUP1 SWAP2 DIV MUL PUSH1 0x20 ADD PUSH1 0x40 MLOAD SWAP1 DUP2 ADD PUSH1 0x40 MSTORE DUP1 SWAP3 SWAP2 SWAP1 DUP2 DUP2 MSTORE PUSH1 0x20 ADD DUP3 DUP1 SLOAD PUSH2 0x22F SWAP1 PUSH2 0x5A1 JUMP JUMPDEST DUP1 ISZERO PUSH2 0x27C JUMPI DUP1 PUSH1 0x1F LT PUSH2 0x251 JUMPI PUSH2 0x100 DUP1 DUP4 SLOAD DIV MUL DUP4 MSTORE SWAP2 PUSH1 0x20 ADD SWAP2 PUSH2 0x27C JUMP JUMPDEST DUP3 ADD SWAP2 SWAP1 PUSH1 0x0 MSTORE PUSH1 0x20 PUSH1 0x0 KECCAK256 SWAP1 JUMPDEST DUP2 SLOAD DUP2 MSTORE SWAP1 PUSH1 0x1 ADD SWAP1 PUSH1 0x20 ADD DUP1 DUP4 GT PUSH2 0x25F JUMPI DUP3 SWAP1 SUB PUSH1 0x1F AND DUP3 ADD SWAP2 JUMPDEST POP POP POP POP POP SWAP1 POP DUP4 JUMP JUMPDEST DUP3 DUP1 SLOAD PUSH2 0x292 SWAP1 PUSH2 0x5A1 JUMP JUMPDEST SWAP1 PUSH1 0x0 MSTORE PUSH1 0x20 PUSH1 0x0 KECCAK256 SWAP1 PUSH1 0x1F ADD PUSH1 0x20 SWAP1 DIV DUP2 ADD SWAP3 DUP3 PUSH2 0x2B4 JUMPI PUSH1 0x0 DUP6 SSTORE PUSH2 0x2FB JUMP JUMPDEST DUP3 PUSH1 0x1F LT PUSH2 0x2CD JUMPI DUP1 MLOAD PUSH1 0xFF NOT AND DUP4 DUP1 ADD OR DUP6 SSTORE PUSH2 0x2FB JUMP JUMPDEST DUP3 DUP1 ADD PUSH1 0x1 ADD DUP6 SSTORE DUP3 ISZERO PUSH2 0x2FB JUMPI SWAP2 DUP3 ADD JUMPDEST DUP3 DUP2 GT ISZERO PUSH2 0x2FA JUMPI DUP3 MLOAD DUP3 SSTORE SWAP2 PUSH1 0x20 ADD SWAP2 SWAP1 PUSH1 0x1 ADD SWAP1 PUSH2 0x2DF JUMP JUMPDEST JUMPDEST POP SWAP1 POP PUSH2 0x308 SWAP2 SWAP1 PUSH2 0x30C JUMP JUMPDEST POP SWAP1 JUMP JUMPDEST JUMPDEST DUP1 DUP3 GT ISZERO PUSH2 0x325 JUMPI PUSH1 0x0 DUP2 PUSH1 0x0 SWAP1 SSTORE POP PUSH1 0x1 ADD PUSH2 0x30D JUMP JUMPDEST POP SWAP1 JUMP JUMPDEST PUSH1 0x0 PUSH2 0x33C PUSH2 0x337 DUP5 PUSH2 0x508 JUMP JUMPDEST PUSH2 0x4E3 JUMP JUMPDEST SWAP1 POP DUP3 DUP2 MSTORE PUSH1 0x20 DUP2 ADD DUP5 DUP5 DUP5 ADD GT ISZERO PUSH2 0x354 JUMPI PUSH1 0x0 DUP1 REVERT JUMPDEST PUSH2 0x35F DUP5 DUP3 DUP6 PUSH2 0x55F JUMP JUMPDEST POP SWAP4 SWAP3 POP POP POP JUMP JUMPDEST PUSH1 0x0 DUP3 PUSH1 0x1F DUP4 ADD SLT PUSH2 0x378 JUMPI PUSH1 0x0 DUP1 REVERT JUMPDEST DUP2 CALLDATALOAD PUSH2 0x388 DUP5 DUP3 PUSH1 0x20 DUP7 ADD PUSH2 0x329 JUMP JUMPDEST SWAP2 POP POP SWAP3 SWAP2 POP POP JUMP JUMPDEST PUSH1 0x0 DUP2 CALLDATALOAD SWAP1 POP PUSH2 0x3A0 DUP2 PUSH2 0x6EB JUMP JUMPDEST SWAP3 SWAP2 POP POP JUMP JUMPDEST PUSH1 0x0 DUP1 PUSH1 0x40 DUP4 DUP6 SUB SLT ISZERO PUSH2 0x3B9 JUMPI PUSH1 0x0 DUP1 REVERT JUMPDEST PUSH1 0x0 DUP4 ADD CALLDATALOAD PUSH8 0xFFFFFFFFFFFFFFFF DUP2 GT ISZERO PUSH2 0x3D3 JUMPI PUSH1 0x0 DUP1 REVERT JUMPDEST PUSH2 0x3DF DUP6 DUP3 DUP7 ADD PUSH2 0x367 JUMP JUMPDEST SWAP3 POP POP PUSH1 0x20 DUP4 ADD CALLDATALOAD PUSH8 0xFFFFFFFFFFFFFFFF DUP2 GT ISZERO PUSH2 0x3FC JUMPI PUSH1 0x0 DUP1 REVERT JUMPDEST PUSH2 0x408 DUP6 DUP3 DUP7 ADD PUSH2 0x367 JUMP JUMPDEST SWAP2 POP POP SWAP3 POP SWAP3 SWAP1 POP JUMP JUMPDEST PUSH1 0x0 PUSH1 0x20 DUP3 DUP5 SUB SLT ISZERO PUSH2 0x424 JUMPI PUSH1 0x0 DUP1 REVERT JUMPDEST PUSH1 0x0 PUSH2 0x432 DUP5 DUP3 DUP6 ADD PUSH2 0x391 JUMP JUMPDEST SWAP2 POP POP SWAP3 SWAP2 POP POP JUMP JUMPDEST PUSH1 0x0 PUSH2 0x446 DUP3 PUSH2 0x539 JUMP JUMPDEST PUSH2 0x450 DUP2 DUP6 PUSH2 0x544 JUMP JUMPDEST SWAP4 POP PUSH2 0x460 DUP2 DUP6 PUSH1 0x20 DUP7 ADD PUSH2 0x56E JUMP JUMPDEST PUSH2 0x469 DUP2 PUSH2 0x6DA JUMP JUMPDEST DUP5 ADD SWAP2 POP POP SWAP3 SWAP2 POP POP JUMP JUMPDEST PUSH2 0x47D DUP2 PUSH2 0x555 JUMP JUMPDEST DUP3 MSTORE POP POP JUMP JUMPDEST PUSH1 0x0 PUSH1 0x20 DUP3 ADD SWAP1 POP PUSH2 0x498 PUSH1 0x0 DUP4 ADD DUP5 PUSH2 0x474 JUMP JUMPDEST SWAP3 SWAP2 POP POP JUMP JUMPDEST PUSH1 0x0 PUSH1 0x60 DUP3 ADD SWAP1 POP PUSH2 0x4B3 PUSH1 0x0 DUP4 ADD DUP7 PUSH2 0x474 JUMP JUMPDEST DUP2 DUP2 SUB PUSH1 0x20 DUP4 ADD MSTORE PUSH2 0x4C5 DUP2 DUP6 PUSH2 0x43B JUMP JUMPDEST SWAP1 POP DUP2 DUP2 SUB PUSH1 0x40 DUP4 ADD MSTORE PUSH2 0x4D9 DUP2 DUP5 PUSH2 0x43B JUMP JUMPDEST SWAP1 POP SWAP5 SWAP4 POP POP POP POP JUMP JUMPDEST PUSH1 0x0 PUSH2 0x4ED PUSH2 0x4FE JUMP JUMPDEST SWAP1 POP PUSH2 0x4F9 DUP3 DUP3 PUSH2 0x5D3 JUMP JUMPDEST SWAP2 SWAP1 POP JUMP JUMPDEST PUSH1 0x0 PUSH1 0x40 MLOAD SWAP1 POP SWAP1 JUMP JUMPDEST PUSH1 0x0 PUSH8 0xFFFFFFFFFFFFFFFF DUP3 GT ISZERO PUSH2 0x523 JUMPI PUSH2 0x522 PUSH2 0x6AB JUMP JUMPDEST JUMPDEST PUSH2 0x52C DUP3 PUSH2 0x6DA JUMP JUMPDEST SWAP1 POP PUSH1 0x20 DUP2 ADD SWAP1 POP SWAP2 SWAP1 POP JUMP JUMPDEST PUSH1 0x0 DUP2 MLOAD SWAP1 POP SWAP2 SWAP1 POP JUMP JUMPDEST PUSH1 0x0 DUP3 DUP3 MSTORE PUSH1 0x20 DUP3 ADD SWAP1 POP SWAP3 SWAP2 POP POP JUMP JUMPDEST PUSH1 0x0 DUP2 SWAP1 POP SWAP2 SWAP1 POP JUMP JUMPDEST DUP3 DUP2 DUP4 CALLDATACOPY PUSH1 0x0 DUP4 DUP4 ADD MSTORE POP POP POP JUMP JUMPDEST PUSH1 0x0 JUMPDEST DUP4 DUP2 LT ISZERO PUSH2 0x58C JUMPI DUP1 DUP3 ADD MLOAD DUP2 DUP5 ADD MSTORE PUSH1 0x20 DUP2 ADD SWAP1 POP PUSH2 0x571 JUMP JUMPDEST DUP4 DUP2 GT ISZERO PUSH2 0x59B JUMPI PUSH1 0x0 DUP5 DUP5 ADD MSTORE JUMPDEST POP POP POP POP JUMP JUMPDEST PUSH1 0x0 PUSH1 0x2 DUP3 DIV SWAP1 POP PUSH1 0x1 DUP3 AND DUP1 PUSH2 0x5B9 JUMPI PUSH1 0x7F DUP3 AND SWAP2 POP JUMPDEST PUSH1 0x20 DUP3 LT DUP2 EQ ISZERO PUSH2 0x5CD JUMPI PUSH2 0x5CC PUSH2 0x67C JUMP JUMPDEST JUMPDEST POP SWAP2 SWAP1 POP JUMP JUMPDEST PUSH2 0x5DC DUP3 PUSH2 0x6DA JUMP JUMPDEST DUP2 ADD DUP2 DUP2 LT PUSH8 0xFFFFFFFFFFFFFFFF DUP3 GT OR ISZERO PUSH2 0x5FB JUMPI PUSH2 0x5FA PUSH2 0x6AB JUMP JUMPDEST JUMPDEST DUP1 PUSH1 0x40 MSTORE POP POP POP JUMP JUMPDEST PUSH1 0x0 PUSH2 0x60F DUP3 PUSH2 0x555 JUMP JUMPDEST SWAP2 POP PUSH32 0xFFFFFFFFFFFFFFFFFFFFFFFFFFFFFFFFFFFFFFFFFFFFFFFFFFFFFFFFFFFFFFFF DUP3 EQ ISZERO PUSH2 0x642 JUMPI PUSH2 0x641 PUSH2 0x64D JUMP JUMPDEST JUMPDEST PUSH1 0x1 DUP3 ADD SWAP1 POP SWAP2 SWAP1 POP JUMP JUMPDEST PUSH32 0x4E487B7100000000000000000000000000000000000000000000000000000000 PUSH1 0x0 MSTORE PUSH1 0x11 PUSH1 0x4 MSTORE PUSH1 0x24 PUSH1 0x0 REVERT JUMPDEST PUSH32 0x4E487B7100000000000000000000000000000000000000000000000000000000 PUSH1 0x0 MSTORE PUSH1 0x22 PUSH1 0x4 MSTORE PUSH1 0x24 PUSH1 0x0 REVERT JUMPDEST PUSH32 0x4E487B7100000000000000000000000000000000000000000000000000000000 PUSH1 0x0 MSTORE PUSH1 0x41 PUSH1 0x4 MSTORE PUSH1 0x24 PUSH1 0x0 REVERT JUMPDEST PUSH1 0x0 PUSH1 0x1F NOT PUSH1 0x1F DUP4 ADD AND SWAP1 POP SWAP2 SWAP1 POP JUMP JUMPDEST PUSH2 0x6F4 DUP2 PUSH2 0x555 JUMP JUMPDEST DUP2 EQ PUSH2 0x6FF JUMPI PUSH1 0x0 DUP1 REVERT JUMPDEST POP JUMP INVALID LOG2 PUSH5 0x6970667358 0x22 SLT KECCAK256 0xA9 0xE4 0x2C SHL SAR SHL 0xCA EXTCODESIZE DUP6 0x2D PUSH26 0xCB879C6B716E6047B44623EF44265C420CB000622064736F6C63 NUMBER STOP ADDMOD MUL STOP CALLER "
				},
				"gasEstimates": {
					"creation": {
						"codeDepositCost": "369600",
						"executionCost": "20419",
						"totalCost": "390019"
					},
					"external": {
						"addPerson(string,string)": "infinite",
						"people(uint256)": "infinite",
						"peopleCount()": "1129"
					}
				},
				"methodIdentifiers": {
					"addPerson(string,string)": "22f5b58d",
					"people(uint256)": "9e7a13ad",
					"peopleCount()": "267c68e0"
				}
			},
			"storageLayout": {
				"storage": [
					{
						"astId": 13,
						"contract": "bc-lab6/myContractStruct2.sol:myContractMapping",
						"label": "people",
						"offset": 0,
						"slot": "0",
						"type": "t_mapping(t_uint256,t_struct(Person)8_storage)"
					},
					{
						"astId": 15,
						"contract": "bc-lab6/myContractStruct2.sol:myContractMapping",
						"label": "peopleCount",
						"offset": 0,
						"slot": "1",
						"type": "t_uint256"
					}
				],
				"types": {
					"t_mapping(t_uint256,t_struct(Person)8_storage)": {
						"encoding": "mapping",
						"key": "t_uint256",
						"label": "mapping(uint256 => struct myContractMapping.Person)",
						"numberOfBytes": "32",
						"value": "t_struct(Person)8_storage"
					},
					"t_string_storage": {
						"encoding": "bytes",
						"label": "string",
						"numberOfBytes": "32"
					},
					"t_struct(Person)8_storage": {
						"encoding": "inplace",
						"label": "struct myContractMapping.Person",
						"members": [
							{
								"astId": 3,
								"contract": "bc-lab6/myContractStruct2.sol:myContractMapping",
								"label": "_id",
								"offset": 0,
								"slot": "0",
								"type": "t_uint256"
							},
							{
								"astId": 5,
								"contract": "bc-lab6/myContractStruct2.sol:myContractMapping",
								"label": "_firstName",
								"offset": 0,
								"slot": "1",
								"type": "t_string_storage"
							},
							{
								"astId": 7,
								"contract": "bc-lab6/myContractStruct2.sol:myContractMapping",
								"label": "_lastName",
								"offset": 0,
								"slot": "2",
								"type": "t_string_storage"
							}
						],
						"numberOfBytes": "96"
					},
					"t_uint256": {
						"encoding": "inplace",
						"label": "uint256",
						"numberOfBytes": "32"
					}
				}
			},
			"userdoc": {
				"kind": "user",
				"methods": {},
				"version": 1
			}
		}
	}
}