{
	"bc-lab6/myContractStruct.sol": {
		"myContractStruct": {
			"abi": [
				{
					"inputs": [
						{
							"internalType": "string",
							"name": "_firstName",
							"type": "string"
						},
						{
							"internalType": "string",
							"name": "_lastName",
							"type": "string"
						}
					],
					"name": "addPerson",
					"outputs": [],
					"stateMutability": "nonpayable",
					"type": "function"
				},
				{
					"inputs": [
						{
							"internalType": "uint256",
							"name": "",
							"type": "uint256"
						}
					],
					"name": "people",
					"outputs": [
						{
							"internalType": "string",
							"name": "_firstName",
							"type": "string"
						},
						{
							"internalType": "string",
							"name": "_lastName",
							"type": "string"
						}
					],
					"stateMutability": "view",
					"type": "function"
				},
				{
					"inputs": [],
					"name": "peopleCount",
					"outputs": [
						{
							"internalType": "uint8",
							"name": "",
							"type": "uint8"
						}
					],
					"stateMutability": "view",
					"type": "function"
				}
			],
			"devdoc": {
				"kind": "dev",
				"methods": {},
				"version": 1
			},
			"evm": {
				"assembly": "    /* \"bc-lab6/myContractStruct.sol\":60:476  contract myContractStruct {\r... */\n  mstore(0x40, 0x80)\n    /* \"bc-lab6/myContractStruct.sol\":234:235  0 */\n  0x00\n    /* \"bc-lab6/myContractStruct.sol\":207:235  uint8 public peopleCount = 0 */\n  0x01\n  exp(0x0100, 0x00)\n  dup2\n  sload\n  dup2\n  0xff\n  mul\n  not\n  and\n  swap1\n  dup4\n  0xff\n  and\n  mul\n  or\n  swap1\n  sstore\n  pop\n    /* \"bc-lab6/myContractStruct.sol\":60:476  contract myContractStruct {\r... */\n  callvalue\n  dup1\n  iszero\n  tag_1\n  jumpi\n  0x00\n  dup1\n  revert\ntag_1:\n  pop\n  dataSize(sub_0)\n  dup1\n  dataOffset(sub_0)\n  0x00\n  codecopy\n  0x00\n  return\nstop\n\nsub_0: assembly {\n        /* \"bc-lab6/myContractStruct.sol\":60:476  contract myContractStruct {\r... */\n      mstore(0x40, 0x80)\n      callvalue\n      dup1\n      iszero\n      tag_1\n      jumpi\n      0x00\n      dup1\n      revert\n    tag_1:\n      pop\n      jumpi(tag_2, lt(calldatasize, 0x04))\n      shr(0xe0, calldataload(0x00))\n      dup1\n      0x22f5b58d\n      eq\n      tag_3\n      jumpi\n      dup1\n      0x267c68e0\n      eq\n      tag_4\n      jumpi\n      dup1\n      0x9e7a13ad\n      eq\n      tag_5\n      jumpi\n    tag_2:\n      0x00\n      dup1\n      revert\n        /* \"bc-lab6/myContractStruct.sol\":310:473  function addPerson(string memory _firstName, string memory _lastName) public {\r... */\n    tag_3:\n      tag_6\n      0x04\n      dup1\n      calldatasize\n      sub\n      dup2\n      add\n      swap1\n      tag_7\n      swap2\n      swap1\n      tag_8\n      jump\t// in\n    tag_7:\n      tag_9\n      jump\t// in\n    tag_6:\n      stop\n        /* \"bc-lab6/myContractStruct.sol\":207:235  uint8 public peopleCount = 0 */\n    tag_4:\n      tag_10\n      tag_11\n      jump\t// in\n    tag_10:\n      mload(0x40)\n      tag_12\n      swap2\n      swap1\n      tag_13\n      jump\t// in\n    tag_12:\n      mload(0x40)\n      dup1\n      swap2\n      sub\n      swap1\n      return\n        /* \"bc-lab6/myContractStruct.sol\":178:200  Person[] public people */\n    tag_5:\n      tag_14\n      0x04\n      dup1\n      calldatasize\n      sub\n      dup2\n      add\n      swap1\n      tag_15\n      swap2\n      swap1\n      tag_16\n      jump\t// in\n    tag_15:\n      tag_17\n      jump\t// in\n    tag_14:\n      mload(0x40)\n      tag_18\n      swap3\n      swap2\n      swap1\n      tag_19\n      jump\t// in\n    tag_18:\n      mload(0x40)\n      dup1\n      swap2\n      sub\n      swap1\n      return\n        /* \"bc-lab6/myContractStruct.sol\":310:473  function addPerson(string memory _firstName, string memory _lastName) public {\r... */\n    tag_9:\n        /* \"bc-lab6/myContractStruct.sol\":398:404  people */\n      0x00\n        /* \"bc-lab6/myContractStruct.sol\":410:439  Person(_firstName, _lastName) */\n      mload(0x40)\n      dup1\n      0x40\n      add\n      0x40\n      mstore\n      dup1\n        /* \"bc-lab6/myContractStruct.sol\":417:427  _firstName */\n      dup5\n        /* \"bc-lab6/myContractStruct.sol\":410:439  Person(_firstName, _lastName) */\n      dup2\n      mstore\n      0x20\n      add\n        /* \"bc-lab6/myContractStruct.sol\":429:438  _lastName */\n      dup4\n        /* \"bc-lab6/myContractStruct.sol\":410:439  Person(_firstName, _lastName) */\n      dup2\n      mstore\n      pop\n        /* \"bc-lab6/myContractStruct.sol\":398:440  people.push(Person(_firstName, _lastName)) */\n      swap1\n      dup1\n      0x01\n      dup2\n      sload\n      add\n      dup1\n      dup3\n      sstore\n      dup1\n      swap2\n      pop\n      pop\n      0x01\n      swap1\n      sub\n      swap1\n      0x00\n      mstore\n      keccak256(0x00, 0x20)\n      swap1\n      0x02\n      mul\n      add\n      0x00\n      swap1\n      swap2\n      swap1\n      swap2\n      swap1\n      swap2\n      pop\n      0x00\n      dup3\n      add\n      mload\n      dup2\n      0x00\n      add\n      swap1\n      dup1\n      mload\n      swap1\n      0x20\n      add\n      swap1\n      tag_22\n      swap3\n      swap2\n      swap1\n      tag_23\n      jump\t// in\n    tag_22:\n      pop\n      0x20\n      dup3\n      add\n      mload\n      dup2\n      0x01\n      add\n      swap1\n      dup1\n      mload\n      swap1\n      0x20\n      add\n      swap1\n      tag_24\n      swap3\n      swap2\n      swap1\n      tag_23\n      jump\t// in\n    tag_24:\n      pop\n      pop\n      pop\n        /* \"bc-lab6/myContractStruct.sol\":451:462  peopleCount */\n      0x01\n      0x00\n        /* \"bc-lab6/myContractStruct.sol\":451:465  peopleCount ++ */\n      dup2\n      dup2\n      swap1\n      sload\n      swap1\n      0x0100\n      exp\n      swap1\n      div\n      0xff\n      and\n      dup1\n      swap3\n      swap2\n      swap1\n      tag_25\n      swap1\n      tag_26\n      jump\t// in\n    tag_25:\n      swap2\n      swap1\n      0x0100\n      exp\n      dup2\n      sload\n      dup2\n      0xff\n      mul\n      not\n      and\n      swap1\n      dup4\n      0xff\n      and\n      mul\n      or\n      swap1\n      sstore\n      pop\n      pop\n        /* \"bc-lab6/myContractStruct.sol\":310:473  function addPerson(string memory _firstName, string memory _lastName) public {\r... */\n      pop\n      pop\n      jump\t// out\n        /* \"bc-lab6/myContractStruct.sol\":207:235  uint8 public peopleCount = 0 */\n    tag_11:\n      0x01\n      0x00\n      swap1\n      sload\n      swap1\n      0x0100\n      exp\n      swap1\n      div\n      0xff\n      and\n      dup2\n      jump\t// out\n        /* \"bc-lab6/myContractStruct.sol\":178:200  Person[] public people */\n    tag_17:\n      0x00\n      dup2\n      dup2\n      sload\n      dup2\n      lt\n      tag_27\n      jumpi\n      0x00\n      dup1\n      revert\n    tag_27:\n      swap1\n      0x00\n      mstore\n      keccak256(0x00, 0x20)\n      swap1\n      0x02\n      mul\n      add\n      0x00\n      swap2\n      pop\n      swap1\n      pop\n      dup1\n      0x00\n      add\n      dup1\n      sload\n      tag_29\n      swap1\n      tag_30\n      jump\t// in\n    tag_29:\n      dup1\n      0x1f\n      add\n      0x20\n      dup1\n      swap2\n      div\n      mul\n      0x20\n      add\n      mload(0x40)\n      swap1\n      dup2\n      add\n      0x40\n      mstore\n      dup1\n      swap3\n      swap2\n      swap1\n      dup2\n      dup2\n      mstore\n      0x20\n      add\n      dup3\n      dup1\n      sload\n      tag_31\n      swap1\n      tag_30\n      jump\t// in\n    tag_31:\n      dup1\n      iszero\n      tag_32\n      jumpi\n      dup1\n      0x1f\n      lt\n      tag_33\n      jumpi\n      0x0100\n      dup1\n      dup4\n      sload\n      div\n      mul\n      dup4\n      mstore\n      swap2\n      0x20\n      add\n      swap2\n      jump(tag_32)\n    tag_33:\n      dup3\n      add\n      swap2\n      swap1\n      0x00\n      mstore\n      keccak256(0x00, 0x20)\n      swap1\n    tag_34:\n      dup2\n      sload\n      dup2\n      mstore\n      swap1\n      0x01\n      add\n      swap1\n      0x20\n      add\n      dup1\n      dup4\n      gt\n      tag_34\n      jumpi\n      dup3\n      swap1\n      sub\n      0x1f\n      and\n      dup3\n      add\n      swap2\n    tag_32:\n      pop\n      pop\n      pop\n      pop\n      pop\n      swap1\n      dup1\n      0x01\n      add\n      dup1\n      sload\n      tag_35\n      swap1\n      tag_30\n      jump\t// in\n    tag_35:\n      dup1\n      0x1f\n      add\n      0x20\n      dup1\n      swap2\n      div\n      mul\n      0x20\n      add\n      mload(0x40)\n      swap1\n      dup2\n      add\n      0x40\n      mstore\n      dup1\n      swap3\n      swap2\n      swap1\n      dup2\n      dup2\n      mstore\n      0x20\n      add\n      dup3\n      dup1\n      sload\n      tag_36\n      swap1\n      tag_30\n      jump\t// in\n    tag_36:\n      dup1\n      iszero\n      tag_37\n      jumpi\n      dup1\n      0x1f\n      lt\n      tag_38\n      jumpi\n      0x0100\n      dup1\n      dup4\n      sload\n      div\n      mul\n      dup4\n      mstore\n      swap2\n      0x20\n      add\n      swap2\n      jump(tag_37)\n    tag_38:\n      dup3\n      add\n      swap2\n      swap1\n      0x00\n      mstore\n      keccak256(0x00, 0x20)\n      swap1\n    tag_39:\n      dup2\n      sload\n      dup2\n      mstore\n      swap1\n      0x01\n      add\n      swap1\n      0x20\n      add\n      dup1\n      dup4\n      gt\n      tag_39\n      jumpi\n      dup3\n      swap1\n      sub\n      0x1f\n      and\n      dup3\n      add\n      swap2\n    tag_37:\n      pop\n      pop\n      pop\n      pop\n      pop\n      swap1\n      pop\n      dup3\n      jump\t// out\n    tag_23:\n      dup3\n      dup1\n      sload\n      tag_40\n      swap1\n      tag_30\n      jump\t// in\n    tag_40:\n      swap1\n      0x00\n      mstore\n      keccak256(0x00, 0x20)\n      swap1\n      0x1f\n      add\n      0x20\n      swap1\n      div\n      dup2\n      add\n      swap3\n      dup3\n      tag_42\n      jumpi\n      0x00\n      dup6\n      sstore\n      jump(tag_41)\n    tag_42:\n      dup3\n      0x1f\n      lt\n      tag_43\n      jumpi\n      dup1\n      mload\n      not(0xff)\n      and\n      dup4\n      dup1\n      add\n      or\n      dup6\n      sstore\n      jump(tag_41)\n    tag_43:\n      dup3\n      dup1\n      add\n      0x01\n      add\n      dup6\n      sstore\n      dup3\n      iszero\n      tag_41\n      jumpi\n      swap2\n      dup3\n      add\n    tag_44:\n      dup3\n      dup2\n      gt\n      iszero\n      tag_45\n      jumpi\n      dup3\n      mload\n      dup3\n      sstore\n      swap2\n      0x20\n      add\n      swap2\n      swap1\n      0x01\n      add\n      swap1\n      jump(tag_44)\n    tag_45:\n    tag_41:\n      pop\n      swap1\n      pop\n      tag_46\n      swap2\n      swap1\n      tag_47\n      jump\t// in\n    tag_46:\n      pop\n      swap1\n      jump\t// out\n    tag_47:\n    tag_48:\n      dup1\n      dup3\n      gt\n      iszero\n      tag_49\n      jumpi\n      0x00\n      dup2\n      0x00\n      swap1\n      sstore\n      pop\n      0x01\n      add\n      jump(tag_48)\n    tag_49:\n      pop\n      swap1\n      jump\t// out\n        /* \"#utility.yul\":7:351   */\n    tag_51:\n      0x00\n        /* \"#utility.yul\":110:175   */\n      tag_53\n        /* \"#utility.yul\":125:174   */\n      tag_54\n        /* \"#utility.yul\":167:173   */\n      dup5\n        /* \"#utility.yul\":125:174   */\n      tag_55\n      jump\t// in\n    tag_54:\n        /* \"#utility.yul\":110:175   */\n      tag_56\n      jump\t// in\n    tag_53:\n        /* \"#utility.yul\":101:175   */\n      swap1\n      pop\n        /* \"#utility.yul\":198:204   */\n      dup3\n        /* \"#utility.yul\":191:196   */\n      dup2\n        /* \"#utility.yul\":184:205   */\n      mstore\n        /* \"#utility.yul\":236:240   */\n      0x20\n        /* \"#utility.yul\":229:234   */\n      dup2\n        /* \"#utility.yul\":225:241   */\n      add\n        /* \"#utility.yul\":274:277   */\n      dup5\n        /* \"#utility.yul\":265:271   */\n      dup5\n        /* \"#utility.yul\":260:263   */\n      dup5\n        /* \"#utility.yul\":256:272   */\n      add\n        /* \"#utility.yul\":253:278   */\n      gt\n        /* \"#utility.yul\":250:252   */\n      iszero\n      tag_57\n      jumpi\n        /* \"#utility.yul\":291:292   */\n      0x00\n        /* \"#utility.yul\":288:289   */\n      dup1\n        /* \"#utility.yul\":281:293   */\n      revert\n        /* \"#utility.yul\":250:252   */\n    tag_57:\n        /* \"#utility.yul\":304:345   */\n      tag_58\n        /* \"#utility.yul\":338:344   */\n      dup5\n        /* \"#utility.yul\":333:336   */\n      dup3\n        /* \"#utility.yul\":328:331   */\n      dup6\n        /* \"#utility.yul\":304:345   */\n      tag_59\n      jump\t// in\n    tag_58:\n        /* \"#utility.yul\":91:351   */\n      pop\n      swap4\n      swap3\n      pop\n      pop\n      pop\n      jump\t// out\n        /* \"#utility.yul\":371:644   */\n    tag_60:\n      0x00\n        /* \"#utility.yul\":476:479   */\n      dup3\n        /* \"#utility.yul\":469:473   */\n      0x1f\n        /* \"#utility.yul\":461:467   */\n      dup4\n        /* \"#utility.yul\":457:474   */\n      add\n        /* \"#utility.yul\":453:480   */\n      slt\n        /* \"#utility.yul\":443:445   */\n      tag_62\n      jumpi\n        /* \"#utility.yul\":494:495   */\n      0x00\n        /* \"#utility.yul\":491:492   */\n      dup1\n        /* \"#utility.yul\":484:496   */\n      revert\n        /* \"#utility.yul\":443:445   */\n    tag_62:\n        /* \"#utility.yul\":534:540   */\n      dup2\n        /* \"#utility.yul\":521:541   */\n      calldataload\n        /* \"#utility.yul\":559:638   */\n      tag_63\n        /* \"#utility.yul\":634:637   */\n      dup5\n        /* \"#utility.yul\":626:632   */\n      dup3\n        /* \"#utility.yul\":619:623   */\n      0x20\n        /* \"#utility.yul\":611:617   */\n      dup7\n        /* \"#utility.yul\":607:624   */\n      add\n        /* \"#utility.yul\":559:638   */\n      tag_51\n      jump\t// in\n    tag_63:\n        /* \"#utility.yul\":550:638   */\n      swap2\n      pop\n        /* \"#utility.yul\":433:644   */\n      pop\n      swap3\n      swap2\n      pop\n      pop\n      jump\t// out\n        /* \"#utility.yul\":650:789   */\n    tag_64:\n      0x00\n        /* \"#utility.yul\":734:740   */\n      dup2\n        /* \"#utility.yul\":721:741   */\n      calldataload\n        /* \"#utility.yul\":712:741   */\n      swap1\n      pop\n        /* \"#utility.yul\":750:783   */\n      tag_66\n        /* \"#utility.yul\":777:782   */\n      dup2\n        /* \"#utility.yul\":750:783   */\n      tag_67\n      jump\t// in\n    tag_66:\n        /* \"#utility.yul\":702:789   */\n      swap3\n      swap2\n      pop\n      pop\n      jump\t// out\n        /* \"#utility.yul\":795:1428   */\n    tag_8:\n      0x00\n      dup1\n        /* \"#utility.yul\":940:942   */\n      0x40\n        /* \"#utility.yul\":928:937   */\n      dup4\n        /* \"#utility.yul\":919:926   */\n      dup6\n        /* \"#utility.yul\":915:938   */\n      sub\n        /* \"#utility.yul\":911:943   */\n      slt\n        /* \"#utility.yul\":908:910   */\n      iszero\n      tag_69\n      jumpi\n        /* \"#utility.yul\":956:957   */\n      0x00\n        /* \"#utility.yul\":953:954   */\n      dup1\n        /* \"#utility.yul\":946:958   */\n      revert\n        /* \"#utility.yul\":908:910   */\n    tag_69:\n        /* \"#utility.yul\":1027:1028   */\n      0x00\n        /* \"#utility.yul\":1016:1025   */\n      dup4\n        /* \"#utility.yul\":1012:1029   */\n      add\n        /* \"#utility.yul\":999:1030   */\n      calldataload\n        /* \"#utility.yul\":1057:1075   */\n      0xffffffffffffffff\n        /* \"#utility.yul\":1049:1055   */\n      dup2\n        /* \"#utility.yul\":1046:1076   */\n      gt\n        /* \"#utility.yul\":1043:1045   */\n      iszero\n      tag_70\n      jumpi\n        /* \"#utility.yul\":1089:1090   */\n      0x00\n        /* \"#utility.yul\":1086:1087   */\n      dup1\n        /* \"#utility.yul\":1079:1091   */\n      revert\n        /* \"#utility.yul\":1043:1045   */\n    tag_70:\n        /* \"#utility.yul\":1117:1180   */\n      tag_71\n        /* \"#utility.yul\":1172:1179   */\n      dup6\n        /* \"#utility.yul\":1163:1169   */\n      dup3\n        /* \"#utility.yul\":1152:1161   */\n      dup7\n        /* \"#utility.yul\":1148:1170   */\n      add\n        /* \"#utility.yul\":1117:1180   */\n      tag_60\n      jump\t// in\n    tag_71:\n        /* \"#utility.yul\":1107:1180   */\n      swap3\n      pop\n        /* \"#utility.yul\":970:1190   */\n      pop\n        /* \"#utility.yul\":1257:1259   */\n      0x20\n        /* \"#utility.yul\":1246:1255   */\n      dup4\n        /* \"#utility.yul\":1242:1260   */\n      add\n        /* \"#utility.yul\":1229:1261   */\n      calldataload\n        /* \"#utility.yul\":1288:1306   */\n      0xffffffffffffffff\n        /* \"#utility.yul\":1280:1286   */\n      dup2\n        /* \"#utility.yul\":1277:1307   */\n      gt\n        /* \"#utility.yul\":1274:1276   */\n      iszero\n      tag_72\n      jumpi\n        /* \"#utility.yul\":1320:1321   */\n      0x00\n        /* \"#utility.yul\":1317:1318   */\n      dup1\n        /* \"#utility.yul\":1310:1322   */\n      revert\n        /* \"#utility.yul\":1274:1276   */\n    tag_72:\n        /* \"#utility.yul\":1348:1411   */\n      tag_73\n        /* \"#utility.yul\":1403:1410   */\n      dup6\n        /* \"#utility.yul\":1394:1400   */\n      dup3\n        /* \"#utility.yul\":1383:1392   */\n      dup7\n        /* \"#utility.yul\":1379:1401   */\n      add\n        /* \"#utility.yul\":1348:1411   */\n      tag_60\n      jump\t// in\n    tag_73:\n        /* \"#utility.yul\":1338:1411   */\n      swap2\n      pop\n        /* \"#utility.yul\":1200:1421   */\n      pop\n        /* \"#utility.yul\":898:1428   */\n      swap3\n      pop\n      swap3\n      swap1\n      pop\n      jump\t// out\n        /* \"#utility.yul\":1434:1696   */\n    tag_16:\n      0x00\n        /* \"#utility.yul\":1542:1544   */\n      0x20\n        /* \"#utility.yul\":1530:1539   */\n      dup3\n        /* \"#utility.yul\":1521:1528   */\n      dup5\n        /* \"#utility.yul\":1517:1540   */\n      sub\n        /* \"#utility.yul\":1513:1545   */\n      slt\n        /* \"#utility.yul\":1510:1512   */\n      iszero\n      tag_75\n      jumpi\n        /* \"#utility.yul\":1558:1559   */\n      0x00\n        /* \"#utility.yul\":1555:1556   */\n      dup1\n        /* \"#utility.yul\":1548:1560   */\n      revert\n        /* \"#utility.yul\":1510:1512   */\n    tag_75:\n        /* \"#utility.yul\":1601:1602   */\n      0x00\n        /* \"#utility.yul\":1626:1679   */\n      tag_76\n        /* \"#utility.yul\":1671:1678   */\n      dup5\n        /* \"#utility.yul\":1662:1668   */\n      dup3\n        /* \"#utility.yul\":1651:1660   */\n      dup6\n        /* \"#utility.yul\":1647:1669   */\n      add\n        /* \"#utility.yul\":1626:1679   */\n      tag_64\n      jump\t// in\n    tag_76:\n        /* \"#utility.yul\":1616:1679   */\n      swap2\n      pop\n        /* \"#utility.yul\":1572:1689   */\n      pop\n        /* \"#utility.yul\":1500:1696   */\n      swap3\n      swap2\n      pop\n      pop\n      jump\t// out\n        /* \"#utility.yul\":1702:2066   */\n    tag_77:\n      0x00\n        /* \"#utility.yul\":1818:1857   */\n      tag_79\n        /* \"#utility.yul\":1851:1856   */\n      dup3\n        /* \"#utility.yul\":1818:1857   */\n      tag_80\n      jump\t// in\n    tag_79:\n        /* \"#utility.yul\":1873:1944   */\n      tag_81\n        /* \"#utility.yul\":1937:1943   */\n      dup2\n        /* \"#utility.yul\":1932:1935   */\n      dup6\n        /* \"#utility.yul\":1873:1944   */\n      tag_82\n      jump\t// in\n    tag_81:\n        /* \"#utility.yul\":1866:1944   */\n      swap4\n      pop\n        /* \"#utility.yul\":1953:2005   */\n      tag_83\n        /* \"#utility.yul\":1998:2004   */\n      dup2\n        /* \"#utility.yul\":1993:1996   */\n      dup6\n        /* \"#utility.yul\":1986:1990   */\n      0x20\n        /* \"#utility.yul\":1979:1984   */\n      dup7\n        /* \"#utility.yul\":1975:1991   */\n      add\n        /* \"#utility.yul\":1953:2005   */\n      tag_84\n      jump\t// in\n    tag_83:\n        /* \"#utility.yul\":2030:2059   */\n      tag_85\n        /* \"#utility.yul\":2052:2058   */\n      dup2\n        /* \"#utility.yul\":2030:2059   */\n      tag_86\n      jump\t// in\n    tag_85:\n        /* \"#utility.yul\":2025:2028   */\n      dup5\n        /* \"#utility.yul\":2021:2060   */\n      add\n        /* \"#utility.yul\":2014:2060   */\n      swap2\n      pop\n        /* \"#utility.yul\":1794:2066   */\n      pop\n      swap3\n      swap2\n      pop\n      pop\n      jump\t// out\n        /* \"#utility.yul\":2072:2184   */\n    tag_87:\n        /* \"#utility.yul\":2155:2177   */\n      tag_89\n        /* \"#utility.yul\":2171:2176   */\n      dup2\n        /* \"#utility.yul\":2155:2177   */\n      tag_90\n      jump\t// in\n    tag_89:\n        /* \"#utility.yul\":2150:2153   */\n      dup3\n        /* \"#utility.yul\":2143:2178   */\n      mstore\n        /* \"#utility.yul\":2133:2184   */\n      pop\n      pop\n      jump\t// out\n        /* \"#utility.yul\":2190:2704   */\n    tag_19:\n      0x00\n        /* \"#utility.yul\":2389:2391   */\n      0x40\n        /* \"#utility.yul\":2378:2387   */\n      dup3\n        /* \"#utility.yul\":2374:2392   */\n      add\n        /* \"#utility.yul\":2366:2392   */\n      swap1\n      pop\n        /* \"#utility.yul\":2438:2447   */\n      dup2\n        /* \"#utility.yul\":2432:2436   */\n      dup2\n        /* \"#utility.yul\":2428:2448   */\n      sub\n        /* \"#utility.yul\":2424:2425   */\n      0x00\n        /* \"#utility.yul\":2413:2422   */\n      dup4\n        /* \"#utility.yul\":2409:2426   */\n      add\n        /* \"#utility.yul\":2402:2449   */\n      mstore\n        /* \"#utility.yul\":2466:2544   */\n      tag_92\n        /* \"#utility.yul\":2539:2543   */\n      dup2\n        /* \"#utility.yul\":2530:2536   */\n      dup6\n        /* \"#utility.yul\":2466:2544   */\n      tag_77\n      jump\t// in\n    tag_92:\n        /* \"#utility.yul\":2458:2544   */\n      swap1\n      pop\n        /* \"#utility.yul\":2591:2600   */\n      dup2\n        /* \"#utility.yul\":2585:2589   */\n      dup2\n        /* \"#utility.yul\":2581:2601   */\n      sub\n        /* \"#utility.yul\":2576:2578   */\n      0x20\n        /* \"#utility.yul\":2565:2574   */\n      dup4\n        /* \"#utility.yul\":2561:2579   */\n      add\n        /* \"#utility.yul\":2554:2602   */\n      mstore\n        /* \"#utility.yul\":2619:2697   */\n      tag_93\n        /* \"#utility.yul\":2692:2696   */\n      dup2\n        /* \"#utility.yul\":2683:2689   */\n      dup5\n        /* \"#utility.yul\":2619:2697   */\n      tag_77\n      jump\t// in\n    tag_93:\n        /* \"#utility.yul\":2611:2697   */\n      swap1\n      pop\n        /* \"#utility.yul\":2356:2704   */\n      swap4\n      swap3\n      pop\n      pop\n      pop\n      jump\t// out\n        /* \"#utility.yul\":2710:2924   */\n    tag_13:\n      0x00\n        /* \"#utility.yul\":2837:2839   */\n      0x20\n        /* \"#utility.yul\":2826:2835   */\n      dup3\n        /* \"#utility.yul\":2822:2840   */\n      add\n        /* \"#utility.yul\":2814:2840   */\n      swap1\n      pop\n        /* \"#utility.yul\":2850:2917   */\n      tag_95\n        /* \"#utility.yul\":2914:2915   */\n      0x00\n        /* \"#utility.yul\":2903:2912   */\n      dup4\n        /* \"#utility.yul\":2899:2916   */\n      add\n        /* \"#utility.yul\":2890:2896   */\n      dup5\n        /* \"#utility.yul\":2850:2917   */\n      tag_87\n      jump\t// in\n    tag_95:\n        /* \"#utility.yul\":2804:2924   */\n      swap3\n      swap2\n      pop\n      pop\n      jump\t// out\n        /* \"#utility.yul\":2930:3213   */\n    tag_56:\n      0x00\n        /* \"#utility.yul\":2996:2998   */\n      0x40\n        /* \"#utility.yul\":2990:2999   */\n      mload\n        /* \"#utility.yul\":2980:2999   */\n      swap1\n      pop\n        /* \"#utility.yul\":3038:3042   */\n      dup2\n        /* \"#utility.yul\":3030:3036   */\n      dup2\n        /* \"#utility.yul\":3026:3043   */\n      add\n        /* \"#utility.yul\":3145:3151   */\n      dup2\n        /* \"#utility.yul\":3133:3143   */\n      dup2\n        /* \"#utility.yul\":3130:3152   */\n      lt\n        /* \"#utility.yul\":3109:3127   */\n      0xffffffffffffffff\n        /* \"#utility.yul\":3097:3107   */\n      dup3\n        /* \"#utility.yul\":3094:3128   */\n      gt\n        /* \"#utility.yul\":3091:3153   */\n      or\n        /* \"#utility.yul\":3088:3090   */\n      iszero\n      tag_97\n      jumpi\n        /* \"#utility.yul\":3156:3174   */\n      tag_98\n      tag_99\n      jump\t// in\n    tag_98:\n        /* \"#utility.yul\":3088:3090   */\n    tag_97:\n        /* \"#utility.yul\":3196:3206   */\n      dup1\n        /* \"#utility.yul\":3192:3194   */\n      0x40\n        /* \"#utility.yul\":3185:3207   */\n      mstore\n        /* \"#utility.yul\":2970:3213   */\n      pop\n      swap2\n      swap1\n      pop\n      jump\t// out\n        /* \"#utility.yul\":3219:3551   */\n    tag_55:\n      0x00\n        /* \"#utility.yul\":3371:3389   */\n      0xffffffffffffffff\n        /* \"#utility.yul\":3363:3369   */\n      dup3\n        /* \"#utility.yul\":3360:3390   */\n      gt\n        /* \"#utility.yul\":3357:3359   */\n      iszero\n      tag_101\n      jumpi\n        /* \"#utility.yul\":3393:3411   */\n      tag_102\n      tag_99\n      jump\t// in\n    tag_102:\n        /* \"#utility.yul\":3357:3359   */\n    tag_101:\n        /* \"#utility.yul\":3478:3482   */\n      0x1f\n        /* \"#utility.yul\":3474:3483   */\n      not\n        /* \"#utility.yul\":3467:3471   */\n      0x1f\n        /* \"#utility.yul\":3459:3465   */\n      dup4\n        /* \"#utility.yul\":3455:3472   */\n      add\n        /* \"#utility.yul\":3451:3484   */\n      and\n        /* \"#utility.yul\":3443:3484   */\n      swap1\n      pop\n        /* \"#utility.yul\":3539:3543   */\n      0x20\n        /* \"#utility.yul\":3533:3537   */\n      dup2\n        /* \"#utility.yul\":3529:3544   */\n      add\n        /* \"#utility.yul\":3521:3544   */\n      swap1\n      pop\n        /* \"#utility.yul\":3286:3551   */\n      swap2\n      swap1\n      pop\n      jump\t// out\n        /* \"#utility.yul\":3557:3656   */\n    tag_80:\n      0x00\n        /* \"#utility.yul\":3643:3648   */\n      dup2\n        /* \"#utility.yul\":3637:3649   */\n      mload\n        /* \"#utility.yul\":3627:3649   */\n      swap1\n      pop\n        /* \"#utility.yul\":3616:3656   */\n      swap2\n      swap1\n      pop\n      jump\t// out\n        /* \"#utility.yul\":3662:3831   */\n    tag_82:\n      0x00\n        /* \"#utility.yul\":3780:3786   */\n      dup3\n        /* \"#utility.yul\":3775:3778   */\n      dup3\n        /* \"#utility.yul\":3768:3787   */\n      mstore\n        /* \"#utility.yul\":3820:3824   */\n      0x20\n        /* \"#utility.yul\":3815:3818   */\n      dup3\n        /* \"#utility.yul\":3811:3825   */\n      add\n        /* \"#utility.yul\":3796:3825   */\n      swap1\n      pop\n        /* \"#utility.yul\":3758:3831   */\n      swap3\n      swap2\n      pop\n      pop\n      jump\t// out\n        /* \"#utility.yul\":3837:3914   */\n    tag_105:\n      0x00\n        /* \"#utility.yul\":3903:3908   */\n      dup2\n        /* \"#utility.yul\":3892:3908   */\n      swap1\n      pop\n        /* \"#utility.yul\":3882:3914   */\n      swap2\n      swap1\n      pop\n      jump\t// out\n        /* \"#utility.yul\":3920:4006   */\n    tag_90:\n      0x00\n        /* \"#utility.yul\":3995:3999   */\n      0xff\n        /* \"#utility.yul\":3988:3993   */\n      dup3\n        /* \"#utility.yul\":3984:4000   */\n      and\n        /* \"#utility.yul\":3973:4000   */\n      swap1\n      pop\n        /* \"#utility.yul\":3963:4006   */\n      swap2\n      swap1\n      pop\n      jump\t// out\n        /* \"#utility.yul\":4012:4166   */\n    tag_59:\n        /* \"#utility.yul\":4096:4102   */\n      dup3\n        /* \"#utility.yul\":4091:4094   */\n      dup2\n        /* \"#utility.yul\":4086:4089   */\n      dup4\n        /* \"#utility.yul\":4073:4103   */\n      calldatacopy\n        /* \"#utility.yul\":4158:4159   */\n      0x00\n        /* \"#utility.yul\":4149:4155   */\n      dup4\n        /* \"#utility.yul\":4144:4147   */\n      dup4\n        /* \"#utility.yul\":4140:4156   */\n      add\n        /* \"#utility.yul\":4133:4160   */\n      mstore\n        /* \"#utility.yul\":4063:4166   */\n      pop\n      pop\n      pop\n      jump\t// out\n        /* \"#utility.yul\":4172:4479   */\n    tag_84:\n        /* \"#utility.yul\":4240:4241   */\n      0x00\n        /* \"#utility.yul\":4250:4363   */\n    tag_110:\n        /* \"#utility.yul\":4264:4270   */\n      dup4\n        /* \"#utility.yul\":4261:4262   */\n      dup2\n        /* \"#utility.yul\":4258:4271   */\n      lt\n        /* \"#utility.yul\":4250:4363   */\n      iszero\n      tag_112\n      jumpi\n        /* \"#utility.yul\":4349:4350   */\n      dup1\n        /* \"#utility.yul\":4344:4347   */\n      dup3\n        /* \"#utility.yul\":4340:4351   */\n      add\n        /* \"#utility.yul\":4334:4352   */\n      mload\n        /* \"#utility.yul\":4330:4331   */\n      dup2\n        /* \"#utility.yul\":4325:4328   */\n      dup5\n        /* \"#utility.yul\":4321:4332   */\n      add\n        /* \"#utility.yul\":4314:4353   */\n      mstore\n        /* \"#utility.yul\":4286:4288   */\n      0x20\n        /* \"#utility.yul\":4283:4284   */\n      dup2\n        /* \"#utility.yul\":4279:4289   */\n      add\n        /* \"#utility.yul\":4274:4289   */\n      swap1\n      pop\n        /* \"#utility.yul\":4250:4363   */\n      jump(tag_110)\n    tag_112:\n        /* \"#utility.yul\":4381:4387   */\n      dup4\n        /* \"#utility.yul\":4378:4379   */\n      dup2\n        /* \"#utility.yul\":4375:4388   */\n      gt\n        /* \"#utility.yul\":4372:4374   */\n      iszero\n      tag_113\n      jumpi\n        /* \"#utility.yul\":4461:4462   */\n      0x00\n        /* \"#utility.yul\":4452:4458   */\n      dup5\n        /* \"#utility.yul\":4447:4450   */\n      dup5\n        /* \"#utility.yul\":4443:4459   */\n      add\n        /* \"#utility.yul\":4436:4463   */\n      mstore\n        /* \"#utility.yul\":4372:4374   */\n    tag_113:\n        /* \"#utility.yul\":4221:4479   */\n      pop\n      pop\n      pop\n      pop\n      jump\t// out\n        /* \"#utility.yul\":4485:4805   */\n    tag_30:\n      0x00\n        /* \"#utility.yul\":4566:4567   */\n      0x02\n        /* \"#utility.yul\":4560:4564   */\n      dup3\n        /* \"#utility.yul\":4556:4568   */\n      div\n        /* \"#utility.yul\":4546:4568   */\n      swap1\n      pop\n        /* \"#utility.yul\":4613:4614   */\n      0x01\n        /* \"#utility.yul\":4607:4611   */\n      dup3\n        /* \"#utility.yul\":4603:4615   */\n      and\n        /* \"#utility.yul\":4634:4652   */\n      dup1\n        /* \"#utility.yul\":4624:4626   */\n      tag_115\n      jumpi\n        /* \"#utility.yul\":4690:4694   */\n      0x7f\n        /* \"#utility.yul\":4682:4688   */\n      dup3\n        /* \"#utility.yul\":4678:4695   */\n      and\n        /* \"#utility.yul\":4668:4695   */\n      swap2\n      pop\n        /* \"#utility.yul\":4624:4626   */\n    tag_115:\n        /* \"#utility.yul\":4752:4754   */\n      0x20\n        /* \"#utility.yul\":4744:4750   */\n      dup3\n        /* \"#utility.yul\":4741:4755   */\n      lt\n        /* \"#utility.yul\":4721:4739   */\n      dup2\n        /* \"#utility.yul\":4718:4756   */\n      eq\n        /* \"#utility.yul\":4715:4717   */\n      iszero\n      tag_116\n      jumpi\n        /* \"#utility.yul\":4771:4789   */\n      tag_117\n      tag_118\n      jump\t// in\n    tag_117:\n        /* \"#utility.yul\":4715:4717   */\n    tag_116:\n        /* \"#utility.yul\":4536:4805   */\n      pop\n      swap2\n      swap1\n      pop\n      jump\t// out\n        /* \"#utility.yul\":4811:4978   */\n    tag_26:\n      0x00\n        /* \"#utility.yul\":4871:4893   */\n      tag_120\n        /* \"#utility.yul\":4887:4892   */\n      dup3\n        /* \"#utility.yul\":4871:4893   */\n      tag_90\n      jump\t// in\n    tag_120:\n        /* \"#utility.yul\":4862:4893   */\n      swap2\n      pop\n        /* \"#utility.yul\":4915:4919   */\n      0xff\n        /* \"#utility.yul\":4908:4913   */\n      dup3\n        /* \"#utility.yul\":4905:4920   */\n      eq\n        /* \"#utility.yul\":4902:4904   */\n      iszero\n      tag_121\n      jumpi\n        /* \"#utility.yul\":4923:4941   */\n      tag_122\n      tag_123\n      jump\t// in\n    tag_122:\n        /* \"#utility.yul\":4902:4904   */\n    tag_121:\n        /* \"#utility.yul\":4970:4971   */\n      0x01\n        /* \"#utility.yul\":4963:4968   */\n      dup3\n        /* \"#utility.yul\":4959:4972   */\n      add\n        /* \"#utility.yul\":4952:4972   */\n      swap1\n      pop\n        /* \"#utility.yul\":4852:4978   */\n      swap2\n      swap1\n      pop\n      jump\t// out\n        /* \"#utility.yul\":4984:5164   */\n    tag_123:\n        /* \"#utility.yul\":5032:5109   */\n      0x4e487b7100000000000000000000000000000000000000000000000000000000\n        /* \"#utility.yul\":5029:5030   */\n      0x00\n        /* \"#utility.yul\":5022:5110   */\n      mstore\n        /* \"#utility.yul\":5129:5133   */\n      0x11\n        /* \"#utility.yul\":5126:5127   */\n      0x04\n        /* \"#utility.yul\":5119:5134   */\n      mstore\n        /* \"#utility.yul\":5153:5157   */\n      0x24\n        /* \"#utility.yul\":5150:5151   */\n      0x00\n        /* \"#utility.yul\":5143:5158   */\n      revert\n        /* \"#utility.yul\":5170:5350   */\n    tag_118:\n        /* \"#utility.yul\":5218:5295   */\n      0x4e487b7100000000000000000000000000000000000000000000000000000000\n        /* \"#utility.yul\":5215:5216   */\n      0x00\n        /* \"#utility.yul\":5208:5296   */\n      mstore\n        /* \"#utility.yul\":5315:5319   */\n      0x22\n        /* \"#utility.yul\":5312:5313   */\n      0x04\n        /* \"#utility.yul\":5305:5320   */\n      mstore\n        /* \"#utility.yul\":5339:5343   */\n      0x24\n        /* \"#utility.yul\":5336:5337   */\n      0x00\n        /* \"#utility.yul\":5329:5344   */\n      revert\n        /* \"#utility.yul\":5356:5536   */\n    tag_99:\n        /* \"#utility.yul\":5404:5481   */\n      0x4e487b7100000000000000000000000000000000000000000000000000000000\n        /* \"#utility.yul\":5401:5402   */\n      0x00\n        /* \"#utility.yul\":5394:5482   */\n      mstore\n        /* \"#utility.yul\":5501:5505   */\n      0x41\n        /* \"#utility.yul\":5498:5499   */\n      0x04\n        /* \"#utility.yul\":5491:5506   */\n      mstore\n        /* \"#utility.yul\":5525:5529   */\n      0x24\n        /* \"#utility.yul\":5522:5523   */\n      0x00\n        /* \"#utility.yul\":5515:5530   */\n      revert\n        /* \"#utility.yul\":5542:5644   */\n    tag_86:\n      0x00\n        /* \"#utility.yul\":5634:5636   */\n      0x1f\n        /* \"#utility.yul\":5630:5637   */\n      not\n        /* \"#utility.yul\":5625:5627   */\n      0x1f\n        /* \"#utility.yul\":5618:5623   */\n      dup4\n        /* \"#utility.yul\":5614:5628   */\n      add\n        /* \"#utility.yul\":5610:5638   */\n      and\n        /* \"#utility.yul\":5600:5638   */\n      swap1\n      pop\n        /* \"#utility.yul\":5590:5644   */\n      swap2\n      swap1\n      pop\n      jump\t// out\n        /* \"#utility.yul\":5650:5772   */\n    tag_67:\n        /* \"#utility.yul\":5723:5747   */\n      tag_129\n        /* \"#utility.yul\":5741:5746   */\n      dup2\n        /* \"#utility.yul\":5723:5747   */\n      tag_105\n      jump\t// in\n    tag_129:\n        /* \"#utility.yul\":5716:5721   */\n      dup2\n        /* \"#utility.yul\":5713:5748   */\n      eq\n        /* \"#utility.yul\":5703:5705   */\n      tag_130\n      jumpi\n        /* \"#utility.yul\":5762:5763   */\n      0x00\n        /* \"#utility.yul\":5759:5760   */\n      dup1\n        /* \"#utility.yul\":5752:5764   */\n      revert\n        /* \"#utility.yul\":5703:5705   */\n    tag_130:\n        /* \"#utility.yul\":5693:5772   */\n      pop\n      jump\t// out\n\n    auxdata: 0xa26469706673582212203af6fae62ebaf4181e133eeeeee277099d527bc4708aed303bf9e7020bad19c964736f6c63430008000033\n}\n",
				"bytecode": {
					"linkReferences": {},
					"object": "60806040526000600160006101000a81548160ff021916908360ff16021790555034801561002c57600080fd5b5061072c8061003c6000396000f3fe608060405234801561001057600080fd5b50600436106100415760003560e01c806322f5b58d14610046578063267c68e0146100625780639e7a13ad14610080575b600080fd5b610060600480360381019061005b91906103e0565b6100b1565b005b61006a610169565b60405161007791906104f4565b60405180910390f35b61009a6004803603810190610095919061044c565b61017c565b6040516100a89291906104bd565b60405180910390f35b60006040518060400160405280848152602001838152509080600181540180825580915050600190039060005260206000209060020201600090919091909150600082015181600001908051906020019061010d9291906102c0565b50602082015181600101908051906020019061012a9291906102c0565b5050506001600081819054906101000a900460ff168092919061014c90610617565b91906101000a81548160ff021916908360ff160217905550505050565b600160009054906101000a900460ff1681565b6000818154811061018c57600080fd5b90600052602060002090600202016000915090508060000180546101af906105e5565b80601f01602080910402602001604051908101604052809291908181526020018280546101db906105e5565b80156102285780601f106101fd57610100808354040283529160200191610228565b820191906000526020600020905b81548152906001019060200180831161020b57829003601f168201915b50505050509080600101805461023d906105e5565b80601f0160208091040260200160405190810160405280929190818152602001828054610269906105e5565b80156102b65780601f1061028b576101008083540402835291602001916102b6565b820191906000526020600020905b81548152906001019060200180831161029957829003601f168201915b5050505050905082565b8280546102cc906105e5565b90600052602060002090601f0160209004810192826102ee5760008555610335565b82601f1061030757805160ff1916838001178555610335565b82800160010185558215610335579182015b82811115610334578251825591602001919060010190610319565b5b5090506103429190610346565b5090565b5b8082111561035f576000816000905550600101610347565b5090565b600061037661037184610540565b61050f565b90508281526020810184848401111561038e57600080fd5b6103998482856105a3565b509392505050565b600082601f8301126103b257600080fd5b81356103c2848260208601610363565b91505092915050565b6000813590506103da816106df565b92915050565b600080604083850312156103f357600080fd5b600083013567ffffffffffffffff81111561040d57600080fd5b610419858286016103a1565b925050602083013567ffffffffffffffff81111561043657600080fd5b610442858286016103a1565b9150509250929050565b60006020828403121561045e57600080fd5b600061046c848285016103cb565b91505092915050565b600061048082610570565b61048a818561057b565b935061049a8185602086016105b2565b6104a3816106ce565b840191505092915050565b6104b781610596565b82525050565b600060408201905081810360008301526104d78185610475565b905081810360208301526104eb8184610475565b90509392505050565b600060208201905061050960008301846104ae565b92915050565b6000604051905081810181811067ffffffffffffffff821117156105365761053561069f565b5b8060405250919050565b600067ffffffffffffffff82111561055b5761055a61069f565b5b601f19601f8301169050602081019050919050565b600081519050919050565b600082825260208201905092915050565b6000819050919050565b600060ff82169050919050565b82818337600083830152505050565b60005b838110156105d05780820151818401526020810190506105b5565b838111156105df576000848401525b50505050565b600060028204905060018216806105fd57607f821691505b6020821081141561061157610610610670565b5b50919050565b600061062282610596565b915060ff82141561063657610635610641565b5b600182019050919050565b7f4e487b7100000000000000000000000000000000000000000000000000000000600052601160045260246000fd5b7f4e487b7100000000000000000000000000000000000000000000000000000000600052602260045260246000fd5b7f4e487b7100000000000000000000000000000000000000000000000000000000600052604160045260246000fd5b6000601f19601f8301169050919050565b6106e88161058c565b81146106f357600080fd5b5056fea26469706673582212203af6fae62ebaf4181e133eeeeee277099d527bc4708aed303bf9e7020bad19c964736f6c63430008000033",
					"opcodes": "PUSH1 0x80 PUSH1 0x40 MSTORE PUSH1 0x0 PUSH1 0x1 PUSH1 0x0 PUSH2 0x100 EXP DUP2 SLOAD DUP2 PUSH1 0xFF MUL NOT AND SWAP1 DUP4 PUSH1 0xFF AND MUL OR SWAP1 SSTORE POP CALLVALUE DUP1 ISZERO PUSH2 0x2C JUMPI PUSH1 0x0 DUP1 REVERT JUMPDEST POP PUSH2 0x72C DUP1 PUSH2 0x3C PUSH1 0x0 CODECOPY PUSH1 0x0 RETURN INVALID PUSH1 0x80 PUSH1 0x40 MSTORE CALLVALUE DUP1 ISZERO PUSH2 0x10 JUMPI PUSH1 0x0 DUP1 REVERT JUMPDEST POP PUSH1 0x4 CALLDATASIZE LT PUSH2 0x41 JUMPI PUSH1 0x0 CALLDATALOAD PUSH1 0xE0 SHR DUP1 PUSH4 0x22F5B58D EQ PUSH2 0x46 JUMPI DUP1 PUSH4 0x267C68E0 EQ PUSH2 0x62 JUMPI DUP1 PUSH4 0x9E7A13AD EQ PUSH2 0x80 JUMPI JUMPDEST PUSH1 0x0 DUP1 REVERT JUMPDEST PUSH2 0x60 PUSH1 0x4 DUP1 CALLDATASIZE SUB DUP2 ADD SWAP1 PUSH2 0x5B SWAP2 SWAP1 PUSH2 0x3E0 JUMP JUMPDEST PUSH2 0xB1 JUMP JUMPDEST STOP JUMPDEST PUSH2 0x6A PUSH2 0x169 JUMP JUMPDEST PUSH1 0x40 MLOAD PUSH2 0x77 SWAP2 SWAP1 PUSH2 0x4F4 JUMP JUMPDEST PUSH1 0x40 MLOAD DUP1 SWAP2 SUB SWAP1 RETURN JUMPDEST PUSH2 0x9A PUSH1 0x4 DUP1 CALLDATASIZE SUB DUP2 ADD SWAP1 PUSH2 0x95 SWAP2 SWAP1 PUSH2 0x44C JUMP JUMPDEST PUSH2 0x17C JUMP JUMPDEST PUSH1 0x40 MLOAD PUSH2 0xA8 SWAP3 SWAP2 SWAP1 PUSH2 0x4BD JUMP JUMPDEST PUSH1 0x40 MLOAD DUP1 SWAP2 SUB SWAP1 RETURN JUMPDEST PUSH1 0x0 PUSH1 0x40 MLOAD DUP1 PUSH1 0x40 ADD PUSH1 0x40 MSTORE DUP1 DUP5 DUP2 MSTORE PUSH1 0x20 ADD DUP4 DUP2 MSTORE POP SWAP1 DUP1 PUSH1 0x1 DUP2 SLOAD ADD DUP1 DUP3 SSTORE DUP1 SWAP2 POP POP PUSH1 0x1 SWAP1 SUB SWAP1 PUSH1 0x0 MSTORE PUSH1 0x20 PUSH1 0x0 KECCAK256 SWAP1 PUSH1 0x2 MUL ADD PUSH1 0x0 SWAP1 SWAP2 SWAP1 SWAP2 SWAP1 SWAP2 POP PUSH1 0x0 DUP3 ADD MLOAD DUP2 PUSH1 0x0 ADD SWAP1 DUP1 MLOAD SWAP1 PUSH1 0x20 ADD SWAP1 PUSH2 0x10D SWAP3 SWAP2 SWAP1 PUSH2 0x2C0 JUMP JUMPDEST POP PUSH1 0x20 DUP3 ADD MLOAD DUP2 PUSH1 0x1 ADD SWAP1 DUP1 MLOAD SWAP1 PUSH1 0x20 ADD SWAP1 PUSH2 0x12A SWAP3 SWAP2 SWAP1 PUSH2 0x2C0 JUMP JUMPDEST POP POP POP PUSH1 0x1 PUSH1 0x0 DUP2 DUP2 SWAP1 SLOAD SWAP1 PUSH2 0x100 EXP SWAP1 DIV PUSH1 0xFF AND DUP1 SWAP3 SWAP2 SWAP1 PUSH2 0x14C SWAP1 PUSH2 0x617 JUMP JUMPDEST SWAP2 SWAP1 PUSH2 0x100 EXP DUP2 SLOAD DUP2 PUSH1 0xFF MUL NOT AND SWAP1 DUP4 PUSH1 0xFF AND MUL OR SWAP1 SSTORE POP POP POP POP JUMP JUMPDEST PUSH1 0x1 PUSH1 0x0 SWAP1 SLOAD SWAP1 PUSH2 0x100 EXP SWAP1 DIV PUSH1 0xFF AND DUP2 JUMP JUMPDEST PUSH1 0x0 DUP2 DUP2 SLOAD DUP2 LT PUSH2 0x18C JUMPI PUSH1 0x0 DUP1 REVERT JUMPDEST SWAP1 PUSH1 0x0 MSTORE PUSH1 0x20 PUSH1 0x0 KECCAK256 SWAP1 PUSH1 0x2 MUL ADD PUSH1 0x0 SWAP2 POP SWAP1 POP DUP1 PUSH1 0x0 ADD DUP1 SLOAD PUSH2 0x1AF SWAP1 PUSH2 0x5E5 JUMP JUMPDEST DUP1 PUSH1 0x1F ADD PUSH1 0x20 DUP1 SWAP2 DIV MUL PUSH1 0x20 ADD PUSH1 0x40 MLOAD SWAP1 DUP2 ADD PUSH1 0x40 MSTORE DUP1 SWAP3 SWAP2 SWAP1 DUP2 DUP2 MSTORE PUSH1 0x20 ADD DUP3 DUP1 SLOAD PUSH2 0x1DB SWAP1 PUSH2 0x5E5 JUMP JUMPDEST DUP1 ISZERO PUSH2 0x228 JUMPI DUP1 PUSH1 0x1F LT PUSH2 0x1FD JUMPI PUSH2 0x100 DUP1 DUP4 SLOAD DIV MUL DUP4 MSTORE SWAP2 PUSH1 0x20 ADD SWAP2 PUSH2 0x228 JUMP JUMPDEST DUP3 ADD SWAP2 SWAP1 PUSH1 0x0 MSTORE PUSH1 0x20 PUSH1 0x0 KECCAK256 SWAP1 JUMPDEST DUP2 SLOAD DUP2 MSTORE SWAP1 PUSH1 0x1 ADD SWAP1 PUSH1 0x20 ADD DUP1 DUP4 GT PUSH2 0x20B JUMPI DUP3 SWAP1 SUB PUSH1 0x1F AND DUP3 ADD SWAP2 JUMPDEST POP POP POP POP POP SWAP1 DUP1 PUSH1 0x1 ADD DUP1 SLOAD PUSH2 0x23D SWAP1 PUSH2 0x5E5 JUMP JUMPDEST DUP1 PUSH1 0x1F ADD PUSH1 0x20 DUP1 SWAP2 DIV MUL PUSH1 0x20 ADD PUSH1 0x40 MLOAD SWAP1 DUP2 ADD PUSH1 0x40 MSTORE DUP1 SWAP3 SWAP2 SWAP1 DUP2 DUP2 MSTORE PUSH1 0x20 ADD DUP3 DUP1 SLOAD PUSH2 0x269 SWAP1 PUSH2 0x5E5 JUMP JUMPDEST DUP1 ISZERO PUSH2 0x2B6 JUMPI DUP1 PUSH1 0x1F LT PUSH2 0x28B JUMPI PUSH2 0x100 DUP1 DUP4 SLOAD DIV MUL DUP4 MSTORE SWAP2 PUSH1 0x20 ADD SWAP2 PUSH2 0x2B6 JUMP JUMPDEST DUP3 ADD SWAP2 SWAP1 PUSH1 0x0 MSTORE PUSH1 0x20 PUSH1 0x0 KECCAK256 SWAP1 JUMPDEST DUP2 SLOAD DUP2 MSTORE SWAP1 PUSH1 0x1 ADD SWAP1 PUSH1 0x20 ADD DUP1 DUP4 GT PUSH2 0x299 JUMPI DUP3 SWAP1 SUB PUSH1 0x1F AND DUP3 ADD SWAP2 JUMPDEST POP POP POP POP POP SWAP1 POP DUP3 JUMP JUMPDEST DUP3 DUP1 SLOAD PUSH2 0x2CC SWAP1 PUSH2 0x5E5 JUMP JUMPDEST SWAP1 PUSH1 0x0 MSTORE PUSH1 0x20 PUSH1 0x0 KECCAK256 SWAP1 PUSH1 0x1F ADD PUSH1 0x20 SWAP1 DIV DUP2 ADD SWAP3 DUP3 PUSH2 0x2EE JUMPI PUSH1 0x0 DUP6 SSTORE PUSH2 0x335 JUMP JUMPDEST DUP3 PUSH1 0x1F LT PUSH2 0x307 JUMPI DUP1 MLOAD PUSH1 0xFF NOT AND DUP4 DUP1 ADD OR DUP6 SSTORE PUSH2 0x335 JUMP JUMPDEST DUP3 DUP1 ADD PUSH1 0x1 ADD DUP6 SSTORE DUP3 ISZERO PUSH2 0x335 JUMPI SWAP2 DUP3 ADD JUMPDEST DUP3 DUP2 GT ISZERO PUSH2 0x334 JUMPI DUP3 MLOAD DUP3 SSTORE SWAP2 PUSH1 0x20 ADD SWAP2 SWAP1 PUSH1 0x1 ADD SWAP1 PUSH2 0x319 JUMP JUMPDEST JUMPDEST POP SWAP1 POP PUSH2 0x342 SWAP2 SWAP1 PUSH2 0x346 JUMP JUMPDEST POP SWAP1 JUMP JUMPDEST JUMPDEST DUP1 DUP3 GT ISZERO PUSH2 0x35F JUMPI PUSH1 0x0 DUP2 PUSH1 0x0 SWAP1 SSTORE POP PUSH1 0x1 ADD PUSH2 0x347 JUMP JUMPDEST POP SWAP1 JUMP JUMPDEST PUSH1 0x0 PUSH2 0x376 PUSH2 0x371 DUP5 PUSH2 0x540 JUMP JUMPDEST PUSH2 0x50F JUMP JUMPDEST SWAP1 POP DUP3 DUP2 MSTORE PUSH1 0x20 DUP2 ADD DUP5 DUP5 DUP5 ADD GT ISZERO PUSH2 0x38E JUMPI PUSH1 0x0 DUP1 REVERT JUMPDEST PUSH2 0x399 DUP5 DUP3 DUP6 PUSH2 0x5A3 JUMP JUMPDEST POP SWAP4 SWAP3 POP POP POP JUMP JUMPDEST PUSH1 0x0 DUP3 PUSH1 0x1F DUP4 ADD SLT PUSH2 0x3B2 JUMPI PUSH1 0x0 DUP1 REVERT JUMPDEST DUP2 CALLDATALOAD PUSH2 0x3C2 DUP5 DUP3 PUSH1 0x20 DUP7 ADD PUSH2 0x363 JUMP JUMPDEST SWAP2 POP POP SWAP3 SWAP2 POP POP JUMP JUMPDEST PUSH1 0x0 DUP2 CALLDATALOAD SWAP1 POP PUSH2 0x3DA DUP2 PUSH2 0x6DF JUMP JUMPDEST SWAP3 SWAP2 POP POP JUMP JUMPDEST PUSH1 0x0 DUP1 PUSH1 0x40 DUP4 DUP6 SUB SLT ISZERO PUSH2 0x3F3 JUMPI PUSH1 0x0 DUP1 REVERT JUMPDEST PUSH1 0x0 DUP4 ADD CALLDATALOAD PUSH8 0xFFFFFFFFFFFFFFFF DUP2 GT ISZERO PUSH2 0x40D JUMPI PUSH1 0x0 DUP1 REVERT JUMPDEST PUSH2 0x419 DUP6 DUP3 DUP7 ADD PUSH2 0x3A1 JUMP JUMPDEST SWAP3 POP POP PUSH1 0x20 DUP4 ADD CALLDATALOAD PUSH8 0xFFFFFFFFFFFFFFFF DUP2 GT ISZERO PUSH2 0x436 JUMPI PUSH1 0x0 DUP1 REVERT JUMPDEST PUSH2 0x442 DUP6 DUP3 DUP7 ADD PUSH2 0x3A1 JUMP JUMPDEST SWAP2 POP POP SWAP3 POP SWAP3 SWAP1 POP JUMP JUMPDEST PUSH1 0x0 PUSH1 0x20 DUP3 DUP5 SUB SLT ISZERO PUSH2 0x45E JUMPI PUSH1 0x0 DUP1 REVERT JUMPDEST PUSH1 0x0 PUSH2 0x46C DUP5 DUP3 DUP6 ADD PUSH2 0x3CB JUMP JUMPDEST SWAP2 POP POP SWAP3 SWAP2 POP POP JUMP JUMPDEST PUSH1 0x0 PUSH2 0x480 DUP3 PUSH2 0x570 JUMP JUMPDEST PUSH2 0x48A DUP2 DUP6 PUSH2 0x57B JUMP JUMPDEST SWAP4 POP PUSH2 0x49A DUP2 DUP6 PUSH1 0x20 DUP7 ADD PUSH2 0x5B2 JUMP JUMPDEST PUSH2 0x4A3 DUP2 PUSH2 0x6CE JUMP JUMPDEST DUP5 ADD SWAP2 POP POP SWAP3 SWAP2 POP POP JUMP JUMPDEST PUSH2 0x4B7 DUP2 PUSH2 0x596 JUMP JUMPDEST DUP3 MSTORE POP POP JUMP JUMPDEST PUSH1 0x0 PUSH1 0x40 DUP3 ADD SWAP1 POP DUP2 DUP2 SUB PUSH1 0x0 DUP4 ADD MSTORE PUSH2 0x4D7 DUP2 DUP6 PUSH2 0x475 JUMP JUMPDEST SWAP1 POP DUP2 DUP2 SUB PUSH1 0x20 DUP4 ADD MSTORE PUSH2 0x4EB DUP2 DUP5 PUSH2 0x475 JUMP JUMPDEST SWAP1 POP SWAP4 SWAP3 POP POP POP JUMP JUMPDEST PUSH1 0x0 PUSH1 0x20 DUP3 ADD SWAP1 POP PUSH2 0x509 PUSH1 0x0 DUP4 ADD DUP5 PUSH2 0x4AE JUMP JUMPDEST SWAP3 SWAP2 POP POP JUMP JUMPDEST PUSH1 0x0 PUSH1 0x40 MLOAD SWAP1 POP DUP2 DUP2 ADD DUP2 DUP2 LT PUSH8 0xFFFFFFFFFFFFFFFF DUP3 GT OR ISZERO PUSH2 0x536 JUMPI PUSH2 0x535 PUSH2 0x69F JUMP JUMPDEST JUMPDEST DUP1 PUSH1 0x40 MSTORE POP SWAP2 SWAP1 POP JUMP JUMPDEST PUSH1 0x0 PUSH8 0xFFFFFFFFFFFFFFFF DUP3 GT ISZERO PUSH2 0x55B JUMPI PUSH2 0x55A PUSH2 0x69F JUMP JUMPDEST JUMPDEST PUSH1 0x1F NOT PUSH1 0x1F DUP4 ADD AND SWAP1 POP PUSH1 0x20 DUP2 ADD SWAP1 POP SWAP2 SWAP1 POP JUMP JUMPDEST PUSH1 0x0 DUP2 MLOAD SWAP1 POP SWAP2 SWAP1 POP JUMP JUMPDEST PUSH1 0x0 DUP3 DUP3 MSTORE PUSH1 0x20 DUP3 ADD SWAP1 POP SWAP3 SWAP2 POP POP JUMP JUMPDEST PUSH1 0x0 DUP2 SWAP1 POP SWAP2 SWAP1 POP JUMP JUMPDEST PUSH1 0x0 PUSH1 0xFF DUP3 AND SWAP1 POP SWAP2 SWAP1 POP JUMP JUMPDEST DUP3 DUP2 DUP4 CALLDATACOPY PUSH1 0x0 DUP4 DUP4 ADD MSTORE POP POP POP JUMP JUMPDEST PUSH1 0x0 JUMPDEST DUP4 DUP2 LT ISZERO PUSH2 0x5D0 JUMPI DUP1 DUP3 ADD MLOAD DUP2 DUP5 ADD MSTORE PUSH1 0x20 DUP2 ADD SWAP1 POP PUSH2 0x5B5 JUMP JUMPDEST DUP4 DUP2 GT ISZERO PUSH2 0x5DF JUMPI PUSH1 0x0 DUP5 DUP5 ADD MSTORE JUMPDEST POP POP POP POP JUMP JUMPDEST PUSH1 0x0 PUSH1 0x2 DUP3 DIV SWAP1 POP PUSH1 0x1 DUP3 AND DUP1 PUSH2 0x5FD JUMPI PUSH1 0x7F DUP3 AND SWAP2 POP JUMPDEST PUSH1 0x20 DUP3 LT DUP2 EQ ISZERO PUSH2 0x611 JUMPI PUSH2 0x610 PUSH2 0x670 JUMP JUMPDEST JUMPDEST POP SWAP2 SWAP1 POP JUMP JUMPDEST PUSH1 0x0 PUSH2 0x622 DUP3 PUSH2 0x596 JUMP JUMPDEST SWAP2 POP PUSH1 0xFF DUP3 EQ ISZERO PUSH2 0x636 JUMPI PUSH2 0x635 PUSH2 0x641 JUMP JUMPDEST JUMPDEST PUSH1 0x1 DUP3 ADD SWAP1 POP SWAP2 SWAP1 POP JUMP JUMPDEST PUSH32 0x4E487B7100000000000000000000000000000000000000000000000000000000 PUSH1 0x0 MSTORE PUSH1 0x11 PUSH1 0x4 MSTORE PUSH1 0x24 PUSH1 0x0 REVERT JUMPDEST PUSH32 0x4E487B7100000000000000000000000000000000000000000000000000000000 PUSH1 0x0 MSTORE PUSH1 0x22 PUSH1 0x4 MSTORE PUSH1 0x24 PUSH1 0x0 REVERT JUMPDEST PUSH32 0x4E487B7100000000000000000000000000000000000000000000000000000000 PUSH1 0x0 MSTORE PUSH1 0x41 PUSH1 0x4 MSTORE PUSH1 0x24 PUSH1 0x0 REVERT JUMPDEST PUSH1 0x0 PUSH1 0x1F NOT PUSH1 0x1F DUP4 ADD AND SWAP1 POP SWAP2 SWAP1 POP JUMP JUMPDEST PUSH2 0x6E8 DUP2 PUSH2 0x58C JUMP JUMPDEST DUP2 EQ PUSH2 0x6F3 JUMPI PUSH1 0x0 DUP1 REVERT JUMPDEST POP JUMP INVALID LOG2 PUSH5 0x6970667358 0x22 SLT KECCAK256 GASPRICE 0xF6 STATICCALL 0xE6 0x2E 0xBA DELEGATECALL XOR 0x1E SGT RETURNDATACOPY 0xEE 0xEE 0xE2 PUSH24 0x99D527BC4708AED303BF9E7020BAD19C964736F6C634300 ADDMOD STOP STOP CALLER "
				},
				"gasEstimates": {
					"creation": {
						"codeDepositCost": "367200",
						"executionCost": "21272",
						"totalCost": "388472"
					},
					"external": {
						"addPerson(string,string)": "infinite",
						"people(uint256)": "infinite",
						"peopleCount()": "1171"
					}
				},
				"methodIdentifiers": {
					"addPerson(string,string)": "22f5b58d",
					"people(uint256)": "9e7a13ad",
					"peopleCount()": "267c68e0"
				}
			},
			"storageLayout": {
				"storage": [
					{
						"astId": 10,
						"contract": "bc-lab6/myContractStruct.sol:myContractStruct",
						"label": "people",
						"offset": 0,
						"slot": "0",
						"type": "t_array(t_struct(Person)6_storage)dyn_storage"
					},
					{
						"astId": 13,
						"contract": "bc-lab6/myContractStruct.sol:myContractStruct",
						"label": "peopleCount",
						"offset": 0,
						"slot": "1",
						"type": "t_uint8"
					}
				],
				"types": {
					"t_array(t_struct(Person)6_storage)dyn_storage": {
						"base": "t_struct(Person)6_storage",
						"encoding": "dynamic_array",
						"label": "struct myContractStruct.Person[]",
						"numberOfBytes": "32"
					},
					"t_string_storage": {
						"encoding": "bytes",
						"label": "string",
						"numberOfBytes": "32"
					},
					"t_struct(Person)6_storage": {
						"encoding": "inplace",
						"label": "struct myContractStruct.Person",
						"members": [
							{
								"astId": 3,
								"contract": "bc-lab6/myContractStruct.sol:myContractStruct",
								"label": "_firstName",
								"offset": 0,
								"slot": "0",
								"type": "t_string_storage"
							},
							{
								"astId": 5,
								"contract": "bc-lab6/myContractStruct.sol:myContractStruct",
								"label": "_lastName",
								"offset": 0,
								"slot": "1",
								"type": "t_string_storage"
							}
						],
						"numberOfBytes": "64"
					},
					"t_uint8": {
						"encoding": "inplace",
						"label": "uint8",
						"numberOfBytes": "1"
					}
				}
			},
			"userdoc": {
				"kind": "user",
				"methods": {},
				"version": 1
			}
		}
	}
}