{
	"data": {
		"bytecode": {
			"linkReferences": {},
			"object": "6080604052348015600f57600080fd5b5060958061001e6000396000f3fe6080604052348015600f57600080fd5b5060043610603c5760003560e01c80632bf0f81c1460415780637be1621414604957806396895a77146051575b600080fd5b60476059565b005b604f605b565b005b6057605d565b005b565b565b56fea2646970667358221220889378f458629c079818c1460bd4f7a4441cd24e64fea2a6e98ffeaa44427b5e64736f6c63430008110033",
			"opcodes": "PUSH1 0x80 PUSH1 0x40 MSTORE CALLVALUE DUP1 ISZERO PUSH1 0xF JUMPI PUSH1 0x0 DUP1 REVERT JUMPDEST POP PUSH1 0x95 DUP1 PUSH2 0x1E PUSH1 0x0 CODECOPY PUSH1 0x0 RETURN INVALID PUSH1 0x80 PUSH1 0x40 MSTORE CALLVALUE DUP1 ISZERO PUSH1 0xF JUMPI PUSH1 0x0 DUP1 REVERT JUMPDEST POP PUSH1 0x4 CALLDATASIZE LT PUSH1 0x3C JUMPI PUSH1 0x0 CALLDATALOAD PUSH1 0xE0 SHR DUP1 PUSH4 0x2BF0F81C EQ PUSH1 0x41 JUMPI DUP1 PUSH4 0x7BE16214 EQ PUSH1 0x49 JUMPI DUP1 PUSH4 0x96895A77 EQ PUSH1 0x51 JUMPI JUMPDEST PUSH1 0x0 DUP1 REVERT JUMPDEST PUSH1 0x47 PUSH1 0x59 JUMP JUMPDEST STOP JUMPDEST PUSH1 0x4F PUSH1 0x5B JUMP JUMPDEST STOP JUMPDEST PUSH1 0x57 PUSH1 0x5D JUMP JUMPDEST STOP JUMPDEST JUMP JUMPDEST JUMP JUMPDEST JUMP INVALID LOG2 PUSH5 0x6970667358 0x22 SLT KECCAK256 DUP9 SWAP4 PUSH25 0xF458629C079818C1460BD4F7A4441CD24E64FEA2A6E98FFEAA DIFFICULTY TIMESTAMP PUSH28 0x5E64736F6C6343000811003300000000000000000000000000000000 "
		},
		"gasEstimates": {
			"creation": {
				"codeDepositCost": "29800",
				"executionCost": "81",
				"totalCost": "29881"
			},
			"external": {
				"determineEligibility()": "166",
				"setBidAmount()": "144",
				"setName()": "122"
			}
		},
		"methodIdentifiers": {
			"determineEligibility()": "96895a77",
			"setBidAmount()": "7be16214",
			"setName()": "2bf0f81c"
		}
	},
	"abi": [
		{
			"inputs": [],
			"name": "determineEligibility",
			"outputs": [],
			"stateMutability": "nonpayable",
			"type": "function"
		},
		{
			"inputs": [],
			"name": "setBidAmount",
			"outputs": [],
			"stateMutability": "nonpayable",
			"type": "function"
		},
		{
			"inputs": [],
			"name": "setName",
			"outputs": [],
			"stateMutability": "nonpayable",
			"type": "function"
		}
	]
}