{
  "contractName": "SimpleStorage",
  "abi": [
    {
      "inputs": [
        {
          "internalType": "uint256",
          "name": "data",
          "type": "uint256"
        }
      ],
      "name": "set",
      "outputs": [],
      "stateMutability": "nonpayable",
      "type": "function"
    },
    {
      "inputs": [],
      "name": "get",
      "outputs": [
        {
          "internalType": "uint256",
          "name": "",
          "type": "uint256"
        }
      ],
      "stateMutability": "view",
      "type": "function"
    },
    {
      "inputs": [
        {
          "internalType": "uint256",
          "name": "n",
          "type": "uint256"
        }
      ],
      "name": "increment",
      "outputs": [],
      "stateMutability": "nonpayable",
      "type": "function"
    },
    {
      "inputs": [
        {
          "internalType": "uint256",
          "name": "n",
          "type": "uint256"
        }
      ],
      "name": "decrement",
      "outputs": [],
      "stateMutability": "nonpayable",
      "type": "function"
    }
  ],
  "bytecode": "0x608060405234801561001057600080fd5b5061026b806100206000396000f3fe608060405234801561001057600080fd5b506004361061004c5760003560e01c80633a9ebefd1461005157806360fe47b11461006d5780636d4ce63c146100895780637cf5dab0146100a7575b600080fd5b61006b60048036038101906100669190610147565b6100c3565b005b61008760048036038101906100829190610147565b6100de565b005b6100916100e8565b60405161009e9190610183565b60405180910390f35b6100c160048036038101906100bc9190610147565b6100f1565b005b806000808282546100d491906101cd565b9250508190555050565b8060008190555050565b60008054905090565b806000808282546101029190610201565b9250508190555050565b600080fd5b6000819050919050565b61012481610111565b811461012f57600080fd5b50565b6000813590506101418161011b565b92915050565b60006020828403121561015d5761015c61010c565b5b600061016b84828501610132565b91505092915050565b61017d81610111565b82525050565b60006020820190506101986000830184610174565b92915050565b7f4e487b7100000000000000000000000000000000000000000000000000000000600052601160045260246000fd5b60006101d882610111565b91506101e383610111565b92508282039050818111156101fb576101fa61019e565b5b92915050565b600061020c82610111565b915061021783610111565b925082820190508082111561022f5761022e61019e565b5b9291505056fea2646970667358221220e9caf5c4a8b811d9135c57aed1c36690f5f159b09aa7babc1a1497381529cbec64736f6c63430008120033",
  "immutableReferences": {},
  "source": "//SPDX-License-Identifier: MIT\r\npragma solidity ^0.8.0;\r\n\r\ncontract SimpleStorage {\r\n    //************************\r\n    //******Exercise 4********\r\n    //************************\r\n    uint storedData;\r\n\r\n    // no need memory/calldata \r\n    // bcz uint is not a array/structured/mapping type.\r\n    function set(uint data) public {\r\n        storedData = data;\r\n    }\r\n\r\n    function get() public view returns (uint) {\r\n        return storedData;\r\n    }\r\n\r\n    function increment(uint n) public {\r\n        // Use function modifier,\r\n        // dont use if... logic here, \r\n        // bcz required to execute the function\r\n        storedData += n;\r\n    }\r\n\r\n    function decrement(uint n) public {\r\n        storedData -= n;\r\n    }\r\n}",
  "sourcePath": "C:\\Users\\User\\Desktop\\bc-lab4\\contracts\\SimpleStorage.sol",
  "compiler": {
    "name": "solc",
    "version": "0.8.18+commit.87f61d96.Emscripten.clang"
  },
  "schemaVersion": "3.4.12",
  "updatedAt": "2023-03-08T03:56:28.669Z",
  "devdoc": {
    "kind": "dev",
    "methods": {},
    "version": 1
  },
  "userdoc": {
    "kind": "user",
    "methods": {},
    "version": 1
  }
}