{
	"bc-lab5/singleinheritance.sol": {
		"caller": {
			"abi": [
				{
					"inputs": [],
					"stateMutability": "nonpayable",
					"type": "constructor"
				},
				{
					"inputs": [],
					"name": "data1",
					"outputs": [
						{
							"internalType": "uint256",
							"name": "",
							"type": "uint256"
						}
					],
					"stateMutability": "view",
					"type": "function"
				},
				{
					"inputs": [],
					"name": "data2",
					"outputs": [
						{
							"internalType": "int256",
							"name": "",
							"type": "int256"
						}
					],
					"stateMutability": "view",
					"type": "function"
				},
				{
					"inputs": [],
					"name": "data3",
					"outputs": [
						{
							"internalType": "bool",
							"name": "",
							"type": "bool"
						}
					],
					"stateMutability": "view",
					"type": "function"
				},
				{
					"inputs": [],
					"name": "data4",
					"outputs": [
						{
							"internalType": "uint8",
							"name": "",
							"type": "uint8"
						}
					],
					"stateMutability": "view",
					"type": "function"
				},
				{
					"inputs": [],
					"name": "getAddress",
					"outputs": [
						{
							"internalType": "address",
							"name": "",
							"type": "address"
						},
						{
							"internalType": "address",
							"name": "",
							"type": "address"
						}
					],
					"stateMutability": "view",
					"type": "function"
				},
				{
					"inputs": [],
					"name": "testCallInherit",
					"outputs": [
						{
							"internalType": "uint256",
							"name": "",
							"type": "uint256"
						}
					],
					"stateMutability": "nonpayable",
					"type": "function"
				}
			],
			"devdoc": {
				"kind": "dev",
				"methods": {},
				"version": 1
			},
			"evm": {
				"assembly": "    /* \"bc-lab5/singleinheritance.sol\":366:1045  contract caller {... */\n  mstore(0x40, 0x80)\n    /* \"bc-lab5/singleinheritance.sol\":409:410  1 */\n  0x01\n    /* \"bc-lab5/singleinheritance.sol\":389:410  uint public data1 = 1 */\n  0x00\n  sstore\n    /* \"bc-lab5/singleinheritance.sol\":459:462  -99 */\n  0xffffffffffffffffffffffffffffffffffffffffffffffffffffffffffffff9d\n    /* \"bc-lab5/singleinheritance.sol\":440:462  int public data2 = -99 */\n  0x01\n  sstore\n    /* \"bc-lab5/singleinheritance.sol\":489:493  true */\n  0x01\n    /* \"bc-lab5/singleinheritance.sol\":469:493  bool public data3 = true */\n  0x02\n  exp(0x0100, 0x00)\n  dup2\n  sload\n  dup2\n  0xff\n  mul\n  not\n  and\n  swap1\n  dup4\n  iszero\n  iszero\n  mul\n  or\n  swap1\n  sstore\n  pop\n    /* \"bc-lab5/singleinheritance.sol\":521:522  9 */\n  0x09\n    /* \"bc-lab5/singleinheritance.sol\":500:522  uint8 public data4 = 9 */\n  0x02\n  exp(0x0100, 0x01)\n  dup2\n  sload\n  dup2\n  0xff\n  mul\n  not\n  and\n  swap1\n  dup4\n  0xff\n  and\n  mul\n  or\n  swap1\n  sstore\n  pop\n    /* \"bc-lab5/singleinheritance.sol\":563:574  new child() */\n  mload(0x40)\n  tag_1\n  swap1\n  tag_2\n  jump\t// in\ntag_1:\n  mload(0x40)\n  dup1\n  swap2\n  sub\n  swap1\n  0x00\n  create\n  dup1\n  iszero\n  dup1\n  iszero\n  tag_3\n  jumpi\n  returndatasize\n  0x00\n  dup1\n  returndatacopy\n  revert(0x00, returndatasize)\ntag_3:\n  pop\n    /* \"bc-lab5/singleinheritance.sol\":540:574  child child_instance = new child() */\n  0x02\n  dup1\n  0x0100\n  exp\n  dup2\n  sload\n  dup2\n  0xffffffffffffffffffffffffffffffffffffffff\n  mul\n  not\n  and\n  swap1\n  dup4\n  0xffffffffffffffffffffffffffffffffffffffff\n  and\n  mul\n  or\n  swap1\n  sstore\n  pop\n    /* \"bc-lab5/singleinheritance.sol\":618:731  constructor (){... */\n  callvalue\n  dup1\n  iszero\n  tag_4\n  jumpi\n  0x00\n  dup1\n  revert\ntag_4:\n  pop\n    /* \"bc-lab5/singleinheritance.sol\":712:722  msg.sender */\n  caller\n    /* \"bc-lab5/singleinheritance.sol\":689:701  OwnerAddress */\n  0x03\n  0x00\n    /* \"bc-lab5/singleinheritance.sol\":689:723  OwnerAddress = payable(msg.sender) */\n  0x0100\n  exp\n  dup2\n  sload\n  dup2\n  0xffffffffffffffffffffffffffffffffffffffff\n  mul\n  not\n  and\n  swap1\n  dup4\n  0xffffffffffffffffffffffffffffffffffffffff\n  and\n  mul\n  or\n  swap1\n  sstore\n  pop\n    /* \"bc-lab5/singleinheritance.sol\":366:1045  contract caller {... */\n  jump(tag_7)\ntag_2:\n  dataSize(sub_1)\n  dup1\n  dataOffset(sub_1)\n  dup4\n  codecopy\n  add\n  swap1\n  jump\t// out\ntag_7:\n  dataSize(sub_0)\n  dup1\n  dataOffset(sub_0)\n  0x00\n  codecopy\n  0x00\n  return\nstop\n\nsub_0: assembly {\n        /* \"bc-lab5/singleinheritance.sol\":366:1045  contract caller {... */\n      mstore(0x40, 0x80)\n      callvalue\n      dup1\n      iszero\n      tag_1\n      jumpi\n      0x00\n      dup1\n      revert\n    tag_1:\n      pop\n      jumpi(tag_2, lt(calldatasize, 0x04))\n      shr(0xe0, calldataload(0x00))\n      dup1\n      0x38cc4831\n      eq\n      tag_3\n      jumpi\n      dup1\n      0x61d9e726\n      eq\n      tag_4\n      jumpi\n      dup1\n      0x9ffd85c4\n      eq\n      tag_5\n      jumpi\n      dup1\n      0xe3a7fd75\n      eq\n      tag_6\n      jumpi\n      dup1\n      0xf3d9f284\n      eq\n      tag_7\n      jumpi\n      dup1\n      0xfc26b0ab\n      eq\n      tag_8\n      jumpi\n    tag_2:\n      0x00\n      dup1\n      revert\n        /* \"bc-lab5/singleinheritance.sol\":739:898  function getAddress() public view returns (address, address) {... */\n    tag_3:\n      tag_9\n      tag_10\n      jump\t// in\n    tag_9:\n      mload(0x40)\n      tag_11\n      swap3\n      swap2\n      swap1\n      tag_12\n      jump\t// in\n    tag_11:\n      mload(0x40)\n      dup1\n      swap2\n      sub\n      swap1\n      return\n        /* \"bc-lab5/singleinheritance.sol\":500:522  uint8 public data4 = 9 */\n    tag_4:\n      tag_13\n      tag_14\n      jump\t// in\n    tag_13:\n      mload(0x40)\n      tag_15\n      swap2\n      swap1\n      tag_16\n      jump\t// in\n    tag_15:\n      mload(0x40)\n      dup1\n      swap2\n      sub\n      swap1\n      return\n        /* \"bc-lab5/singleinheritance.sol\":389:410  uint public data1 = 1 */\n    tag_5:\n      tag_17\n      tag_18\n      jump\t// in\n    tag_17:\n      mload(0x40)\n      tag_19\n      swap2\n      swap1\n      tag_20\n      jump\t// in\n    tag_19:\n      mload(0x40)\n      dup1\n      swap2\n      sub\n      swap1\n      return\n        /* \"bc-lab5/singleinheritance.sol\":440:462  int public data2 = -99 */\n    tag_6:\n      tag_21\n      tag_22\n      jump\t// in\n    tag_21:\n      mload(0x40)\n      tag_23\n      swap2\n      swap1\n      tag_24\n      jump\t// in\n    tag_23:\n      mload(0x40)\n      dup1\n      swap2\n      sub\n      swap1\n      return\n        /* \"bc-lab5/singleinheritance.sol\":906:1042  function testCallInherit() public returns (uint) {... */\n    tag_7:\n      tag_25\n      tag_26\n      jump\t// in\n    tag_25:\n      mload(0x40)\n      tag_27\n      swap2\n      swap1\n      tag_20\n      jump\t// in\n    tag_27:\n      mload(0x40)\n      dup1\n      swap2\n      sub\n      swap1\n      return\n        /* \"bc-lab5/singleinheritance.sol\":469:493  bool public data3 = true */\n    tag_8:\n      tag_28\n      tag_29\n      jump\t// in\n    tag_28:\n      mload(0x40)\n      tag_30\n      swap2\n      swap1\n      tag_31\n      jump\t// in\n    tag_30:\n      mload(0x40)\n      dup1\n      swap2\n      sub\n      swap1\n      return\n        /* \"bc-lab5/singleinheritance.sol\":739:898  function getAddress() public view returns (address, address) {... */\n    tag_10:\n        /* \"bc-lab5/singleinheritance.sol\":782:789  address */\n      0x00\n        /* \"bc-lab5/singleinheritance.sol\":791:798  address */\n      dup1\n        /* \"bc-lab5/singleinheritance.sol\":811:831  address localAddress */\n      0x00\n        /* \"bc-lab5/singleinheritance.sol\":834:844  msg.sender */\n      caller\n        /* \"bc-lab5/singleinheritance.sol\":811:844  address localAddress = msg.sender */\n      swap1\n      pop\n        /* \"bc-lab5/singleinheritance.sol\":863:875  OwnerAddress */\n      0x03\n      0x00\n      swap1\n      sload\n      swap1\n      0x0100\n      exp\n      swap1\n      div\n      0xffffffffffffffffffffffffffffffffffffffff\n      and\n        /* \"bc-lab5/singleinheritance.sol\":877:889  localAddress */\n      dup2\n        /* \"bc-lab5/singleinheritance.sol\":855:890  return (OwnerAddress, localAddress) */\n      swap3\n      pop\n      swap3\n      pop\n      pop\n        /* \"bc-lab5/singleinheritance.sol\":739:898  function getAddress() public view returns (address, address) {... */\n      swap1\n      swap2\n      jump\t// out\n        /* \"bc-lab5/singleinheritance.sol\":500:522  uint8 public data4 = 9 */\n    tag_14:\n      0x02\n      0x01\n      swap1\n      sload\n      swap1\n      0x0100\n      exp\n      swap1\n      div\n      0xff\n      and\n      dup2\n      jump\t// out\n        /* \"bc-lab5/singleinheritance.sol\":389:410  uint public data1 = 1 */\n    tag_18:\n      sload(0x00)\n      dup2\n      jump\t// out\n        /* \"bc-lab5/singleinheritance.sol\":440:462  int public data2 = -99 */\n    tag_22:\n      sload(0x01)\n      dup2\n      jump\t// out\n        /* \"bc-lab5/singleinheritance.sol\":906:1042  function testCallInherit() public returns (uint) {... */\n    tag_26:\n        /* \"bc-lab5/singleinheritance.sol\":949:953  uint */\n      0x00\n        /* \"bc-lab5/singleinheritance.sol\":966:980  child_instance */\n      0x02\n      dup1\n      sload\n      swap1\n      0x0100\n      exp\n      swap1\n      div\n      0xffffffffffffffffffffffffffffffffffffffff\n      and\n        /* \"bc-lab5/singleinheritance.sol\":966:989  child_instance.setValue */\n      0xffffffffffffffffffffffffffffffffffffffff\n      and\n      0x4fa519fa\n        /* \"bc-lab5/singleinheritance.sol\":966:991  child_instance.setValue() */\n      mload(0x40)\n      dup2\n      0xffffffff\n      and\n      0xe0\n      shl\n      dup2\n      mstore\n      0x04\n      add\n      0x00\n      mload(0x40)\n      dup1\n      dup4\n      sub\n      dup2\n      0x00\n      dup8\n      dup1\n      extcodesize\n      iszero\n      dup1\n      iszero\n      tag_34\n      jumpi\n      0x00\n      dup1\n      revert\n    tag_34:\n      pop\n      gas\n      call\n      iszero\n      dup1\n      iszero\n      tag_36\n      jumpi\n      returndatasize\n      0x00\n      dup1\n      returndatacopy\n      revert(0x00, returndatasize)\n    tag_36:\n      pop\n      pop\n      pop\n      pop\n        /* \"bc-lab5/singleinheritance.sol\":1009:1023  child_instance */\n      0x02\n      dup1\n      sload\n      swap1\n      0x0100\n      exp\n      swap1\n      div\n      0xffffffffffffffffffffffffffffffffffffffff\n      and\n        /* \"bc-lab5/singleinheritance.sol\":1009:1032  child_instance.getValue */\n      0xffffffffffffffffffffffffffffffffffffffff\n      and\n      0x20965255\n        /* \"bc-lab5/singleinheritance.sol\":1009:1034  child_instance.getValue() */\n      mload(0x40)\n      dup2\n      0xffffffff\n      and\n      0xe0\n      shl\n      dup2\n      mstore\n      0x04\n      add\n      0x20\n      mload(0x40)\n      dup1\n      dup4\n      sub\n      dup2\n      dup7\n      gas\n      staticcall\n      iszero\n      dup1\n      iszero\n      tag_38\n      jumpi\n      returndatasize\n      0x00\n      dup1\n      returndatacopy\n      revert(0x00, returndatasize)\n    tag_38:\n      pop\n      pop\n      pop\n      pop\n      mload(0x40)\n      returndatasize\n      not(0x1f)\n      0x1f\n      dup3\n      add\n      and\n      dup3\n      add\n      dup1\n      0x40\n      mstore\n      pop\n      dup2\n      add\n      swap1\n      tag_39\n      swap2\n      swap1\n      tag_40\n      jump\t// in\n    tag_39:\n        /* \"bc-lab5/singleinheritance.sol\":1002:1034  return child_instance.getValue() */\n      swap1\n      pop\n        /* \"bc-lab5/singleinheritance.sol\":906:1042  function testCallInherit() public returns (uint) {... */\n      swap1\n      jump\t// out\n        /* \"bc-lab5/singleinheritance.sol\":469:493  bool public data3 = true */\n    tag_29:\n      0x02\n      0x00\n      swap1\n      sload\n      swap1\n      0x0100\n      exp\n      swap1\n      div\n      0xff\n      and\n      dup2\n      jump\t// out\n        /* \"#utility.yul\":7:133   */\n    tag_41:\n        /* \"#utility.yul\":44:51   */\n      0x00\n        /* \"#utility.yul\":84:126   */\n      0xffffffffffffffffffffffffffffffffffffffff\n        /* \"#utility.yul\":77:82   */\n      dup3\n        /* \"#utility.yul\":73:127   */\n      and\n        /* \"#utility.yul\":62:127   */\n      swap1\n      pop\n        /* \"#utility.yul\":7:133   */\n      swap2\n      swap1\n      pop\n      jump\t// out\n        /* \"#utility.yul\":139:235   */\n    tag_42:\n        /* \"#utility.yul\":176:183   */\n      0x00\n        /* \"#utility.yul\":205:229   */\n      tag_60\n        /* \"#utility.yul\":223:228   */\n      dup3\n        /* \"#utility.yul\":205:229   */\n      tag_41\n      jump\t// in\n    tag_60:\n        /* \"#utility.yul\":194:229   */\n      swap1\n      pop\n        /* \"#utility.yul\":139:235   */\n      swap2\n      swap1\n      pop\n      jump\t// out\n        /* \"#utility.yul\":241:359   */\n    tag_43:\n        /* \"#utility.yul\":328:352   */\n      tag_62\n        /* \"#utility.yul\":346:351   */\n      dup2\n        /* \"#utility.yul\":328:352   */\n      tag_42\n      jump\t// in\n    tag_62:\n        /* \"#utility.yul\":323:326   */\n      dup3\n        /* \"#utility.yul\":316:353   */\n      mstore\n        /* \"#utility.yul\":241:359   */\n      pop\n      pop\n      jump\t// out\n        /* \"#utility.yul\":365:697   */\n    tag_12:\n        /* \"#utility.yul\":486:490   */\n      0x00\n        /* \"#utility.yul\":524:526   */\n      0x40\n        /* \"#utility.yul\":513:522   */\n      dup3\n        /* \"#utility.yul\":509:527   */\n      add\n        /* \"#utility.yul\":501:527   */\n      swap1\n      pop\n        /* \"#utility.yul\":537:608   */\n      tag_64\n        /* \"#utility.yul\":605:606   */\n      0x00\n        /* \"#utility.yul\":594:603   */\n      dup4\n        /* \"#utility.yul\":590:607   */\n      add\n        /* \"#utility.yul\":581:587   */\n      dup6\n        /* \"#utility.yul\":537:608   */\n      tag_43\n      jump\t// in\n    tag_64:\n        /* \"#utility.yul\":618:690   */\n      tag_65\n        /* \"#utility.yul\":686:688   */\n      0x20\n        /* \"#utility.yul\":675:684   */\n      dup4\n        /* \"#utility.yul\":671:689   */\n      add\n        /* \"#utility.yul\":662:668   */\n      dup5\n        /* \"#utility.yul\":618:690   */\n      tag_43\n      jump\t// in\n    tag_65:\n        /* \"#utility.yul\":365:697   */\n      swap4\n      swap3\n      pop\n      pop\n      pop\n      jump\t// out\n        /* \"#utility.yul\":703:789   */\n    tag_44:\n        /* \"#utility.yul\":738:745   */\n      0x00\n        /* \"#utility.yul\":778:782   */\n      0xff\n        /* \"#utility.yul\":771:776   */\n      dup3\n        /* \"#utility.yul\":767:783   */\n      and\n        /* \"#utility.yul\":756:783   */\n      swap1\n      pop\n        /* \"#utility.yul\":703:789   */\n      swap2\n      swap1\n      pop\n      jump\t// out\n        /* \"#utility.yul\":795:907   */\n    tag_45:\n        /* \"#utility.yul\":878:900   */\n      tag_68\n        /* \"#utility.yul\":894:899   */\n      dup2\n        /* \"#utility.yul\":878:900   */\n      tag_44\n      jump\t// in\n    tag_68:\n        /* \"#utility.yul\":873:876   */\n      dup3\n        /* \"#utility.yul\":866:901   */\n      mstore\n        /* \"#utility.yul\":795:907   */\n      pop\n      pop\n      jump\t// out\n        /* \"#utility.yul\":913:1127   */\n    tag_16:\n        /* \"#utility.yul\":1002:1006   */\n      0x00\n        /* \"#utility.yul\":1040:1042   */\n      0x20\n        /* \"#utility.yul\":1029:1038   */\n      dup3\n        /* \"#utility.yul\":1025:1043   */\n      add\n        /* \"#utility.yul\":1017:1043   */\n      swap1\n      pop\n        /* \"#utility.yul\":1053:1120   */\n      tag_70\n        /* \"#utility.yul\":1117:1118   */\n      0x00\n        /* \"#utility.yul\":1106:1115   */\n      dup4\n        /* \"#utility.yul\":1102:1119   */\n      add\n        /* \"#utility.yul\":1093:1099   */\n      dup5\n        /* \"#utility.yul\":1053:1120   */\n      tag_45\n      jump\t// in\n    tag_70:\n        /* \"#utility.yul\":913:1127   */\n      swap3\n      swap2\n      pop\n      pop\n      jump\t// out\n        /* \"#utility.yul\":1133:1210   */\n    tag_46:\n        /* \"#utility.yul\":1170:1177   */\n      0x00\n        /* \"#utility.yul\":1199:1204   */\n      dup2\n        /* \"#utility.yul\":1188:1204   */\n      swap1\n      pop\n        /* \"#utility.yul\":1133:1210   */\n      swap2\n      swap1\n      pop\n      jump\t// out\n        /* \"#utility.yul\":1216:1334   */\n    tag_47:\n        /* \"#utility.yul\":1303:1327   */\n      tag_73\n        /* \"#utility.yul\":1321:1326   */\n      dup2\n        /* \"#utility.yul\":1303:1327   */\n      tag_46\n      jump\t// in\n    tag_73:\n        /* \"#utility.yul\":1298:1301   */\n      dup3\n        /* \"#utility.yul\":1291:1328   */\n      mstore\n        /* \"#utility.yul\":1216:1334   */\n      pop\n      pop\n      jump\t// out\n        /* \"#utility.yul\":1340:1562   */\n    tag_20:\n        /* \"#utility.yul\":1433:1437   */\n      0x00\n        /* \"#utility.yul\":1471:1473   */\n      0x20\n        /* \"#utility.yul\":1460:1469   */\n      dup3\n        /* \"#utility.yul\":1456:1474   */\n      add\n        /* \"#utility.yul\":1448:1474   */\n      swap1\n      pop\n        /* \"#utility.yul\":1484:1555   */\n      tag_75\n        /* \"#utility.yul\":1552:1553   */\n      0x00\n        /* \"#utility.yul\":1541:1550   */\n      dup4\n        /* \"#utility.yul\":1537:1554   */\n      add\n        /* \"#utility.yul\":1528:1534   */\n      dup5\n        /* \"#utility.yul\":1484:1555   */\n      tag_47\n      jump\t// in\n    tag_75:\n        /* \"#utility.yul\":1340:1562   */\n      swap3\n      swap2\n      pop\n      pop\n      jump\t// out\n        /* \"#utility.yul\":1568:1644   */\n    tag_48:\n        /* \"#utility.yul\":1604:1611   */\n      0x00\n        /* \"#utility.yul\":1633:1638   */\n      dup2\n        /* \"#utility.yul\":1622:1638   */\n      swap1\n      pop\n        /* \"#utility.yul\":1568:1644   */\n      swap2\n      swap1\n      pop\n      jump\t// out\n        /* \"#utility.yul\":1650:1765   */\n    tag_49:\n        /* \"#utility.yul\":1735:1758   */\n      tag_78\n        /* \"#utility.yul\":1752:1757   */\n      dup2\n        /* \"#utility.yul\":1735:1758   */\n      tag_48\n      jump\t// in\n    tag_78:\n        /* \"#utility.yul\":1730:1733   */\n      dup3\n        /* \"#utility.yul\":1723:1759   */\n      mstore\n        /* \"#utility.yul\":1650:1765   */\n      pop\n      pop\n      jump\t// out\n        /* \"#utility.yul\":1771:1989   */\n    tag_24:\n        /* \"#utility.yul\":1862:1866   */\n      0x00\n        /* \"#utility.yul\":1900:1902   */\n      0x20\n        /* \"#utility.yul\":1889:1898   */\n      dup3\n        /* \"#utility.yul\":1885:1903   */\n      add\n        /* \"#utility.yul\":1877:1903   */\n      swap1\n      pop\n        /* \"#utility.yul\":1913:1982   */\n      tag_80\n        /* \"#utility.yul\":1979:1980   */\n      0x00\n        /* \"#utility.yul\":1968:1977   */\n      dup4\n        /* \"#utility.yul\":1964:1981   */\n      add\n        /* \"#utility.yul\":1955:1961   */\n      dup5\n        /* \"#utility.yul\":1913:1982   */\n      tag_49\n      jump\t// in\n    tag_80:\n        /* \"#utility.yul\":1771:1989   */\n      swap3\n      swap2\n      pop\n      pop\n      jump\t// out\n        /* \"#utility.yul\":1995:2085   */\n    tag_50:\n        /* \"#utility.yul\":2029:2036   */\n      0x00\n        /* \"#utility.yul\":2072:2077   */\n      dup2\n        /* \"#utility.yul\":2065:2078   */\n      iszero\n        /* \"#utility.yul\":2058:2079   */\n      iszero\n        /* \"#utility.yul\":2047:2079   */\n      swap1\n      pop\n        /* \"#utility.yul\":1995:2085   */\n      swap2\n      swap1\n      pop\n      jump\t// out\n        /* \"#utility.yul\":2091:2200   */\n    tag_51:\n        /* \"#utility.yul\":2172:2193   */\n      tag_83\n        /* \"#utility.yul\":2187:2192   */\n      dup2\n        /* \"#utility.yul\":2172:2193   */\n      tag_50\n      jump\t// in\n    tag_83:\n        /* \"#utility.yul\":2167:2170   */\n      dup3\n        /* \"#utility.yul\":2160:2194   */\n      mstore\n        /* \"#utility.yul\":2091:2200   */\n      pop\n      pop\n      jump\t// out\n        /* \"#utility.yul\":2206:2416   */\n    tag_31:\n        /* \"#utility.yul\":2293:2297   */\n      0x00\n        /* \"#utility.yul\":2331:2333   */\n      0x20\n        /* \"#utility.yul\":2320:2329   */\n      dup3\n        /* \"#utility.yul\":2316:2334   */\n      add\n        /* \"#utility.yul\":2308:2334   */\n      swap1\n      pop\n        /* \"#utility.yul\":2344:2409   */\n      tag_85\n        /* \"#utility.yul\":2406:2407   */\n      0x00\n        /* \"#utility.yul\":2395:2404   */\n      dup4\n        /* \"#utility.yul\":2391:2408   */\n      add\n        /* \"#utility.yul\":2382:2388   */\n      dup5\n        /* \"#utility.yul\":2344:2409   */\n      tag_51\n      jump\t// in\n    tag_85:\n        /* \"#utility.yul\":2206:2416   */\n      swap3\n      swap2\n      pop\n      pop\n      jump\t// out\n        /* \"#utility.yul\":2503:2620   */\n    tag_53:\n        /* \"#utility.yul\":2612:2613   */\n      0x00\n        /* \"#utility.yul\":2609:2610   */\n      dup1\n        /* \"#utility.yul\":2602:2614   */\n      revert\n        /* \"#utility.yul\":2749:2871   */\n    tag_55:\n        /* \"#utility.yul\":2822:2846   */\n      tag_90\n        /* \"#utility.yul\":2840:2845   */\n      dup2\n        /* \"#utility.yul\":2822:2846   */\n      tag_46\n      jump\t// in\n    tag_90:\n        /* \"#utility.yul\":2815:2820   */\n      dup2\n        /* \"#utility.yul\":2812:2847   */\n      eq\n        /* \"#utility.yul\":2802:2865   */\n      tag_91\n      jumpi\n        /* \"#utility.yul\":2861:2862   */\n      0x00\n        /* \"#utility.yul\":2858:2859   */\n      dup1\n        /* \"#utility.yul\":2851:2863   */\n      revert\n        /* \"#utility.yul\":2802:2865   */\n    tag_91:\n        /* \"#utility.yul\":2749:2871   */\n      pop\n      jump\t// out\n        /* \"#utility.yul\":2877:3020   */\n    tag_56:\n        /* \"#utility.yul\":2934:2939   */\n      0x00\n        /* \"#utility.yul\":2965:2971   */\n      dup2\n        /* \"#utility.yul\":2959:2972   */\n      mload\n        /* \"#utility.yul\":2950:2972   */\n      swap1\n      pop\n        /* \"#utility.yul\":2981:3014   */\n      tag_93\n        /* \"#utility.yul\":3008:3013   */\n      dup2\n        /* \"#utility.yul\":2981:3014   */\n      tag_55\n      jump\t// in\n    tag_93:\n        /* \"#utility.yul\":2877:3020   */\n      swap3\n      swap2\n      pop\n      pop\n      jump\t// out\n        /* \"#utility.yul\":3026:3377   */\n    tag_40:\n        /* \"#utility.yul\":3096:3102   */\n      0x00\n        /* \"#utility.yul\":3145:3147   */\n      0x20\n        /* \"#utility.yul\":3133:3142   */\n      dup3\n        /* \"#utility.yul\":3124:3131   */\n      dup5\n        /* \"#utility.yul\":3120:3143   */\n      sub\n        /* \"#utility.yul\":3116:3148   */\n      slt\n        /* \"#utility.yul\":3113:3232   */\n      iszero\n      tag_95\n      jumpi\n        /* \"#utility.yul\":3151:3230   */\n      tag_96\n      tag_53\n      jump\t// in\n    tag_96:\n        /* \"#utility.yul\":3113:3232   */\n    tag_95:\n        /* \"#utility.yul\":3271:3272   */\n      0x00\n        /* \"#utility.yul\":3296:3360   */\n      tag_97\n        /* \"#utility.yul\":3352:3359   */\n      dup5\n        /* \"#utility.yul\":3343:3349   */\n      dup3\n        /* \"#utility.yul\":3332:3341   */\n      dup6\n        /* \"#utility.yul\":3328:3350   */\n      add\n        /* \"#utility.yul\":3296:3360   */\n      tag_56\n      jump\t// in\n    tag_97:\n        /* \"#utility.yul\":3286:3360   */\n      swap2\n      pop\n        /* \"#utility.yul\":3242:3370   */\n      pop\n        /* \"#utility.yul\":3026:3377   */\n      swap3\n      swap2\n      pop\n      pop\n      jump\t// out\n\n    auxdata: 0xa2646970667358221220c8330d7149b91e148c38af06013ed66eec5a4af2ec399892cc0aba8716eeb44664736f6c63430008110033\n}\n\nsub_1: assembly {\n        /* \"bc-lab5/singleinheritance.sol\":220:333  contract child is parent {... */\n      mstore(0x40, 0x80)\n      callvalue\n      dup1\n      iszero\n      tag_1\n      jumpi\n      0x00\n      dup1\n      revert\n    tag_1:\n      pop\n      dataSize(sub_0)\n      dup1\n      dataOffset(sub_0)\n      0x00\n      codecopy\n      0x00\n      return\n    stop\n\n    sub_0: assembly {\n            /* \"bc-lab5/singleinheritance.sol\":220:333  contract child is parent {... */\n          mstore(0x40, 0x80)\n          callvalue\n          dup1\n          iszero\n          tag_1\n          jumpi\n          0x00\n          dup1\n          revert\n        tag_1:\n          pop\n          jumpi(tag_2, lt(calldatasize, 0x04))\n          shr(0xe0, calldataload(0x00))\n          dup1\n          0x20965255\n          eq\n          tag_3\n          jumpi\n          dup1\n          0x4fa519fa\n          eq\n          tag_4\n          jumpi\n        tag_2:\n          0x00\n          dup1\n          revert\n            /* \"bc-lab5/singleinheritance.sol\":252:330  function getValue() external view returns (uint) {... */\n        tag_3:\n          tag_5\n          tag_6\n          jump\t// in\n        tag_5:\n          mload(0x40)\n          tag_7\n          swap2\n          swap1\n          tag_8\n          jump\t// in\n        tag_7:\n          mload(0x40)\n          dup1\n          swap2\n          sub\n          swap1\n          return\n            /* \"bc-lab5/singleinheritance.sol\":108:213  function setValue() external {... */\n        tag_4:\n          tag_9\n          tag_10\n          jump\t// in\n        tag_9:\n          stop\n            /* \"bc-lab5/singleinheritance.sol\":252:330  function getValue() external view returns (uint) {... */\n        tag_6:\n            /* \"bc-lab5/singleinheritance.sol\":295:299  uint */\n          0x00\n            /* \"bc-lab5/singleinheritance.sol\":319:322  sum */\n          dup1\n          sload\n            /* \"bc-lab5/singleinheritance.sol\":312:322  return sum */\n          swap1\n          pop\n            /* \"bc-lab5/singleinheritance.sol\":252:330  function getValue() external view returns (uint) {... */\n          swap1\n          jump\t// out\n            /* \"bc-lab5/singleinheritance.sol\":108:213  function setValue() external {... */\n        tag_10:\n            /* \"bc-lab5/singleinheritance.sol\":148:154  uint a */\n          0x00\n            /* \"bc-lab5/singleinheritance.sol\":157:159  20 */\n          0x14\n            /* \"bc-lab5/singleinheritance.sol\":148:159  uint a = 20 */\n          swap1\n          pop\n            /* \"bc-lab5/singleinheritance.sol\":170:176  uint b */\n          0x00\n            /* \"bc-lab5/singleinheritance.sol\":179:181  50 */\n          0x32\n            /* \"bc-lab5/singleinheritance.sol\":170:181  uint b = 50 */\n          swap1\n          pop\n            /* \"bc-lab5/singleinheritance.sol\":204:205  b */\n          dup1\n            /* \"bc-lab5/singleinheritance.sol\":200:201  a */\n          dup3\n            /* \"bc-lab5/singleinheritance.sol\":200:205  a + b */\n          tag_13\n          swap2\n          swap1\n          tag_14\n          jump\t// in\n        tag_13:\n            /* \"bc-lab5/singleinheritance.sol\":194:197  sum */\n          0x00\n            /* \"bc-lab5/singleinheritance.sol\":194:205  sum = a + b */\n          dup2\n          swap1\n          sstore\n          pop\n            /* \"bc-lab5/singleinheritance.sol\":137:213  {... */\n          pop\n          pop\n            /* \"bc-lab5/singleinheritance.sol\":108:213  function setValue() external {... */\n          jump\t// out\n            /* \"#utility.yul\":7:84   */\n        tag_15:\n            /* \"#utility.yul\":44:51   */\n          0x00\n            /* \"#utility.yul\":73:78   */\n          dup2\n            /* \"#utility.yul\":62:78   */\n          swap1\n          pop\n            /* \"#utility.yul\":7:84   */\n          swap2\n          swap1\n          pop\n          jump\t// out\n            /* \"#utility.yul\":90:208   */\n        tag_16:\n            /* \"#utility.yul\":177:201   */\n          tag_21\n            /* \"#utility.yul\":195:200   */\n          dup2\n            /* \"#utility.yul\":177:201   */\n          tag_15\n          jump\t// in\n        tag_21:\n            /* \"#utility.yul\":172:175   */\n          dup3\n            /* \"#utility.yul\":165:202   */\n          mstore\n            /* \"#utility.yul\":90:208   */\n          pop\n          pop\n          jump\t// out\n            /* \"#utility.yul\":214:436   */\n        tag_8:\n            /* \"#utility.yul\":307:311   */\n          0x00\n            /* \"#utility.yul\":345:347   */\n          0x20\n            /* \"#utility.yul\":334:343   */\n          dup3\n            /* \"#utility.yul\":330:348   */\n          add\n            /* \"#utility.yul\":322:348   */\n          swap1\n          pop\n            /* \"#utility.yul\":358:429   */\n          tag_23\n            /* \"#utility.yul\":426:427   */\n          0x00\n            /* \"#utility.yul\":415:424   */\n          dup4\n            /* \"#utility.yul\":411:428   */\n          add\n            /* \"#utility.yul\":402:408   */\n          dup5\n            /* \"#utility.yul\":358:429   */\n          tag_16\n          jump\t// in\n        tag_23:\n            /* \"#utility.yul\":214:436   */\n          swap3\n          swap2\n          pop\n          pop\n          jump\t// out\n            /* \"#utility.yul\":442:622   */\n        tag_17:\n            /* \"#utility.yul\":490:567   */\n          0x4e487b7100000000000000000000000000000000000000000000000000000000\n            /* \"#utility.yul\":487:488   */\n          0x00\n            /* \"#utility.yul\":480:568   */\n          mstore\n            /* \"#utility.yul\":587:591   */\n          0x11\n            /* \"#utility.yul\":584:585   */\n          0x04\n            /* \"#utility.yul\":577:592   */\n          mstore\n            /* \"#utility.yul\":611:615   */\n          0x24\n            /* \"#utility.yul\":608:609   */\n          0x00\n            /* \"#utility.yul\":601:616   */\n          revert\n            /* \"#utility.yul\":628:819   */\n        tag_14:\n            /* \"#utility.yul\":668:671   */\n          0x00\n            /* \"#utility.yul\":687:707   */\n          tag_26\n            /* \"#utility.yul\":705:706   */\n          dup3\n            /* \"#utility.yul\":687:707   */\n          tag_15\n          jump\t// in\n        tag_26:\n            /* \"#utility.yul\":682:707   */\n          swap2\n          pop\n            /* \"#utility.yul\":721:741   */\n          tag_27\n            /* \"#utility.yul\":739:740   */\n          dup4\n            /* \"#utility.yul\":721:741   */\n          tag_15\n          jump\t// in\n        tag_27:\n            /* \"#utility.yul\":716:741   */\n          swap3\n          pop\n            /* \"#utility.yul\":764:765   */\n          dup3\n            /* \"#utility.yul\":761:762   */\n          dup3\n            /* \"#utility.yul\":757:766   */\n          add\n            /* \"#utility.yul\":750:766   */\n          swap1\n          pop\n            /* \"#utility.yul\":785:788   */\n          dup1\n            /* \"#utility.yul\":782:783   */\n          dup3\n            /* \"#utility.yul\":779:789   */\n          gt\n            /* \"#utility.yul\":776:812   */\n          iszero\n          tag_28\n          jumpi\n            /* \"#utility.yul\":792:810   */\n          tag_29\n          tag_17\n          jump\t// in\n        tag_29:\n            /* \"#utility.yul\":776:812   */\n        tag_28:\n            /* \"#utility.yul\":628:819   */\n          swap3\n          swap2\n          pop\n          pop\n          jump\t// out\n\n        auxdata: 0xa26469706673582212205f09aab0a0d2f02bc8f679f11bf47c9d31ebaba252b17e9f837404ca2fe217b164736f6c63430008110033\n    }\n}\n",
				"bytecode": {
					"linkReferences": {},
					"object": "608060405260016000557fffffffffffffffffffffffffffffffffffffffffffffffffffffffffffffff9d6001556001600260006101000a81548160ff0219169083151502179055506009600260016101000a81548160ff021916908360ff1602179055506040516100709061011f565b604051809103906000f08015801561008c573d6000803e3d6000fd5b506002806101000a81548173ffffffffffffffffffffffffffffffffffffffff021916908373ffffffffffffffffffffffffffffffffffffffff1602179055503480156100d857600080fd5b5033600360006101000a81548173ffffffffffffffffffffffffffffffffffffffff021916908373ffffffffffffffffffffffffffffffffffffffff16021790555061012c565b61017b806105a783390190565b61046c8061013b6000396000f3fe608060405234801561001057600080fd5b50600436106100625760003560e01c806338cc48311461006757806361d9e726146100865780639ffd85c4146100a4578063e3a7fd75146100c2578063f3d9f284146100e0578063fc26b0ab146100fe575b600080fd5b61006f61011c565b60405161007d9291906102da565b60405180910390f35b61008e610151565b60405161009b919061031f565b60405180910390f35b6100ac610164565b6040516100b99190610353565b60405180910390f35b6100ca61016a565b6040516100d79190610387565b60405180910390f35b6100e8610170565b6040516100f59190610353565b60405180910390f35b610106610286565b60405161011391906103bd565b60405180910390f35b6000806000339050600360009054906101000a900473ffffffffffffffffffffffffffffffffffffffff168192509250509091565b600260019054906101000a900460ff1681565b60005481565b60015481565b600060028054906101000a900473ffffffffffffffffffffffffffffffffffffffff1673ffffffffffffffffffffffffffffffffffffffff16634fa519fa6040518163ffffffff1660e01b8152600401600060405180830381600087803b1580156101da57600080fd5b505af11580156101ee573d6000803e3d6000fd5b5050505060028054906101000a900473ffffffffffffffffffffffffffffffffffffffff1673ffffffffffffffffffffffffffffffffffffffff1663209652556040518163ffffffff1660e01b8152600401602060405180830381865afa15801561025d573d6000803e3d6000fd5b505050506040513d601f19601f820116820180604052508101906102819190610409565b905090565b600260009054906101000a900460ff1681565b600073ffffffffffffffffffffffffffffffffffffffff82169050919050565b60006102c482610299565b9050919050565b6102d4816102b9565b82525050565b60006040820190506102ef60008301856102cb565b6102fc60208301846102cb565b9392505050565b600060ff82169050919050565b61031981610303565b82525050565b60006020820190506103346000830184610310565b92915050565b6000819050919050565b61034d8161033a565b82525050565b60006020820190506103686000830184610344565b92915050565b6000819050919050565b6103818161036e565b82525050565b600060208201905061039c6000830184610378565b92915050565b60008115159050919050565b6103b7816103a2565b82525050565b60006020820190506103d260008301846103ae565b92915050565b600080fd5b6103e68161033a565b81146103f157600080fd5b50565b600081519050610403816103dd565b92915050565b60006020828403121561041f5761041e6103d8565b5b600061042d848285016103f4565b9150509291505056fea2646970667358221220c8330d7149b91e148c38af06013ed66eec5a4af2ec399892cc0aba8716eeb44664736f6c63430008110033608060405234801561001057600080fd5b5061015b806100206000396000f3fe608060405234801561001057600080fd5b50600436106100365760003560e01c8063209652551461003b5780634fa519fa14610059575b600080fd5b610043610063565b60405161005091906100a7565b60405180910390f35b61006161006c565b005b60008054905090565b600060149050600060329050808261008491906100f1565b6000819055505050565b6000819050919050565b6100a18161008e565b82525050565b60006020820190506100bc6000830184610098565b92915050565b7f4e487b7100000000000000000000000000000000000000000000000000000000600052601160045260246000fd5b60006100fc8261008e565b91506101078361008e565b925082820190508082111561011f5761011e6100c2565b5b9291505056fea26469706673582212205f09aab0a0d2f02bc8f679f11bf47c9d31ebaba252b17e9f837404ca2fe217b164736f6c63430008110033",
					"opcodes": "PUSH1 0x80 PUSH1 0x40 MSTORE PUSH1 0x1 PUSH1 0x0 SSTORE PUSH32 0xFFFFFFFFFFFFFFFFFFFFFFFFFFFFFFFFFFFFFFFFFFFFFFFFFFFFFFFFFFFFFF9D PUSH1 0x1 SSTORE PUSH1 0x1 PUSH1 0x2 PUSH1 0x0 PUSH2 0x100 EXP DUP2 SLOAD DUP2 PUSH1 0xFF MUL NOT AND SWAP1 DUP4 ISZERO ISZERO MUL OR SWAP1 SSTORE POP PUSH1 0x9 PUSH1 0x2 PUSH1 0x1 PUSH2 0x100 EXP DUP2 SLOAD DUP2 PUSH1 0xFF MUL NOT AND SWAP1 DUP4 PUSH1 0xFF AND MUL OR SWAP1 SSTORE POP PUSH1 0x40 MLOAD PUSH2 0x70 SWAP1 PUSH2 0x11F JUMP JUMPDEST PUSH1 0x40 MLOAD DUP1 SWAP2 SUB SWAP1 PUSH1 0x0 CREATE DUP1 ISZERO DUP1 ISZERO PUSH2 0x8C JUMPI RETURNDATASIZE PUSH1 0x0 DUP1 RETURNDATACOPY RETURNDATASIZE PUSH1 0x0 REVERT JUMPDEST POP PUSH1 0x2 DUP1 PUSH2 0x100 EXP DUP2 SLOAD DUP2 PUSH20 0xFFFFFFFFFFFFFFFFFFFFFFFFFFFFFFFFFFFFFFFF MUL NOT AND SWAP1 DUP4 PUSH20 0xFFFFFFFFFFFFFFFFFFFFFFFFFFFFFFFFFFFFFFFF AND MUL OR SWAP1 SSTORE POP CALLVALUE DUP1 ISZERO PUSH2 0xD8 JUMPI PUSH1 0x0 DUP1 REVERT JUMPDEST POP CALLER PUSH1 0x3 PUSH1 0x0 PUSH2 0x100 EXP DUP2 SLOAD DUP2 PUSH20 0xFFFFFFFFFFFFFFFFFFFFFFFFFFFFFFFFFFFFFFFF MUL NOT AND SWAP1 DUP4 PUSH20 0xFFFFFFFFFFFFFFFFFFFFFFFFFFFFFFFFFFFFFFFF AND MUL OR SWAP1 SSTORE POP PUSH2 0x12C JUMP JUMPDEST PUSH2 0x17B DUP1 PUSH2 0x5A7 DUP4 CODECOPY ADD SWAP1 JUMP JUMPDEST PUSH2 0x46C DUP1 PUSH2 0x13B PUSH1 0x0 CODECOPY PUSH1 0x0 RETURN INVALID PUSH1 0x80 PUSH1 0x40 MSTORE CALLVALUE DUP1 ISZERO PUSH2 0x10 JUMPI PUSH1 0x0 DUP1 REVERT JUMPDEST POP PUSH1 0x4 CALLDATASIZE LT PUSH2 0x62 JUMPI PUSH1 0x0 CALLDATALOAD PUSH1 0xE0 SHR DUP1 PUSH4 0x38CC4831 EQ PUSH2 0x67 JUMPI DUP1 PUSH4 0x61D9E726 EQ PUSH2 0x86 JUMPI DUP1 PUSH4 0x9FFD85C4 EQ PUSH2 0xA4 JUMPI DUP1 PUSH4 0xE3A7FD75 EQ PUSH2 0xC2 JUMPI DUP1 PUSH4 0xF3D9F284 EQ PUSH2 0xE0 JUMPI DUP1 PUSH4 0xFC26B0AB EQ PUSH2 0xFE JUMPI JUMPDEST PUSH1 0x0 DUP1 REVERT JUMPDEST PUSH2 0x6F PUSH2 0x11C JUMP JUMPDEST PUSH1 0x40 MLOAD PUSH2 0x7D SWAP3 SWAP2 SWAP1 PUSH2 0x2DA JUMP JUMPDEST PUSH1 0x40 MLOAD DUP1 SWAP2 SUB SWAP1 RETURN JUMPDEST PUSH2 0x8E PUSH2 0x151 JUMP JUMPDEST PUSH1 0x40 MLOAD PUSH2 0x9B SWAP2 SWAP1 PUSH2 0x31F JUMP JUMPDEST PUSH1 0x40 MLOAD DUP1 SWAP2 SUB SWAP1 RETURN JUMPDEST PUSH2 0xAC PUSH2 0x164 JUMP JUMPDEST PUSH1 0x40 MLOAD PUSH2 0xB9 SWAP2 SWAP1 PUSH2 0x353 JUMP JUMPDEST PUSH1 0x40 MLOAD DUP1 SWAP2 SUB SWAP1 RETURN JUMPDEST PUSH2 0xCA PUSH2 0x16A JUMP JUMPDEST PUSH1 0x40 MLOAD PUSH2 0xD7 SWAP2 SWAP1 PUSH2 0x387 JUMP JUMPDEST PUSH1 0x40 MLOAD DUP1 SWAP2 SUB SWAP1 RETURN JUMPDEST PUSH2 0xE8 PUSH2 0x170 JUMP JUMPDEST PUSH1 0x40 MLOAD PUSH2 0xF5 SWAP2 SWAP1 PUSH2 0x353 JUMP JUMPDEST PUSH1 0x40 MLOAD DUP1 SWAP2 SUB SWAP1 RETURN JUMPDEST PUSH2 0x106 PUSH2 0x286 JUMP JUMPDEST PUSH1 0x40 MLOAD PUSH2 0x113 SWAP2 SWAP1 PUSH2 0x3BD JUMP JUMPDEST PUSH1 0x40 MLOAD DUP1 SWAP2 SUB SWAP1 RETURN JUMPDEST PUSH1 0x0 DUP1 PUSH1 0x0 CALLER SWAP1 POP PUSH1 0x3 PUSH1 0x0 SWAP1 SLOAD SWAP1 PUSH2 0x100 EXP SWAP1 DIV PUSH20 0xFFFFFFFFFFFFFFFFFFFFFFFFFFFFFFFFFFFFFFFF AND DUP2 SWAP3 POP SWAP3 POP POP SWAP1 SWAP2 JUMP JUMPDEST PUSH1 0x2 PUSH1 0x1 SWAP1 SLOAD SWAP1 PUSH2 0x100 EXP SWAP1 DIV PUSH1 0xFF AND DUP2 JUMP JUMPDEST PUSH1 0x0 SLOAD DUP2 JUMP JUMPDEST PUSH1 0x1 SLOAD DUP2 JUMP JUMPDEST PUSH1 0x0 PUSH1 0x2 DUP1 SLOAD SWAP1 PUSH2 0x100 EXP SWAP1 DIV PUSH20 0xFFFFFFFFFFFFFFFFFFFFFFFFFFFFFFFFFFFFFFFF AND PUSH20 0xFFFFFFFFFFFFFFFFFFFFFFFFFFFFFFFFFFFFFFFF AND PUSH4 0x4FA519FA PUSH1 0x40 MLOAD DUP2 PUSH4 0xFFFFFFFF AND PUSH1 0xE0 SHL DUP2 MSTORE PUSH1 0x4 ADD PUSH1 0x0 PUSH1 0x40 MLOAD DUP1 DUP4 SUB DUP2 PUSH1 0x0 DUP8 DUP1 EXTCODESIZE ISZERO DUP1 ISZERO PUSH2 0x1DA JUMPI PUSH1 0x0 DUP1 REVERT JUMPDEST POP GAS CALL ISZERO DUP1 ISZERO PUSH2 0x1EE JUMPI RETURNDATASIZE PUSH1 0x0 DUP1 RETURNDATACOPY RETURNDATASIZE PUSH1 0x0 REVERT JUMPDEST POP POP POP POP PUSH1 0x2 DUP1 SLOAD SWAP1 PUSH2 0x100 EXP SWAP1 DIV PUSH20 0xFFFFFFFFFFFFFFFFFFFFFFFFFFFFFFFFFFFFFFFF AND PUSH20 0xFFFFFFFFFFFFFFFFFFFFFFFFFFFFFFFFFFFFFFFF AND PUSH4 0x20965255 PUSH1 0x40 MLOAD DUP2 PUSH4 0xFFFFFFFF AND PUSH1 0xE0 SHL DUP2 MSTORE PUSH1 0x4 ADD PUSH1 0x20 PUSH1 0x40 MLOAD DUP1 DUP4 SUB DUP2 DUP7 GAS STATICCALL ISZERO DUP1 ISZERO PUSH2 0x25D JUMPI RETURNDATASIZE PUSH1 0x0 DUP1 RETURNDATACOPY RETURNDATASIZE PUSH1 0x0 REVERT JUMPDEST POP POP POP POP PUSH1 0x40 MLOAD RETURNDATASIZE PUSH1 0x1F NOT PUSH1 0x1F DUP3 ADD AND DUP3 ADD DUP1 PUSH1 0x40 MSTORE POP DUP2 ADD SWAP1 PUSH2 0x281 SWAP2 SWAP1 PUSH2 0x409 JUMP JUMPDEST SWAP1 POP SWAP1 JUMP JUMPDEST PUSH1 0x2 PUSH1 0x0 SWAP1 SLOAD SWAP1 PUSH2 0x100 EXP SWAP1 DIV PUSH1 0xFF AND DUP2 JUMP JUMPDEST PUSH1 0x0 PUSH20 0xFFFFFFFFFFFFFFFFFFFFFFFFFFFFFFFFFFFFFFFF DUP3 AND SWAP1 POP SWAP2 SWAP1 POP JUMP JUMPDEST PUSH1 0x0 PUSH2 0x2C4 DUP3 PUSH2 0x299 JUMP JUMPDEST SWAP1 POP SWAP2 SWAP1 POP JUMP JUMPDEST PUSH2 0x2D4 DUP2 PUSH2 0x2B9 JUMP JUMPDEST DUP3 MSTORE POP POP JUMP JUMPDEST PUSH1 0x0 PUSH1 0x40 DUP3 ADD SWAP1 POP PUSH2 0x2EF PUSH1 0x0 DUP4 ADD DUP6 PUSH2 0x2CB JUMP JUMPDEST PUSH2 0x2FC PUSH1 0x20 DUP4 ADD DUP5 PUSH2 0x2CB JUMP JUMPDEST SWAP4 SWAP3 POP POP POP JUMP JUMPDEST PUSH1 0x0 PUSH1 0xFF DUP3 AND SWAP1 POP SWAP2 SWAP1 POP JUMP JUMPDEST PUSH2 0x319 DUP2 PUSH2 0x303 JUMP JUMPDEST DUP3 MSTORE POP POP JUMP JUMPDEST PUSH1 0x0 PUSH1 0x20 DUP3 ADD SWAP1 POP PUSH2 0x334 PUSH1 0x0 DUP4 ADD DUP5 PUSH2 0x310 JUMP JUMPDEST SWAP3 SWAP2 POP POP JUMP JUMPDEST PUSH1 0x0 DUP2 SWAP1 POP SWAP2 SWAP1 POP JUMP JUMPDEST PUSH2 0x34D DUP2 PUSH2 0x33A JUMP JUMPDEST DUP3 MSTORE POP POP JUMP JUMPDEST PUSH1 0x0 PUSH1 0x20 DUP3 ADD SWAP1 POP PUSH2 0x368 PUSH1 0x0 DUP4 ADD DUP5 PUSH2 0x344 JUMP JUMPDEST SWAP3 SWAP2 POP POP JUMP JUMPDEST PUSH1 0x0 DUP2 SWAP1 POP SWAP2 SWAP1 POP JUMP JUMPDEST PUSH2 0x381 DUP2 PUSH2 0x36E JUMP JUMPDEST DUP3 MSTORE POP POP JUMP JUMPDEST PUSH1 0x0 PUSH1 0x20 DUP3 ADD SWAP1 POP PUSH2 0x39C PUSH1 0x0 DUP4 ADD DUP5 PUSH2 0x378 JUMP JUMPDEST SWAP3 SWAP2 POP POP JUMP JUMPDEST PUSH1 0x0 DUP2 ISZERO ISZERO SWAP1 POP SWAP2 SWAP1 POP JUMP JUMPDEST PUSH2 0x3B7 DUP2 PUSH2 0x3A2 JUMP JUMPDEST DUP3 MSTORE POP POP JUMP JUMPDEST PUSH1 0x0 PUSH1 0x20 DUP3 ADD SWAP1 POP PUSH2 0x3D2 PUSH1 0x0 DUP4 ADD DUP5 PUSH2 0x3AE JUMP JUMPDEST SWAP3 SWAP2 POP POP JUMP JUMPDEST PUSH1 0x0 DUP1 REVERT JUMPDEST PUSH2 0x3E6 DUP2 PUSH2 0x33A JUMP JUMPDEST DUP2 EQ PUSH2 0x3F1 JUMPI PUSH1 0x0 DUP1 REVERT JUMPDEST POP JUMP JUMPDEST PUSH1 0x0 DUP2 MLOAD SWAP1 POP PUSH2 0x403 DUP2 PUSH2 0x3DD JUMP JUMPDEST SWAP3 SWAP2 POP POP JUMP JUMPDEST PUSH1 0x0 PUSH1 0x20 DUP3 DUP5 SUB SLT ISZERO PUSH2 0x41F JUMPI PUSH2 0x41E PUSH2 0x3D8 JUMP JUMPDEST JUMPDEST PUSH1 0x0 PUSH2 0x42D DUP5 DUP3 DUP6 ADD PUSH2 0x3F4 JUMP JUMPDEST SWAP2 POP POP SWAP3 SWAP2 POP POP JUMP INVALID LOG2 PUSH5 0x6970667358 0x22 SLT KECCAK256 0xC8 CALLER 0xD PUSH18 0x49B91E148C38AF06013ED66EEC5A4AF2EC39 SWAP9 SWAP3 0xCC EXP 0xBA DUP8 AND 0xEE 0xB4 CHAINID PUSH5 0x736F6C6343 STOP ADDMOD GT STOP CALLER PUSH1 0x80 PUSH1 0x40 MSTORE CALLVALUE DUP1 ISZERO PUSH2 0x10 JUMPI PUSH1 0x0 DUP1 REVERT JUMPDEST POP PUSH2 0x15B DUP1 PUSH2 0x20 PUSH1 0x0 CODECOPY PUSH1 0x0 RETURN INVALID PUSH1 0x80 PUSH1 0x40 MSTORE CALLVALUE DUP1 ISZERO PUSH2 0x10 JUMPI PUSH1 0x0 DUP1 REVERT JUMPDEST POP PUSH1 0x4 CALLDATASIZE LT PUSH2 0x36 JUMPI PUSH1 0x0 CALLDATALOAD PUSH1 0xE0 SHR DUP1 PUSH4 0x20965255 EQ PUSH2 0x3B JUMPI DUP1 PUSH4 0x4FA519FA EQ PUSH2 0x59 JUMPI JUMPDEST PUSH1 0x0 DUP1 REVERT JUMPDEST PUSH2 0x43 PUSH2 0x63 JUMP JUMPDEST PUSH1 0x40 MLOAD PUSH2 0x50 SWAP2 SWAP1 PUSH2 0xA7 JUMP JUMPDEST PUSH1 0x40 MLOAD DUP1 SWAP2 SUB SWAP1 RETURN JUMPDEST PUSH2 0x61 PUSH2 0x6C JUMP JUMPDEST STOP JUMPDEST PUSH1 0x0 DUP1 SLOAD SWAP1 POP SWAP1 JUMP JUMPDEST PUSH1 0x0 PUSH1 0x14 SWAP1 POP PUSH1 0x0 PUSH1 0x32 SWAP1 POP DUP1 DUP3 PUSH2 0x84 SWAP2 SWAP1 PUSH2 0xF1 JUMP JUMPDEST PUSH1 0x0 DUP2 SWAP1 SSTORE POP POP POP JUMP JUMPDEST PUSH1 0x0 DUP2 SWAP1 POP SWAP2 SWAP1 POP JUMP JUMPDEST PUSH2 0xA1 DUP2 PUSH2 0x8E JUMP JUMPDEST DUP3 MSTORE POP POP JUMP JUMPDEST PUSH1 0x0 PUSH1 0x20 DUP3 ADD SWAP1 POP PUSH2 0xBC PUSH1 0x0 DUP4 ADD DUP5 PUSH2 0x98 JUMP JUMPDEST SWAP3 SWAP2 POP POP JUMP JUMPDEST PUSH32 0x4E487B7100000000000000000000000000000000000000000000000000000000 PUSH1 0x0 MSTORE PUSH1 0x11 PUSH1 0x4 MSTORE PUSH1 0x24 PUSH1 0x0 REVERT JUMPDEST PUSH1 0x0 PUSH2 0xFC DUP3 PUSH2 0x8E JUMP JUMPDEST SWAP2 POP PUSH2 0x107 DUP4 PUSH2 0x8E JUMP JUMPDEST SWAP3 POP DUP3 DUP3 ADD SWAP1 POP DUP1 DUP3 GT ISZERO PUSH2 0x11F JUMPI PUSH2 0x11E PUSH2 0xC2 JUMP JUMPDEST JUMPDEST SWAP3 SWAP2 POP POP JUMP INVALID LOG2 PUSH5 0x6970667358 0x22 SLT KECCAK256 0x5F MULMOD 0xAA 0xB0 LOG0 0xD2 CREATE 0x2B 0xC8 0xF6 PUSH26 0xF11BF47C9D31EBABA252B17E9F837404CA2FE217B164736F6C63 NUMBER STOP ADDMOD GT STOP CALLER "
				},
				"gasEstimates": {
					"creation": {
						"codeDepositCost": "226400",
						"executionCost": "infinite",
						"totalCost": "infinite"
					},
					"external": {
						"data1()": "2451",
						"data2()": "2473",
						"data3()": "2559",
						"data4()": "2521",
						"getAddress()": "infinite",
						"testCallInherit()": "infinite"
					}
				},
				"methodIdentifiers": {
					"data1()": "9ffd85c4",
					"data2()": "e3a7fd75",
					"data3()": "fc26b0ab",
					"data4()": "61d9e726",
					"getAddress()": "38cc4831",
					"testCallInherit()": "f3d9f284"
				}
			},
			"storageLayout": {
				"storage": [
					{
						"astId": 36,
						"contract": "bc-lab5/singleinheritance.sol:caller",
						"label": "data1",
						"offset": 0,
						"slot": "0",
						"type": "t_uint256"
					},
					{
						"astId": 40,
						"contract": "bc-lab5/singleinheritance.sol:caller",
						"label": "data2",
						"offset": 0,
						"slot": "1",
						"type": "t_int256"
					},
					{
						"astId": 43,
						"contract": "bc-lab5/singleinheritance.sol:caller",
						"label": "data3",
						"offset": 0,
						"slot": "2",
						"type": "t_bool"
					},
					{
						"astId": 46,
						"contract": "bc-lab5/singleinheritance.sol:caller",
						"label": "data4",
						"offset": 1,
						"slot": "2",
						"type": "t_uint8"
					},
					{
						"astId": 53,
						"contract": "bc-lab5/singleinheritance.sol:caller",
						"label": "child_instance",
						"offset": 2,
						"slot": "2",
						"type": "t_contract(child)33"
					},
					{
						"astId": 55,
						"contract": "bc-lab5/singleinheritance.sol:caller",
						"label": "OwnerAddress",
						"offset": 0,
						"slot": "3",
						"type": "t_address_payable"
					}
				],
				"types": {
					"t_address_payable": {
						"encoding": "inplace",
						"label": "address payable",
						"numberOfBytes": "20"
					},
					"t_bool": {
						"encoding": "inplace",
						"label": "bool",
						"numberOfBytes": "1"
					},
					"t_contract(child)33": {
						"encoding": "inplace",
						"label": "contract child",
						"numberOfBytes": "20"
					},
					"t_int256": {
						"encoding": "inplace",
						"label": "int256",
						"numberOfBytes": "32"
					},
					"t_uint256": {
						"encoding": "inplace",
						"label": "uint256",
						"numberOfBytes": "32"
					},
					"t_uint8": {
						"encoding": "inplace",
						"label": "uint8",
						"numberOfBytes": "1"
					}
				}
			},
			"userdoc": {
				"kind": "user",
				"methods": {},
				"version": 1
			}
		}
	}
}