{
	"bc-lab5/Bidder.sol": {
		"Bidder": {
			"abi": [
				{
					"inputs": [],
					"name": "determineEligibility",
					"outputs": [],
					"stateMutability": "nonpayable",
					"type": "function"
				},
				{
					"inputs": [
						{
							"internalType": "uint256",
							"name": "_bidAmount",
							"type": "uint256"
						}
					],
					"name": "setBidAmount",
					"outputs": [],
					"stateMutability": "nonpayable",
					"type": "function"
				},
				{
					"inputs": [
						{
							"internalType": "string",
							"name": "_name",
							"type": "string"
						}
					],
					"name": "setName",
					"outputs": [],
					"stateMutability": "nonpayable",
					"type": "function"
				}
			],
			"devdoc": {
				"kind": "dev",
				"methods": {},
				"version": 1
			},
			"evm": {
				"assembly": "    /* \"bc-lab5/Bidder.sol\":59:506  contract Bidder {\r... */\n  mstore(0x40, 0x80)\n  callvalue\n  dup1\n  iszero\n  tag_1\n  jumpi\n  0x00\n  dup1\n  revert\ntag_1:\n  pop\n  dataSize(sub_0)\n  dup1\n  dataOffset(sub_0)\n  0x00\n  codecopy\n  0x00\n  return\nstop\n\nsub_0: assembly {\n        /* \"bc-lab5/Bidder.sol\":59:506  contract Bidder {\r... */\n      mstore(0x40, 0x80)\n      callvalue\n      dup1\n      iszero\n      tag_1\n      jumpi\n      0x00\n      dup1\n      revert\n    tag_1:\n      pop\n      jumpi(tag_2, lt(calldatasize, 0x04))\n      shr(0xe0, calldataload(0x00))\n      dup1\n      0x9554d3f5\n      eq\n      tag_3\n      jumpi\n      dup1\n      0x96895a77\n      eq\n      tag_4\n      jumpi\n      dup1\n      0xc47f0027\n      eq\n      tag_5\n      jumpi\n    tag_2:\n      0x00\n      dup1\n      revert\n        /* \"bc-lab5/Bidder.sol\":293:380  function setBidAmount(uint _bidAmount) public {\r... */\n    tag_3:\n      tag_6\n      0x04\n      dup1\n      calldatasize\n      sub\n      dup2\n      add\n      swap1\n      tag_7\n      swap2\n      swap1\n      tag_8\n      jump\t// in\n    tag_7:\n      tag_9\n      jump\t// in\n    tag_6:\n      stop\n        /* \"bc-lab5/Bidder.sol\":388:503  function determineEligibility() public{\r... */\n    tag_4:\n      tag_10\n      tag_11\n      jump\t// in\n    tag_10:\n      stop\n        /* \"bc-lab5/Bidder.sol\":209:285  function setName(string memory _name) public {\r... */\n    tag_5:\n      tag_12\n      0x04\n      dup1\n      calldatasize\n      sub\n      dup2\n      add\n      swap1\n      tag_13\n      swap2\n      swap1\n      tag_14\n      jump\t// in\n    tag_13:\n      tag_15\n      jump\t// in\n    tag_12:\n      stop\n        /* \"bc-lab5/Bidder.sol\":293:380  function setBidAmount(uint _bidAmount) public {\r... */\n    tag_9:\n        /* \"bc-lab5/Bidder.sol\":362:372  _bidAmount */\n      dup1\n        /* \"bc-lab5/Bidder.sol\":350:359  bidAmount */\n      0x01\n        /* \"bc-lab5/Bidder.sol\":350:372  bidAmount = _bidAmount */\n      dup2\n      swap1\n      sstore\n      pop\n        /* \"bc-lab5/Bidder.sol\":293:380  function setBidAmount(uint _bidAmount) public {\r... */\n      pop\n      jump\t// out\n        /* \"bc-lab5/Bidder.sol\":388:503  function determineEligibility() public{\r... */\n    tag_11:\n        /* \"bc-lab5/Bidder.sol\":196:200  2000 */\n      0x07d0\n        /* \"bc-lab5/Bidder.sol\":438:447  bidAmount */\n      sload(0x01)\n        /* \"bc-lab5/Bidder.sol\":438:457  bidAmount >= minBid */\n      lt\n      iszero\n        /* \"bc-lab5/Bidder.sol\":437:495  (bidAmount >= minBid) ? eligible = true : eligible = false */\n      tag_18\n      jumpi\n        /* \"bc-lab5/Bidder.sol\":490:495  false */\n      0x00\n        /* \"bc-lab5/Bidder.sol\":479:487  eligible */\n      0x02\n      0x00\n        /* \"bc-lab5/Bidder.sol\":479:495  eligible = false */\n      0x0100\n      exp\n      dup2\n      sload\n      dup2\n      0xff\n      mul\n      not\n      and\n      swap1\n      dup4\n      iszero\n      iszero\n      mul\n      or\n      swap1\n      sstore\n        /* \"bc-lab5/Bidder.sol\":437:495  (bidAmount >= minBid) ? eligible = true : eligible = false */\n      jump(tag_19)\n    tag_18:\n        /* \"bc-lab5/Bidder.sol\":472:476  true */\n      0x01\n        /* \"bc-lab5/Bidder.sol\":461:469  eligible */\n      0x02\n      0x00\n        /* \"bc-lab5/Bidder.sol\":461:476  eligible = true */\n      0x0100\n      exp\n      dup2\n      sload\n      dup2\n      0xff\n      mul\n      not\n      and\n      swap1\n      dup4\n      iszero\n      iszero\n      mul\n      or\n      swap1\n      sstore\n        /* \"bc-lab5/Bidder.sol\":437:495  (bidAmount >= minBid) ? eligible = true : eligible = false */\n    tag_19:\n      pop\n        /* \"bc-lab5/Bidder.sol\":388:503  function determineEligibility() public{\r... */\n      jump\t// out\n        /* \"bc-lab5/Bidder.sol\":209:285  function setName(string memory _name) public {\r... */\n    tag_15:\n        /* \"bc-lab5/Bidder.sol\":272:277  _name */\n      dup1\n        /* \"bc-lab5/Bidder.sol\":265:269  name */\n      0x00\n        /* \"bc-lab5/Bidder.sol\":265:277  name = _name */\n      swap1\n      dup1\n      mload\n      swap1\n      0x20\n      add\n      swap1\n      tag_21\n      swap3\n      swap2\n      swap1\n      tag_22\n      jump\t// in\n    tag_21:\n      pop\n        /* \"bc-lab5/Bidder.sol\":209:285  function setName(string memory _name) public {\r... */\n      pop\n      jump\t// out\n    tag_22:\n      dup3\n      dup1\n      sload\n      tag_23\n      swap1\n      tag_24\n      jump\t// in\n    tag_23:\n      swap1\n      0x00\n      mstore\n      keccak256(0x00, 0x20)\n      swap1\n      0x1f\n      add\n      0x20\n      swap1\n      div\n      dup2\n      add\n      swap3\n      dup3\n      tag_26\n      jumpi\n      0x00\n      dup6\n      sstore\n      jump(tag_25)\n    tag_26:\n      dup3\n      0x1f\n      lt\n      tag_27\n      jumpi\n      dup1\n      mload\n      not(0xff)\n      and\n      dup4\n      dup1\n      add\n      or\n      dup6\n      sstore\n      jump(tag_25)\n    tag_27:\n      dup3\n      dup1\n      add\n      0x01\n      add\n      dup6\n      sstore\n      dup3\n      iszero\n      tag_25\n      jumpi\n      swap2\n      dup3\n      add\n    tag_28:\n      dup3\n      dup2\n      gt\n      iszero\n      tag_29\n      jumpi\n      dup3\n      mload\n      dup3\n      sstore\n      swap2\n      0x20\n      add\n      swap2\n      swap1\n      0x01\n      add\n      swap1\n      jump(tag_28)\n    tag_29:\n    tag_25:\n      pop\n      swap1\n      pop\n      tag_30\n      swap2\n      swap1\n      tag_31\n      jump\t// in\n    tag_30:\n      pop\n      swap1\n      jump\t// out\n    tag_31:\n    tag_32:\n      dup1\n      dup3\n      gt\n      iszero\n      tag_33\n      jumpi\n      0x00\n      dup2\n      0x00\n      swap1\n      sstore\n      pop\n      0x01\n      add\n      jump(tag_32)\n    tag_33:\n      pop\n      swap1\n      jump\t// out\n        /* \"#utility.yul\":7:352   */\n    tag_35:\n      0x00\n        /* \"#utility.yul\":110:176   */\n      tag_37\n        /* \"#utility.yul\":126:175   */\n      tag_38\n        /* \"#utility.yul\":168:174   */\n      dup5\n        /* \"#utility.yul\":126:175   */\n      tag_39\n      jump\t// in\n    tag_38:\n        /* \"#utility.yul\":110:176   */\n      tag_40\n      jump\t// in\n    tag_37:\n        /* \"#utility.yul\":101:176   */\n      swap1\n      pop\n        /* \"#utility.yul\":199:205   */\n      dup3\n        /* \"#utility.yul\":192:197   */\n      dup2\n        /* \"#utility.yul\":185:206   */\n      mstore\n        /* \"#utility.yul\":237:241   */\n      0x20\n        /* \"#utility.yul\":230:235   */\n      dup2\n        /* \"#utility.yul\":226:242   */\n      add\n        /* \"#utility.yul\":275:278   */\n      dup5\n        /* \"#utility.yul\":266:272   */\n      dup5\n        /* \"#utility.yul\":261:264   */\n      dup5\n        /* \"#utility.yul\":257:273   */\n      add\n        /* \"#utility.yul\":254:279   */\n      gt\n        /* \"#utility.yul\":251:253   */\n      iszero\n      tag_41\n      jumpi\n        /* \"#utility.yul\":292:293   */\n      0x00\n        /* \"#utility.yul\":289:290   */\n      dup1\n        /* \"#utility.yul\":282:294   */\n      revert\n        /* \"#utility.yul\":251:253   */\n    tag_41:\n        /* \"#utility.yul\":305:346   */\n      tag_42\n        /* \"#utility.yul\":339:345   */\n      dup5\n        /* \"#utility.yul\":334:337   */\n      dup3\n        /* \"#utility.yul\":329:332   */\n      dup6\n        /* \"#utility.yul\":305:346   */\n      tag_43\n      jump\t// in\n    tag_42:\n        /* \"#utility.yul\":91:352   */\n      pop\n      swap4\n      swap3\n      pop\n      pop\n      pop\n      jump\t// out\n        /* \"#utility.yul\":372:645   */\n    tag_44:\n      0x00\n        /* \"#utility.yul\":477:480   */\n      dup3\n        /* \"#utility.yul\":470:474   */\n      0x1f\n        /* \"#utility.yul\":462:468   */\n      dup4\n        /* \"#utility.yul\":458:475   */\n      add\n        /* \"#utility.yul\":454:481   */\n      slt\n        /* \"#utility.yul\":444:446   */\n      tag_46\n      jumpi\n        /* \"#utility.yul\":495:496   */\n      0x00\n        /* \"#utility.yul\":492:493   */\n      dup1\n        /* \"#utility.yul\":485:497   */\n      revert\n        /* \"#utility.yul\":444:446   */\n    tag_46:\n        /* \"#utility.yul\":535:541   */\n      dup2\n        /* \"#utility.yul\":522:542   */\n      calldataload\n        /* \"#utility.yul\":560:639   */\n      tag_47\n        /* \"#utility.yul\":635:638   */\n      dup5\n        /* \"#utility.yul\":627:633   */\n      dup3\n        /* \"#utility.yul\":620:624   */\n      0x20\n        /* \"#utility.yul\":612:618   */\n      dup7\n        /* \"#utility.yul\":608:625   */\n      add\n        /* \"#utility.yul\":560:639   */\n      tag_35\n      jump\t// in\n    tag_47:\n        /* \"#utility.yul\":551:639   */\n      swap2\n      pop\n        /* \"#utility.yul\":434:645   */\n      pop\n      swap3\n      swap2\n      pop\n      pop\n      jump\t// out\n        /* \"#utility.yul\":651:790   */\n    tag_48:\n      0x00\n        /* \"#utility.yul\":735:741   */\n      dup2\n        /* \"#utility.yul\":722:742   */\n      calldataload\n        /* \"#utility.yul\":713:742   */\n      swap1\n      pop\n        /* \"#utility.yul\":751:784   */\n      tag_50\n        /* \"#utility.yul\":778:783   */\n      dup2\n        /* \"#utility.yul\":751:784   */\n      tag_51\n      jump\t// in\n    tag_50:\n        /* \"#utility.yul\":703:790   */\n      swap3\n      swap2\n      pop\n      pop\n      jump\t// out\n        /* \"#utility.yul\":796:1171   */\n    tag_14:\n      0x00\n        /* \"#utility.yul\":914:916   */\n      0x20\n        /* \"#utility.yul\":902:911   */\n      dup3\n        /* \"#utility.yul\":893:900   */\n      dup5\n        /* \"#utility.yul\":889:912   */\n      sub\n        /* \"#utility.yul\":885:917   */\n      slt\n        /* \"#utility.yul\":882:884   */\n      iszero\n      tag_53\n      jumpi\n        /* \"#utility.yul\":930:931   */\n      0x00\n        /* \"#utility.yul\":927:928   */\n      dup1\n        /* \"#utility.yul\":920:932   */\n      revert\n        /* \"#utility.yul\":882:884   */\n    tag_53:\n        /* \"#utility.yul\":1001:1002   */\n      0x00\n        /* \"#utility.yul\":990:999   */\n      dup3\n        /* \"#utility.yul\":986:1003   */\n      add\n        /* \"#utility.yul\":973:1004   */\n      calldataload\n        /* \"#utility.yul\":1031:1049   */\n      0xffffffffffffffff\n        /* \"#utility.yul\":1023:1029   */\n      dup2\n        /* \"#utility.yul\":1020:1050   */\n      gt\n        /* \"#utility.yul\":1017:1019   */\n      iszero\n      tag_54\n      jumpi\n        /* \"#utility.yul\":1063:1064   */\n      0x00\n        /* \"#utility.yul\":1060:1061   */\n      dup1\n        /* \"#utility.yul\":1053:1065   */\n      revert\n        /* \"#utility.yul\":1017:1019   */\n    tag_54:\n        /* \"#utility.yul\":1091:1154   */\n      tag_55\n        /* \"#utility.yul\":1146:1153   */\n      dup5\n        /* \"#utility.yul\":1137:1143   */\n      dup3\n        /* \"#utility.yul\":1126:1135   */\n      dup6\n        /* \"#utility.yul\":1122:1144   */\n      add\n        /* \"#utility.yul\":1091:1154   */\n      tag_44\n      jump\t// in\n    tag_55:\n        /* \"#utility.yul\":1081:1154   */\n      swap2\n      pop\n        /* \"#utility.yul\":944:1164   */\n      pop\n        /* \"#utility.yul\":872:1171   */\n      swap3\n      swap2\n      pop\n      pop\n      jump\t// out\n        /* \"#utility.yul\":1177:1439   */\n    tag_8:\n      0x00\n        /* \"#utility.yul\":1285:1287   */\n      0x20\n        /* \"#utility.yul\":1273:1282   */\n      dup3\n        /* \"#utility.yul\":1264:1271   */\n      dup5\n        /* \"#utility.yul\":1260:1283   */\n      sub\n        /* \"#utility.yul\":1256:1288   */\n      slt\n        /* \"#utility.yul\":1253:1255   */\n      iszero\n      tag_57\n      jumpi\n        /* \"#utility.yul\":1301:1302   */\n      0x00\n        /* \"#utility.yul\":1298:1299   */\n      dup1\n        /* \"#utility.yul\":1291:1303   */\n      revert\n        /* \"#utility.yul\":1253:1255   */\n    tag_57:\n        /* \"#utility.yul\":1344:1345   */\n      0x00\n        /* \"#utility.yul\":1369:1422   */\n      tag_58\n        /* \"#utility.yul\":1414:1421   */\n      dup5\n        /* \"#utility.yul\":1405:1411   */\n      dup3\n        /* \"#utility.yul\":1394:1403   */\n      dup6\n        /* \"#utility.yul\":1390:1412   */\n      add\n        /* \"#utility.yul\":1369:1422   */\n      tag_48\n      jump\t// in\n    tag_58:\n        /* \"#utility.yul\":1359:1422   */\n      swap2\n      pop\n        /* \"#utility.yul\":1315:1432   */\n      pop\n        /* \"#utility.yul\":1243:1439   */\n      swap3\n      swap2\n      pop\n      pop\n      jump\t// out\n        /* \"#utility.yul\":1445:1574   */\n    tag_40:\n      0x00\n        /* \"#utility.yul\":1506:1526   */\n      tag_60\n      tag_61\n      jump\t// in\n    tag_60:\n        /* \"#utility.yul\":1496:1526   */\n      swap1\n      pop\n        /* \"#utility.yul\":1535:1568   */\n      tag_62\n        /* \"#utility.yul\":1563:1567   */\n      dup3\n        /* \"#utility.yul\":1555:1561   */\n      dup3\n        /* \"#utility.yul\":1535:1568   */\n      tag_63\n      jump\t// in\n    tag_62:\n        /* \"#utility.yul\":1486:1574   */\n      swap2\n      swap1\n      pop\n      jump\t// out\n        /* \"#utility.yul\":1580:1655   */\n    tag_61:\n      0x00\n        /* \"#utility.yul\":1646:1648   */\n      0x40\n        /* \"#utility.yul\":1640:1649   */\n      mload\n        /* \"#utility.yul\":1630:1649   */\n      swap1\n      pop\n        /* \"#utility.yul\":1620:1655   */\n      swap1\n      jump\t// out\n        /* \"#utility.yul\":1661:1969   */\n    tag_39:\n      0x00\n        /* \"#utility.yul\":1813:1831   */\n      0xffffffffffffffff\n        /* \"#utility.yul\":1805:1811   */\n      dup3\n        /* \"#utility.yul\":1802:1832   */\n      gt\n        /* \"#utility.yul\":1799:1801   */\n      iszero\n      tag_66\n      jumpi\n        /* \"#utility.yul\":1835:1853   */\n      tag_67\n      tag_68\n      jump\t// in\n    tag_67:\n        /* \"#utility.yul\":1799:1801   */\n    tag_66:\n        /* \"#utility.yul\":1873:1902   */\n      tag_69\n        /* \"#utility.yul\":1895:1901   */\n      dup3\n        /* \"#utility.yul\":1873:1902   */\n      tag_70\n      jump\t// in\n    tag_69:\n        /* \"#utility.yul\":1865:1902   */\n      swap1\n      pop\n        /* \"#utility.yul\":1957:1961   */\n      0x20\n        /* \"#utility.yul\":1951:1955   */\n      dup2\n        /* \"#utility.yul\":1947:1962   */\n      add\n        /* \"#utility.yul\":1939:1962   */\n      swap1\n      pop\n        /* \"#utility.yul\":1728:1969   */\n      swap2\n      swap1\n      pop\n      jump\t// out\n        /* \"#utility.yul\":1975:2052   */\n    tag_71:\n      0x00\n        /* \"#utility.yul\":2041:2046   */\n      dup2\n        /* \"#utility.yul\":2030:2046   */\n      swap1\n      pop\n        /* \"#utility.yul\":2020:2052   */\n      swap2\n      swap1\n      pop\n      jump\t// out\n        /* \"#utility.yul\":2058:2212   */\n    tag_43:\n        /* \"#utility.yul\":2142:2148   */\n      dup3\n        /* \"#utility.yul\":2137:2140   */\n      dup2\n        /* \"#utility.yul\":2132:2135   */\n      dup4\n        /* \"#utility.yul\":2119:2149   */\n      calldatacopy\n        /* \"#utility.yul\":2204:2205   */\n      0x00\n        /* \"#utility.yul\":2195:2201   */\n      dup4\n        /* \"#utility.yul\":2190:2193   */\n      dup4\n        /* \"#utility.yul\":2186:2202   */\n      add\n        /* \"#utility.yul\":2179:2206   */\n      mstore\n        /* \"#utility.yul\":2109:2212   */\n      pop\n      pop\n      pop\n      jump\t// out\n        /* \"#utility.yul\":2218:2538   */\n    tag_24:\n      0x00\n        /* \"#utility.yul\":2299:2300   */\n      0x02\n        /* \"#utility.yul\":2293:2297   */\n      dup3\n        /* \"#utility.yul\":2289:2301   */\n      div\n        /* \"#utility.yul\":2279:2301   */\n      swap1\n      pop\n        /* \"#utility.yul\":2346:2347   */\n      0x01\n        /* \"#utility.yul\":2340:2344   */\n      dup3\n        /* \"#utility.yul\":2336:2348   */\n      and\n        /* \"#utility.yul\":2367:2385   */\n      dup1\n        /* \"#utility.yul\":2357:2359   */\n      tag_75\n      jumpi\n        /* \"#utility.yul\":2423:2427   */\n      0x7f\n        /* \"#utility.yul\":2415:2421   */\n      dup3\n        /* \"#utility.yul\":2411:2428   */\n      and\n        /* \"#utility.yul\":2401:2428   */\n      swap2\n      pop\n        /* \"#utility.yul\":2357:2359   */\n    tag_75:\n        /* \"#utility.yul\":2485:2487   */\n      0x20\n        /* \"#utility.yul\":2477:2483   */\n      dup3\n        /* \"#utility.yul\":2474:2488   */\n      lt\n        /* \"#utility.yul\":2454:2472   */\n      dup2\n        /* \"#utility.yul\":2451:2489   */\n      eq\n        /* \"#utility.yul\":2448:2450   */\n      iszero\n      tag_76\n      jumpi\n        /* \"#utility.yul\":2504:2522   */\n      tag_77\n      tag_78\n      jump\t// in\n    tag_77:\n        /* \"#utility.yul\":2448:2450   */\n    tag_76:\n        /* \"#utility.yul\":2269:2538   */\n      pop\n      swap2\n      swap1\n      pop\n      jump\t// out\n        /* \"#utility.yul\":2544:2825   */\n    tag_63:\n        /* \"#utility.yul\":2627:2654   */\n      tag_80\n        /* \"#utility.yul\":2649:2653   */\n      dup3\n        /* \"#utility.yul\":2627:2654   */\n      tag_70\n      jump\t// in\n    tag_80:\n        /* \"#utility.yul\":2619:2625   */\n      dup2\n        /* \"#utility.yul\":2615:2655   */\n      add\n        /* \"#utility.yul\":2757:2763   */\n      dup2\n        /* \"#utility.yul\":2745:2755   */\n      dup2\n        /* \"#utility.yul\":2742:2764   */\n      lt\n        /* \"#utility.yul\":2721:2739   */\n      0xffffffffffffffff\n        /* \"#utility.yul\":2709:2719   */\n      dup3\n        /* \"#utility.yul\":2706:2740   */\n      gt\n        /* \"#utility.yul\":2703:2765   */\n      or\n        /* \"#utility.yul\":2700:2702   */\n      iszero\n      tag_81\n      jumpi\n        /* \"#utility.yul\":2768:2786   */\n      tag_82\n      tag_68\n      jump\t// in\n    tag_82:\n        /* \"#utility.yul\":2700:2702   */\n    tag_81:\n        /* \"#utility.yul\":2808:2818   */\n      dup1\n        /* \"#utility.yul\":2804:2806   */\n      0x40\n        /* \"#utility.yul\":2797:2819   */\n      mstore\n        /* \"#utility.yul\":2587:2825   */\n      pop\n      pop\n      pop\n      jump\t// out\n        /* \"#utility.yul\":2831:3011   */\n    tag_78:\n        /* \"#utility.yul\":2879:2956   */\n      0x4e487b7100000000000000000000000000000000000000000000000000000000\n        /* \"#utility.yul\":2876:2877   */\n      0x00\n        /* \"#utility.yul\":2869:2957   */\n      mstore\n        /* \"#utility.yul\":2976:2980   */\n      0x22\n        /* \"#utility.yul\":2973:2974   */\n      0x04\n        /* \"#utility.yul\":2966:2981   */\n      mstore\n        /* \"#utility.yul\":3000:3004   */\n      0x24\n        /* \"#utility.yul\":2997:2998   */\n      0x00\n        /* \"#utility.yul\":2990:3005   */\n      revert\n        /* \"#utility.yul\":3017:3197   */\n    tag_68:\n        /* \"#utility.yul\":3065:3142   */\n      0x4e487b7100000000000000000000000000000000000000000000000000000000\n        /* \"#utility.yul\":3062:3063   */\n      0x00\n        /* \"#utility.yul\":3055:3143   */\n      mstore\n        /* \"#utility.yul\":3162:3166   */\n      0x41\n        /* \"#utility.yul\":3159:3160   */\n      0x04\n        /* \"#utility.yul\":3152:3167   */\n      mstore\n        /* \"#utility.yul\":3186:3190   */\n      0x24\n        /* \"#utility.yul\":3183:3184   */\n      0x00\n        /* \"#utility.yul\":3176:3191   */\n      revert\n        /* \"#utility.yul\":3203:3305   */\n    tag_70:\n      0x00\n        /* \"#utility.yul\":3295:3297   */\n      0x1f\n        /* \"#utility.yul\":3291:3298   */\n      not\n        /* \"#utility.yul\":3286:3288   */\n      0x1f\n        /* \"#utility.yul\":3279:3284   */\n      dup4\n        /* \"#utility.yul\":3275:3289   */\n      add\n        /* \"#utility.yul\":3271:3299   */\n      and\n        /* \"#utility.yul\":3261:3299   */\n      swap1\n      pop\n        /* \"#utility.yul\":3251:3305   */\n      swap2\n      swap1\n      pop\n      jump\t// out\n        /* \"#utility.yul\":3311:3433   */\n    tag_51:\n        /* \"#utility.yul\":3384:3408   */\n      tag_87\n        /* \"#utility.yul\":3402:3407   */\n      dup2\n        /* \"#utility.yul\":3384:3408   */\n      tag_71\n      jump\t// in\n    tag_87:\n        /* \"#utility.yul\":3377:3382   */\n      dup2\n        /* \"#utility.yul\":3374:3409   */\n      eq\n        /* \"#utility.yul\":3364:3366   */\n      tag_88\n      jumpi\n        /* \"#utility.yul\":3423:3424   */\n      0x00\n        /* \"#utility.yul\":3420:3421   */\n      dup1\n        /* \"#utility.yul\":3413:3425   */\n      revert\n        /* \"#utility.yul\":3364:3366   */\n    tag_88:\n        /* \"#utility.yul\":3354:3433   */\n      pop\n      jump\t// out\n\n    auxdata: 0xa2646970667358221220dc7e43d440bf147b19014da4faf679deb73261007921ad8ff8d5a60ca7c44e1c64736f6c63430008020033\n}\n",
				"bytecode": {
					"linkReferences": {},
					"object": "608060405234801561001057600080fd5b5061040d806100206000396000f3fe608060405234801561001057600080fd5b50600436106100415760003560e01c80639554d3f51461004657806396895a7714610062578063c47f00271461006c575b600080fd5b610060600480360381019061005b9190610256565b610088565b005b61006a610092565b005b61008660048036038101906100819190610215565b6100db565b005b8060018190555050565b6107d060015410156100bd576000600260006101000a81548160ff02191690831515021790556100d8565b6001600260006101000a81548160ff02191690831515021790555b50565b80600090805190602001906100f19291906100f5565b5050565b828054610101906102ee565b90600052602060002090601f016020900481019282610123576000855561016a565b82601f1061013c57805160ff191683800117855561016a565b8280016001018555821561016a579182015b8281111561016957825182559160200191906001019061014e565b5b509050610177919061017b565b5090565b5b8082111561019457600081600090555060010161017c565b5090565b60006101ab6101a6846102a4565b61027f565b9050828152602081018484840111156101c357600080fd5b6101ce8482856102df565b509392505050565b600082601f8301126101e757600080fd5b81356101f7848260208601610198565b91505092915050565b60008135905061020f816103c0565b92915050565b60006020828403121561022757600080fd5b600082013567ffffffffffffffff81111561024157600080fd5b61024d848285016101d6565b91505092915050565b60006020828403121561026857600080fd5b600061027684828501610200565b91505092915050565b600061028961029a565b90506102958282610320565b919050565b6000604051905090565b600067ffffffffffffffff8211156102bf576102be610380565b5b6102c8826103af565b9050602081019050919050565b6000819050919050565b82818337600083830152505050565b6000600282049050600182168061030657607f821691505b6020821081141561031a57610319610351565b5b50919050565b610329826103af565b810181811067ffffffffffffffff8211171561034857610347610380565b5b80604052505050565b7f4e487b7100000000000000000000000000000000000000000000000000000000600052602260045260246000fd5b7f4e487b7100000000000000000000000000000000000000000000000000000000600052604160045260246000fd5b6000601f19601f8301169050919050565b6103c9816102d5565b81146103d457600080fd5b5056fea2646970667358221220dc7e43d440bf147b19014da4faf679deb73261007921ad8ff8d5a60ca7c44e1c64736f6c63430008020033",
					"opcodes": "PUSH1 0x80 PUSH1 0x40 MSTORE CALLVALUE DUP1 ISZERO PUSH2 0x10 JUMPI PUSH1 0x0 DUP1 REVERT JUMPDEST POP PUSH2 0x40D DUP1 PUSH2 0x20 PUSH1 0x0 CODECOPY PUSH1 0x0 RETURN INVALID PUSH1 0x80 PUSH1 0x40 MSTORE CALLVALUE DUP1 ISZERO PUSH2 0x10 JUMPI PUSH1 0x0 DUP1 REVERT JUMPDEST POP PUSH1 0x4 CALLDATASIZE LT PUSH2 0x41 JUMPI PUSH1 0x0 CALLDATALOAD PUSH1 0xE0 SHR DUP1 PUSH4 0x9554D3F5 EQ PUSH2 0x46 JUMPI DUP1 PUSH4 0x96895A77 EQ PUSH2 0x62 JUMPI DUP1 PUSH4 0xC47F0027 EQ PUSH2 0x6C JUMPI JUMPDEST PUSH1 0x0 DUP1 REVERT JUMPDEST PUSH2 0x60 PUSH1 0x4 DUP1 CALLDATASIZE SUB DUP2 ADD SWAP1 PUSH2 0x5B SWAP2 SWAP1 PUSH2 0x256 JUMP JUMPDEST PUSH2 0x88 JUMP JUMPDEST STOP JUMPDEST PUSH2 0x6A PUSH2 0x92 JUMP JUMPDEST STOP JUMPDEST PUSH2 0x86 PUSH1 0x4 DUP1 CALLDATASIZE SUB DUP2 ADD SWAP1 PUSH2 0x81 SWAP2 SWAP1 PUSH2 0x215 JUMP JUMPDEST PUSH2 0xDB JUMP JUMPDEST STOP JUMPDEST DUP1 PUSH1 0x1 DUP2 SWAP1 SSTORE POP POP JUMP JUMPDEST PUSH2 0x7D0 PUSH1 0x1 SLOAD LT ISZERO PUSH2 0xBD JUMPI PUSH1 0x0 PUSH1 0x2 PUSH1 0x0 PUSH2 0x100 EXP DUP2 SLOAD DUP2 PUSH1 0xFF MUL NOT AND SWAP1 DUP4 ISZERO ISZERO MUL OR SWAP1 SSTORE PUSH2 0xD8 JUMP JUMPDEST PUSH1 0x1 PUSH1 0x2 PUSH1 0x0 PUSH2 0x100 EXP DUP2 SLOAD DUP2 PUSH1 0xFF MUL NOT AND SWAP1 DUP4 ISZERO ISZERO MUL OR SWAP1 SSTORE JUMPDEST POP JUMP JUMPDEST DUP1 PUSH1 0x0 SWAP1 DUP1 MLOAD SWAP1 PUSH1 0x20 ADD SWAP1 PUSH2 0xF1 SWAP3 SWAP2 SWAP1 PUSH2 0xF5 JUMP JUMPDEST POP POP JUMP JUMPDEST DUP3 DUP1 SLOAD PUSH2 0x101 SWAP1 PUSH2 0x2EE JUMP JUMPDEST SWAP1 PUSH1 0x0 MSTORE PUSH1 0x20 PUSH1 0x0 KECCAK256 SWAP1 PUSH1 0x1F ADD PUSH1 0x20 SWAP1 DIV DUP2 ADD SWAP3 DUP3 PUSH2 0x123 JUMPI PUSH1 0x0 DUP6 SSTORE PUSH2 0x16A JUMP JUMPDEST DUP3 PUSH1 0x1F LT PUSH2 0x13C JUMPI DUP1 MLOAD PUSH1 0xFF NOT AND DUP4 DUP1 ADD OR DUP6 SSTORE PUSH2 0x16A JUMP JUMPDEST DUP3 DUP1 ADD PUSH1 0x1 ADD DUP6 SSTORE DUP3 ISZERO PUSH2 0x16A JUMPI SWAP2 DUP3 ADD JUMPDEST DUP3 DUP2 GT ISZERO PUSH2 0x169 JUMPI DUP3 MLOAD DUP3 SSTORE SWAP2 PUSH1 0x20 ADD SWAP2 SWAP1 PUSH1 0x1 ADD SWAP1 PUSH2 0x14E JUMP JUMPDEST JUMPDEST POP SWAP1 POP PUSH2 0x177 SWAP2 SWAP1 PUSH2 0x17B JUMP JUMPDEST POP SWAP1 JUMP JUMPDEST JUMPDEST DUP1 DUP3 GT ISZERO PUSH2 0x194 JUMPI PUSH1 0x0 DUP2 PUSH1 0x0 SWAP1 SSTORE POP PUSH1 0x1 ADD PUSH2 0x17C JUMP JUMPDEST POP SWAP1 JUMP JUMPDEST PUSH1 0x0 PUSH2 0x1AB PUSH2 0x1A6 DUP5 PUSH2 0x2A4 JUMP JUMPDEST PUSH2 0x27F JUMP JUMPDEST SWAP1 POP DUP3 DUP2 MSTORE PUSH1 0x20 DUP2 ADD DUP5 DUP5 DUP5 ADD GT ISZERO PUSH2 0x1C3 JUMPI PUSH1 0x0 DUP1 REVERT JUMPDEST PUSH2 0x1CE DUP5 DUP3 DUP6 PUSH2 0x2DF JUMP JUMPDEST POP SWAP4 SWAP3 POP POP POP JUMP JUMPDEST PUSH1 0x0 DUP3 PUSH1 0x1F DUP4 ADD SLT PUSH2 0x1E7 JUMPI PUSH1 0x0 DUP1 REVERT JUMPDEST DUP2 CALLDATALOAD PUSH2 0x1F7 DUP5 DUP3 PUSH1 0x20 DUP7 ADD PUSH2 0x198 JUMP JUMPDEST SWAP2 POP POP SWAP3 SWAP2 POP POP JUMP JUMPDEST PUSH1 0x0 DUP2 CALLDATALOAD SWAP1 POP PUSH2 0x20F DUP2 PUSH2 0x3C0 JUMP JUMPDEST SWAP3 SWAP2 POP POP JUMP JUMPDEST PUSH1 0x0 PUSH1 0x20 DUP3 DUP5 SUB SLT ISZERO PUSH2 0x227 JUMPI PUSH1 0x0 DUP1 REVERT JUMPDEST PUSH1 0x0 DUP3 ADD CALLDATALOAD PUSH8 0xFFFFFFFFFFFFFFFF DUP2 GT ISZERO PUSH2 0x241 JUMPI PUSH1 0x0 DUP1 REVERT JUMPDEST PUSH2 0x24D DUP5 DUP3 DUP6 ADD PUSH2 0x1D6 JUMP JUMPDEST SWAP2 POP POP SWAP3 SWAP2 POP POP JUMP JUMPDEST PUSH1 0x0 PUSH1 0x20 DUP3 DUP5 SUB SLT ISZERO PUSH2 0x268 JUMPI PUSH1 0x0 DUP1 REVERT JUMPDEST PUSH1 0x0 PUSH2 0x276 DUP5 DUP3 DUP6 ADD PUSH2 0x200 JUMP JUMPDEST SWAP2 POP POP SWAP3 SWAP2 POP POP JUMP JUMPDEST PUSH1 0x0 PUSH2 0x289 PUSH2 0x29A JUMP JUMPDEST SWAP1 POP PUSH2 0x295 DUP3 DUP3 PUSH2 0x320 JUMP JUMPDEST SWAP2 SWAP1 POP JUMP JUMPDEST PUSH1 0x0 PUSH1 0x40 MLOAD SWAP1 POP SWAP1 JUMP JUMPDEST PUSH1 0x0 PUSH8 0xFFFFFFFFFFFFFFFF DUP3 GT ISZERO PUSH2 0x2BF JUMPI PUSH2 0x2BE PUSH2 0x380 JUMP JUMPDEST JUMPDEST PUSH2 0x2C8 DUP3 PUSH2 0x3AF JUMP JUMPDEST SWAP1 POP PUSH1 0x20 DUP2 ADD SWAP1 POP SWAP2 SWAP1 POP JUMP JUMPDEST PUSH1 0x0 DUP2 SWAP1 POP SWAP2 SWAP1 POP JUMP JUMPDEST DUP3 DUP2 DUP4 CALLDATACOPY PUSH1 0x0 DUP4 DUP4 ADD MSTORE POP POP POP JUMP JUMPDEST PUSH1 0x0 PUSH1 0x2 DUP3 DIV SWAP1 POP PUSH1 0x1 DUP3 AND DUP1 PUSH2 0x306 JUMPI PUSH1 0x7F DUP3 AND SWAP2 POP JUMPDEST PUSH1 0x20 DUP3 LT DUP2 EQ ISZERO PUSH2 0x31A JUMPI PUSH2 0x319 PUSH2 0x351 JUMP JUMPDEST JUMPDEST POP SWAP2 SWAP1 POP JUMP JUMPDEST PUSH2 0x329 DUP3 PUSH2 0x3AF JUMP JUMPDEST DUP2 ADD DUP2 DUP2 LT PUSH8 0xFFFFFFFFFFFFFFFF DUP3 GT OR ISZERO PUSH2 0x348 JUMPI PUSH2 0x347 PUSH2 0x380 JUMP JUMPDEST JUMPDEST DUP1 PUSH1 0x40 MSTORE POP POP POP JUMP JUMPDEST PUSH32 0x4E487B7100000000000000000000000000000000000000000000000000000000 PUSH1 0x0 MSTORE PUSH1 0x22 PUSH1 0x4 MSTORE PUSH1 0x24 PUSH1 0x0 REVERT JUMPDEST PUSH32 0x4E487B7100000000000000000000000000000000000000000000000000000000 PUSH1 0x0 MSTORE PUSH1 0x41 PUSH1 0x4 MSTORE PUSH1 0x24 PUSH1 0x0 REVERT JUMPDEST PUSH1 0x0 PUSH1 0x1F NOT PUSH1 0x1F DUP4 ADD AND SWAP1 POP SWAP2 SWAP1 POP JUMP JUMPDEST PUSH2 0x3C9 DUP2 PUSH2 0x2D5 JUMP JUMPDEST DUP2 EQ PUSH2 0x3D4 JUMPI PUSH1 0x0 DUP1 REVERT JUMPDEST POP JUMP INVALID LOG2 PUSH5 0x6970667358 0x22 SLT KECCAK256 0xDC PUSH31 0x43D440BF147B19014DA4FAF679DEB73261007921AD8FF8D5A60CA7C44E1C64 PUSH20 0x6F6C634300080200330000000000000000000000 "
				},
				"gasEstimates": {
					"creation": {
						"codeDepositCost": "207400",
						"executionCost": "251",
						"totalCost": "207651"
					},
					"external": {
						"determineEligibility()": "21848",
						"setBidAmount(uint256)": "20398",
						"setName(string)": "infinite"
					}
				},
				"methodIdentifiers": {
					"determineEligibility()": "96895a77",
					"setBidAmount(uint256)": "9554d3f5",
					"setName(string)": "c47f0027"
				}
			},
			"storageLayout": {
				"storage": [
					{
						"astId": 3,
						"contract": "bc-lab5/Bidder.sol:Bidder",
						"label": "name",
						"offset": 0,
						"slot": "0",
						"type": "t_string_storage"
					},
					{
						"astId": 5,
						"contract": "bc-lab5/Bidder.sol:Bidder",
						"label": "bidAmount",
						"offset": 0,
						"slot": "1",
						"type": "t_uint256"
					},
					{
						"astId": 7,
						"contract": "bc-lab5/Bidder.sol:Bidder",
						"label": "eligible",
						"offset": 0,
						"slot": "2",
						"type": "t_bool"
					}
				],
				"types": {
					"t_bool": {
						"encoding": "inplace",
						"label": "bool",
						"numberOfBytes": "1"
					},
					"t_string_storage": {
						"encoding": "bytes",
						"label": "string",
						"numberOfBytes": "32"
					},
					"t_uint256": {
						"encoding": "inplace",
						"label": "uint256",
						"numberOfBytes": "32"
					}
				}
			},
			"userdoc": {
				"kind": "user",
				"methods": {},
				"version": 1
			}
		}
	}
}