{
	"bc-lab5/parent.sol": {
		"Parent": {
			"abi": [
				{
					"inputs": [],
					"name": "SchoolOpen",
					"outputs": [
						{
							"internalType": "string",
							"name": "",
							"type": "string"
						}
					],
					"stateMutability": "pure",
					"type": "function"
				},
				{
					"inputs": [],
					"name": "setValue",
					"outputs": [
						{
							"internalType": "uint256",
							"name": "",
							"type": "uint256"
						}
					],
					"stateMutability": "nonpayable",
					"type": "function"
				}
			],
			"devdoc": {
				"kind": "dev",
				"methods": {},
				"version": 1
			},
			"evm": {
				"assembly": "    /* \"bc-lab5/parent.sol\":518:833  contract Parent {\r... */\n  mstore(0x40, 0x80)\n  callvalue\n  dup1\n  iszero\n  tag_1\n  jumpi\n  0x00\n  dup1\n  revert\ntag_1:\n  pop\n  dataSize(sub_0)\n  dup1\n  dataOffset(sub_0)\n  0x00\n  codecopy\n  0x00\n  return\nstop\n\nsub_0: assembly {\n        /* \"bc-lab5/parent.sol\":518:833  contract Parent {\r... */\n      mstore(0x40, 0x80)\n      callvalue\n      dup1\n      iszero\n      tag_1\n      jumpi\n      0x00\n      dup1\n      revert\n    tag_1:\n      pop\n      jumpi(tag_2, lt(calldatasize, 0x04))\n      shr(0xe0, calldataload(0x00))\n      dup1\n      0x3b8b4811\n      eq\n      tag_3\n      jumpi\n      dup1\n      0x4fa519fa\n      eq\n      tag_4\n      jumpi\n    tag_2:\n      0x00\n      dup1\n      revert\n        /* \"bc-lab5/parent.sol\":718:830  function SchoolOpen() pure external returns (string memory) {\r... */\n    tag_3:\n      tag_5\n      tag_6\n      jump\t// in\n    tag_5:\n      mload(0x40)\n      tag_7\n      swap2\n      swap1\n      tag_8\n      jump\t// in\n    tag_7:\n      mload(0x40)\n      dup1\n      swap2\n      sub\n      swap1\n      return\n        /* \"bc-lab5/parent.sol\":567:710  function setValue() external returns (uint) {\r... */\n    tag_4:\n      tag_9\n      tag_10\n      jump\t// in\n    tag_9:\n      mload(0x40)\n      tag_11\n      swap2\n      swap1\n      tag_12\n      jump\t// in\n    tag_11:\n      mload(0x40)\n      dup1\n      swap2\n      sub\n      swap1\n      return\n        /* \"bc-lab5/parent.sol\":718:830  function SchoolOpen() pure external returns (string memory) {\r... */\n    tag_6:\n        /* \"bc-lab5/parent.sol\":763:776  string memory */\n      0x60\n        /* \"bc-lab5/parent.sol\":789:822  return \"third day of the school.\" */\n      mload(0x40)\n      dup1\n      0x40\n      add\n      0x40\n      mstore\n      dup1\n      0x18\n      dup2\n      mstore\n      0x20\n      add\n      0x746869726420646179206f6620746865207363686f6f6c2e0000000000000000\n      dup2\n      mstore\n      pop\n      swap1\n      pop\n        /* \"bc-lab5/parent.sol\":718:830  function SchoolOpen() pure external returns (string memory) {\r... */\n      swap1\n      jump\t// out\n        /* \"bc-lab5/parent.sol\":567:710  function setValue() external returns (uint) {\r... */\n    tag_10:\n        /* \"bc-lab5/parent.sol\":605:609  uint */\n      0x00\n        /* \"bc-lab5/parent.sol\":622:628  uint a */\n      dup1\n        /* \"bc-lab5/parent.sol\":631:633  20 */\n      0x14\n        /* \"bc-lab5/parent.sol\":622:633  uint a = 20 */\n      swap1\n      pop\n        /* \"bc-lab5/parent.sol\":644:650  uint b */\n      0x00\n        /* \"bc-lab5/parent.sol\":653:655  50 */\n      0x32\n        /* \"bc-lab5/parent.sol\":644:655  uint b = 50 */\n      swap1\n      pop\n        /* \"bc-lab5/parent.sol\":678:679  b */\n      dup1\n        /* \"bc-lab5/parent.sol\":674:675  a */\n      dup3\n        /* \"bc-lab5/parent.sol\":674:679  a + b */\n      tag_15\n      swap2\n      swap1\n      tag_16\n      jump\t// in\n    tag_15:\n        /* \"bc-lab5/parent.sol\":668:671  sum */\n      0x00\n        /* \"bc-lab5/parent.sol\":668:679  sum = a + b */\n      dup2\n      swap1\n      sstore\n      pop\n        /* \"bc-lab5/parent.sol\":699:702  sum */\n      sload(0x00)\n        /* \"bc-lab5/parent.sol\":692:702  return sum */\n      swap3\n      pop\n      pop\n      pop\n        /* \"bc-lab5/parent.sol\":567:710  function setValue() external returns (uint) {\r... */\n      swap1\n      jump\t// out\n        /* \"#utility.yul\":7:371   */\n    tag_18:\n      0x00\n        /* \"#utility.yul\":123:162   */\n      tag_20\n        /* \"#utility.yul\":156:161   */\n      dup3\n        /* \"#utility.yul\":123:162   */\n      tag_21\n      jump\t// in\n    tag_20:\n        /* \"#utility.yul\":178:249   */\n      tag_22\n        /* \"#utility.yul\":242:248   */\n      dup2\n        /* \"#utility.yul\":237:240   */\n      dup6\n        /* \"#utility.yul\":178:249   */\n      tag_23\n      jump\t// in\n    tag_22:\n        /* \"#utility.yul\":171:249   */\n      swap4\n      pop\n        /* \"#utility.yul\":258:310   */\n      tag_24\n        /* \"#utility.yul\":303:309   */\n      dup2\n        /* \"#utility.yul\":298:301   */\n      dup6\n        /* \"#utility.yul\":291:295   */\n      0x20\n        /* \"#utility.yul\":284:289   */\n      dup7\n        /* \"#utility.yul\":280:296   */\n      add\n        /* \"#utility.yul\":258:310   */\n      tag_25\n      jump\t// in\n    tag_24:\n        /* \"#utility.yul\":335:364   */\n      tag_26\n        /* \"#utility.yul\":357:363   */\n      dup2\n        /* \"#utility.yul\":335:364   */\n      tag_27\n      jump\t// in\n    tag_26:\n        /* \"#utility.yul\":330:333   */\n      dup5\n        /* \"#utility.yul\":326:365   */\n      add\n        /* \"#utility.yul\":319:365   */\n      swap2\n      pop\n        /* \"#utility.yul\":99:371   */\n      pop\n      swap3\n      swap2\n      pop\n      pop\n      jump\t// out\n        /* \"#utility.yul\":377:495   */\n    tag_28:\n        /* \"#utility.yul\":464:488   */\n      tag_30\n        /* \"#utility.yul\":482:487   */\n      dup2\n        /* \"#utility.yul\":464:488   */\n      tag_31\n      jump\t// in\n    tag_30:\n        /* \"#utility.yul\":459:462   */\n      dup3\n        /* \"#utility.yul\":452:489   */\n      mstore\n        /* \"#utility.yul\":442:495   */\n      pop\n      pop\n      jump\t// out\n        /* \"#utility.yul\":501:814   */\n    tag_8:\n      0x00\n        /* \"#utility.yul\":652:654   */\n      0x20\n        /* \"#utility.yul\":641:650   */\n      dup3\n        /* \"#utility.yul\":637:655   */\n      add\n        /* \"#utility.yul\":629:655   */\n      swap1\n      pop\n        /* \"#utility.yul\":701:710   */\n      dup2\n        /* \"#utility.yul\":695:699   */\n      dup2\n        /* \"#utility.yul\":691:711   */\n      sub\n        /* \"#utility.yul\":687:688   */\n      0x00\n        /* \"#utility.yul\":676:685   */\n      dup4\n        /* \"#utility.yul\":672:689   */\n      add\n        /* \"#utility.yul\":665:712   */\n      mstore\n        /* \"#utility.yul\":729:807   */\n      tag_33\n        /* \"#utility.yul\":802:806   */\n      dup2\n        /* \"#utility.yul\":793:799   */\n      dup5\n        /* \"#utility.yul\":729:807   */\n      tag_18\n      jump\t// in\n    tag_33:\n        /* \"#utility.yul\":721:807   */\n      swap1\n      pop\n        /* \"#utility.yul\":619:814   */\n      swap3\n      swap2\n      pop\n      pop\n      jump\t// out\n        /* \"#utility.yul\":820:1042   */\n    tag_12:\n      0x00\n        /* \"#utility.yul\":951:953   */\n      0x20\n        /* \"#utility.yul\":940:949   */\n      dup3\n        /* \"#utility.yul\":936:954   */\n      add\n        /* \"#utility.yul\":928:954   */\n      swap1\n      pop\n        /* \"#utility.yul\":964:1035   */\n      tag_35\n        /* \"#utility.yul\":1032:1033   */\n      0x00\n        /* \"#utility.yul\":1021:1030   */\n      dup4\n        /* \"#utility.yul\":1017:1034   */\n      add\n        /* \"#utility.yul\":1008:1014   */\n      dup5\n        /* \"#utility.yul\":964:1035   */\n      tag_28\n      jump\t// in\n    tag_35:\n        /* \"#utility.yul\":918:1042   */\n      swap3\n      swap2\n      pop\n      pop\n      jump\t// out\n        /* \"#utility.yul\":1048:1147   */\n    tag_21:\n      0x00\n        /* \"#utility.yul\":1134:1139   */\n      dup2\n        /* \"#utility.yul\":1128:1140   */\n      mload\n        /* \"#utility.yul\":1118:1140   */\n      swap1\n      pop\n        /* \"#utility.yul\":1107:1147   */\n      swap2\n      swap1\n      pop\n      jump\t// out\n        /* \"#utility.yul\":1153:1322   */\n    tag_23:\n      0x00\n        /* \"#utility.yul\":1271:1277   */\n      dup3\n        /* \"#utility.yul\":1266:1269   */\n      dup3\n        /* \"#utility.yul\":1259:1278   */\n      mstore\n        /* \"#utility.yul\":1311:1315   */\n      0x20\n        /* \"#utility.yul\":1306:1309   */\n      dup3\n        /* \"#utility.yul\":1302:1316   */\n      add\n        /* \"#utility.yul\":1287:1316   */\n      swap1\n      pop\n        /* \"#utility.yul\":1249:1322   */\n      swap3\n      swap2\n      pop\n      pop\n      jump\t// out\n        /* \"#utility.yul\":1328:1633   */\n    tag_16:\n      0x00\n        /* \"#utility.yul\":1387:1407   */\n      tag_39\n        /* \"#utility.yul\":1405:1406   */\n      dup3\n        /* \"#utility.yul\":1387:1407   */\n      tag_31\n      jump\t// in\n    tag_39:\n        /* \"#utility.yul\":1382:1407   */\n      swap2\n      pop\n        /* \"#utility.yul\":1421:1441   */\n      tag_40\n        /* \"#utility.yul\":1439:1440   */\n      dup4\n        /* \"#utility.yul\":1421:1441   */\n      tag_31\n      jump\t// in\n    tag_40:\n        /* \"#utility.yul\":1416:1441   */\n      swap3\n      pop\n        /* \"#utility.yul\":1575:1576   */\n      dup3\n        /* \"#utility.yul\":1507:1573   */\n      0xffffffffffffffffffffffffffffffffffffffffffffffffffffffffffffffff\n        /* \"#utility.yul\":1503:1577   */\n      sub\n        /* \"#utility.yul\":1500:1501   */\n      dup3\n        /* \"#utility.yul\":1497:1578   */\n      gt\n        /* \"#utility.yul\":1494:1496   */\n      iszero\n      tag_41\n      jumpi\n        /* \"#utility.yul\":1581:1599   */\n      tag_42\n      tag_43\n      jump\t// in\n    tag_42:\n        /* \"#utility.yul\":1494:1496   */\n    tag_41:\n        /* \"#utility.yul\":1625:1626   */\n      dup3\n        /* \"#utility.yul\":1622:1623   */\n      dup3\n        /* \"#utility.yul\":1618:1627   */\n      add\n        /* \"#utility.yul\":1611:1627   */\n      swap1\n      pop\n        /* \"#utility.yul\":1372:1633   */\n      swap3\n      swap2\n      pop\n      pop\n      jump\t// out\n        /* \"#utility.yul\":1639:1716   */\n    tag_31:\n      0x00\n        /* \"#utility.yul\":1705:1710   */\n      dup2\n        /* \"#utility.yul\":1694:1710   */\n      swap1\n      pop\n        /* \"#utility.yul\":1684:1716   */\n      swap2\n      swap1\n      pop\n      jump\t// out\n        /* \"#utility.yul\":1722:2029   */\n    tag_25:\n        /* \"#utility.yul\":1790:1791   */\n      0x00\n        /* \"#utility.yul\":1800:1913   */\n    tag_46:\n        /* \"#utility.yul\":1814:1820   */\n      dup4\n        /* \"#utility.yul\":1811:1812   */\n      dup2\n        /* \"#utility.yul\":1808:1821   */\n      lt\n        /* \"#utility.yul\":1800:1913   */\n      iszero\n      tag_48\n      jumpi\n        /* \"#utility.yul\":1899:1900   */\n      dup1\n        /* \"#utility.yul\":1894:1897   */\n      dup3\n        /* \"#utility.yul\":1890:1901   */\n      add\n        /* \"#utility.yul\":1884:1902   */\n      mload\n        /* \"#utility.yul\":1880:1881   */\n      dup2\n        /* \"#utility.yul\":1875:1878   */\n      dup5\n        /* \"#utility.yul\":1871:1882   */\n      add\n        /* \"#utility.yul\":1864:1903   */\n      mstore\n        /* \"#utility.yul\":1836:1838   */\n      0x20\n        /* \"#utility.yul\":1833:1834   */\n      dup2\n        /* \"#utility.yul\":1829:1839   */\n      add\n        /* \"#utility.yul\":1824:1839   */\n      swap1\n      pop\n        /* \"#utility.yul\":1800:1913   */\n      jump(tag_46)\n    tag_48:\n        /* \"#utility.yul\":1931:1937   */\n      dup4\n        /* \"#utility.yul\":1928:1929   */\n      dup2\n        /* \"#utility.yul\":1925:1938   */\n      gt\n        /* \"#utility.yul\":1922:1924   */\n      iszero\n      tag_49\n      jumpi\n        /* \"#utility.yul\":2011:2012   */\n      0x00\n        /* \"#utility.yul\":2002:2008   */\n      dup5\n        /* \"#utility.yul\":1997:2000   */\n      dup5\n        /* \"#utility.yul\":1993:2009   */\n      add\n        /* \"#utility.yul\":1986:2013   */\n      mstore\n        /* \"#utility.yul\":1922:1924   */\n    tag_49:\n        /* \"#utility.yul\":1771:2029   */\n      pop\n      pop\n      pop\n      pop\n      jump\t// out\n        /* \"#utility.yul\":2035:2215   */\n    tag_43:\n        /* \"#utility.yul\":2083:2160   */\n      0x4e487b7100000000000000000000000000000000000000000000000000000000\n        /* \"#utility.yul\":2080:2081   */\n      0x00\n        /* \"#utility.yul\":2073:2161   */\n      mstore\n        /* \"#utility.yul\":2180:2184   */\n      0x11\n        /* \"#utility.yul\":2177:2178   */\n      0x04\n        /* \"#utility.yul\":2170:2185   */\n      mstore\n        /* \"#utility.yul\":2204:2208   */\n      0x24\n        /* \"#utility.yul\":2201:2202   */\n      0x00\n        /* \"#utility.yul\":2194:2209   */\n      revert\n        /* \"#utility.yul\":2221:2323   */\n    tag_27:\n      0x00\n        /* \"#utility.yul\":2313:2315   */\n      0x1f\n        /* \"#utility.yul\":2309:2316   */\n      not\n        /* \"#utility.yul\":2304:2306   */\n      0x1f\n        /* \"#utility.yul\":2297:2302   */\n      dup4\n        /* \"#utility.yul\":2293:2307   */\n      add\n        /* \"#utility.yul\":2289:2317   */\n      and\n        /* \"#utility.yul\":2279:2317   */\n      swap1\n      pop\n        /* \"#utility.yul\":2269:2323   */\n      swap2\n      swap1\n      pop\n      jump\t// out\n\n    auxdata: 0xa2646970667358221220afb64ef55be99295a03a587d690dae008fd0bd80e27fcfa7b776c5e00c7ff4b164736f6c63430008020033\n}\n",
				"bytecode": {
					"linkReferences": {},
					"object": "608060405234801561001057600080fd5b50610287806100206000396000f3fe608060405234801561001057600080fd5b50600436106100365760003560e01c80633b8b48111461003b5780634fa519fa14610059575b600080fd5b610043610077565b6040516100509190610125565b60405180910390f35b6100616100b4565b60405161006e9190610147565b60405180910390f35b60606040518060400160405280601881526020017f746869726420646179206f6620746865207363686f6f6c2e0000000000000000815250905090565b6000806014905060006032905080826100cd919061017e565b6000819055506000549250505090565b60006100e882610162565b6100f2818561016d565b93506101028185602086016101de565b61010b81610240565b840191505092915050565b61011f816101d4565b82525050565b6000602082019050818103600083015261013f81846100dd565b905092915050565b600060208201905061015c6000830184610116565b92915050565b600081519050919050565b600082825260208201905092915050565b6000610189826101d4565b9150610194836101d4565b9250827fffffffffffffffffffffffffffffffffffffffffffffffffffffffffffffffff038211156101c9576101c8610211565b5b828201905092915050565b6000819050919050565b60005b838110156101fc5780820151818401526020810190506101e1565b8381111561020b576000848401525b50505050565b7f4e487b7100000000000000000000000000000000000000000000000000000000600052601160045260246000fd5b6000601f19601f830116905091905056fea2646970667358221220afb64ef55be99295a03a587d690dae008fd0bd80e27fcfa7b776c5e00c7ff4b164736f6c63430008020033",
					"opcodes": "PUSH1 0x80 PUSH1 0x40 MSTORE CALLVALUE DUP1 ISZERO PUSH2 0x10 JUMPI PUSH1 0x0 DUP1 REVERT JUMPDEST POP PUSH2 0x287 DUP1 PUSH2 0x20 PUSH1 0x0 CODECOPY PUSH1 0x0 RETURN INVALID PUSH1 0x80 PUSH1 0x40 MSTORE CALLVALUE DUP1 ISZERO PUSH2 0x10 JUMPI PUSH1 0x0 DUP1 REVERT JUMPDEST POP PUSH1 0x4 CALLDATASIZE LT PUSH2 0x36 JUMPI PUSH1 0x0 CALLDATALOAD PUSH1 0xE0 SHR DUP1 PUSH4 0x3B8B4811 EQ PUSH2 0x3B JUMPI DUP1 PUSH4 0x4FA519FA EQ PUSH2 0x59 JUMPI JUMPDEST PUSH1 0x0 DUP1 REVERT JUMPDEST PUSH2 0x43 PUSH2 0x77 JUMP JUMPDEST PUSH1 0x40 MLOAD PUSH2 0x50 SWAP2 SWAP1 PUSH2 0x125 JUMP JUMPDEST PUSH1 0x40 MLOAD DUP1 SWAP2 SUB SWAP1 RETURN JUMPDEST PUSH2 0x61 PUSH2 0xB4 JUMP JUMPDEST PUSH1 0x40 MLOAD PUSH2 0x6E SWAP2 SWAP1 PUSH2 0x147 JUMP JUMPDEST PUSH1 0x40 MLOAD DUP1 SWAP2 SUB SWAP1 RETURN JUMPDEST PUSH1 0x60 PUSH1 0x40 MLOAD DUP1 PUSH1 0x40 ADD PUSH1 0x40 MSTORE DUP1 PUSH1 0x18 DUP2 MSTORE PUSH1 0x20 ADD PUSH32 0x746869726420646179206F6620746865207363686F6F6C2E0000000000000000 DUP2 MSTORE POP SWAP1 POP SWAP1 JUMP JUMPDEST PUSH1 0x0 DUP1 PUSH1 0x14 SWAP1 POP PUSH1 0x0 PUSH1 0x32 SWAP1 POP DUP1 DUP3 PUSH2 0xCD SWAP2 SWAP1 PUSH2 0x17E JUMP JUMPDEST PUSH1 0x0 DUP2 SWAP1 SSTORE POP PUSH1 0x0 SLOAD SWAP3 POP POP POP SWAP1 JUMP JUMPDEST PUSH1 0x0 PUSH2 0xE8 DUP3 PUSH2 0x162 JUMP JUMPDEST PUSH2 0xF2 DUP2 DUP6 PUSH2 0x16D JUMP JUMPDEST SWAP4 POP PUSH2 0x102 DUP2 DUP6 PUSH1 0x20 DUP7 ADD PUSH2 0x1DE JUMP JUMPDEST PUSH2 0x10B DUP2 PUSH2 0x240 JUMP JUMPDEST DUP5 ADD SWAP2 POP POP SWAP3 SWAP2 POP POP JUMP JUMPDEST PUSH2 0x11F DUP2 PUSH2 0x1D4 JUMP JUMPDEST DUP3 MSTORE POP POP JUMP JUMPDEST PUSH1 0x0 PUSH1 0x20 DUP3 ADD SWAP1 POP DUP2 DUP2 SUB PUSH1 0x0 DUP4 ADD MSTORE PUSH2 0x13F DUP2 DUP5 PUSH2 0xDD JUMP JUMPDEST SWAP1 POP SWAP3 SWAP2 POP POP JUMP JUMPDEST PUSH1 0x0 PUSH1 0x20 DUP3 ADD SWAP1 POP PUSH2 0x15C PUSH1 0x0 DUP4 ADD DUP5 PUSH2 0x116 JUMP JUMPDEST SWAP3 SWAP2 POP POP JUMP JUMPDEST PUSH1 0x0 DUP2 MLOAD SWAP1 POP SWAP2 SWAP1 POP JUMP JUMPDEST PUSH1 0x0 DUP3 DUP3 MSTORE PUSH1 0x20 DUP3 ADD SWAP1 POP SWAP3 SWAP2 POP POP JUMP JUMPDEST PUSH1 0x0 PUSH2 0x189 DUP3 PUSH2 0x1D4 JUMP JUMPDEST SWAP2 POP PUSH2 0x194 DUP4 PUSH2 0x1D4 JUMP JUMPDEST SWAP3 POP DUP3 PUSH32 0xFFFFFFFFFFFFFFFFFFFFFFFFFFFFFFFFFFFFFFFFFFFFFFFFFFFFFFFFFFFFFFFF SUB DUP3 GT ISZERO PUSH2 0x1C9 JUMPI PUSH2 0x1C8 PUSH2 0x211 JUMP JUMPDEST JUMPDEST DUP3 DUP3 ADD SWAP1 POP SWAP3 SWAP2 POP POP JUMP JUMPDEST PUSH1 0x0 DUP2 SWAP1 POP SWAP2 SWAP1 POP JUMP JUMPDEST PUSH1 0x0 JUMPDEST DUP4 DUP2 LT ISZERO PUSH2 0x1FC JUMPI DUP1 DUP3 ADD MLOAD DUP2 DUP5 ADD MSTORE PUSH1 0x20 DUP2 ADD SWAP1 POP PUSH2 0x1E1 JUMP JUMPDEST DUP4 DUP2 GT ISZERO PUSH2 0x20B JUMPI PUSH1 0x0 DUP5 DUP5 ADD MSTORE JUMPDEST POP POP POP POP JUMP JUMPDEST PUSH32 0x4E487B7100000000000000000000000000000000000000000000000000000000 PUSH1 0x0 MSTORE PUSH1 0x11 PUSH1 0x4 MSTORE PUSH1 0x24 PUSH1 0x0 REVERT JUMPDEST PUSH1 0x0 PUSH1 0x1F NOT PUSH1 0x1F DUP4 ADD AND SWAP1 POP SWAP2 SWAP1 POP JUMP INVALID LOG2 PUSH5 0x6970667358 0x22 SLT KECCAK256 0xAF 0xB6 0x4E CREATE2 JUMPDEST 0xE9 SWAP3 SWAP6 LOG0 GASPRICE PC PUSH30 0x690DAE008FD0BD80E27FCFA7B776C5E00C7FF4B164736F6C634300080200 CALLER "
				},
				"gasEstimates": {
					"creation": {
						"codeDepositCost": "129400",
						"executionCost": "177",
						"totalCost": "129577"
					},
					"external": {
						"SchoolOpen()": "infinite",
						"setValue()": "infinite"
					}
				},
				"methodIdentifiers": {
					"SchoolOpen()": "3b8b4811",
					"setValue()": "4fa519fa"
				}
			},
			"storageLayout": {
				"storage": [
					{
						"astId": 64,
						"contract": "bc-lab5/parent.sol:Parent",
						"label": "sum",
						"offset": 0,
						"slot": "0",
						"type": "t_uint256"
					}
				],
				"types": {
					"t_uint256": {
						"encoding": "inplace",
						"label": "uint256",
						"numberOfBytes": "32"
					}
				}
			},
			"userdoc": {
				"kind": "user",
				"methods": {},
				"version": 1
			}
		}
	}
}