{
	"bc-lab7/E3BallotWithStage.sol": {
		"Ballot": {
			"abi": [
				{
					"inputs": [],
					"stateMutability": "nonpayable",
					"type": "constructor"
				},
				{
					"inputs": [],
					"name": "VoterCount",
					"outputs": [
						{
							"internalType": "uint256",
							"name": "",
							"type": "uint256"
						}
					],
					"stateMutability": "view",
					"type": "function"
				},
				{
					"inputs": [
						{
							"internalType": "uint256",
							"name": "_id",
							"type": "uint256"
						},
						{
							"internalType": "string",
							"name": "_subjectProposal",
							"type": "string"
						}
					],
					"name": "addProposalDetail",
					"outputs": [],
					"stateMutability": "nonpayable",
					"type": "function"
				},
				{
					"inputs": [],
					"name": "chairperson",
					"outputs": [
						{
							"internalType": "address",
							"name": "",
							"type": "address"
						}
					],
					"stateMutability": "view",
					"type": "function"
				},
				{
					"inputs": [],
					"name": "proposalCount",
					"outputs": [
						{
							"internalType": "uint256",
							"name": "",
							"type": "uint256"
						}
					],
					"stateMutability": "view",
					"type": "function"
				},
				{
					"inputs": [
						{
							"internalType": "uint256",
							"name": "",
							"type": "uint256"
						}
					],
					"name": "proposals",
					"outputs": [
						{
							"internalType": "uint256",
							"name": "proposalID",
							"type": "uint256"
						},
						{
							"internalType": "string",
							"name": "topic",
							"type": "string"
						},
						{
							"internalType": "uint256",
							"name": "voteCount",
							"type": "uint256"
						}
					],
					"stateMutability": "view",
					"type": "function"
				},
				{
					"inputs": [
						{
							"internalType": "address",
							"name": "toVoter",
							"type": "address"
						}
					],
					"name": "register",
					"outputs": [],
					"stateMutability": "nonpayable",
					"type": "function"
				},
				{
					"inputs": [],
					"name": "stage",
					"outputs": [
						{
							"internalType": "enum Ballot.Stage",
							"name": "",
							"type": "uint8"
						}
					],
					"stateMutability": "view",
					"type": "function"
				},
				{
					"inputs": [
						{
							"internalType": "uint8",
							"name": "toProposal",
							"type": "uint8"
						}
					],
					"name": "vote",
					"outputs": [],
					"stateMutability": "nonpayable",
					"type": "function"
				},
				{
					"inputs": [],
					"name": "winningProposal",
					"outputs": [],
					"stateMutability": "nonpayable",
					"type": "function"
				}
			],
			"devdoc": {
				"kind": "dev",
				"methods": {},
				"version": 1
			},
			"evm": {
				"assembly": "    /* \"bc-lab7/E3BallotWithStage.sol\":57:2597  contract Ballot {... */\n  mstore(0x40, 0x80)\n    /* \"bc-lab7/E3BallotWithStage.sol\":302:303  0 */\n  0x00\n    /* \"bc-lab7/E3BallotWithStage.sol\":276:303  uint public proposalCount=0 */\n  dup1\n  sstore\n    /* \"bc-lab7/E3BallotWithStage.sol\":333:334  0 */\n  0x00\n    /* \"bc-lab7/E3BallotWithStage.sol\":310:334  uint public VoterCount=0 */\n  0x01\n  sstore\n    /* \"bc-lab7/E3BallotWithStage.sol\":676:686  Stage.Init */\n  0x00\n    /* \"bc-lab7/E3BallotWithStage.sol\":655:686  Stage public stage = Stage.Init */\n  0x06\n  exp(0x0100, 0x00)\n  dup2\n  sload\n  dup2\n  0xff\n  mul\n  not\n  and\n  swap1\n  dup4\n  0x03\n  dup2\n  gt\n  iszero\n  tag_1\n  jumpi\n  tag_2\n  tag_3\n  jump\t// in\ntag_2:\ntag_1:\n  mul\n  or\n  swap1\n  sstore\n  pop\n    /* \"bc-lab7/E3BallotWithStage.sol\":720:884  constructor (){... */\n  callvalue\n  dup1\n  iszero\n  tag_4\n  jumpi\n  0x00\n  dup1\n  revert\ntag_4:\n  pop\n    /* \"bc-lab7/E3BallotWithStage.sol\":759:769  msg.sender */\n  caller\n    /* \"bc-lab7/E3BallotWithStage.sol\":745:756  chairperson */\n  0x03\n  0x00\n    /* \"bc-lab7/E3BallotWithStage.sol\":745:769  chairperson = msg.sender */\n  0x0100\n  exp\n  dup2\n  sload\n  dup2\n  0xffffffffffffffffffffffffffffffffffffffff\n  mul\n  not\n  and\n  swap1\n  dup4\n  0xffffffffffffffffffffffffffffffffffffffff\n  and\n  mul\n  or\n  swap1\n  sstore\n  pop\n    /* \"bc-lab7/E3BallotWithStage.sol\":809:810  2 */\n  0x02\n    /* \"bc-lab7/E3BallotWithStage.sol\":780:786  voters */\n  0x04\n    /* \"bc-lab7/E3BallotWithStage.sol\":780:799  voters[chairperson] */\n  0x00\n    /* \"bc-lab7/E3BallotWithStage.sol\":787:798  chairperson */\n  0x03\n  0x00\n  swap1\n  sload\n  swap1\n  0x0100\n  exp\n  swap1\n  div\n  0xffffffffffffffffffffffffffffffffffffffff\n  and\n    /* \"bc-lab7/E3BallotWithStage.sol\":780:799  voters[chairperson] */\n  0xffffffffffffffffffffffffffffffffffffffff\n  and\n  0xffffffffffffffffffffffffffffffffffffffff\n  and\n  dup2\n  mstore\n  0x20\n  add\n  swap1\n  dup2\n  mstore\n  0x20\n  add\n  0x00\n  keccak256\n    /* \"bc-lab7/E3BallotWithStage.sol\":780:806  voters[chairperson].weight */\n  0x00\n  add\n    /* \"bc-lab7/E3BallotWithStage.sol\":780:810  voters[chairperson].weight = 2 */\n  dup2\n  swap1\n  sstore\n  pop\n    /* \"bc-lab7/E3BallotWithStage.sol\":829:838  Stage.Reg */\n  0x01\n    /* \"bc-lab7/E3BallotWithStage.sol\":821:826  stage */\n  0x06\n  0x00\n    /* \"bc-lab7/E3BallotWithStage.sol\":821:838  stage = Stage.Reg */\n  0x0100\n  exp\n  dup2\n  sload\n  dup2\n  0xff\n  mul\n  not\n  and\n  swap1\n  dup4\n  0x03\n  dup2\n  gt\n  iszero\n  tag_7\n  jumpi\n  tag_8\n  tag_3\n  jump\t// in\ntag_8:\ntag_7:\n  mul\n  or\n  swap1\n  sstore\n  pop\n    /* \"bc-lab7/E3BallotWithStage.sol\":861:876  block.timestamp */\n  timestamp\n    /* \"bc-lab7/E3BallotWithStage.sol\":849:858  startTime */\n  0x07\n    /* \"bc-lab7/E3BallotWithStage.sol\":849:876  startTime = block.timestamp */\n  dup2\n  swap1\n  sstore\n  pop\n    /* \"bc-lab7/E3BallotWithStage.sol\":57:2597  contract Ballot {... */\n  jump(tag_9)\n    /* \"#utility.yul\":7:187   */\ntag_3:\n    /* \"#utility.yul\":55:132   */\n  0x4e487b7100000000000000000000000000000000000000000000000000000000\n    /* \"#utility.yul\":52:53   */\n  0x00\n    /* \"#utility.yul\":45:133   */\n  mstore\n    /* \"#utility.yul\":152:156   */\n  0x21\n    /* \"#utility.yul\":149:150   */\n  0x04\n    /* \"#utility.yul\":142:157   */\n  mstore\n    /* \"#utility.yul\":176:180   */\n  0x24\n    /* \"#utility.yul\":173:174   */\n  0x00\n    /* \"#utility.yul\":166:181   */\n  revert\n    /* \"bc-lab7/E3BallotWithStage.sol\":57:2597  contract Ballot {... */\ntag_9:\n  dataSize(sub_0)\n  dup1\n  dataOffset(sub_0)\n  0x00\n  codecopy\n  0x00\n  return\nstop\n\nsub_0: assembly {\n        /* \"bc-lab7/E3BallotWithStage.sol\":57:2597  contract Ballot {... */\n      mstore(0x40, 0x80)\n      callvalue\n      dup1\n      iszero\n      tag_1\n      jumpi\n      0x00\n      dup1\n      revert\n    tag_1:\n      pop\n      jumpi(tag_2, lt(calldatasize, 0x04))\n      shr(0xe0, calldataload(0x00))\n      dup1\n      0x585cc4c4\n      gt\n      tag_12\n      jumpi\n      dup1\n      0x585cc4c4\n      eq\n      tag_7\n      jumpi\n      dup1\n      0x609ff1bd\n      eq\n      tag_8\n      jumpi\n      dup1\n      0xb3f98adc\n      eq\n      tag_9\n      jumpi\n      dup1\n      0xc040e6b8\n      eq\n      tag_10\n      jumpi\n      dup1\n      0xda35c664\n      eq\n      tag_11\n      jumpi\n      jump(tag_2)\n    tag_12:\n      dup1\n      0x013cf08b\n      eq\n      tag_3\n      jumpi\n      dup1\n      0x2e4176cf\n      eq\n      tag_4\n      jumpi\n      dup1\n      0x2e46fb9a\n      eq\n      tag_5\n      jumpi\n      dup1\n      0x4420e486\n      eq\n      tag_6\n      jumpi\n    tag_2:\n      0x00\n      dup1\n      revert\n        /* \"bc-lab7/E3BallotWithStage.sol\":511:538  Proposal[] public proposals */\n    tag_3:\n      tag_13\n      0x04\n      dup1\n      calldatasize\n      sub\n      dup2\n      add\n      swap1\n      tag_14\n      swap2\n      swap1\n      tag_15\n      jump\t// in\n    tag_14:\n      tag_16\n      jump\t// in\n    tag_13:\n      mload(0x40)\n      tag_17\n      swap4\n      swap3\n      swap2\n      swap1\n      tag_18\n      jump\t// in\n    tag_17:\n      mload(0x40)\n      dup1\n      swap2\n      sub\n      swap1\n      return\n        /* \"bc-lab7/E3BallotWithStage.sol\":373:399  address public chairperson */\n    tag_4:\n      tag_19\n      tag_20\n      jump\t// in\n    tag_19:\n      mload(0x40)\n      tag_21\n      swap2\n      swap1\n      tag_22\n      jump\t// in\n    tag_21:\n      mload(0x40)\n      dup1\n      swap2\n      sub\n      swap1\n      return\n        /* \"bc-lab7/E3BallotWithStage.sol\":310:334  uint public VoterCount=0 */\n    tag_5:\n      tag_23\n      tag_24\n      jump\t// in\n    tag_23:\n      mload(0x40)\n      tag_25\n      swap2\n      swap1\n      tag_26\n      jump\t// in\n    tag_25:\n      mload(0x40)\n      dup1\n      swap2\n      sub\n      swap1\n      return\n        /* \"bc-lab7/E3BallotWithStage.sol\":1295:1707  function register(address toVoter) public {... */\n    tag_6:\n      tag_27\n      0x04\n      dup1\n      calldatasize\n      sub\n      dup2\n      add\n      swap1\n      tag_28\n      swap2\n      swap1\n      tag_29\n      jump\t// in\n    tag_28:\n      tag_30\n      jump\t// in\n    tag_27:\n      stop\n        /* \"bc-lab7/E3BallotWithStage.sol\":896:1096  function addProposalDetail(uint _id, string memory _subjectProposal) public {... */\n    tag_7:\n      tag_31\n      0x04\n      dup1\n      calldatasize\n      sub\n      dup2\n      add\n      swap1\n      tag_32\n      swap2\n      swap1\n      tag_33\n      jump\t// in\n    tag_32:\n      tag_34\n      jump\t// in\n    tag_31:\n      stop\n        /* \"bc-lab7/E3BallotWithStage.sol\":2217:2594  function winningProposal() public {... */\n    tag_8:\n      tag_35\n      tag_36\n      jump\t// in\n    tag_35:\n      stop\n        /* \"bc-lab7/E3BallotWithStage.sol\":1770:2209  function vote(uint8 toProposal) public {... */\n    tag_9:\n      tag_37\n      0x04\n      dup1\n      calldatasize\n      sub\n      dup2\n      add\n      swap1\n      tag_38\n      swap2\n      swap1\n      tag_39\n      jump\t// in\n    tag_38:\n      tag_40\n      jump\t// in\n    tag_37:\n      stop\n        /* \"bc-lab7/E3BallotWithStage.sol\":655:686  Stage public stage = Stage.Init */\n    tag_10:\n      tag_41\n      tag_42\n      jump\t// in\n    tag_41:\n      mload(0x40)\n      tag_43\n      swap2\n      swap1\n      tag_44\n      jump\t// in\n    tag_43:\n      mload(0x40)\n      dup1\n      swap2\n      sub\n      swap1\n      return\n        /* \"bc-lab7/E3BallotWithStage.sol\":276:303  uint public proposalCount=0 */\n    tag_11:\n      tag_45\n      tag_46\n      jump\t// in\n    tag_45:\n      mload(0x40)\n      tag_47\n      swap2\n      swap1\n      tag_26\n      jump\t// in\n    tag_47:\n      mload(0x40)\n      dup1\n      swap2\n      sub\n      swap1\n      return\n        /* \"bc-lab7/E3BallotWithStage.sol\":511:538  Proposal[] public proposals */\n    tag_16:\n      0x05\n      dup2\n      dup2\n      sload\n      dup2\n      lt\n      tag_48\n      jumpi\n      0x00\n      dup1\n      revert\n    tag_48:\n      swap1\n      0x00\n      mstore\n      keccak256(0x00, 0x20)\n      swap1\n      0x03\n      mul\n      add\n      0x00\n      swap2\n      pop\n      swap1\n      pop\n      dup1\n      0x00\n      add\n      sload\n      swap1\n      dup1\n      0x01\n      add\n      dup1\n      sload\n      tag_50\n      swap1\n      tag_51\n      jump\t// in\n    tag_50:\n      dup1\n      0x1f\n      add\n      0x20\n      dup1\n      swap2\n      div\n      mul\n      0x20\n      add\n      mload(0x40)\n      swap1\n      dup2\n      add\n      0x40\n      mstore\n      dup1\n      swap3\n      swap2\n      swap1\n      dup2\n      dup2\n      mstore\n      0x20\n      add\n      dup3\n      dup1\n      sload\n      tag_52\n      swap1\n      tag_51\n      jump\t// in\n    tag_52:\n      dup1\n      iszero\n      tag_53\n      jumpi\n      dup1\n      0x1f\n      lt\n      tag_54\n      jumpi\n      0x0100\n      dup1\n      dup4\n      sload\n      div\n      mul\n      dup4\n      mstore\n      swap2\n      0x20\n      add\n      swap2\n      jump(tag_53)\n    tag_54:\n      dup3\n      add\n      swap2\n      swap1\n      0x00\n      mstore\n      keccak256(0x00, 0x20)\n      swap1\n    tag_55:\n      dup2\n      sload\n      dup2\n      mstore\n      swap1\n      0x01\n      add\n      swap1\n      0x20\n      add\n      dup1\n      dup4\n      gt\n      tag_55\n      jumpi\n      dup3\n      swap1\n      sub\n      0x1f\n      and\n      dup3\n      add\n      swap2\n    tag_53:\n      pop\n      pop\n      pop\n      pop\n      pop\n      swap1\n      dup1\n      0x02\n      add\n      sload\n      swap1\n      pop\n      dup4\n      jump\t// out\n        /* \"bc-lab7/E3BallotWithStage.sol\":373:399  address public chairperson */\n    tag_20:\n      0x03\n      0x00\n      swap1\n      sload\n      swap1\n      0x0100\n      exp\n      swap1\n      div\n      0xffffffffffffffffffffffffffffffffffffffff\n      and\n      dup2\n      jump\t// out\n        /* \"bc-lab7/E3BallotWithStage.sol\":310:334  uint public VoterCount=0 */\n    tag_24:\n      sload(0x01)\n      dup2\n      jump\t// out\n        /* \"bc-lab7/E3BallotWithStage.sol\":1295:1707  function register(address toVoter) public {... */\n    tag_30:\n        /* \"bc-lab7/E3BallotWithStage.sol\":1361:1370  Stage.Reg */\n      0x01\n        /* \"bc-lab7/E3BallotWithStage.sol\":1352:1370  stage != Stage.Reg */\n      0x03\n      dup2\n      gt\n      iszero\n      tag_57\n      jumpi\n      tag_58\n      tag_59\n      jump\t// in\n    tag_58:\n    tag_57:\n        /* \"bc-lab7/E3BallotWithStage.sol\":1352:1357  stage */\n      0x06\n      0x00\n      swap1\n      sload\n      swap1\n      0x0100\n      exp\n      swap1\n      div\n      0xff\n      and\n        /* \"bc-lab7/E3BallotWithStage.sol\":1352:1370  stage != Stage.Reg */\n      0x03\n      dup2\n      gt\n      iszero\n      tag_60\n      jumpi\n      tag_61\n      tag_59\n      jump\t// in\n    tag_61:\n    tag_60:\n      sub\n        /* \"bc-lab7/E3BallotWithStage.sol\":1373:1380  return; */\n      tag_56\n        /* \"bc-lab7/E3BallotWithStage.sol\":1348:1381  if (stage != Stage.Reg) {return;} */\n      jumpi\n        /* \"bc-lab7/E3BallotWithStage.sol\":1409:1420  chairperson */\n      0x03\n      0x00\n      swap1\n      sload\n      swap1\n      0x0100\n      exp\n      swap1\n      div\n      0xffffffffffffffffffffffffffffffffffffffff\n      and\n        /* \"bc-lab7/E3BallotWithStage.sol\":1395:1420  msg.sender != chairperson */\n      0xffffffffffffffffffffffffffffffffffffffff\n      and\n        /* \"bc-lab7/E3BallotWithStage.sol\":1395:1405  msg.sender */\n      caller\n        /* \"bc-lab7/E3BallotWithStage.sol\":1395:1420  msg.sender != chairperson */\n      0xffffffffffffffffffffffffffffffffffffffff\n      and\n      eq\n      iszero\n        /* \"bc-lab7/E3BallotWithStage.sol\":1395:1445  msg.sender != chairperson || voters[toVoter].voted */\n      dup1\n      tag_63\n      jumpi\n      pop\n        /* \"bc-lab7/E3BallotWithStage.sol\":1424:1430  voters */\n      0x04\n        /* \"bc-lab7/E3BallotWithStage.sol\":1424:1439  voters[toVoter] */\n      0x00\n        /* \"bc-lab7/E3BallotWithStage.sol\":1431:1438  toVoter */\n      dup3\n        /* \"bc-lab7/E3BallotWithStage.sol\":1424:1439  voters[toVoter] */\n      0xffffffffffffffffffffffffffffffffffffffff\n      and\n      0xffffffffffffffffffffffffffffffffffffffff\n      and\n      dup2\n      mstore\n      0x20\n      add\n      swap1\n      dup2\n      mstore\n      0x20\n      add\n      0x00\n      keccak256\n        /* \"bc-lab7/E3BallotWithStage.sol\":1424:1445  voters[toVoter].voted */\n      0x01\n      add\n      0x00\n      swap1\n      sload\n      swap1\n      0x0100\n      exp\n      swap1\n      div\n      0xff\n      and\n        /* \"bc-lab7/E3BallotWithStage.sol\":1395:1445  msg.sender != chairperson || voters[toVoter].voted */\n    tag_63:\n        /* \"bc-lab7/E3BallotWithStage.sol\":1447:1454  return; */\n      tag_56\n        /* \"bc-lab7/E3BallotWithStage.sol\":1391:1454  if (msg.sender != chairperson || voters[toVoter].voted) return; */\n      jumpi\n        /* \"bc-lab7/E3BallotWithStage.sol\":1489:1490  1 */\n      0x01\n        /* \"bc-lab7/E3BallotWithStage.sol\":1464:1470  voters */\n      0x04\n        /* \"bc-lab7/E3BallotWithStage.sol\":1464:1479  voters[toVoter] */\n      0x00\n        /* \"bc-lab7/E3BallotWithStage.sol\":1471:1478  toVoter */\n      dup4\n        /* \"bc-lab7/E3BallotWithStage.sol\":1464:1479  voters[toVoter] */\n      0xffffffffffffffffffffffffffffffffffffffff\n      and\n      0xffffffffffffffffffffffffffffffffffffffff\n      and\n      dup2\n      mstore\n      0x20\n      add\n      swap1\n      dup2\n      mstore\n      0x20\n      add\n      0x00\n      keccak256\n        /* \"bc-lab7/E3BallotWithStage.sol\":1464:1486  voters[toVoter].weight */\n      0x00\n      add\n        /* \"bc-lab7/E3BallotWithStage.sol\":1464:1490  voters[toVoter].weight = 1 */\n      dup2\n      swap1\n      sstore\n      pop\n        /* \"bc-lab7/E3BallotWithStage.sol\":1525:1530  false */\n      0x00\n        /* \"bc-lab7/E3BallotWithStage.sol\":1501:1507  voters */\n      0x04\n        /* \"bc-lab7/E3BallotWithStage.sol\":1501:1516  voters[toVoter] */\n      0x00\n        /* \"bc-lab7/E3BallotWithStage.sol\":1508:1515  toVoter */\n      dup4\n        /* \"bc-lab7/E3BallotWithStage.sol\":1501:1516  voters[toVoter] */\n      0xffffffffffffffffffffffffffffffffffffffff\n      and\n      0xffffffffffffffffffffffffffffffffffffffff\n      and\n      dup2\n      mstore\n      0x20\n      add\n      swap1\n      dup2\n      mstore\n      0x20\n      add\n      0x00\n      keccak256\n        /* \"bc-lab7/E3BallotWithStage.sol\":1501:1522  voters[toVoter].voted */\n      0x01\n      add\n      0x00\n        /* \"bc-lab7/E3BallotWithStage.sol\":1501:1530  voters[toVoter].voted = false */\n      0x0100\n      exp\n      dup2\n      sload\n      dup2\n      0xff\n      mul\n      not\n      and\n      swap1\n      dup4\n      iszero\n      iszero\n      mul\n      or\n      swap1\n      sstore\n      pop\n        /* \"bc-lab7/E3BallotWithStage.sol\":1541:1551  VoterCount */\n      0x01\n      0x00\n        /* \"bc-lab7/E3BallotWithStage.sol\":1541:1554  VoterCount ++ */\n      dup2\n      sload\n      dup1\n      swap3\n      swap2\n      swap1\n      tag_65\n      swap1\n      tag_66\n      jump\t// in\n    tag_65:\n      swap2\n      swap1\n      pop\n      sstore\n      pop\n        /* \"bc-lab7/E3BallotWithStage.sol\":1600:1610  10 seconds */\n      0x0a\n        /* \"bc-lab7/E3BallotWithStage.sol\":1588:1597  startTime */\n      sload(0x07)\n        /* \"bc-lab7/E3BallotWithStage.sol\":1588:1610  startTime + 10 seconds */\n      tag_67\n      swap2\n      swap1\n      tag_68\n      jump\t// in\n    tag_67:\n        /* \"bc-lab7/E3BallotWithStage.sol\":1569:1584  block.timestamp */\n      timestamp\n        /* \"bc-lab7/E3BallotWithStage.sol\":1569:1611  block.timestamp > (startTime + 10 seconds) */\n      gt\n        /* \"bc-lab7/E3BallotWithStage.sol\":1565:1700  if (block.timestamp > (startTime + 10 seconds)) {... */\n      iszero\n      tag_69\n      jumpi\n        /* \"bc-lab7/E3BallotWithStage.sol\":1636:1646  Stage.Vote */\n      0x02\n        /* \"bc-lab7/E3BallotWithStage.sol\":1628:1633  stage */\n      0x06\n      0x00\n        /* \"bc-lab7/E3BallotWithStage.sol\":1628:1646  stage = Stage.Vote */\n      0x0100\n      exp\n      dup2\n      sload\n      dup2\n      0xff\n      mul\n      not\n      and\n      swap1\n      dup4\n      0x03\n      dup2\n      gt\n      iszero\n      tag_70\n      jumpi\n      tag_71\n      tag_59\n      jump\t// in\n    tag_71:\n    tag_70:\n      mul\n      or\n      swap1\n      sstore\n      pop\n        /* \"bc-lab7/E3BallotWithStage.sol\":1673:1688  block.timestamp */\n      timestamp\n        /* \"bc-lab7/E3BallotWithStage.sol\":1661:1670  startTime */\n      0x07\n        /* \"bc-lab7/E3BallotWithStage.sol\":1661:1688  startTime = block.timestamp */\n      dup2\n      swap1\n      sstore\n      pop\n        /* \"bc-lab7/E3BallotWithStage.sol\":1565:1700  if (block.timestamp > (startTime + 10 seconds)) {... */\n    tag_69:\n        /* \"bc-lab7/E3BallotWithStage.sol\":1295:1707  function register(address toVoter) public {... */\n    tag_56:\n      pop\n      jump\t// out\n        /* \"bc-lab7/E3BallotWithStage.sol\":896:1096  function addProposalDetail(uint _id, string memory _subjectProposal) public {... */\n    tag_34:\n        /* \"bc-lab7/E3BallotWithStage.sol\":982:999  Proposal memory b */\n      0x00\n        /* \"bc-lab7/E3BallotWithStage.sol\":1002:1036  Proposal(_id, _subjectProposal, 0) */\n      mload(0x40)\n      dup1\n      0x60\n      add\n      0x40\n      mstore\n      dup1\n        /* \"bc-lab7/E3BallotWithStage.sol\":1011:1014  _id */\n      dup5\n        /* \"bc-lab7/E3BallotWithStage.sol\":1002:1036  Proposal(_id, _subjectProposal, 0) */\n      dup2\n      mstore\n      0x20\n      add\n        /* \"bc-lab7/E3BallotWithStage.sol\":1016:1032  _subjectProposal */\n      dup4\n        /* \"bc-lab7/E3BallotWithStage.sol\":1002:1036  Proposal(_id, _subjectProposal, 0) */\n      dup2\n      mstore\n      0x20\n      add\n        /* \"bc-lab7/E3BallotWithStage.sol\":1034:1035  0 */\n      0x00\n        /* \"bc-lab7/E3BallotWithStage.sol\":1002:1036  Proposal(_id, _subjectProposal, 0) */\n      dup2\n      mstore\n      pop\n        /* \"bc-lab7/E3BallotWithStage.sol\":982:1036  Proposal memory b = Proposal(_id, _subjectProposal, 0) */\n      swap1\n      pop\n        /* \"bc-lab7/E3BallotWithStage.sol\":1046:1055  proposals */\n      0x05\n        /* \"bc-lab7/E3BallotWithStage.sol\":1061:1062  b */\n      dup2\n        /* \"bc-lab7/E3BallotWithStage.sol\":1046:1063  proposals.push(b) */\n      swap1\n      dup1\n      0x01\n      dup2\n      sload\n      add\n      dup1\n      dup3\n      sstore\n      dup1\n      swap2\n      pop\n      pop\n      0x01\n      swap1\n      sub\n      swap1\n      0x00\n      mstore\n      keccak256(0x00, 0x20)\n      swap1\n      0x03\n      mul\n      add\n      0x00\n      swap1\n      swap2\n      swap1\n      swap2\n      swap1\n      swap2\n      pop\n      0x00\n      dup3\n      add\n      mload\n      dup2\n      0x00\n      add\n      sstore\n      0x20\n      dup3\n      add\n      mload\n      dup2\n      0x01\n      add\n      swap1\n      dup2\n      tag_74\n      swap2\n      swap1\n      tag_75\n      jump\t// in\n    tag_74:\n      pop\n      0x40\n      dup3\n      add\n      mload\n      dup2\n      0x02\n      add\n      sstore\n      pop\n      pop\n        /* \"bc-lab7/E3BallotWithStage.sol\":1073:1086  proposalCount */\n      0x00\n      dup1\n        /* \"bc-lab7/E3BallotWithStage.sol\":1073:1088  proposalCount++ */\n      dup2\n      sload\n      dup1\n      swap3\n      swap2\n      swap1\n      tag_76\n      swap1\n      tag_66\n      jump\t// in\n    tag_76:\n      swap2\n      swap1\n      pop\n      sstore\n      pop\n        /* \"bc-lab7/E3BallotWithStage.sol\":972:1096  {... */\n      pop\n        /* \"bc-lab7/E3BallotWithStage.sol\":896:1096  function addProposalDetail(uint _id, string memory _subjectProposal) public {... */\n      pop\n      pop\n      jump\t// out\n        /* \"bc-lab7/E3BallotWithStage.sol\":2217:2594  function winningProposal() public {... */\n    tag_36:\n        /* \"bc-lab7/E3BallotWithStage.sol\":2275:2285  Stage.Done */\n      0x03\n        /* \"bc-lab7/E3BallotWithStage.sol\":2266:2285  stage != Stage.Done */\n      dup1\n      dup2\n      gt\n      iszero\n      tag_78\n      jumpi\n      tag_79\n      tag_59\n      jump\t// in\n    tag_79:\n    tag_78:\n        /* \"bc-lab7/E3BallotWithStage.sol\":2266:2271  stage */\n      0x06\n      0x00\n      swap1\n      sload\n      swap1\n      0x0100\n      exp\n      swap1\n      div\n      0xff\n      and\n        /* \"bc-lab7/E3BallotWithStage.sol\":2266:2285  stage != Stage.Done */\n      0x03\n      dup2\n      gt\n      iszero\n      tag_80\n      jumpi\n      tag_81\n      tag_59\n      jump\t// in\n    tag_81:\n    tag_80:\n      sub\n        /* \"bc-lab7/E3BallotWithStage.sol\":2288:2295  return; */\n      tag_77\n        /* \"bc-lab7/E3BallotWithStage.sol\":2262:2296  if (stage != Stage.Done) {return;} */\n      jumpi\n        /* \"bc-lab7/E3BallotWithStage.sol\":2306:2330  uint256 winningVoteCount */\n      0x00\n        /* \"bc-lab7/E3BallotWithStage.sol\":2350:2360  uint8 prop */\n      dup1\n        /* \"bc-lab7/E3BallotWithStage.sol\":2345:2587  for (uint8 prop = 0; prop < proposals.length; prop++)... */\n    tag_83:\n        /* \"bc-lab7/E3BallotWithStage.sol\":2373:2382  proposals */\n      0x05\n        /* \"bc-lab7/E3BallotWithStage.sol\":2373:2389  proposals.length */\n      dup1\n      sload\n      swap1\n      pop\n        /* \"bc-lab7/E3BallotWithStage.sol\":2366:2370  prop */\n      dup2\n        /* \"bc-lab7/E3BallotWithStage.sol\":2366:2389  prop < proposals.length */\n      0xff\n      and\n      lt\n        /* \"bc-lab7/E3BallotWithStage.sol\":2345:2587  for (uint8 prop = 0; prop < proposals.length; prop++)... */\n      iszero\n      tag_84\n      jumpi\n        /* \"bc-lab7/E3BallotWithStage.sol\":2444:2460  winningVoteCount */\n      dup2\n        /* \"bc-lab7/E3BallotWithStage.sol\":2416:2425  proposals */\n      0x05\n        /* \"bc-lab7/E3BallotWithStage.sol\":2426:2430  prop */\n      dup3\n        /* \"bc-lab7/E3BallotWithStage.sol\":2416:2431  proposals[prop] */\n      0xff\n      and\n      dup2\n      sload\n      dup2\n      lt\n      tag_86\n      jumpi\n      tag_87\n      tag_88\n      jump\t// in\n    tag_87:\n    tag_86:\n      swap1\n      0x00\n      mstore\n      keccak256(0x00, 0x20)\n      swap1\n      0x03\n      mul\n      add\n        /* \"bc-lab7/E3BallotWithStage.sol\":2416:2441  proposals[prop].voteCount */\n      0x02\n      add\n      sload\n        /* \"bc-lab7/E3BallotWithStage.sol\":2416:2460  proposals[prop].voteCount > winningVoteCount */\n      gt\n        /* \"bc-lab7/E3BallotWithStage.sol\":2412:2587  if (proposals[prop].voteCount > winningVoteCount) {... */\n      iszero\n      tag_90\n      jumpi\n        /* \"bc-lab7/E3BallotWithStage.sol\":2500:2509  proposals */\n      0x05\n        /* \"bc-lab7/E3BallotWithStage.sol\":2510:2514  prop */\n      dup2\n        /* \"bc-lab7/E3BallotWithStage.sol\":2500:2515  proposals[prop] */\n      0xff\n      and\n      dup2\n      sload\n      dup2\n      lt\n      tag_91\n      jumpi\n      tag_92\n      tag_88\n      jump\t// in\n    tag_92:\n    tag_91:\n      swap1\n      0x00\n      mstore\n      keccak256(0x00, 0x20)\n      swap1\n      0x03\n      mul\n      add\n        /* \"bc-lab7/E3BallotWithStage.sol\":2500:2525  proposals[prop].voteCount */\n      0x02\n      add\n      sload\n        /* \"bc-lab7/E3BallotWithStage.sol\":2481:2525  winningVoteCount = proposals[prop].voteCount */\n      swap2\n      pop\n        /* \"bc-lab7/E3BallotWithStage.sol\":2567:2571  prop */\n      dup1\n        /* \"bc-lab7/E3BallotWithStage.sol\":2544:2571  finalWinningProposal = prop */\n      0xff\n      and\n        /* \"bc-lab7/E3BallotWithStage.sol\":2544:2564  finalWinningProposal */\n      0x02\n        /* \"bc-lab7/E3BallotWithStage.sol\":2544:2571  finalWinningProposal = prop */\n      dup2\n      swap1\n      sstore\n      pop\n        /* \"bc-lab7/E3BallotWithStage.sol\":2412:2587  if (proposals[prop].voteCount > winningVoteCount) {... */\n    tag_90:\n        /* \"bc-lab7/E3BallotWithStage.sol\":2391:2397  prop++ */\n      dup1\n      dup1\n      tag_94\n      swap1\n      tag_95\n      jump\t// in\n    tag_94:\n      swap2\n      pop\n      pop\n        /* \"bc-lab7/E3BallotWithStage.sol\":2345:2587  for (uint8 prop = 0; prop < proposals.length; prop++)... */\n      jump(tag_83)\n    tag_84:\n      pop\n        /* \"bc-lab7/E3BallotWithStage.sol\":2251:2594  {... */\n      pop\n        /* \"bc-lab7/E3BallotWithStage.sol\":2217:2594  function winningProposal() public {... */\n    tag_77:\n      jump\t// out\n        /* \"bc-lab7/E3BallotWithStage.sol\":1770:2209  function vote(uint8 toProposal) public {... */\n    tag_40:\n        /* \"bc-lab7/E3BallotWithStage.sol\":1833:1843  Stage.Vote */\n      0x02\n        /* \"bc-lab7/E3BallotWithStage.sol\":1824:1843  stage != Stage.Vote */\n      0x03\n      dup2\n      gt\n      iszero\n      tag_97\n      jumpi\n      tag_98\n      tag_59\n      jump\t// in\n    tag_98:\n    tag_97:\n        /* \"bc-lab7/E3BallotWithStage.sol\":1824:1829  stage */\n      0x06\n      0x00\n      swap1\n      sload\n      swap1\n      0x0100\n      exp\n      swap1\n      div\n      0xff\n      and\n        /* \"bc-lab7/E3BallotWithStage.sol\":1824:1843  stage != Stage.Vote */\n      0x03\n      dup2\n      gt\n      iszero\n      tag_99\n      jumpi\n      tag_100\n      tag_59\n      jump\t// in\n    tag_100:\n    tag_99:\n      sub\n        /* \"bc-lab7/E3BallotWithStage.sol\":1846:1853  return; */\n      tag_96\n        /* \"bc-lab7/E3BallotWithStage.sol\":1820:1854  if (stage != Stage.Vote) {return;} */\n      jumpi\n        /* \"bc-lab7/E3BallotWithStage.sol\":1864:1884  Voter storage sender */\n      0x00\n        /* \"bc-lab7/E3BallotWithStage.sol\":1887:1893  voters */\n      0x04\n        /* \"bc-lab7/E3BallotWithStage.sol\":1887:1905  voters[msg.sender] */\n      0x00\n        /* \"bc-lab7/E3BallotWithStage.sol\":1894:1904  msg.sender */\n      caller\n        /* \"bc-lab7/E3BallotWithStage.sol\":1887:1905  voters[msg.sender] */\n      0xffffffffffffffffffffffffffffffffffffffff\n      and\n      0xffffffffffffffffffffffffffffffffffffffff\n      and\n      dup2\n      mstore\n      0x20\n      add\n      swap1\n      dup2\n      mstore\n      0x20\n      add\n      0x00\n      keccak256\n        /* \"bc-lab7/E3BallotWithStage.sol\":1864:1905  Voter storage sender = voters[msg.sender] */\n      swap1\n      pop\n        /* \"bc-lab7/E3BallotWithStage.sol\":1920:1926  sender */\n      dup1\n        /* \"bc-lab7/E3BallotWithStage.sol\":1920:1932  sender.voted */\n      0x01\n      add\n      0x00\n      swap1\n      sload\n      swap1\n      0x0100\n      exp\n      swap1\n      div\n      0xff\n      and\n        /* \"bc-lab7/E3BallotWithStage.sol\":1920:1966  sender.voted || toProposal >= proposals.length */\n      dup1\n      tag_102\n      jumpi\n      pop\n        /* \"bc-lab7/E3BallotWithStage.sol\":1950:1959  proposals */\n      0x05\n        /* \"bc-lab7/E3BallotWithStage.sol\":1950:1966  proposals.length */\n      dup1\n      sload\n      swap1\n      pop\n        /* \"bc-lab7/E3BallotWithStage.sol\":1936:1946  toProposal */\n      dup3\n        /* \"bc-lab7/E3BallotWithStage.sol\":1936:1966  toProposal >= proposals.length */\n      0xff\n      and\n      lt\n      iszero\n        /* \"bc-lab7/E3BallotWithStage.sol\":1920:1966  sender.voted || toProposal >= proposals.length */\n    tag_102:\n        /* \"bc-lab7/E3BallotWithStage.sol\":1916:1975  if (sender.voted || toProposal >= proposals.length) return; */\n      iszero\n      tag_103\n      jumpi\n        /* \"bc-lab7/E3BallotWithStage.sol\":1968:1975  return; */\n      pop\n      jump(tag_96)\n        /* \"bc-lab7/E3BallotWithStage.sol\":1916:1975  if (sender.voted || toProposal >= proposals.length) return; */\n    tag_103:\n        /* \"bc-lab7/E3BallotWithStage.sol\":2000:2004  true */\n      0x01\n        /* \"bc-lab7/E3BallotWithStage.sol\":1985:1991  sender */\n      dup2\n        /* \"bc-lab7/E3BallotWithStage.sol\":1985:1997  sender.voted */\n      0x01\n      add\n      0x00\n        /* \"bc-lab7/E3BallotWithStage.sol\":1985:2004  sender.voted = true */\n      0x0100\n      exp\n      dup2\n      sload\n      dup2\n      0xff\n      mul\n      not\n      and\n      swap1\n      dup4\n      iszero\n      iszero\n      mul\n      or\n      swap1\n      sstore\n      pop\n        /* \"bc-lab7/E3BallotWithStage.sol\":2029:2039  toProposal */\n      dup2\n        /* \"bc-lab7/E3BallotWithStage.sol\":2015:2021  sender */\n      dup2\n        /* \"bc-lab7/E3BallotWithStage.sol\":2015:2026  sender.vote */\n      0x01\n      add\n      0x01\n        /* \"bc-lab7/E3BallotWithStage.sol\":2015:2039  sender.vote = toProposal */\n      0x0100\n      exp\n      dup2\n      sload\n      dup2\n      0xff\n      mul\n      not\n      and\n      swap1\n      dup4\n      0xff\n      and\n      mul\n      or\n      swap1\n      sstore\n      pop\n        /* \"bc-lab7/E3BallotWithStage.sol\":2085:2091  sender */\n      dup1\n        /* \"bc-lab7/E3BallotWithStage.sol\":2085:2098  sender.weight */\n      0x00\n      add\n      sload\n        /* \"bc-lab7/E3BallotWithStage.sol\":2050:2059  proposals */\n      0x05\n        /* \"bc-lab7/E3BallotWithStage.sol\":2060:2070  toProposal */\n      dup4\n        /* \"bc-lab7/E3BallotWithStage.sol\":2050:2071  proposals[toProposal] */\n      0xff\n      and\n      dup2\n      sload\n      dup2\n      lt\n      tag_104\n      jumpi\n      tag_105\n      tag_88\n      jump\t// in\n    tag_105:\n    tag_104:\n      swap1\n      0x00\n      mstore\n      keccak256(0x00, 0x20)\n      swap1\n      0x03\n      mul\n      add\n        /* \"bc-lab7/E3BallotWithStage.sol\":2050:2081  proposals[toProposal].voteCount */\n      0x02\n      add\n      0x00\n        /* \"bc-lab7/E3BallotWithStage.sol\":2050:2098  proposals[toProposal].voteCount += sender.weight */\n      dup3\n      dup3\n      sload\n      tag_107\n      swap2\n      swap1\n      tag_68\n      jump\t// in\n    tag_107:\n      swap3\n      pop\n      pop\n      dup2\n      swap1\n      sstore\n      pop\n        /* \"bc-lab7/E3BallotWithStage.sol\":2144:2154  10 seconds */\n      0x0a\n        /* \"bc-lab7/E3BallotWithStage.sol\":2132:2141  startTime */\n      sload(0x07)\n        /* \"bc-lab7/E3BallotWithStage.sol\":2132:2154  startTime + 10 seconds */\n      tag_108\n      swap2\n      swap1\n      tag_68\n      jump\t// in\n    tag_108:\n        /* \"bc-lab7/E3BallotWithStage.sol\":2113:2128  block.timestamp */\n      timestamp\n        /* \"bc-lab7/E3BallotWithStage.sol\":2113:2155  block.timestamp > (startTime + 10 seconds) */\n      gt\n        /* \"bc-lab7/E3BallotWithStage.sol\":2109:2202  if (block.timestamp > (startTime + 10 seconds)) {... */\n      iszero\n      tag_109\n      jumpi\n        /* \"bc-lab7/E3BallotWithStage.sol\":2180:2190  Stage.Done */\n      0x03\n        /* \"bc-lab7/E3BallotWithStage.sol\":2172:2177  stage */\n      0x06\n      0x00\n        /* \"bc-lab7/E3BallotWithStage.sol\":2172:2190  stage = Stage.Done */\n      0x0100\n      exp\n      dup2\n      sload\n      dup2\n      0xff\n      mul\n      not\n      and\n      swap1\n      dup4\n      0x03\n      dup2\n      gt\n      iszero\n      tag_110\n      jumpi\n      tag_111\n      tag_59\n      jump\t// in\n    tag_111:\n    tag_110:\n      mul\n      or\n      swap1\n      sstore\n      pop\n        /* \"bc-lab7/E3BallotWithStage.sol\":2109:2202  if (block.timestamp > (startTime + 10 seconds)) {... */\n    tag_109:\n        /* \"bc-lab7/E3BallotWithStage.sol\":1809:2209  {... */\n      pop\n        /* \"bc-lab7/E3BallotWithStage.sol\":1770:2209  function vote(uint8 toProposal) public {... */\n    tag_96:\n      pop\n      jump\t// out\n        /* \"bc-lab7/E3BallotWithStage.sol\":655:686  Stage public stage = Stage.Init */\n    tag_42:\n      0x06\n      0x00\n      swap1\n      sload\n      swap1\n      0x0100\n      exp\n      swap1\n      div\n      0xff\n      and\n      dup2\n      jump\t// out\n        /* \"bc-lab7/E3BallotWithStage.sol\":276:303  uint public proposalCount=0 */\n    tag_46:\n      sload(0x00)\n      dup2\n      jump\t// out\n        /* \"#utility.yul\":7:82   */\n    tag_112:\n        /* \"#utility.yul\":40:46   */\n      0x00\n        /* \"#utility.yul\":73:75   */\n      0x40\n        /* \"#utility.yul\":67:76   */\n      mload\n        /* \"#utility.yul\":57:76   */\n      swap1\n      pop\n        /* \"#utility.yul\":7:82   */\n      swap1\n      jump\t// out\n        /* \"#utility.yul\":88:205   */\n    tag_113:\n        /* \"#utility.yul\":197:198   */\n      0x00\n        /* \"#utility.yul\":194:195   */\n      dup1\n        /* \"#utility.yul\":187:199   */\n      revert\n        /* \"#utility.yul\":211:328   */\n    tag_114:\n        /* \"#utility.yul\":320:321   */\n      0x00\n        /* \"#utility.yul\":317:318   */\n      dup1\n        /* \"#utility.yul\":310:322   */\n      revert\n        /* \"#utility.yul\":334:411   */\n    tag_115:\n        /* \"#utility.yul\":371:378   */\n      0x00\n        /* \"#utility.yul\":400:405   */\n      dup2\n        /* \"#utility.yul\":389:405   */\n      swap1\n      pop\n        /* \"#utility.yul\":334:411   */\n      swap2\n      swap1\n      pop\n      jump\t// out\n        /* \"#utility.yul\":417:539   */\n    tag_116:\n        /* \"#utility.yul\":490:514   */\n      tag_168\n        /* \"#utility.yul\":508:513   */\n      dup2\n        /* \"#utility.yul\":490:514   */\n      tag_115\n      jump\t// in\n    tag_168:\n        /* \"#utility.yul\":483:488   */\n      dup2\n        /* \"#utility.yul\":480:515   */\n      eq\n        /* \"#utility.yul\":470:533   */\n      tag_169\n      jumpi\n        /* \"#utility.yul\":529:530   */\n      0x00\n        /* \"#utility.yul\":526:527   */\n      dup1\n        /* \"#utility.yul\":519:531   */\n      revert\n        /* \"#utility.yul\":470:533   */\n    tag_169:\n        /* \"#utility.yul\":417:539   */\n      pop\n      jump\t// out\n        /* \"#utility.yul\":545:684   */\n    tag_117:\n        /* \"#utility.yul\":591:596   */\n      0x00\n        /* \"#utility.yul\":629:635   */\n      dup2\n        /* \"#utility.yul\":616:636   */\n      calldataload\n        /* \"#utility.yul\":607:636   */\n      swap1\n      pop\n        /* \"#utility.yul\":645:678   */\n      tag_171\n        /* \"#utility.yul\":672:677   */\n      dup2\n        /* \"#utility.yul\":645:678   */\n      tag_116\n      jump\t// in\n    tag_171:\n        /* \"#utility.yul\":545:684   */\n      swap3\n      swap2\n      pop\n      pop\n      jump\t// out\n        /* \"#utility.yul\":690:1019   */\n    tag_15:\n        /* \"#utility.yul\":749:755   */\n      0x00\n        /* \"#utility.yul\":798:800   */\n      0x20\n        /* \"#utility.yul\":786:795   */\n      dup3\n        /* \"#utility.yul\":777:784   */\n      dup5\n        /* \"#utility.yul\":773:796   */\n      sub\n        /* \"#utility.yul\":769:801   */\n      slt\n        /* \"#utility.yul\":766:885   */\n      iszero\n      tag_173\n      jumpi\n        /* \"#utility.yul\":804:883   */\n      tag_174\n      tag_113\n      jump\t// in\n    tag_174:\n        /* \"#utility.yul\":766:885   */\n    tag_173:\n        /* \"#utility.yul\":924:925   */\n      0x00\n        /* \"#utility.yul\":949:1002   */\n      tag_175\n        /* \"#utility.yul\":994:1001   */\n      dup5\n        /* \"#utility.yul\":985:991   */\n      dup3\n        /* \"#utility.yul\":974:983   */\n      dup6\n        /* \"#utility.yul\":970:992   */\n      add\n        /* \"#utility.yul\":949:1002   */\n      tag_117\n      jump\t// in\n    tag_175:\n        /* \"#utility.yul\":939:1002   */\n      swap2\n      pop\n        /* \"#utility.yul\":895:1012   */\n      pop\n        /* \"#utility.yul\":690:1019   */\n      swap3\n      swap2\n      pop\n      pop\n      jump\t// out\n        /* \"#utility.yul\":1025:1143   */\n    tag_118:\n        /* \"#utility.yul\":1112:1136   */\n      tag_177\n        /* \"#utility.yul\":1130:1135   */\n      dup2\n        /* \"#utility.yul\":1112:1136   */\n      tag_115\n      jump\t// in\n    tag_177:\n        /* \"#utility.yul\":1107:1110   */\n      dup3\n        /* \"#utility.yul\":1100:1137   */\n      mstore\n        /* \"#utility.yul\":1025:1143   */\n      pop\n      pop\n      jump\t// out\n        /* \"#utility.yul\":1149:1248   */\n    tag_119:\n        /* \"#utility.yul\":1201:1207   */\n      0x00\n        /* \"#utility.yul\":1235:1240   */\n      dup2\n        /* \"#utility.yul\":1229:1241   */\n      mload\n        /* \"#utility.yul\":1219:1241   */\n      swap1\n      pop\n        /* \"#utility.yul\":1149:1248   */\n      swap2\n      swap1\n      pop\n      jump\t// out\n        /* \"#utility.yul\":1254:1423   */\n    tag_120:\n        /* \"#utility.yul\":1338:1349   */\n      0x00\n        /* \"#utility.yul\":1372:1378   */\n      dup3\n        /* \"#utility.yul\":1367:1370   */\n      dup3\n        /* \"#utility.yul\":1360:1379   */\n      mstore\n        /* \"#utility.yul\":1412:1416   */\n      0x20\n        /* \"#utility.yul\":1407:1410   */\n      dup3\n        /* \"#utility.yul\":1403:1417   */\n      add\n        /* \"#utility.yul\":1388:1417   */\n      swap1\n      pop\n        /* \"#utility.yul\":1254:1423   */\n      swap3\n      swap2\n      pop\n      pop\n      jump\t// out\n        /* \"#utility.yul\":1429:1675   */\n    tag_121:\n        /* \"#utility.yul\":1510:1511   */\n      0x00\n        /* \"#utility.yul\":1520:1633   */\n    tag_181:\n        /* \"#utility.yul\":1534:1540   */\n      dup4\n        /* \"#utility.yul\":1531:1532   */\n      dup2\n        /* \"#utility.yul\":1528:1541   */\n      lt\n        /* \"#utility.yul\":1520:1633   */\n      iszero\n      tag_183\n      jumpi\n        /* \"#utility.yul\":1619:1620   */\n      dup1\n        /* \"#utility.yul\":1614:1617   */\n      dup3\n        /* \"#utility.yul\":1610:1621   */\n      add\n        /* \"#utility.yul\":1604:1622   */\n      mload\n        /* \"#utility.yul\":1600:1601   */\n      dup2\n        /* \"#utility.yul\":1595:1598   */\n      dup5\n        /* \"#utility.yul\":1591:1602   */\n      add\n        /* \"#utility.yul\":1584:1623   */\n      mstore\n        /* \"#utility.yul\":1556:1558   */\n      0x20\n        /* \"#utility.yul\":1553:1554   */\n      dup2\n        /* \"#utility.yul\":1549:1559   */\n      add\n        /* \"#utility.yul\":1544:1559   */\n      swap1\n      pop\n        /* \"#utility.yul\":1520:1633   */\n      jump(tag_181)\n    tag_183:\n        /* \"#utility.yul\":1667:1668   */\n      0x00\n        /* \"#utility.yul\":1658:1664   */\n      dup5\n        /* \"#utility.yul\":1653:1656   */\n      dup5\n        /* \"#utility.yul\":1649:1665   */\n      add\n        /* \"#utility.yul\":1642:1669   */\n      mstore\n        /* \"#utility.yul\":1491:1675   */\n      pop\n        /* \"#utility.yul\":1429:1675   */\n      pop\n      pop\n      pop\n      jump\t// out\n        /* \"#utility.yul\":1681:1783   */\n    tag_122:\n        /* \"#utility.yul\":1722:1728   */\n      0x00\n        /* \"#utility.yul\":1773:1775   */\n      0x1f\n        /* \"#utility.yul\":1769:1776   */\n      not\n        /* \"#utility.yul\":1764:1766   */\n      0x1f\n        /* \"#utility.yul\":1757:1762   */\n      dup4\n        /* \"#utility.yul\":1753:1767   */\n      add\n        /* \"#utility.yul\":1749:1777   */\n      and\n        /* \"#utility.yul\":1739:1777   */\n      swap1\n      pop\n        /* \"#utility.yul\":1681:1783   */\n      swap2\n      swap1\n      pop\n      jump\t// out\n        /* \"#utility.yul\":1789:2166   */\n    tag_123:\n        /* \"#utility.yul\":1877:1880   */\n      0x00\n        /* \"#utility.yul\":1905:1944   */\n      tag_186\n        /* \"#utility.yul\":1938:1943   */\n      dup3\n        /* \"#utility.yul\":1905:1944   */\n      tag_119\n      jump\t// in\n    tag_186:\n        /* \"#utility.yul\":1960:2031   */\n      tag_187\n        /* \"#utility.yul\":2024:2030   */\n      dup2\n        /* \"#utility.yul\":2019:2022   */\n      dup6\n        /* \"#utility.yul\":1960:2031   */\n      tag_120\n      jump\t// in\n    tag_187:\n        /* \"#utility.yul\":1953:2031   */\n      swap4\n      pop\n        /* \"#utility.yul\":2040:2105   */\n      tag_188\n        /* \"#utility.yul\":2098:2104   */\n      dup2\n        /* \"#utility.yul\":2093:2096   */\n      dup6\n        /* \"#utility.yul\":2086:2090   */\n      0x20\n        /* \"#utility.yul\":2079:2084   */\n      dup7\n        /* \"#utility.yul\":2075:2091   */\n      add\n        /* \"#utility.yul\":2040:2105   */\n      tag_121\n      jump\t// in\n    tag_188:\n        /* \"#utility.yul\":2130:2159   */\n      tag_189\n        /* \"#utility.yul\":2152:2158   */\n      dup2\n        /* \"#utility.yul\":2130:2159   */\n      tag_122\n      jump\t// in\n    tag_189:\n        /* \"#utility.yul\":2125:2128   */\n      dup5\n        /* \"#utility.yul\":2121:2160   */\n      add\n        /* \"#utility.yul\":2114:2160   */\n      swap2\n      pop\n        /* \"#utility.yul\":1881:2166   */\n      pop\n        /* \"#utility.yul\":1789:2166   */\n      swap3\n      swap2\n      pop\n      pop\n      jump\t// out\n        /* \"#utility.yul\":2172:2705   */\n    tag_18:\n        /* \"#utility.yul\":2341:2345   */\n      0x00\n        /* \"#utility.yul\":2379:2381   */\n      0x60\n        /* \"#utility.yul\":2368:2377   */\n      dup3\n        /* \"#utility.yul\":2364:2382   */\n      add\n        /* \"#utility.yul\":2356:2382   */\n      swap1\n      pop\n        /* \"#utility.yul\":2392:2463   */\n      tag_191\n        /* \"#utility.yul\":2460:2461   */\n      0x00\n        /* \"#utility.yul\":2449:2458   */\n      dup4\n        /* \"#utility.yul\":2445:2462   */\n      add\n        /* \"#utility.yul\":2436:2442   */\n      dup7\n        /* \"#utility.yul\":2392:2463   */\n      tag_118\n      jump\t// in\n    tag_191:\n        /* \"#utility.yul\":2510:2519   */\n      dup2\n        /* \"#utility.yul\":2504:2508   */\n      dup2\n        /* \"#utility.yul\":2500:2520   */\n      sub\n        /* \"#utility.yul\":2495:2497   */\n      0x20\n        /* \"#utility.yul\":2484:2493   */\n      dup4\n        /* \"#utility.yul\":2480:2498   */\n      add\n        /* \"#utility.yul\":2473:2521   */\n      mstore\n        /* \"#utility.yul\":2538:2616   */\n      tag_192\n        /* \"#utility.yul\":2611:2615   */\n      dup2\n        /* \"#utility.yul\":2602:2608   */\n      dup6\n        /* \"#utility.yul\":2538:2616   */\n      tag_123\n      jump\t// in\n    tag_192:\n        /* \"#utility.yul\":2530:2616   */\n      swap1\n      pop\n        /* \"#utility.yul\":2626:2698   */\n      tag_193\n        /* \"#utility.yul\":2694:2696   */\n      0x40\n        /* \"#utility.yul\":2683:2692   */\n      dup4\n        /* \"#utility.yul\":2679:2697   */\n      add\n        /* \"#utility.yul\":2670:2676   */\n      dup5\n        /* \"#utility.yul\":2626:2698   */\n      tag_118\n      jump\t// in\n    tag_193:\n        /* \"#utility.yul\":2172:2705   */\n      swap5\n      swap4\n      pop\n      pop\n      pop\n      pop\n      jump\t// out\n        /* \"#utility.yul\":2711:2837   */\n    tag_124:\n        /* \"#utility.yul\":2748:2755   */\n      0x00\n        /* \"#utility.yul\":2788:2830   */\n      0xffffffffffffffffffffffffffffffffffffffff\n        /* \"#utility.yul\":2781:2786   */\n      dup3\n        /* \"#utility.yul\":2777:2831   */\n      and\n        /* \"#utility.yul\":2766:2831   */\n      swap1\n      pop\n        /* \"#utility.yul\":2711:2837   */\n      swap2\n      swap1\n      pop\n      jump\t// out\n        /* \"#utility.yul\":2843:2939   */\n    tag_125:\n        /* \"#utility.yul\":2880:2887   */\n      0x00\n        /* \"#utility.yul\":2909:2933   */\n      tag_196\n        /* \"#utility.yul\":2927:2932   */\n      dup3\n        /* \"#utility.yul\":2909:2933   */\n      tag_124\n      jump\t// in\n    tag_196:\n        /* \"#utility.yul\":2898:2933   */\n      swap1\n      pop\n        /* \"#utility.yul\":2843:2939   */\n      swap2\n      swap1\n      pop\n      jump\t// out\n        /* \"#utility.yul\":2945:3063   */\n    tag_126:\n        /* \"#utility.yul\":3032:3056   */\n      tag_198\n        /* \"#utility.yul\":3050:3055   */\n      dup2\n        /* \"#utility.yul\":3032:3056   */\n      tag_125\n      jump\t// in\n    tag_198:\n        /* \"#utility.yul\":3027:3030   */\n      dup3\n        /* \"#utility.yul\":3020:3057   */\n      mstore\n        /* \"#utility.yul\":2945:3063   */\n      pop\n      pop\n      jump\t// out\n        /* \"#utility.yul\":3069:3291   */\n    tag_22:\n        /* \"#utility.yul\":3162:3166   */\n      0x00\n        /* \"#utility.yul\":3200:3202   */\n      0x20\n        /* \"#utility.yul\":3189:3198   */\n      dup3\n        /* \"#utility.yul\":3185:3203   */\n      add\n        /* \"#utility.yul\":3177:3203   */\n      swap1\n      pop\n        /* \"#utility.yul\":3213:3284   */\n      tag_200\n        /* \"#utility.yul\":3281:3282   */\n      0x00\n        /* \"#utility.yul\":3270:3279   */\n      dup4\n        /* \"#utility.yul\":3266:3283   */\n      add\n        /* \"#utility.yul\":3257:3263   */\n      dup5\n        /* \"#utility.yul\":3213:3284   */\n      tag_126\n      jump\t// in\n    tag_200:\n        /* \"#utility.yul\":3069:3291   */\n      swap3\n      swap2\n      pop\n      pop\n      jump\t// out\n        /* \"#utility.yul\":3297:3519   */\n    tag_26:\n        /* \"#utility.yul\":3390:3394   */\n      0x00\n        /* \"#utility.yul\":3428:3430   */\n      0x20\n        /* \"#utility.yul\":3417:3426   */\n      dup3\n        /* \"#utility.yul\":3413:3431   */\n      add\n        /* \"#utility.yul\":3405:3431   */\n      swap1\n      pop\n        /* \"#utility.yul\":3441:3512   */\n      tag_202\n        /* \"#utility.yul\":3509:3510   */\n      0x00\n        /* \"#utility.yul\":3498:3507   */\n      dup4\n        /* \"#utility.yul\":3494:3511   */\n      add\n        /* \"#utility.yul\":3485:3491   */\n      dup5\n        /* \"#utility.yul\":3441:3512   */\n      tag_118\n      jump\t// in\n    tag_202:\n        /* \"#utility.yul\":3297:3519   */\n      swap3\n      swap2\n      pop\n      pop\n      jump\t// out\n        /* \"#utility.yul\":3525:3647   */\n    tag_127:\n        /* \"#utility.yul\":3598:3622   */\n      tag_204\n        /* \"#utility.yul\":3616:3621   */\n      dup2\n        /* \"#utility.yul\":3598:3622   */\n      tag_125\n      jump\t// in\n    tag_204:\n        /* \"#utility.yul\":3591:3596   */\n      dup2\n        /* \"#utility.yul\":3588:3623   */\n      eq\n        /* \"#utility.yul\":3578:3641   */\n      tag_205\n      jumpi\n        /* \"#utility.yul\":3637:3638   */\n      0x00\n        /* \"#utility.yul\":3634:3635   */\n      dup1\n        /* \"#utility.yul\":3627:3639   */\n      revert\n        /* \"#utility.yul\":3578:3641   */\n    tag_205:\n        /* \"#utility.yul\":3525:3647   */\n      pop\n      jump\t// out\n        /* \"#utility.yul\":3653:3792   */\n    tag_128:\n        /* \"#utility.yul\":3699:3704   */\n      0x00\n        /* \"#utility.yul\":3737:3743   */\n      dup2\n        /* \"#utility.yul\":3724:3744   */\n      calldataload\n        /* \"#utility.yul\":3715:3744   */\n      swap1\n      pop\n        /* \"#utility.yul\":3753:3786   */\n      tag_207\n        /* \"#utility.yul\":3780:3785   */\n      dup2\n        /* \"#utility.yul\":3753:3786   */\n      tag_127\n      jump\t// in\n    tag_207:\n        /* \"#utility.yul\":3653:3792   */\n      swap3\n      swap2\n      pop\n      pop\n      jump\t// out\n        /* \"#utility.yul\":3798:4127   */\n    tag_29:\n        /* \"#utility.yul\":3857:3863   */\n      0x00\n        /* \"#utility.yul\":3906:3908   */\n      0x20\n        /* \"#utility.yul\":3894:3903   */\n      dup3\n        /* \"#utility.yul\":3885:3892   */\n      dup5\n        /* \"#utility.yul\":3881:3904   */\n      sub\n        /* \"#utility.yul\":3877:3909   */\n      slt\n        /* \"#utility.yul\":3874:3993   */\n      iszero\n      tag_209\n      jumpi\n        /* \"#utility.yul\":3912:3991   */\n      tag_210\n      tag_113\n      jump\t// in\n    tag_210:\n        /* \"#utility.yul\":3874:3993   */\n    tag_209:\n        /* \"#utility.yul\":4032:4033   */\n      0x00\n        /* \"#utility.yul\":4057:4110   */\n      tag_211\n        /* \"#utility.yul\":4102:4109   */\n      dup5\n        /* \"#utility.yul\":4093:4099   */\n      dup3\n        /* \"#utility.yul\":4082:4091   */\n      dup6\n        /* \"#utility.yul\":4078:4100   */\n      add\n        /* \"#utility.yul\":4057:4110   */\n      tag_128\n      jump\t// in\n    tag_211:\n        /* \"#utility.yul\":4047:4110   */\n      swap2\n      pop\n        /* \"#utility.yul\":4003:4120   */\n      pop\n        /* \"#utility.yul\":3798:4127   */\n      swap3\n      swap2\n      pop\n      pop\n      jump\t// out\n        /* \"#utility.yul\":4133:4250   */\n    tag_129:\n        /* \"#utility.yul\":4242:4243   */\n      0x00\n        /* \"#utility.yul\":4239:4240   */\n      dup1\n        /* \"#utility.yul\":4232:4244   */\n      revert\n        /* \"#utility.yul\":4256:4373   */\n    tag_130:\n        /* \"#utility.yul\":4365:4366   */\n      0x00\n        /* \"#utility.yul\":4362:4363   */\n      dup1\n        /* \"#utility.yul\":4355:4367   */\n      revert\n        /* \"#utility.yul\":4379:4559   */\n    tag_131:\n        /* \"#utility.yul\":4427:4504   */\n      0x4e487b7100000000000000000000000000000000000000000000000000000000\n        /* \"#utility.yul\":4424:4425   */\n      0x00\n        /* \"#utility.yul\":4417:4505   */\n      mstore\n        /* \"#utility.yul\":4524:4528   */\n      0x41\n        /* \"#utility.yul\":4521:4522   */\n      0x04\n        /* \"#utility.yul\":4514:4529   */\n      mstore\n        /* \"#utility.yul\":4548:4552   */\n      0x24\n        /* \"#utility.yul\":4545:4546   */\n      0x00\n        /* \"#utility.yul\":4538:4553   */\n      revert\n        /* \"#utility.yul\":4565:4846   */\n    tag_132:\n        /* \"#utility.yul\":4648:4675   */\n      tag_216\n        /* \"#utility.yul\":4670:4674   */\n      dup3\n        /* \"#utility.yul\":4648:4675   */\n      tag_122\n      jump\t// in\n    tag_216:\n        /* \"#utility.yul\":4640:4646   */\n      dup2\n        /* \"#utility.yul\":4636:4676   */\n      add\n        /* \"#utility.yul\":4778:4784   */\n      dup2\n        /* \"#utility.yul\":4766:4776   */\n      dup2\n        /* \"#utility.yul\":4763:4785   */\n      lt\n        /* \"#utility.yul\":4742:4760   */\n      0xffffffffffffffff\n        /* \"#utility.yul\":4730:4740   */\n      dup3\n        /* \"#utility.yul\":4727:4761   */\n      gt\n        /* \"#utility.yul\":4724:4786   */\n      or\n        /* \"#utility.yul\":4721:4809   */\n      iszero\n      tag_217\n      jumpi\n        /* \"#utility.yul\":4789:4807   */\n      tag_218\n      tag_131\n      jump\t// in\n    tag_218:\n        /* \"#utility.yul\":4721:4809   */\n    tag_217:\n        /* \"#utility.yul\":4829:4839   */\n      dup1\n        /* \"#utility.yul\":4825:4827   */\n      0x40\n        /* \"#utility.yul\":4818:4840   */\n      mstore\n        /* \"#utility.yul\":4608:4846   */\n      pop\n        /* \"#utility.yul\":4565:4846   */\n      pop\n      pop\n      jump\t// out\n        /* \"#utility.yul\":4852:4981   */\n    tag_133:\n        /* \"#utility.yul\":4886:4892   */\n      0x00\n        /* \"#utility.yul\":4913:4933   */\n      tag_220\n      tag_112\n      jump\t// in\n    tag_220:\n        /* \"#utility.yul\":4903:4933   */\n      swap1\n      pop\n        /* \"#utility.yul\":4942:4975   */\n      tag_221\n        /* \"#utility.yul\":4970:4974   */\n      dup3\n        /* \"#utility.yul\":4962:4968   */\n      dup3\n        /* \"#utility.yul\":4942:4975   */\n      tag_132\n      jump\t// in\n    tag_221:\n        /* \"#utility.yul\":4852:4981   */\n      swap2\n      swap1\n      pop\n      jump\t// out\n        /* \"#utility.yul\":4987:5295   */\n    tag_134:\n        /* \"#utility.yul\":5049:5053   */\n      0x00\n        /* \"#utility.yul\":5139:5157   */\n      0xffffffffffffffff\n        /* \"#utility.yul\":5131:5137   */\n      dup3\n        /* \"#utility.yul\":5128:5158   */\n      gt\n        /* \"#utility.yul\":5125:5181   */\n      iszero\n      tag_223\n      jumpi\n        /* \"#utility.yul\":5161:5179   */\n      tag_224\n      tag_131\n      jump\t// in\n    tag_224:\n        /* \"#utility.yul\":5125:5181   */\n    tag_223:\n        /* \"#utility.yul\":5199:5228   */\n      tag_225\n        /* \"#utility.yul\":5221:5227   */\n      dup3\n        /* \"#utility.yul\":5199:5228   */\n      tag_122\n      jump\t// in\n    tag_225:\n        /* \"#utility.yul\":5191:5228   */\n      swap1\n      pop\n        /* \"#utility.yul\":5283:5287   */\n      0x20\n        /* \"#utility.yul\":5277:5281   */\n      dup2\n        /* \"#utility.yul\":5273:5288   */\n      add\n        /* \"#utility.yul\":5265:5288   */\n      swap1\n      pop\n        /* \"#utility.yul\":4987:5295   */\n      swap2\n      swap1\n      pop\n      jump\t// out\n        /* \"#utility.yul\":5301:5447   */\n    tag_135:\n        /* \"#utility.yul\":5398:5404   */\n      dup3\n        /* \"#utility.yul\":5393:5396   */\n      dup2\n        /* \"#utility.yul\":5388:5391   */\n      dup4\n        /* \"#utility.yul\":5375:5405   */\n      calldatacopy\n        /* \"#utility.yul\":5439:5440   */\n      0x00\n        /* \"#utility.yul\":5430:5436   */\n      dup4\n        /* \"#utility.yul\":5425:5428   */\n      dup4\n        /* \"#utility.yul\":5421:5437   */\n      add\n        /* \"#utility.yul\":5414:5441   */\n      mstore\n        /* \"#utility.yul\":5301:5447   */\n      pop\n      pop\n      pop\n      jump\t// out\n        /* \"#utility.yul\":5453:5878   */\n    tag_136:\n        /* \"#utility.yul\":5531:5536   */\n      0x00\n        /* \"#utility.yul\":5556:5622   */\n      tag_228\n        /* \"#utility.yul\":5572:5621   */\n      tag_229\n        /* \"#utility.yul\":5614:5620   */\n      dup5\n        /* \"#utility.yul\":5572:5621   */\n      tag_134\n      jump\t// in\n    tag_229:\n        /* \"#utility.yul\":5556:5622   */\n      tag_133\n      jump\t// in\n    tag_228:\n        /* \"#utility.yul\":5547:5622   */\n      swap1\n      pop\n        /* \"#utility.yul\":5645:5651   */\n      dup3\n        /* \"#utility.yul\":5638:5643   */\n      dup2\n        /* \"#utility.yul\":5631:5652   */\n      mstore\n        /* \"#utility.yul\":5683:5687   */\n      0x20\n        /* \"#utility.yul\":5676:5681   */\n      dup2\n        /* \"#utility.yul\":5672:5688   */\n      add\n        /* \"#utility.yul\":5721:5724   */\n      dup5\n        /* \"#utility.yul\":5712:5718   */\n      dup5\n        /* \"#utility.yul\":5707:5710   */\n      dup5\n        /* \"#utility.yul\":5703:5719   */\n      add\n        /* \"#utility.yul\":5700:5725   */\n      gt\n        /* \"#utility.yul\":5697:5809   */\n      iszero\n      tag_230\n      jumpi\n        /* \"#utility.yul\":5728:5807   */\n      tag_231\n      tag_130\n      jump\t// in\n    tag_231:\n        /* \"#utility.yul\":5697:5809   */\n    tag_230:\n        /* \"#utility.yul\":5818:5872   */\n      tag_232\n        /* \"#utility.yul\":5865:5871   */\n      dup5\n        /* \"#utility.yul\":5860:5863   */\n      dup3\n        /* \"#utility.yul\":5855:5858   */\n      dup6\n        /* \"#utility.yul\":5818:5872   */\n      tag_135\n      jump\t// in\n    tag_232:\n        /* \"#utility.yul\":5537:5878   */\n      pop\n        /* \"#utility.yul\":5453:5878   */\n      swap4\n      swap3\n      pop\n      pop\n      pop\n      jump\t// out\n        /* \"#utility.yul\":5898:6238   */\n    tag_137:\n        /* \"#utility.yul\":5954:5959   */\n      0x00\n        /* \"#utility.yul\":6003:6006   */\n      dup3\n        /* \"#utility.yul\":5996:6000   */\n      0x1f\n        /* \"#utility.yul\":5988:5994   */\n      dup4\n        /* \"#utility.yul\":5984:6001   */\n      add\n        /* \"#utility.yul\":5980:6007   */\n      slt\n        /* \"#utility.yul\":5970:6092   */\n      tag_234\n      jumpi\n        /* \"#utility.yul\":6011:6090   */\n      tag_235\n      tag_129\n      jump\t// in\n    tag_235:\n        /* \"#utility.yul\":5970:6092   */\n    tag_234:\n        /* \"#utility.yul\":6128:6134   */\n      dup2\n        /* \"#utility.yul\":6115:6135   */\n      calldataload\n        /* \"#utility.yul\":6153:6232   */\n      tag_236\n        /* \"#utility.yul\":6228:6231   */\n      dup5\n        /* \"#utility.yul\":6220:6226   */\n      dup3\n        /* \"#utility.yul\":6213:6217   */\n      0x20\n        /* \"#utility.yul\":6205:6211   */\n      dup7\n        /* \"#utility.yul\":6201:6218   */\n      add\n        /* \"#utility.yul\":6153:6232   */\n      tag_136\n      jump\t// in\n    tag_236:\n        /* \"#utility.yul\":6144:6232   */\n      swap2\n      pop\n        /* \"#utility.yul\":5960:6238   */\n      pop\n        /* \"#utility.yul\":5898:6238   */\n      swap3\n      swap2\n      pop\n      pop\n      jump\t// out\n        /* \"#utility.yul\":6244:6898   */\n    tag_33:\n        /* \"#utility.yul\":6322:6328   */\n      0x00\n        /* \"#utility.yul\":6330:6336   */\n      dup1\n        /* \"#utility.yul\":6379:6381   */\n      0x40\n        /* \"#utility.yul\":6367:6376   */\n      dup4\n        /* \"#utility.yul\":6358:6365   */\n      dup6\n        /* \"#utility.yul\":6354:6377   */\n      sub\n        /* \"#utility.yul\":6350:6382   */\n      slt\n        /* \"#utility.yul\":6347:6466   */\n      iszero\n      tag_238\n      jumpi\n        /* \"#utility.yul\":6385:6464   */\n      tag_239\n      tag_113\n      jump\t// in\n    tag_239:\n        /* \"#utility.yul\":6347:6466   */\n    tag_238:\n        /* \"#utility.yul\":6505:6506   */\n      0x00\n        /* \"#utility.yul\":6530:6583   */\n      tag_240\n        /* \"#utility.yul\":6575:6582   */\n      dup6\n        /* \"#utility.yul\":6566:6572   */\n      dup3\n        /* \"#utility.yul\":6555:6564   */\n      dup7\n        /* \"#utility.yul\":6551:6573   */\n      add\n        /* \"#utility.yul\":6530:6583   */\n      tag_117\n      jump\t// in\n    tag_240:\n        /* \"#utility.yul\":6520:6583   */\n      swap3\n      pop\n        /* \"#utility.yul\":6476:6593   */\n      pop\n        /* \"#utility.yul\":6660:6662   */\n      0x20\n        /* \"#utility.yul\":6649:6658   */\n      dup4\n        /* \"#utility.yul\":6645:6663   */\n      add\n        /* \"#utility.yul\":6632:6664   */\n      calldataload\n        /* \"#utility.yul\":6691:6709   */\n      0xffffffffffffffff\n        /* \"#utility.yul\":6683:6689   */\n      dup2\n        /* \"#utility.yul\":6680:6710   */\n      gt\n        /* \"#utility.yul\":6677:6794   */\n      iszero\n      tag_241\n      jumpi\n        /* \"#utility.yul\":6713:6792   */\n      tag_242\n      tag_114\n      jump\t// in\n    tag_242:\n        /* \"#utility.yul\":6677:6794   */\n    tag_241:\n        /* \"#utility.yul\":6818:6881   */\n      tag_243\n        /* \"#utility.yul\":6873:6880   */\n      dup6\n        /* \"#utility.yul\":6864:6870   */\n      dup3\n        /* \"#utility.yul\":6853:6862   */\n      dup7\n        /* \"#utility.yul\":6849:6871   */\n      add\n        /* \"#utility.yul\":6818:6881   */\n      tag_137\n      jump\t// in\n    tag_243:\n        /* \"#utility.yul\":6808:6881   */\n      swap2\n      pop\n        /* \"#utility.yul\":6603:6891   */\n      pop\n        /* \"#utility.yul\":6244:6898   */\n      swap3\n      pop\n      swap3\n      swap1\n      pop\n      jump\t// out\n        /* \"#utility.yul\":6904:6990   */\n    tag_138:\n        /* \"#utility.yul\":6939:6946   */\n      0x00\n        /* \"#utility.yul\":6979:6983   */\n      0xff\n        /* \"#utility.yul\":6972:6977   */\n      dup3\n        /* \"#utility.yul\":6968:6984   */\n      and\n        /* \"#utility.yul\":6957:6984   */\n      swap1\n      pop\n        /* \"#utility.yul\":6904:6990   */\n      swap2\n      swap1\n      pop\n      jump\t// out\n        /* \"#utility.yul\":6996:7114   */\n    tag_139:\n        /* \"#utility.yul\":7067:7089   */\n      tag_246\n        /* \"#utility.yul\":7083:7088   */\n      dup2\n        /* \"#utility.yul\":7067:7089   */\n      tag_138\n      jump\t// in\n    tag_246:\n        /* \"#utility.yul\":7060:7065   */\n      dup2\n        /* \"#utility.yul\":7057:7090   */\n      eq\n        /* \"#utility.yul\":7047:7108   */\n      tag_247\n      jumpi\n        /* \"#utility.yul\":7104:7105   */\n      0x00\n        /* \"#utility.yul\":7101:7102   */\n      dup1\n        /* \"#utility.yul\":7094:7106   */\n      revert\n        /* \"#utility.yul\":7047:7108   */\n    tag_247:\n        /* \"#utility.yul\":6996:7114   */\n      pop\n      jump\t// out\n        /* \"#utility.yul\":7120:7255   */\n    tag_140:\n        /* \"#utility.yul\":7164:7169   */\n      0x00\n        /* \"#utility.yul\":7202:7208   */\n      dup2\n        /* \"#utility.yul\":7189:7209   */\n      calldataload\n        /* \"#utility.yul\":7180:7209   */\n      swap1\n      pop\n        /* \"#utility.yul\":7218:7249   */\n      tag_249\n        /* \"#utility.yul\":7243:7248   */\n      dup2\n        /* \"#utility.yul\":7218:7249   */\n      tag_139\n      jump\t// in\n    tag_249:\n        /* \"#utility.yul\":7120:7255   */\n      swap3\n      swap2\n      pop\n      pop\n      jump\t// out\n        /* \"#utility.yul\":7261:7586   */\n    tag_39:\n        /* \"#utility.yul\":7318:7324   */\n      0x00\n        /* \"#utility.yul\":7367:7369   */\n      0x20\n        /* \"#utility.yul\":7355:7364   */\n      dup3\n        /* \"#utility.yul\":7346:7353   */\n      dup5\n        /* \"#utility.yul\":7342:7365   */\n      sub\n        /* \"#utility.yul\":7338:7370   */\n      slt\n        /* \"#utility.yul\":7335:7454   */\n      iszero\n      tag_251\n      jumpi\n        /* \"#utility.yul\":7373:7452   */\n      tag_252\n      tag_113\n      jump\t// in\n    tag_252:\n        /* \"#utility.yul\":7335:7454   */\n    tag_251:\n        /* \"#utility.yul\":7493:7494   */\n      0x00\n        /* \"#utility.yul\":7518:7569   */\n      tag_253\n        /* \"#utility.yul\":7561:7568   */\n      dup5\n        /* \"#utility.yul\":7552:7558   */\n      dup3\n        /* \"#utility.yul\":7541:7550   */\n      dup6\n        /* \"#utility.yul\":7537:7559   */\n      add\n        /* \"#utility.yul\":7518:7569   */\n      tag_140\n      jump\t// in\n    tag_253:\n        /* \"#utility.yul\":7508:7569   */\n      swap2\n      pop\n        /* \"#utility.yul\":7464:7579   */\n      pop\n        /* \"#utility.yul\":7261:7586   */\n      swap3\n      swap2\n      pop\n      pop\n      jump\t// out\n        /* \"#utility.yul\":7592:7772   */\n    tag_59:\n        /* \"#utility.yul\":7640:7717   */\n      0x4e487b7100000000000000000000000000000000000000000000000000000000\n        /* \"#utility.yul\":7637:7638   */\n      0x00\n        /* \"#utility.yul\":7630:7718   */\n      mstore\n        /* \"#utility.yul\":7737:7741   */\n      0x21\n        /* \"#utility.yul\":7734:7735   */\n      0x04\n        /* \"#utility.yul\":7727:7742   */\n      mstore\n        /* \"#utility.yul\":7761:7765   */\n      0x24\n        /* \"#utility.yul\":7758:7759   */\n      0x00\n        /* \"#utility.yul\":7751:7766   */\n      revert\n        /* \"#utility.yul\":7778:7891   */\n    tag_141:\n        /* \"#utility.yul\":7859:7860   */\n      0x04\n        /* \"#utility.yul\":7852:7857   */\n      dup2\n        /* \"#utility.yul\":7849:7861   */\n      lt\n        /* \"#utility.yul\":7839:7885   */\n      tag_256\n      jumpi\n        /* \"#utility.yul\":7865:7883   */\n      tag_257\n      tag_59\n      jump\t// in\n    tag_257:\n        /* \"#utility.yul\":7839:7885   */\n    tag_256:\n        /* \"#utility.yul\":7778:7891   */\n      pop\n      jump\t// out\n        /* \"#utility.yul\":7897:8024   */\n    tag_142:\n        /* \"#utility.yul\":7942:7949   */\n      0x00\n        /* \"#utility.yul\":7971:7976   */\n      dup2\n        /* \"#utility.yul\":7960:7976   */\n      swap1\n      pop\n        /* \"#utility.yul\":7977:8018   */\n      tag_259\n        /* \"#utility.yul\":8012:8017   */\n      dup3\n        /* \"#utility.yul\":7977:8018   */\n      tag_141\n      jump\t// in\n    tag_259:\n        /* \"#utility.yul\":7897:8024   */\n      swap2\n      swap1\n      pop\n      jump\t// out\n        /* \"#utility.yul\":8030:8157   */\n    tag_143:\n        /* \"#utility.yul\":8086:8095   */\n      0x00\n        /* \"#utility.yul\":8119:8151   */\n      tag_261\n        /* \"#utility.yul\":8145:8150   */\n      dup3\n        /* \"#utility.yul\":8119:8151   */\n      tag_142\n      jump\t// in\n    tag_261:\n        /* \"#utility.yul\":8106:8151   */\n      swap1\n      pop\n        /* \"#utility.yul\":8030:8157   */\n      swap2\n      swap1\n      pop\n      jump\t// out\n        /* \"#utility.yul\":8163:8306   */\n    tag_144:\n        /* \"#utility.yul\":8256:8299   */\n      tag_263\n        /* \"#utility.yul\":8293:8298   */\n      dup2\n        /* \"#utility.yul\":8256:8299   */\n      tag_143\n      jump\t// in\n    tag_263:\n        /* \"#utility.yul\":8251:8254   */\n      dup3\n        /* \"#utility.yul\":8244:8300   */\n      mstore\n        /* \"#utility.yul\":8163:8306   */\n      pop\n      pop\n      jump\t// out\n        /* \"#utility.yul\":8312:8546   */\n    tag_44:\n        /* \"#utility.yul\":8411:8415   */\n      0x00\n        /* \"#utility.yul\":8449:8451   */\n      0x20\n        /* \"#utility.yul\":8438:8447   */\n      dup3\n        /* \"#utility.yul\":8434:8452   */\n      add\n        /* \"#utility.yul\":8426:8452   */\n      swap1\n      pop\n        /* \"#utility.yul\":8462:8539   */\n      tag_265\n        /* \"#utility.yul\":8536:8537   */\n      0x00\n        /* \"#utility.yul\":8525:8534   */\n      dup4\n        /* \"#utility.yul\":8521:8538   */\n      add\n        /* \"#utility.yul\":8512:8518   */\n      dup5\n        /* \"#utility.yul\":8462:8539   */\n      tag_144\n      jump\t// in\n    tag_265:\n        /* \"#utility.yul\":8312:8546   */\n      swap3\n      swap2\n      pop\n      pop\n      jump\t// out\n        /* \"#utility.yul\":8552:8732   */\n    tag_145:\n        /* \"#utility.yul\":8600:8677   */\n      0x4e487b7100000000000000000000000000000000000000000000000000000000\n        /* \"#utility.yul\":8597:8598   */\n      0x00\n        /* \"#utility.yul\":8590:8678   */\n      mstore\n        /* \"#utility.yul\":8697:8701   */\n      0x22\n        /* \"#utility.yul\":8694:8695   */\n      0x04\n        /* \"#utility.yul\":8687:8702   */\n      mstore\n        /* \"#utility.yul\":8721:8725   */\n      0x24\n        /* \"#utility.yul\":8718:8719   */\n      0x00\n        /* \"#utility.yul\":8711:8726   */\n      revert\n        /* \"#utility.yul\":8738:9058   */\n    tag_51:\n        /* \"#utility.yul\":8782:8788   */\n      0x00\n        /* \"#utility.yul\":8819:8820   */\n      0x02\n        /* \"#utility.yul\":8813:8817   */\n      dup3\n        /* \"#utility.yul\":8809:8821   */\n      div\n        /* \"#utility.yul\":8799:8821   */\n      swap1\n      pop\n        /* \"#utility.yul\":8866:8867   */\n      0x01\n        /* \"#utility.yul\":8860:8864   */\n      dup3\n        /* \"#utility.yul\":8856:8868   */\n      and\n        /* \"#utility.yul\":8887:8905   */\n      dup1\n        /* \"#utility.yul\":8877:8958   */\n      tag_268\n      jumpi\n        /* \"#utility.yul\":8943:8947   */\n      0x7f\n        /* \"#utility.yul\":8935:8941   */\n      dup3\n        /* \"#utility.yul\":8931:8948   */\n      and\n        /* \"#utility.yul\":8921:8948   */\n      swap2\n      pop\n        /* \"#utility.yul\":8877:8958   */\n    tag_268:\n        /* \"#utility.yul\":9005:9007   */\n      0x20\n        /* \"#utility.yul\":8997:9003   */\n      dup3\n        /* \"#utility.yul\":8994:9008   */\n      lt\n        /* \"#utility.yul\":8974:8992   */\n      dup2\n        /* \"#utility.yul\":8971:9009   */\n      sub\n        /* \"#utility.yul\":8968:9052   */\n      tag_269\n      jumpi\n        /* \"#utility.yul\":9024:9042   */\n      tag_270\n      tag_145\n      jump\t// in\n    tag_270:\n        /* \"#utility.yul\":8968:9052   */\n    tag_269:\n        /* \"#utility.yul\":8789:9058   */\n      pop\n        /* \"#utility.yul\":8738:9058   */\n      swap2\n      swap1\n      pop\n      jump\t// out\n        /* \"#utility.yul\":9064:9244   */\n    tag_146:\n        /* \"#utility.yul\":9112:9189   */\n      0x4e487b7100000000000000000000000000000000000000000000000000000000\n        /* \"#utility.yul\":9109:9110   */\n      0x00\n        /* \"#utility.yul\":9102:9190   */\n      mstore\n        /* \"#utility.yul\":9209:9213   */\n      0x11\n        /* \"#utility.yul\":9206:9207   */\n      0x04\n        /* \"#utility.yul\":9199:9214   */\n      mstore\n        /* \"#utility.yul\":9233:9237   */\n      0x24\n        /* \"#utility.yul\":9230:9231   */\n      0x00\n        /* \"#utility.yul\":9223:9238   */\n      revert\n        /* \"#utility.yul\":9250:9483   */\n    tag_66:\n        /* \"#utility.yul\":9289:9292   */\n      0x00\n        /* \"#utility.yul\":9312:9336   */\n      tag_273\n        /* \"#utility.yul\":9330:9335   */\n      dup3\n        /* \"#utility.yul\":9312:9336   */\n      tag_115\n      jump\t// in\n    tag_273:\n        /* \"#utility.yul\":9303:9336   */\n      swap2\n      pop\n        /* \"#utility.yul\":9358:9424   */\n      0xffffffffffffffffffffffffffffffffffffffffffffffffffffffffffffffff\n        /* \"#utility.yul\":9351:9356   */\n      dup3\n        /* \"#utility.yul\":9348:9425   */\n      sub\n        /* \"#utility.yul\":9345:9448   */\n      tag_274\n      jumpi\n        /* \"#utility.yul\":9428:9446   */\n      tag_275\n      tag_146\n      jump\t// in\n    tag_275:\n        /* \"#utility.yul\":9345:9448   */\n    tag_274:\n        /* \"#utility.yul\":9475:9476   */\n      0x01\n        /* \"#utility.yul\":9468:9473   */\n      dup3\n        /* \"#utility.yul\":9464:9477   */\n      add\n        /* \"#utility.yul\":9457:9477   */\n      swap1\n      pop\n        /* \"#utility.yul\":9250:9483   */\n      swap2\n      swap1\n      pop\n      jump\t// out\n        /* \"#utility.yul\":9489:9680   */\n    tag_68:\n        /* \"#utility.yul\":9529:9532   */\n      0x00\n        /* \"#utility.yul\":9548:9568   */\n      tag_277\n        /* \"#utility.yul\":9566:9567   */\n      dup3\n        /* \"#utility.yul\":9548:9568   */\n      tag_115\n      jump\t// in\n    tag_277:\n        /* \"#utility.yul\":9543:9568   */\n      swap2\n      pop\n        /* \"#utility.yul\":9582:9602   */\n      tag_278\n        /* \"#utility.yul\":9600:9601   */\n      dup4\n        /* \"#utility.yul\":9582:9602   */\n      tag_115\n      jump\t// in\n    tag_278:\n        /* \"#utility.yul\":9577:9602   */\n      swap3\n      pop\n        /* \"#utility.yul\":9625:9626   */\n      dup3\n        /* \"#utility.yul\":9622:9623   */\n      dup3\n        /* \"#utility.yul\":9618:9627   */\n      add\n        /* \"#utility.yul\":9611:9627   */\n      swap1\n      pop\n        /* \"#utility.yul\":9646:9649   */\n      dup1\n        /* \"#utility.yul\":9643:9644   */\n      dup3\n        /* \"#utility.yul\":9640:9650   */\n      gt\n        /* \"#utility.yul\":9637:9673   */\n      iszero\n      tag_279\n      jumpi\n        /* \"#utility.yul\":9653:9671   */\n      tag_280\n      tag_146\n      jump\t// in\n    tag_280:\n        /* \"#utility.yul\":9637:9673   */\n    tag_279:\n        /* \"#utility.yul\":9489:9680   */\n      swap3\n      swap2\n      pop\n      pop\n      jump\t// out\n        /* \"#utility.yul\":9686:9827   */\n    tag_147:\n        /* \"#utility.yul\":9735:9739   */\n      0x00\n        /* \"#utility.yul\":9758:9761   */\n      dup2\n        /* \"#utility.yul\":9750:9761   */\n      swap1\n      pop\n        /* \"#utility.yul\":9781:9784   */\n      dup2\n        /* \"#utility.yul\":9778:9779   */\n      0x00\n        /* \"#utility.yul\":9771:9785   */\n      mstore\n        /* \"#utility.yul\":9815:9819   */\n      0x20\n        /* \"#utility.yul\":9812:9813   */\n      0x00\n        /* \"#utility.yul\":9802:9820   */\n      keccak256\n        /* \"#utility.yul\":9794:9820   */\n      swap1\n      pop\n        /* \"#utility.yul\":9686:9827   */\n      swap2\n      swap1\n      pop\n      jump\t// out\n        /* \"#utility.yul\":9833:9926   */\n    tag_148:\n        /* \"#utility.yul\":9870:9876   */\n      0x00\n        /* \"#utility.yul\":9917:9919   */\n      0x20\n        /* \"#utility.yul\":9912:9914   */\n      0x1f\n        /* \"#utility.yul\":9905:9910   */\n      dup4\n        /* \"#utility.yul\":9901:9915   */\n      add\n        /* \"#utility.yul\":9897:9920   */\n      div\n        /* \"#utility.yul\":9887:9920   */\n      swap1\n      pop\n        /* \"#utility.yul\":9833:9926   */\n      swap2\n      swap1\n      pop\n      jump\t// out\n        /* \"#utility.yul\":9932:10039   */\n    tag_149:\n        /* \"#utility.yul\":9976:9984   */\n      0x00\n        /* \"#utility.yul\":10026:10031   */\n      dup3\n        /* \"#utility.yul\":10020:10024   */\n      dup3\n        /* \"#utility.yul\":10016:10032   */\n      shl\n        /* \"#utility.yul\":9995:10032   */\n      swap1\n      pop\n        /* \"#utility.yul\":9932:10039   */\n      swap3\n      swap2\n      pop\n      pop\n      jump\t// out\n        /* \"#utility.yul\":10045:10438   */\n    tag_150:\n        /* \"#utility.yul\":10114:10120   */\n      0x00\n        /* \"#utility.yul\":10164:10165   */\n      0x08\n        /* \"#utility.yul\":10152:10162   */\n      dup4\n        /* \"#utility.yul\":10148:10166   */\n      mul\n        /* \"#utility.yul\":10187:10284   */\n      tag_285\n        /* \"#utility.yul\":10217:10283   */\n      0xffffffffffffffffffffffffffffffffffffffffffffffffffffffffffffffff\n        /* \"#utility.yul\":10206:10215   */\n      dup3\n        /* \"#utility.yul\":10187:10284   */\n      tag_149\n      jump\t// in\n    tag_285:\n        /* \"#utility.yul\":10305:10344   */\n      tag_286\n        /* \"#utility.yul\":10335:10343   */\n      dup7\n        /* \"#utility.yul\":10324:10333   */\n      dup4\n        /* \"#utility.yul\":10305:10344   */\n      tag_149\n      jump\t// in\n    tag_286:\n        /* \"#utility.yul\":10293:10344   */\n      swap6\n      pop\n        /* \"#utility.yul\":10377:10381   */\n      dup1\n        /* \"#utility.yul\":10373:10382   */\n      not\n        /* \"#utility.yul\":10366:10371   */\n      dup5\n        /* \"#utility.yul\":10362:10383   */\n      and\n        /* \"#utility.yul\":10353:10383   */\n      swap4\n      pop\n        /* \"#utility.yul\":10426:10430   */\n      dup1\n        /* \"#utility.yul\":10416:10424   */\n      dup7\n        /* \"#utility.yul\":10412:10431   */\n      and\n        /* \"#utility.yul\":10405:10410   */\n      dup5\n        /* \"#utility.yul\":10402:10432   */\n      or\n        /* \"#utility.yul\":10392:10432   */\n      swap3\n      pop\n        /* \"#utility.yul\":10121:10438   */\n      pop\n      pop\n        /* \"#utility.yul\":10045:10438   */\n      swap4\n      swap3\n      pop\n      pop\n      pop\n      jump\t// out\n        /* \"#utility.yul\":10444:10504   */\n    tag_151:\n        /* \"#utility.yul\":10472:10475   */\n      0x00\n        /* \"#utility.yul\":10493:10498   */\n      dup2\n        /* \"#utility.yul\":10486:10498   */\n      swap1\n      pop\n        /* \"#utility.yul\":10444:10504   */\n      swap2\n      swap1\n      pop\n      jump\t// out\n        /* \"#utility.yul\":10510:10652   */\n    tag_152:\n        /* \"#utility.yul\":10560:10569   */\n      0x00\n        /* \"#utility.yul\":10593:10646   */\n      tag_289\n        /* \"#utility.yul\":10611:10645   */\n      tag_290\n        /* \"#utility.yul\":10620:10644   */\n      tag_291\n        /* \"#utility.yul\":10638:10643   */\n      dup5\n        /* \"#utility.yul\":10620:10644   */\n      tag_115\n      jump\t// in\n    tag_291:\n        /* \"#utility.yul\":10611:10645   */\n      tag_151\n      jump\t// in\n    tag_290:\n        /* \"#utility.yul\":10593:10646   */\n      tag_115\n      jump\t// in\n    tag_289:\n        /* \"#utility.yul\":10580:10646   */\n      swap1\n      pop\n        /* \"#utility.yul\":10510:10652   */\n      swap2\n      swap1\n      pop\n      jump\t// out\n        /* \"#utility.yul\":10658:10733   */\n    tag_153:\n        /* \"#utility.yul\":10701:10704   */\n      0x00\n        /* \"#utility.yul\":10722:10727   */\n      dup2\n        /* \"#utility.yul\":10715:10727   */\n      swap1\n      pop\n        /* \"#utility.yul\":10658:10733   */\n      swap2\n      swap1\n      pop\n      jump\t// out\n        /* \"#utility.yul\":10739:11008   */\n    tag_154:\n        /* \"#utility.yul\":10849:10888   */\n      tag_294\n        /* \"#utility.yul\":10880:10887   */\n      dup4\n        /* \"#utility.yul\":10849:10888   */\n      tag_152\n      jump\t// in\n    tag_294:\n        /* \"#utility.yul\":10910:11001   */\n      tag_295\n        /* \"#utility.yul\":10959:11000   */\n      tag_296\n        /* \"#utility.yul\":10983:10999   */\n      dup3\n        /* \"#utility.yul\":10959:11000   */\n      tag_153\n      jump\t// in\n    tag_296:\n        /* \"#utility.yul\":10951:10957   */\n      dup5\n        /* \"#utility.yul\":10944:10948   */\n      dup5\n        /* \"#utility.yul\":10938:10949   */\n      sload\n        /* \"#utility.yul\":10910:11001   */\n      tag_150\n      jump\t// in\n    tag_295:\n        /* \"#utility.yul\":10904:10908   */\n      dup3\n        /* \"#utility.yul\":10897:11002   */\n      sstore\n        /* \"#utility.yul\":10815:11008   */\n      pop\n        /* \"#utility.yul\":10739:11008   */\n      pop\n      pop\n      pop\n      jump\t// out\n        /* \"#utility.yul\":11014:11087   */\n    tag_155:\n        /* \"#utility.yul\":11059:11062   */\n      0x00\n        /* \"#utility.yul\":11014:11087   */\n      swap1\n      jump\t// out\n        /* \"#utility.yul\":11093:11282   */\n    tag_156:\n        /* \"#utility.yul\":11170:11202   */\n      tag_299\n      tag_155\n      jump\t// in\n    tag_299:\n        /* \"#utility.yul\":11211:11276   */\n      tag_300\n        /* \"#utility.yul\":11269:11275   */\n      dup2\n        /* \"#utility.yul\":11261:11267   */\n      dup5\n        /* \"#utility.yul\":11255:11259   */\n      dup5\n        /* \"#utility.yul\":11211:11276   */\n      tag_154\n      jump\t// in\n    tag_300:\n        /* \"#utility.yul\":11146:11282   */\n      pop\n        /* \"#utility.yul\":11093:11282   */\n      pop\n      pop\n      jump\t// out\n        /* \"#utility.yul\":11288:11474   */\n    tag_157:\n        /* \"#utility.yul\":11348:11468   */\n    tag_302:\n        /* \"#utility.yul\":11365:11368   */\n      dup2\n        /* \"#utility.yul\":11358:11363   */\n      dup2\n        /* \"#utility.yul\":11355:11369   */\n      lt\n        /* \"#utility.yul\":11348:11468   */\n      iszero\n      tag_304\n      jumpi\n        /* \"#utility.yul\":11419:11458   */\n      tag_305\n        /* \"#utility.yul\":11456:11457   */\n      0x00\n        /* \"#utility.yul\":11449:11454   */\n      dup3\n        /* \"#utility.yul\":11419:11458   */\n      tag_156\n      jump\t// in\n    tag_305:\n        /* \"#utility.yul\":11392:11393   */\n      0x01\n        /* \"#utility.yul\":11385:11390   */\n      dup2\n        /* \"#utility.yul\":11381:11394   */\n      add\n        /* \"#utility.yul\":11372:11394   */\n      swap1\n      pop\n        /* \"#utility.yul\":11348:11468   */\n      jump(tag_302)\n    tag_304:\n        /* \"#utility.yul\":11288:11474   */\n      pop\n      pop\n      jump\t// out\n        /* \"#utility.yul\":11480:12023   */\n    tag_158:\n        /* \"#utility.yul\":11581:11583   */\n      0x1f\n        /* \"#utility.yul\":11576:11579   */\n      dup3\n        /* \"#utility.yul\":11573:11584   */\n      gt\n        /* \"#utility.yul\":11570:12016   */\n      iszero\n      tag_307\n      jumpi\n        /* \"#utility.yul\":11615:11653   */\n      tag_308\n        /* \"#utility.yul\":11647:11652   */\n      dup2\n        /* \"#utility.yul\":11615:11653   */\n      tag_147\n      jump\t// in\n    tag_308:\n        /* \"#utility.yul\":11699:11728   */\n      tag_309\n        /* \"#utility.yul\":11717:11727   */\n      dup5\n        /* \"#utility.yul\":11699:11728   */\n      tag_148\n      jump\t// in\n    tag_309:\n        /* \"#utility.yul\":11689:11697   */\n      dup2\n        /* \"#utility.yul\":11685:11729   */\n      add\n        /* \"#utility.yul\":11882:11884   */\n      0x20\n        /* \"#utility.yul\":11870:11880   */\n      dup6\n        /* \"#utility.yul\":11867:11885   */\n      lt\n        /* \"#utility.yul\":11864:11913   */\n      iszero\n      tag_310\n      jumpi\n        /* \"#utility.yul\":11903:11911   */\n      dup2\n        /* \"#utility.yul\":11888:11911   */\n      swap1\n      pop\n        /* \"#utility.yul\":11864:11913   */\n    tag_310:\n        /* \"#utility.yul\":11926:12006   */\n      tag_311\n        /* \"#utility.yul\":11982:12004   */\n      tag_312\n        /* \"#utility.yul\":12000:12003   */\n      dup6\n        /* \"#utility.yul\":11982:12004   */\n      tag_148\n      jump\t// in\n    tag_312:\n        /* \"#utility.yul\":11972:11980   */\n      dup4\n        /* \"#utility.yul\":11968:12005   */\n      add\n        /* \"#utility.yul\":11955:11966   */\n      dup3\n        /* \"#utility.yul\":11926:12006   */\n      tag_157\n      jump\t// in\n    tag_311:\n        /* \"#utility.yul\":11585:12016   */\n      pop\n      pop\n        /* \"#utility.yul\":11570:12016   */\n    tag_307:\n        /* \"#utility.yul\":11480:12023   */\n      pop\n      pop\n      pop\n      jump\t// out\n        /* \"#utility.yul\":12029:12146   */\n    tag_159:\n        /* \"#utility.yul\":12083:12091   */\n      0x00\n        /* \"#utility.yul\":12133:12138   */\n      dup3\n        /* \"#utility.yul\":12127:12131   */\n      dup3\n        /* \"#utility.yul\":12123:12139   */\n      shr\n        /* \"#utility.yul\":12102:12139   */\n      swap1\n      pop\n        /* \"#utility.yul\":12029:12146   */\n      swap3\n      swap2\n      pop\n      pop\n      jump\t// out\n        /* \"#utility.yul\":12152:12321   */\n    tag_160:\n        /* \"#utility.yul\":12196:12202   */\n      0x00\n        /* \"#utility.yul\":12229:12280   */\n      tag_315\n        /* \"#utility.yul\":12277:12278   */\n      0x00\n        /* \"#utility.yul\":12273:12279   */\n      not\n        /* \"#utility.yul\":12265:12270   */\n      dup5\n        /* \"#utility.yul\":12262:12263   */\n      0x08\n        /* \"#utility.yul\":12258:12271   */\n      mul\n        /* \"#utility.yul\":12229:12280   */\n      tag_159\n      jump\t// in\n    tag_315:\n        /* \"#utility.yul\":12225:12281   */\n      not\n        /* \"#utility.yul\":12310:12314   */\n      dup1\n        /* \"#utility.yul\":12304:12308   */\n      dup4\n        /* \"#utility.yul\":12300:12315   */\n      and\n        /* \"#utility.yul\":12290:12315   */\n      swap2\n      pop\n        /* \"#utility.yul\":12203:12321   */\n      pop\n        /* \"#utility.yul\":12152:12321   */\n      swap3\n      swap2\n      pop\n      pop\n      jump\t// out\n        /* \"#utility.yul\":12326:12621   */\n    tag_161:\n        /* \"#utility.yul\":12402:12406   */\n      0x00\n        /* \"#utility.yul\":12548:12577   */\n      tag_317\n        /* \"#utility.yul\":12573:12576   */\n      dup4\n        /* \"#utility.yul\":12567:12571   */\n      dup4\n        /* \"#utility.yul\":12548:12577   */\n      tag_160\n      jump\t// in\n    tag_317:\n        /* \"#utility.yul\":12540:12577   */\n      swap2\n      pop\n        /* \"#utility.yul\":12610:12613   */\n      dup3\n        /* \"#utility.yul\":12607:12608   */\n      0x02\n        /* \"#utility.yul\":12603:12614   */\n      mul\n        /* \"#utility.yul\":12597:12601   */\n      dup3\n        /* \"#utility.yul\":12594:12615   */\n      or\n        /* \"#utility.yul\":12586:12615   */\n      swap1\n      pop\n        /* \"#utility.yul\":12326:12621   */\n      swap3\n      swap2\n      pop\n      pop\n      jump\t// out\n        /* \"#utility.yul\":12626:14021   */\n    tag_75:\n        /* \"#utility.yul\":12743:12780   */\n      tag_319\n        /* \"#utility.yul\":12776:12779   */\n      dup3\n        /* \"#utility.yul\":12743:12780   */\n      tag_119\n      jump\t// in\n    tag_319:\n        /* \"#utility.yul\":12845:12863   */\n      0xffffffffffffffff\n        /* \"#utility.yul\":12837:12843   */\n      dup2\n        /* \"#utility.yul\":12834:12864   */\n      gt\n        /* \"#utility.yul\":12831:12887   */\n      iszero\n      tag_320\n      jumpi\n        /* \"#utility.yul\":12867:12885   */\n      tag_321\n      tag_131\n      jump\t// in\n    tag_321:\n        /* \"#utility.yul\":12831:12887   */\n    tag_320:\n        /* \"#utility.yul\":12911:12949   */\n      tag_322\n        /* \"#utility.yul\":12943:12947   */\n      dup3\n        /* \"#utility.yul\":12937:12948   */\n      sload\n        /* \"#utility.yul\":12911:12949   */\n      tag_51\n      jump\t// in\n    tag_322:\n        /* \"#utility.yul\":12996:13063   */\n      tag_323\n        /* \"#utility.yul\":13056:13062   */\n      dup3\n        /* \"#utility.yul\":13048:13054   */\n      dup3\n        /* \"#utility.yul\":13042:13046   */\n      dup6\n        /* \"#utility.yul\":12996:13063   */\n      tag_158\n      jump\t// in\n    tag_323:\n        /* \"#utility.yul\":13090:13091   */\n      0x00\n        /* \"#utility.yul\":13114:13118   */\n      0x20\n        /* \"#utility.yul\":13101:13118   */\n      swap1\n      pop\n        /* \"#utility.yul\":13146:13148   */\n      0x1f\n        /* \"#utility.yul\":13138:13144   */\n      dup4\n        /* \"#utility.yul\":13135:13149   */\n      gt\n        /* \"#utility.yul\":13163:13164   */\n      0x01\n        /* \"#utility.yul\":13158:13776   */\n      dup2\n      eq\n      tag_325\n      jumpi\n        /* \"#utility.yul\":13820:13821   */\n      0x00\n        /* \"#utility.yul\":13837:13843   */\n      dup5\n        /* \"#utility.yul\":13834:13911   */\n      iszero\n      tag_326\n      jumpi\n        /* \"#utility.yul\":13886:13895   */\n      dup3\n        /* \"#utility.yul\":13881:13884   */\n      dup8\n        /* \"#utility.yul\":13877:13896   */\n      add\n        /* \"#utility.yul\":13871:13897   */\n      mload\n        /* \"#utility.yul\":13862:13897   */\n      swap1\n      pop\n        /* \"#utility.yul\":13834:13911   */\n    tag_326:\n        /* \"#utility.yul\":13937:14004   */\n      tag_327\n        /* \"#utility.yul\":13997:14003   */\n      dup6\n        /* \"#utility.yul\":13990:13995   */\n      dup3\n        /* \"#utility.yul\":13937:14004   */\n      tag_161\n      jump\t// in\n    tag_327:\n        /* \"#utility.yul\":13931:13935   */\n      dup7\n        /* \"#utility.yul\":13924:14005   */\n      sstore\n        /* \"#utility.yul\":13793:14015   */\n      pop\n        /* \"#utility.yul\":13128:14015   */\n      jump(tag_324)\n        /* \"#utility.yul\":13158:13776   */\n    tag_325:\n        /* \"#utility.yul\":13210:13214   */\n      0x1f\n        /* \"#utility.yul\":13206:13215   */\n      not\n        /* \"#utility.yul\":13198:13204   */\n      dup5\n        /* \"#utility.yul\":13194:13216   */\n      and\n        /* \"#utility.yul\":13244:13281   */\n      tag_328\n        /* \"#utility.yul\":13276:13280   */\n      dup7\n        /* \"#utility.yul\":13244:13281   */\n      tag_147\n      jump\t// in\n    tag_328:\n        /* \"#utility.yul\":13303:13304   */\n      0x00\n        /* \"#utility.yul\":13317:13525   */\n    tag_329:\n        /* \"#utility.yul\":13331:13338   */\n      dup3\n        /* \"#utility.yul\":13328:13329   */\n      dup2\n        /* \"#utility.yul\":13325:13339   */\n      lt\n        /* \"#utility.yul\":13317:13525   */\n      iszero\n      tag_331\n      jumpi\n        /* \"#utility.yul\":13410:13419   */\n      dup5\n        /* \"#utility.yul\":13405:13408   */\n      dup10\n        /* \"#utility.yul\":13401:13420   */\n      add\n        /* \"#utility.yul\":13395:13421   */\n      mload\n        /* \"#utility.yul\":13387:13393   */\n      dup3\n        /* \"#utility.yul\":13380:13422   */\n      sstore\n        /* \"#utility.yul\":13461:13462   */\n      0x01\n        /* \"#utility.yul\":13453:13459   */\n      dup3\n        /* \"#utility.yul\":13449:13463   */\n      add\n        /* \"#utility.yul\":13439:13463   */\n      swap2\n      pop\n        /* \"#utility.yul\":13508:13510   */\n      0x20\n        /* \"#utility.yul\":13497:13506   */\n      dup6\n        /* \"#utility.yul\":13493:13511   */\n      add\n        /* \"#utility.yul\":13480:13511   */\n      swap5\n      pop\n        /* \"#utility.yul\":13354:13358   */\n      0x20\n        /* \"#utility.yul\":13351:13352   */\n      dup2\n        /* \"#utility.yul\":13347:13359   */\n      add\n        /* \"#utility.yul\":13342:13359   */\n      swap1\n      pop\n        /* \"#utility.yul\":13317:13525   */\n      jump(tag_329)\n    tag_331:\n        /* \"#utility.yul\":13553:13559   */\n      dup7\n        /* \"#utility.yul\":13544:13551   */\n      dup4\n        /* \"#utility.yul\":13541:13560   */\n      lt\n        /* \"#utility.yul\":13538:13717   */\n      iszero\n      tag_332\n      jumpi\n        /* \"#utility.yul\":13611:13620   */\n      dup5\n        /* \"#utility.yul\":13606:13609   */\n      dup10\n        /* \"#utility.yul\":13602:13621   */\n      add\n        /* \"#utility.yul\":13596:13622   */\n      mload\n        /* \"#utility.yul\":13654:13702   */\n      tag_333\n        /* \"#utility.yul\":13696:13700   */\n      0x1f\n        /* \"#utility.yul\":13688:13694   */\n      dup10\n        /* \"#utility.yul\":13684:13701   */\n      and\n        /* \"#utility.yul\":13673:13682   */\n      dup3\n        /* \"#utility.yul\":13654:13702   */\n      tag_160\n      jump\t// in\n    tag_333:\n        /* \"#utility.yul\":13646:13652   */\n      dup4\n        /* \"#utility.yul\":13639:13703   */\n      sstore\n        /* \"#utility.yul\":13561:13717   */\n      pop\n        /* \"#utility.yul\":13538:13717   */\n    tag_332:\n        /* \"#utility.yul\":13763:13764   */\n      0x01\n        /* \"#utility.yul\":13759:13760   */\n      0x02\n        /* \"#utility.yul\":13751:13757   */\n      dup9\n        /* \"#utility.yul\":13747:13761   */\n      mul\n        /* \"#utility.yul\":13743:13765   */\n      add\n        /* \"#utility.yul\":13737:13741   */\n      dup9\n        /* \"#utility.yul\":13730:13766   */\n      sstore\n        /* \"#utility.yul\":13165:13776   */\n      pop\n      pop\n      pop\n        /* \"#utility.yul\":13128:14015   */\n    tag_324:\n      pop\n        /* \"#utility.yul\":12718:14021   */\n      pop\n      pop\n      pop\n        /* \"#utility.yul\":12626:14021   */\n      pop\n      pop\n      jump\t// out\n        /* \"#utility.yul\":14027:14207   */\n    tag_88:\n        /* \"#utility.yul\":14075:14152   */\n      0x4e487b7100000000000000000000000000000000000000000000000000000000\n        /* \"#utility.yul\":14072:14073   */\n      0x00\n        /* \"#utility.yul\":14065:14153   */\n      mstore\n        /* \"#utility.yul\":14172:14176   */\n      0x32\n        /* \"#utility.yul\":14169:14170   */\n      0x04\n        /* \"#utility.yul\":14162:14177   */\n      mstore\n        /* \"#utility.yul\":14196:14200   */\n      0x24\n        /* \"#utility.yul\":14193:14194   */\n      0x00\n        /* \"#utility.yul\":14186:14201   */\n      revert\n        /* \"#utility.yul\":14213:14380   */\n    tag_95:\n        /* \"#utility.yul\":14250:14253   */\n      0x00\n        /* \"#utility.yul\":14273:14295   */\n      tag_336\n        /* \"#utility.yul\":14289:14294   */\n      dup3\n        /* \"#utility.yul\":14273:14295   */\n      tag_138\n      jump\t// in\n    tag_336:\n        /* \"#utility.yul\":14264:14295   */\n      swap2\n      pop\n        /* \"#utility.yul\":14317:14321   */\n      0xff\n        /* \"#utility.yul\":14310:14315   */\n      dup3\n        /* \"#utility.yul\":14307:14322   */\n      sub\n        /* \"#utility.yul\":14304:14345   */\n      tag_337\n      jumpi\n        /* \"#utility.yul\":14325:14343   */\n      tag_338\n      tag_146\n      jump\t// in\n    tag_338:\n        /* \"#utility.yul\":14304:14345   */\n    tag_337:\n        /* \"#utility.yul\":14372:14373   */\n      0x01\n        /* \"#utility.yul\":14365:14370   */\n      dup3\n        /* \"#utility.yul\":14361:14374   */\n      add\n        /* \"#utility.yul\":14354:14374   */\n      swap1\n      pop\n        /* \"#utility.yul\":14213:14380   */\n      swap2\n      swap1\n      pop\n      jump\t// out\n\n    auxdata: 0xa2646970667358221220bae92f16e9337bd13b1c797547a9f84b8e3a580d30f73738e5d2329392d6948964736f6c63430008130033\n}\n",
				"bytecode": {
					"linkReferences": {},
					"object": "60806040526000805560006001556000600660006101000a81548160ff0219169083600381111561003357610032610127565b5b021790555034801561004457600080fd5b5033600360006101000a81548173ffffffffffffffffffffffffffffffffffffffff021916908373ffffffffffffffffffffffffffffffffffffffff160217905550600260046000600360009054906101000a900473ffffffffffffffffffffffffffffffffffffffff1673ffffffffffffffffffffffffffffffffffffffff1673ffffffffffffffffffffffffffffffffffffffff168152602001908152602001600020600001819055506001600660006101000a81548160ff0219169083600381111561011657610115610127565b5b021790555042600781905550610156565b7f4e487b7100000000000000000000000000000000000000000000000000000000600052602160045260246000fd5b61102d806101656000396000f3fe608060405234801561001057600080fd5b50600436106100935760003560e01c8063585cc4c411610066578063585cc4c414610122578063609ff1bd1461013e578063b3f98adc14610148578063c040e6b814610164578063da35c6641461018257610093565b8063013cf08b146100985780632e4176cf146100ca5780632e46fb9a146100e85780634420e48614610106575b600080fd5b6100b260048036038101906100ad91906107b3565b6101a0565b6040516100c19392919061087f565b60405180910390f35b6100d2610262565b6040516100df91906108fe565b60405180910390f35b6100f0610288565b6040516100fd9190610919565b60405180910390f35b610120600480360381019061011b9190610960565b61028e565b005b61013c60048036038101906101379190610ac2565b61047e565b005b610146610512565b005b610162600480360381019061015d9190610b57565b6105de565b005b61016c610750565b6040516101799190610bfb565b60405180910390f35b61018a610763565b6040516101979190610919565b60405180910390f35b600581815481106101b057600080fd5b90600052602060002090600302016000915090508060000154908060010180546101d990610c45565b80601f016020809104026020016040519081016040528092919081815260200182805461020590610c45565b80156102525780601f1061022757610100808354040283529160200191610252565b820191906000526020600020905b81548152906001019060200180831161023557829003601f168201915b5050505050908060020154905083565b600360009054906101000a900473ffffffffffffffffffffffffffffffffffffffff1681565b60015481565b600160038111156102a2576102a1610b84565b5b600660009054906101000a900460ff1660038111156102c4576102c3610b84565b5b0361047b57600360009054906101000a900473ffffffffffffffffffffffffffffffffffffffff1673ffffffffffffffffffffffffffffffffffffffff163373ffffffffffffffffffffffffffffffffffffffff161415806103725750600460008273ffffffffffffffffffffffffffffffffffffffff1673ffffffffffffffffffffffffffffffffffffffff16815260200190815260200160002060010160009054906101000a900460ff165b61047b576001600460008373ffffffffffffffffffffffffffffffffffffffff1673ffffffffffffffffffffffffffffffffffffffff168152602001908152602001600020600001819055506000600460008373ffffffffffffffffffffffffffffffffffffffff1673ffffffffffffffffffffffffffffffffffffffff16815260200190815260200160002060010160006101000a81548160ff0219169083151502179055506001600081548092919061042c90610ca5565b9190505550600a6007546104409190610ced565b42111561047a576002600660006101000a81548160ff0219169083600381111561046d5761046c610b84565b5b0217905550426007819055505b5b50565b600060405180606001604052808481526020018381526020016000815250905060058190806001815401808255809150506001900390600052602060002090600302016000909190919091506000820151816000015560208201518160010190816104e99190610ecd565b5060408201518160020155505060008081548092919061050890610ca5565b9190505550505050565b60038081111561052557610524610b84565b5b600660009054906101000a900460ff16600381111561054757610546610b84565b5b036105dc576000805b6005805490508160ff1610156105d9578160058260ff168154811061057857610577610f9f565b5b90600052602060002090600302016002015411156105c65760058160ff16815481106105a7576105a6610f9f565b5b90600052602060002090600302016002015491508060ff166002819055505b80806105d190610fce565b915050610550565b50505b565b600260038111156105f2576105f1610b84565b5b600660009054906101000a900460ff16600381111561061457610613610b84565b5b0361074d576000600460003373ffffffffffffffffffffffffffffffffffffffff1673ffffffffffffffffffffffffffffffffffffffff16815260200190815260200160002090508060010160009054906101000a900460ff168061068157506005805490508260ff1610155b1561068c575061074d565b60018160010160006101000a81548160ff021916908315150217905550818160010160016101000a81548160ff021916908360ff160217905550806000015460058360ff16815481106106e2576106e1610f9f565b5b906000526020600020906003020160020160008282546107029190610ced565b92505081905550600a6007546107189190610ced565b42111561074b576003600660006101000a81548160ff0219169083600381111561074557610744610b84565b5b02179055505b505b50565b600660009054906101000a900460ff1681565b60005481565b6000604051905090565b600080fd5b600080fd5b6000819050919050565b6107908161077d565b811461079b57600080fd5b50565b6000813590506107ad81610787565b92915050565b6000602082840312156107c9576107c8610773565b5b60006107d78482850161079e565b91505092915050565b6107e98161077d565b82525050565b600081519050919050565b600082825260208201905092915050565b60005b8381101561082957808201518184015260208101905061080e565b60008484015250505050565b6000601f19601f8301169050919050565b6000610851826107ef565b61085b81856107fa565b935061086b81856020860161080b565b61087481610835565b840191505092915050565b600060608201905061089460008301866107e0565b81810360208301526108a68185610846565b90506108b560408301846107e0565b949350505050565b600073ffffffffffffffffffffffffffffffffffffffff82169050919050565b60006108e8826108bd565b9050919050565b6108f8816108dd565b82525050565b600060208201905061091360008301846108ef565b92915050565b600060208201905061092e60008301846107e0565b92915050565b61093d816108dd565b811461094857600080fd5b50565b60008135905061095a81610934565b92915050565b60006020828403121561097657610975610773565b5b60006109848482850161094b565b91505092915050565b600080fd5b600080fd5b7f4e487b7100000000000000000000000000000000000000000000000000000000600052604160045260246000fd5b6109cf82610835565b810181811067ffffffffffffffff821117156109ee576109ed610997565b5b80604052505050565b6000610a01610769565b9050610a0d82826109c6565b919050565b600067ffffffffffffffff821115610a2d57610a2c610997565b5b610a3682610835565b9050602081019050919050565b82818337600083830152505050565b6000610a65610a6084610a12565b6109f7565b905082815260208101848484011115610a8157610a80610992565b5b610a8c848285610a43565b509392505050565b600082601f830112610aa957610aa861098d565b5b8135610ab9848260208601610a52565b91505092915050565b60008060408385031215610ad957610ad8610773565b5b6000610ae78582860161079e565b925050602083013567ffffffffffffffff811115610b0857610b07610778565b5b610b1485828601610a94565b9150509250929050565b600060ff82169050919050565b610b3481610b1e565b8114610b3f57600080fd5b50565b600081359050610b5181610b2b565b92915050565b600060208284031215610b6d57610b6c610773565b5b6000610b7b84828501610b42565b91505092915050565b7f4e487b7100000000000000000000000000000000000000000000000000000000600052602160045260246000fd5b60048110610bc457610bc3610b84565b5b50565b6000819050610bd582610bb3565b919050565b6000610be582610bc7565b9050919050565b610bf581610bda565b82525050565b6000602082019050610c106000830184610bec565b92915050565b7f4e487b7100000000000000000000000000000000000000000000000000000000600052602260045260246000fd5b60006002820490506001821680610c5d57607f821691505b602082108103610c7057610c6f610c16565b5b50919050565b7f4e487b7100000000000000000000000000000000000000000000000000000000600052601160045260246000fd5b6000610cb08261077d565b91507fffffffffffffffffffffffffffffffffffffffffffffffffffffffffffffffff8203610ce257610ce1610c76565b5b600182019050919050565b6000610cf88261077d565b9150610d038361077d565b9250828201905080821115610d1b57610d1a610c76565b5b92915050565b60008190508160005260206000209050919050565b60006020601f8301049050919050565b600082821b905092915050565b600060088302610d837fffffffffffffffffffffffffffffffffffffffffffffffffffffffffffffffff82610d46565b610d8d8683610d46565b95508019841693508086168417925050509392505050565b6000819050919050565b6000610dca610dc5610dc08461077d565b610da5565b61077d565b9050919050565b6000819050919050565b610de483610daf565b610df8610df082610dd1565b848454610d53565b825550505050565b600090565b610e0d610e00565b610e18818484610ddb565b505050565b5b81811015610e3c57610e31600082610e05565b600181019050610e1e565b5050565b601f821115610e8157610e5281610d21565b610e5b84610d36565b81016020851015610e6a578190505b610e7e610e7685610d36565b830182610e1d565b50505b505050565b600082821c905092915050565b6000610ea460001984600802610e86565b1980831691505092915050565b6000610ebd8383610e93565b9150826002028217905092915050565b610ed6826107ef565b67ffffffffffffffff811115610eef57610eee610997565b5b610ef98254610c45565b610f04828285610e40565b600060209050601f831160018114610f375760008415610f25578287015190505b610f2f8582610eb1565b865550610f97565b601f198416610f4586610d21565b60005b82811015610f6d57848901518255600182019150602085019450602081019050610f48565b86831015610f8a5784890151610f86601f891682610e93565b8355505b6001600288020188555050505b505050505050565b7f4e487b7100000000000000000000000000000000000000000000000000000000600052603260045260246000fd5b6000610fd982610b1e565b915060ff8203610fec57610feb610c76565b5b60018201905091905056fea2646970667358221220bae92f16e9337bd13b1c797547a9f84b8e3a580d30f73738e5d2329392d6948964736f6c63430008130033",
					"opcodes": "PUSH1 0x80 PUSH1 0x40 MSTORE PUSH1 0x0 DUP1 SSTORE PUSH1 0x0 PUSH1 0x1 SSTORE PUSH1 0x0 PUSH1 0x6 PUSH1 0x0 PUSH2 0x100 EXP DUP2 SLOAD DUP2 PUSH1 0xFF MUL NOT AND SWAP1 DUP4 PUSH1 0x3 DUP2 GT ISZERO PUSH2 0x33 JUMPI PUSH2 0x32 PUSH2 0x127 JUMP JUMPDEST JUMPDEST MUL OR SWAP1 SSTORE POP CALLVALUE DUP1 ISZERO PUSH2 0x44 JUMPI PUSH1 0x0 DUP1 REVERT JUMPDEST POP CALLER PUSH1 0x3 PUSH1 0x0 PUSH2 0x100 EXP DUP2 SLOAD DUP2 PUSH20 0xFFFFFFFFFFFFFFFFFFFFFFFFFFFFFFFFFFFFFFFF MUL NOT AND SWAP1 DUP4 PUSH20 0xFFFFFFFFFFFFFFFFFFFFFFFFFFFFFFFFFFFFFFFF AND MUL OR SWAP1 SSTORE POP PUSH1 0x2 PUSH1 0x4 PUSH1 0x0 PUSH1 0x3 PUSH1 0x0 SWAP1 SLOAD SWAP1 PUSH2 0x100 EXP SWAP1 DIV PUSH20 0xFFFFFFFFFFFFFFFFFFFFFFFFFFFFFFFFFFFFFFFF AND PUSH20 0xFFFFFFFFFFFFFFFFFFFFFFFFFFFFFFFFFFFFFFFF AND PUSH20 0xFFFFFFFFFFFFFFFFFFFFFFFFFFFFFFFFFFFFFFFF AND DUP2 MSTORE PUSH1 0x20 ADD SWAP1 DUP2 MSTORE PUSH1 0x20 ADD PUSH1 0x0 KECCAK256 PUSH1 0x0 ADD DUP2 SWAP1 SSTORE POP PUSH1 0x1 PUSH1 0x6 PUSH1 0x0 PUSH2 0x100 EXP DUP2 SLOAD DUP2 PUSH1 0xFF MUL NOT AND SWAP1 DUP4 PUSH1 0x3 DUP2 GT ISZERO PUSH2 0x116 JUMPI PUSH2 0x115 PUSH2 0x127 JUMP JUMPDEST JUMPDEST MUL OR SWAP1 SSTORE POP TIMESTAMP PUSH1 0x7 DUP2 SWAP1 SSTORE POP PUSH2 0x156 JUMP JUMPDEST PUSH32 0x4E487B7100000000000000000000000000000000000000000000000000000000 PUSH1 0x0 MSTORE PUSH1 0x21 PUSH1 0x4 MSTORE PUSH1 0x24 PUSH1 0x0 REVERT JUMPDEST PUSH2 0x102D DUP1 PUSH2 0x165 PUSH1 0x0 CODECOPY PUSH1 0x0 RETURN INVALID PUSH1 0x80 PUSH1 0x40 MSTORE CALLVALUE DUP1 ISZERO PUSH2 0x10 JUMPI PUSH1 0x0 DUP1 REVERT JUMPDEST POP PUSH1 0x4 CALLDATASIZE LT PUSH2 0x93 JUMPI PUSH1 0x0 CALLDATALOAD PUSH1 0xE0 SHR DUP1 PUSH4 0x585CC4C4 GT PUSH2 0x66 JUMPI DUP1 PUSH4 0x585CC4C4 EQ PUSH2 0x122 JUMPI DUP1 PUSH4 0x609FF1BD EQ PUSH2 0x13E JUMPI DUP1 PUSH4 0xB3F98ADC EQ PUSH2 0x148 JUMPI DUP1 PUSH4 0xC040E6B8 EQ PUSH2 0x164 JUMPI DUP1 PUSH4 0xDA35C664 EQ PUSH2 0x182 JUMPI PUSH2 0x93 JUMP JUMPDEST DUP1 PUSH4 0x13CF08B EQ PUSH2 0x98 JUMPI DUP1 PUSH4 0x2E4176CF EQ PUSH2 0xCA JUMPI DUP1 PUSH4 0x2E46FB9A EQ PUSH2 0xE8 JUMPI DUP1 PUSH4 0x4420E486 EQ PUSH2 0x106 JUMPI JUMPDEST PUSH1 0x0 DUP1 REVERT JUMPDEST PUSH2 0xB2 PUSH1 0x4 DUP1 CALLDATASIZE SUB DUP2 ADD SWAP1 PUSH2 0xAD SWAP2 SWAP1 PUSH2 0x7B3 JUMP JUMPDEST PUSH2 0x1A0 JUMP JUMPDEST PUSH1 0x40 MLOAD PUSH2 0xC1 SWAP4 SWAP3 SWAP2 SWAP1 PUSH2 0x87F JUMP JUMPDEST PUSH1 0x40 MLOAD DUP1 SWAP2 SUB SWAP1 RETURN JUMPDEST PUSH2 0xD2 PUSH2 0x262 JUMP JUMPDEST PUSH1 0x40 MLOAD PUSH2 0xDF SWAP2 SWAP1 PUSH2 0x8FE JUMP JUMPDEST PUSH1 0x40 MLOAD DUP1 SWAP2 SUB SWAP1 RETURN JUMPDEST PUSH2 0xF0 PUSH2 0x288 JUMP JUMPDEST PUSH1 0x40 MLOAD PUSH2 0xFD SWAP2 SWAP1 PUSH2 0x919 JUMP JUMPDEST PUSH1 0x40 MLOAD DUP1 SWAP2 SUB SWAP1 RETURN JUMPDEST PUSH2 0x120 PUSH1 0x4 DUP1 CALLDATASIZE SUB DUP2 ADD SWAP1 PUSH2 0x11B SWAP2 SWAP1 PUSH2 0x960 JUMP JUMPDEST PUSH2 0x28E JUMP JUMPDEST STOP JUMPDEST PUSH2 0x13C PUSH1 0x4 DUP1 CALLDATASIZE SUB DUP2 ADD SWAP1 PUSH2 0x137 SWAP2 SWAP1 PUSH2 0xAC2 JUMP JUMPDEST PUSH2 0x47E JUMP JUMPDEST STOP JUMPDEST PUSH2 0x146 PUSH2 0x512 JUMP JUMPDEST STOP JUMPDEST PUSH2 0x162 PUSH1 0x4 DUP1 CALLDATASIZE SUB DUP2 ADD SWAP1 PUSH2 0x15D SWAP2 SWAP1 PUSH2 0xB57 JUMP JUMPDEST PUSH2 0x5DE JUMP JUMPDEST STOP JUMPDEST PUSH2 0x16C PUSH2 0x750 JUMP JUMPDEST PUSH1 0x40 MLOAD PUSH2 0x179 SWAP2 SWAP1 PUSH2 0xBFB JUMP JUMPDEST PUSH1 0x40 MLOAD DUP1 SWAP2 SUB SWAP1 RETURN JUMPDEST PUSH2 0x18A PUSH2 0x763 JUMP JUMPDEST PUSH1 0x40 MLOAD PUSH2 0x197 SWAP2 SWAP1 PUSH2 0x919 JUMP JUMPDEST PUSH1 0x40 MLOAD DUP1 SWAP2 SUB SWAP1 RETURN JUMPDEST PUSH1 0x5 DUP2 DUP2 SLOAD DUP2 LT PUSH2 0x1B0 JUMPI PUSH1 0x0 DUP1 REVERT JUMPDEST SWAP1 PUSH1 0x0 MSTORE PUSH1 0x20 PUSH1 0x0 KECCAK256 SWAP1 PUSH1 0x3 MUL ADD PUSH1 0x0 SWAP2 POP SWAP1 POP DUP1 PUSH1 0x0 ADD SLOAD SWAP1 DUP1 PUSH1 0x1 ADD DUP1 SLOAD PUSH2 0x1D9 SWAP1 PUSH2 0xC45 JUMP JUMPDEST DUP1 PUSH1 0x1F ADD PUSH1 0x20 DUP1 SWAP2 DIV MUL PUSH1 0x20 ADD PUSH1 0x40 MLOAD SWAP1 DUP2 ADD PUSH1 0x40 MSTORE DUP1 SWAP3 SWAP2 SWAP1 DUP2 DUP2 MSTORE PUSH1 0x20 ADD DUP3 DUP1 SLOAD PUSH2 0x205 SWAP1 PUSH2 0xC45 JUMP JUMPDEST DUP1 ISZERO PUSH2 0x252 JUMPI DUP1 PUSH1 0x1F LT PUSH2 0x227 JUMPI PUSH2 0x100 DUP1 DUP4 SLOAD DIV MUL DUP4 MSTORE SWAP2 PUSH1 0x20 ADD SWAP2 PUSH2 0x252 JUMP JUMPDEST DUP3 ADD SWAP2 SWAP1 PUSH1 0x0 MSTORE PUSH1 0x20 PUSH1 0x0 KECCAK256 SWAP1 JUMPDEST DUP2 SLOAD DUP2 MSTORE SWAP1 PUSH1 0x1 ADD SWAP1 PUSH1 0x20 ADD DUP1 DUP4 GT PUSH2 0x235 JUMPI DUP3 SWAP1 SUB PUSH1 0x1F AND DUP3 ADD SWAP2 JUMPDEST POP POP POP POP POP SWAP1 DUP1 PUSH1 0x2 ADD SLOAD SWAP1 POP DUP4 JUMP JUMPDEST PUSH1 0x3 PUSH1 0x0 SWAP1 SLOAD SWAP1 PUSH2 0x100 EXP SWAP1 DIV PUSH20 0xFFFFFFFFFFFFFFFFFFFFFFFFFFFFFFFFFFFFFFFF AND DUP2 JUMP JUMPDEST PUSH1 0x1 SLOAD DUP2 JUMP JUMPDEST PUSH1 0x1 PUSH1 0x3 DUP2 GT ISZERO PUSH2 0x2A2 JUMPI PUSH2 0x2A1 PUSH2 0xB84 JUMP JUMPDEST JUMPDEST PUSH1 0x6 PUSH1 0x0 SWAP1 SLOAD SWAP1 PUSH2 0x100 EXP SWAP1 DIV PUSH1 0xFF AND PUSH1 0x3 DUP2 GT ISZERO PUSH2 0x2C4 JUMPI PUSH2 0x2C3 PUSH2 0xB84 JUMP JUMPDEST JUMPDEST SUB PUSH2 0x47B JUMPI PUSH1 0x3 PUSH1 0x0 SWAP1 SLOAD SWAP1 PUSH2 0x100 EXP SWAP1 DIV PUSH20 0xFFFFFFFFFFFFFFFFFFFFFFFFFFFFFFFFFFFFFFFF AND PUSH20 0xFFFFFFFFFFFFFFFFFFFFFFFFFFFFFFFFFFFFFFFF AND CALLER PUSH20 0xFFFFFFFFFFFFFFFFFFFFFFFFFFFFFFFFFFFFFFFF AND EQ ISZERO DUP1 PUSH2 0x372 JUMPI POP PUSH1 0x4 PUSH1 0x0 DUP3 PUSH20 0xFFFFFFFFFFFFFFFFFFFFFFFFFFFFFFFFFFFFFFFF AND PUSH20 0xFFFFFFFFFFFFFFFFFFFFFFFFFFFFFFFFFFFFFFFF AND DUP2 MSTORE PUSH1 0x20 ADD SWAP1 DUP2 MSTORE PUSH1 0x20 ADD PUSH1 0x0 KECCAK256 PUSH1 0x1 ADD PUSH1 0x0 SWAP1 SLOAD SWAP1 PUSH2 0x100 EXP SWAP1 DIV PUSH1 0xFF AND JUMPDEST PUSH2 0x47B JUMPI PUSH1 0x1 PUSH1 0x4 PUSH1 0x0 DUP4 PUSH20 0xFFFFFFFFFFFFFFFFFFFFFFFFFFFFFFFFFFFFFFFF AND PUSH20 0xFFFFFFFFFFFFFFFFFFFFFFFFFFFFFFFFFFFFFFFF AND DUP2 MSTORE PUSH1 0x20 ADD SWAP1 DUP2 MSTORE PUSH1 0x20 ADD PUSH1 0x0 KECCAK256 PUSH1 0x0 ADD DUP2 SWAP1 SSTORE POP PUSH1 0x0 PUSH1 0x4 PUSH1 0x0 DUP4 PUSH20 0xFFFFFFFFFFFFFFFFFFFFFFFFFFFFFFFFFFFFFFFF AND PUSH20 0xFFFFFFFFFFFFFFFFFFFFFFFFFFFFFFFFFFFFFFFF AND DUP2 MSTORE PUSH1 0x20 ADD SWAP1 DUP2 MSTORE PUSH1 0x20 ADD PUSH1 0x0 KECCAK256 PUSH1 0x1 ADD PUSH1 0x0 PUSH2 0x100 EXP DUP2 SLOAD DUP2 PUSH1 0xFF MUL NOT AND SWAP1 DUP4 ISZERO ISZERO MUL OR SWAP1 SSTORE POP PUSH1 0x1 PUSH1 0x0 DUP2 SLOAD DUP1 SWAP3 SWAP2 SWAP1 PUSH2 0x42C SWAP1 PUSH2 0xCA5 JUMP JUMPDEST SWAP2 SWAP1 POP SSTORE POP PUSH1 0xA PUSH1 0x7 SLOAD PUSH2 0x440 SWAP2 SWAP1 PUSH2 0xCED JUMP JUMPDEST TIMESTAMP GT ISZERO PUSH2 0x47A JUMPI PUSH1 0x2 PUSH1 0x6 PUSH1 0x0 PUSH2 0x100 EXP DUP2 SLOAD DUP2 PUSH1 0xFF MUL NOT AND SWAP1 DUP4 PUSH1 0x3 DUP2 GT ISZERO PUSH2 0x46D JUMPI PUSH2 0x46C PUSH2 0xB84 JUMP JUMPDEST JUMPDEST MUL OR SWAP1 SSTORE POP TIMESTAMP PUSH1 0x7 DUP2 SWAP1 SSTORE POP JUMPDEST JUMPDEST POP JUMP JUMPDEST PUSH1 0x0 PUSH1 0x40 MLOAD DUP1 PUSH1 0x60 ADD PUSH1 0x40 MSTORE DUP1 DUP5 DUP2 MSTORE PUSH1 0x20 ADD DUP4 DUP2 MSTORE PUSH1 0x20 ADD PUSH1 0x0 DUP2 MSTORE POP SWAP1 POP PUSH1 0x5 DUP2 SWAP1 DUP1 PUSH1 0x1 DUP2 SLOAD ADD DUP1 DUP3 SSTORE DUP1 SWAP2 POP POP PUSH1 0x1 SWAP1 SUB SWAP1 PUSH1 0x0 MSTORE PUSH1 0x20 PUSH1 0x0 KECCAK256 SWAP1 PUSH1 0x3 MUL ADD PUSH1 0x0 SWAP1 SWAP2 SWAP1 SWAP2 SWAP1 SWAP2 POP PUSH1 0x0 DUP3 ADD MLOAD DUP2 PUSH1 0x0 ADD SSTORE PUSH1 0x20 DUP3 ADD MLOAD DUP2 PUSH1 0x1 ADD SWAP1 DUP2 PUSH2 0x4E9 SWAP2 SWAP1 PUSH2 0xECD JUMP JUMPDEST POP PUSH1 0x40 DUP3 ADD MLOAD DUP2 PUSH1 0x2 ADD SSTORE POP POP PUSH1 0x0 DUP1 DUP2 SLOAD DUP1 SWAP3 SWAP2 SWAP1 PUSH2 0x508 SWAP1 PUSH2 0xCA5 JUMP JUMPDEST SWAP2 SWAP1 POP SSTORE POP POP POP POP JUMP JUMPDEST PUSH1 0x3 DUP1 DUP2 GT ISZERO PUSH2 0x525 JUMPI PUSH2 0x524 PUSH2 0xB84 JUMP JUMPDEST JUMPDEST PUSH1 0x6 PUSH1 0x0 SWAP1 SLOAD SWAP1 PUSH2 0x100 EXP SWAP1 DIV PUSH1 0xFF AND PUSH1 0x3 DUP2 GT ISZERO PUSH2 0x547 JUMPI PUSH2 0x546 PUSH2 0xB84 JUMP JUMPDEST JUMPDEST SUB PUSH2 0x5DC JUMPI PUSH1 0x0 DUP1 JUMPDEST PUSH1 0x5 DUP1 SLOAD SWAP1 POP DUP2 PUSH1 0xFF AND LT ISZERO PUSH2 0x5D9 JUMPI DUP2 PUSH1 0x5 DUP3 PUSH1 0xFF AND DUP2 SLOAD DUP2 LT PUSH2 0x578 JUMPI PUSH2 0x577 PUSH2 0xF9F JUMP JUMPDEST JUMPDEST SWAP1 PUSH1 0x0 MSTORE PUSH1 0x20 PUSH1 0x0 KECCAK256 SWAP1 PUSH1 0x3 MUL ADD PUSH1 0x2 ADD SLOAD GT ISZERO PUSH2 0x5C6 JUMPI PUSH1 0x5 DUP2 PUSH1 0xFF AND DUP2 SLOAD DUP2 LT PUSH2 0x5A7 JUMPI PUSH2 0x5A6 PUSH2 0xF9F JUMP JUMPDEST JUMPDEST SWAP1 PUSH1 0x0 MSTORE PUSH1 0x20 PUSH1 0x0 KECCAK256 SWAP1 PUSH1 0x3 MUL ADD PUSH1 0x2 ADD SLOAD SWAP2 POP DUP1 PUSH1 0xFF AND PUSH1 0x2 DUP2 SWAP1 SSTORE POP JUMPDEST DUP1 DUP1 PUSH2 0x5D1 SWAP1 PUSH2 0xFCE JUMP JUMPDEST SWAP2 POP POP PUSH2 0x550 JUMP JUMPDEST POP POP JUMPDEST JUMP JUMPDEST PUSH1 0x2 PUSH1 0x3 DUP2 GT ISZERO PUSH2 0x5F2 JUMPI PUSH2 0x5F1 PUSH2 0xB84 JUMP JUMPDEST JUMPDEST PUSH1 0x6 PUSH1 0x0 SWAP1 SLOAD SWAP1 PUSH2 0x100 EXP SWAP1 DIV PUSH1 0xFF AND PUSH1 0x3 DUP2 GT ISZERO PUSH2 0x614 JUMPI PUSH2 0x613 PUSH2 0xB84 JUMP JUMPDEST JUMPDEST SUB PUSH2 0x74D JUMPI PUSH1 0x0 PUSH1 0x4 PUSH1 0x0 CALLER PUSH20 0xFFFFFFFFFFFFFFFFFFFFFFFFFFFFFFFFFFFFFFFF AND PUSH20 0xFFFFFFFFFFFFFFFFFFFFFFFFFFFFFFFFFFFFFFFF AND DUP2 MSTORE PUSH1 0x20 ADD SWAP1 DUP2 MSTORE PUSH1 0x20 ADD PUSH1 0x0 KECCAK256 SWAP1 POP DUP1 PUSH1 0x1 ADD PUSH1 0x0 SWAP1 SLOAD SWAP1 PUSH2 0x100 EXP SWAP1 DIV PUSH1 0xFF AND DUP1 PUSH2 0x681 JUMPI POP PUSH1 0x5 DUP1 SLOAD SWAP1 POP DUP3 PUSH1 0xFF AND LT ISZERO JUMPDEST ISZERO PUSH2 0x68C JUMPI POP PUSH2 0x74D JUMP JUMPDEST PUSH1 0x1 DUP2 PUSH1 0x1 ADD PUSH1 0x0 PUSH2 0x100 EXP DUP2 SLOAD DUP2 PUSH1 0xFF MUL NOT AND SWAP1 DUP4 ISZERO ISZERO MUL OR SWAP1 SSTORE POP DUP2 DUP2 PUSH1 0x1 ADD PUSH1 0x1 PUSH2 0x100 EXP DUP2 SLOAD DUP2 PUSH1 0xFF MUL NOT AND SWAP1 DUP4 PUSH1 0xFF AND MUL OR SWAP1 SSTORE POP DUP1 PUSH1 0x0 ADD SLOAD PUSH1 0x5 DUP4 PUSH1 0xFF AND DUP2 SLOAD DUP2 LT PUSH2 0x6E2 JUMPI PUSH2 0x6E1 PUSH2 0xF9F JUMP JUMPDEST JUMPDEST SWAP1 PUSH1 0x0 MSTORE PUSH1 0x20 PUSH1 0x0 KECCAK256 SWAP1 PUSH1 0x3 MUL ADD PUSH1 0x2 ADD PUSH1 0x0 DUP3 DUP3 SLOAD PUSH2 0x702 SWAP2 SWAP1 PUSH2 0xCED JUMP JUMPDEST SWAP3 POP POP DUP2 SWAP1 SSTORE POP PUSH1 0xA PUSH1 0x7 SLOAD PUSH2 0x718 SWAP2 SWAP1 PUSH2 0xCED JUMP JUMPDEST TIMESTAMP GT ISZERO PUSH2 0x74B JUMPI PUSH1 0x3 PUSH1 0x6 PUSH1 0x0 PUSH2 0x100 EXP DUP2 SLOAD DUP2 PUSH1 0xFF MUL NOT AND SWAP1 DUP4 PUSH1 0x3 DUP2 GT ISZERO PUSH2 0x745 JUMPI PUSH2 0x744 PUSH2 0xB84 JUMP JUMPDEST JUMPDEST MUL OR SWAP1 SSTORE POP JUMPDEST POP JUMPDEST POP JUMP JUMPDEST PUSH1 0x6 PUSH1 0x0 SWAP1 SLOAD SWAP1 PUSH2 0x100 EXP SWAP1 DIV PUSH1 0xFF AND DUP2 JUMP JUMPDEST PUSH1 0x0 SLOAD DUP2 JUMP JUMPDEST PUSH1 0x0 PUSH1 0x40 MLOAD SWAP1 POP SWAP1 JUMP JUMPDEST PUSH1 0x0 DUP1 REVERT JUMPDEST PUSH1 0x0 DUP1 REVERT JUMPDEST PUSH1 0x0 DUP2 SWAP1 POP SWAP2 SWAP1 POP JUMP JUMPDEST PUSH2 0x790 DUP2 PUSH2 0x77D JUMP JUMPDEST DUP2 EQ PUSH2 0x79B JUMPI PUSH1 0x0 DUP1 REVERT JUMPDEST POP JUMP JUMPDEST PUSH1 0x0 DUP2 CALLDATALOAD SWAP1 POP PUSH2 0x7AD DUP2 PUSH2 0x787 JUMP JUMPDEST SWAP3 SWAP2 POP POP JUMP JUMPDEST PUSH1 0x0 PUSH1 0x20 DUP3 DUP5 SUB SLT ISZERO PUSH2 0x7C9 JUMPI PUSH2 0x7C8 PUSH2 0x773 JUMP JUMPDEST JUMPDEST PUSH1 0x0 PUSH2 0x7D7 DUP5 DUP3 DUP6 ADD PUSH2 0x79E JUMP JUMPDEST SWAP2 POP POP SWAP3 SWAP2 POP POP JUMP JUMPDEST PUSH2 0x7E9 DUP2 PUSH2 0x77D JUMP JUMPDEST DUP3 MSTORE POP POP JUMP JUMPDEST PUSH1 0x0 DUP2 MLOAD SWAP1 POP SWAP2 SWAP1 POP JUMP JUMPDEST PUSH1 0x0 DUP3 DUP3 MSTORE PUSH1 0x20 DUP3 ADD SWAP1 POP SWAP3 SWAP2 POP POP JUMP JUMPDEST PUSH1 0x0 JUMPDEST DUP4 DUP2 LT ISZERO PUSH2 0x829 JUMPI DUP1 DUP3 ADD MLOAD DUP2 DUP5 ADD MSTORE PUSH1 0x20 DUP2 ADD SWAP1 POP PUSH2 0x80E JUMP JUMPDEST PUSH1 0x0 DUP5 DUP5 ADD MSTORE POP POP POP POP JUMP JUMPDEST PUSH1 0x0 PUSH1 0x1F NOT PUSH1 0x1F DUP4 ADD AND SWAP1 POP SWAP2 SWAP1 POP JUMP JUMPDEST PUSH1 0x0 PUSH2 0x851 DUP3 PUSH2 0x7EF JUMP JUMPDEST PUSH2 0x85B DUP2 DUP6 PUSH2 0x7FA JUMP JUMPDEST SWAP4 POP PUSH2 0x86B DUP2 DUP6 PUSH1 0x20 DUP7 ADD PUSH2 0x80B JUMP JUMPDEST PUSH2 0x874 DUP2 PUSH2 0x835 JUMP JUMPDEST DUP5 ADD SWAP2 POP POP SWAP3 SWAP2 POP POP JUMP JUMPDEST PUSH1 0x0 PUSH1 0x60 DUP3 ADD SWAP1 POP PUSH2 0x894 PUSH1 0x0 DUP4 ADD DUP7 PUSH2 0x7E0 JUMP JUMPDEST DUP2 DUP2 SUB PUSH1 0x20 DUP4 ADD MSTORE PUSH2 0x8A6 DUP2 DUP6 PUSH2 0x846 JUMP JUMPDEST SWAP1 POP PUSH2 0x8B5 PUSH1 0x40 DUP4 ADD DUP5 PUSH2 0x7E0 JUMP JUMPDEST SWAP5 SWAP4 POP POP POP POP JUMP JUMPDEST PUSH1 0x0 PUSH20 0xFFFFFFFFFFFFFFFFFFFFFFFFFFFFFFFFFFFFFFFF DUP3 AND SWAP1 POP SWAP2 SWAP1 POP JUMP JUMPDEST PUSH1 0x0 PUSH2 0x8E8 DUP3 PUSH2 0x8BD JUMP JUMPDEST SWAP1 POP SWAP2 SWAP1 POP JUMP JUMPDEST PUSH2 0x8F8 DUP2 PUSH2 0x8DD JUMP JUMPDEST DUP3 MSTORE POP POP JUMP JUMPDEST PUSH1 0x0 PUSH1 0x20 DUP3 ADD SWAP1 POP PUSH2 0x913 PUSH1 0x0 DUP4 ADD DUP5 PUSH2 0x8EF JUMP JUMPDEST SWAP3 SWAP2 POP POP JUMP JUMPDEST PUSH1 0x0 PUSH1 0x20 DUP3 ADD SWAP1 POP PUSH2 0x92E PUSH1 0x0 DUP4 ADD DUP5 PUSH2 0x7E0 JUMP JUMPDEST SWAP3 SWAP2 POP POP JUMP JUMPDEST PUSH2 0x93D DUP2 PUSH2 0x8DD JUMP JUMPDEST DUP2 EQ PUSH2 0x948 JUMPI PUSH1 0x0 DUP1 REVERT JUMPDEST POP JUMP JUMPDEST PUSH1 0x0 DUP2 CALLDATALOAD SWAP1 POP PUSH2 0x95A DUP2 PUSH2 0x934 JUMP JUMPDEST SWAP3 SWAP2 POP POP JUMP JUMPDEST PUSH1 0x0 PUSH1 0x20 DUP3 DUP5 SUB SLT ISZERO PUSH2 0x976 JUMPI PUSH2 0x975 PUSH2 0x773 JUMP JUMPDEST JUMPDEST PUSH1 0x0 PUSH2 0x984 DUP5 DUP3 DUP6 ADD PUSH2 0x94B JUMP JUMPDEST SWAP2 POP POP SWAP3 SWAP2 POP POP JUMP JUMPDEST PUSH1 0x0 DUP1 REVERT JUMPDEST PUSH1 0x0 DUP1 REVERT JUMPDEST PUSH32 0x4E487B7100000000000000000000000000000000000000000000000000000000 PUSH1 0x0 MSTORE PUSH1 0x41 PUSH1 0x4 MSTORE PUSH1 0x24 PUSH1 0x0 REVERT JUMPDEST PUSH2 0x9CF DUP3 PUSH2 0x835 JUMP JUMPDEST DUP2 ADD DUP2 DUP2 LT PUSH8 0xFFFFFFFFFFFFFFFF DUP3 GT OR ISZERO PUSH2 0x9EE JUMPI PUSH2 0x9ED PUSH2 0x997 JUMP JUMPDEST JUMPDEST DUP1 PUSH1 0x40 MSTORE POP POP POP JUMP JUMPDEST PUSH1 0x0 PUSH2 0xA01 PUSH2 0x769 JUMP JUMPDEST SWAP1 POP PUSH2 0xA0D DUP3 DUP3 PUSH2 0x9C6 JUMP JUMPDEST SWAP2 SWAP1 POP JUMP JUMPDEST PUSH1 0x0 PUSH8 0xFFFFFFFFFFFFFFFF DUP3 GT ISZERO PUSH2 0xA2D JUMPI PUSH2 0xA2C PUSH2 0x997 JUMP JUMPDEST JUMPDEST PUSH2 0xA36 DUP3 PUSH2 0x835 JUMP JUMPDEST SWAP1 POP PUSH1 0x20 DUP2 ADD SWAP1 POP SWAP2 SWAP1 POP JUMP JUMPDEST DUP3 DUP2 DUP4 CALLDATACOPY PUSH1 0x0 DUP4 DUP4 ADD MSTORE POP POP POP JUMP JUMPDEST PUSH1 0x0 PUSH2 0xA65 PUSH2 0xA60 DUP5 PUSH2 0xA12 JUMP JUMPDEST PUSH2 0x9F7 JUMP JUMPDEST SWAP1 POP DUP3 DUP2 MSTORE PUSH1 0x20 DUP2 ADD DUP5 DUP5 DUP5 ADD GT ISZERO PUSH2 0xA81 JUMPI PUSH2 0xA80 PUSH2 0x992 JUMP JUMPDEST JUMPDEST PUSH2 0xA8C DUP5 DUP3 DUP6 PUSH2 0xA43 JUMP JUMPDEST POP SWAP4 SWAP3 POP POP POP JUMP JUMPDEST PUSH1 0x0 DUP3 PUSH1 0x1F DUP4 ADD SLT PUSH2 0xAA9 JUMPI PUSH2 0xAA8 PUSH2 0x98D JUMP JUMPDEST JUMPDEST DUP2 CALLDATALOAD PUSH2 0xAB9 DUP5 DUP3 PUSH1 0x20 DUP7 ADD PUSH2 0xA52 JUMP JUMPDEST SWAP2 POP POP SWAP3 SWAP2 POP POP JUMP JUMPDEST PUSH1 0x0 DUP1 PUSH1 0x40 DUP4 DUP6 SUB SLT ISZERO PUSH2 0xAD9 JUMPI PUSH2 0xAD8 PUSH2 0x773 JUMP JUMPDEST JUMPDEST PUSH1 0x0 PUSH2 0xAE7 DUP6 DUP3 DUP7 ADD PUSH2 0x79E JUMP JUMPDEST SWAP3 POP POP PUSH1 0x20 DUP4 ADD CALLDATALOAD PUSH8 0xFFFFFFFFFFFFFFFF DUP2 GT ISZERO PUSH2 0xB08 JUMPI PUSH2 0xB07 PUSH2 0x778 JUMP JUMPDEST JUMPDEST PUSH2 0xB14 DUP6 DUP3 DUP7 ADD PUSH2 0xA94 JUMP JUMPDEST SWAP2 POP POP SWAP3 POP SWAP3 SWAP1 POP JUMP JUMPDEST PUSH1 0x0 PUSH1 0xFF DUP3 AND SWAP1 POP SWAP2 SWAP1 POP JUMP JUMPDEST PUSH2 0xB34 DUP2 PUSH2 0xB1E JUMP JUMPDEST DUP2 EQ PUSH2 0xB3F JUMPI PUSH1 0x0 DUP1 REVERT JUMPDEST POP JUMP JUMPDEST PUSH1 0x0 DUP2 CALLDATALOAD SWAP1 POP PUSH2 0xB51 DUP2 PUSH2 0xB2B JUMP JUMPDEST SWAP3 SWAP2 POP POP JUMP JUMPDEST PUSH1 0x0 PUSH1 0x20 DUP3 DUP5 SUB SLT ISZERO PUSH2 0xB6D JUMPI PUSH2 0xB6C PUSH2 0x773 JUMP JUMPDEST JUMPDEST PUSH1 0x0 PUSH2 0xB7B DUP5 DUP3 DUP6 ADD PUSH2 0xB42 JUMP JUMPDEST SWAP2 POP POP SWAP3 SWAP2 POP POP JUMP JUMPDEST PUSH32 0x4E487B7100000000000000000000000000000000000000000000000000000000 PUSH1 0x0 MSTORE PUSH1 0x21 PUSH1 0x4 MSTORE PUSH1 0x24 PUSH1 0x0 REVERT JUMPDEST PUSH1 0x4 DUP2 LT PUSH2 0xBC4 JUMPI PUSH2 0xBC3 PUSH2 0xB84 JUMP JUMPDEST JUMPDEST POP JUMP JUMPDEST PUSH1 0x0 DUP2 SWAP1 POP PUSH2 0xBD5 DUP3 PUSH2 0xBB3 JUMP JUMPDEST SWAP2 SWAP1 POP JUMP JUMPDEST PUSH1 0x0 PUSH2 0xBE5 DUP3 PUSH2 0xBC7 JUMP JUMPDEST SWAP1 POP SWAP2 SWAP1 POP JUMP JUMPDEST PUSH2 0xBF5 DUP2 PUSH2 0xBDA JUMP JUMPDEST DUP3 MSTORE POP POP JUMP JUMPDEST PUSH1 0x0 PUSH1 0x20 DUP3 ADD SWAP1 POP PUSH2 0xC10 PUSH1 0x0 DUP4 ADD DUP5 PUSH2 0xBEC JUMP JUMPDEST SWAP3 SWAP2 POP POP JUMP JUMPDEST PUSH32 0x4E487B7100000000000000000000000000000000000000000000000000000000 PUSH1 0x0 MSTORE PUSH1 0x22 PUSH1 0x4 MSTORE PUSH1 0x24 PUSH1 0x0 REVERT JUMPDEST PUSH1 0x0 PUSH1 0x2 DUP3 DIV SWAP1 POP PUSH1 0x1 DUP3 AND DUP1 PUSH2 0xC5D JUMPI PUSH1 0x7F DUP3 AND SWAP2 POP JUMPDEST PUSH1 0x20 DUP3 LT DUP2 SUB PUSH2 0xC70 JUMPI PUSH2 0xC6F PUSH2 0xC16 JUMP JUMPDEST JUMPDEST POP SWAP2 SWAP1 POP JUMP JUMPDEST PUSH32 0x4E487B7100000000000000000000000000000000000000000000000000000000 PUSH1 0x0 MSTORE PUSH1 0x11 PUSH1 0x4 MSTORE PUSH1 0x24 PUSH1 0x0 REVERT JUMPDEST PUSH1 0x0 PUSH2 0xCB0 DUP3 PUSH2 0x77D JUMP JUMPDEST SWAP2 POP PUSH32 0xFFFFFFFFFFFFFFFFFFFFFFFFFFFFFFFFFFFFFFFFFFFFFFFFFFFFFFFFFFFFFFFF DUP3 SUB PUSH2 0xCE2 JUMPI PUSH2 0xCE1 PUSH2 0xC76 JUMP JUMPDEST JUMPDEST PUSH1 0x1 DUP3 ADD SWAP1 POP SWAP2 SWAP1 POP JUMP JUMPDEST PUSH1 0x0 PUSH2 0xCF8 DUP3 PUSH2 0x77D JUMP JUMPDEST SWAP2 POP PUSH2 0xD03 DUP4 PUSH2 0x77D JUMP JUMPDEST SWAP3 POP DUP3 DUP3 ADD SWAP1 POP DUP1 DUP3 GT ISZERO PUSH2 0xD1B JUMPI PUSH2 0xD1A PUSH2 0xC76 JUMP JUMPDEST JUMPDEST SWAP3 SWAP2 POP POP JUMP JUMPDEST PUSH1 0x0 DUP2 SWAP1 POP DUP2 PUSH1 0x0 MSTORE PUSH1 0x20 PUSH1 0x0 KECCAK256 SWAP1 POP SWAP2 SWAP1 POP JUMP JUMPDEST PUSH1 0x0 PUSH1 0x20 PUSH1 0x1F DUP4 ADD DIV SWAP1 POP SWAP2 SWAP1 POP JUMP JUMPDEST PUSH1 0x0 DUP3 DUP3 SHL SWAP1 POP SWAP3 SWAP2 POP POP JUMP JUMPDEST PUSH1 0x0 PUSH1 0x8 DUP4 MUL PUSH2 0xD83 PUSH32 0xFFFFFFFFFFFFFFFFFFFFFFFFFFFFFFFFFFFFFFFFFFFFFFFFFFFFFFFFFFFFFFFF DUP3 PUSH2 0xD46 JUMP JUMPDEST PUSH2 0xD8D DUP7 DUP4 PUSH2 0xD46 JUMP JUMPDEST SWAP6 POP DUP1 NOT DUP5 AND SWAP4 POP DUP1 DUP7 AND DUP5 OR SWAP3 POP POP POP SWAP4 SWAP3 POP POP POP JUMP JUMPDEST PUSH1 0x0 DUP2 SWAP1 POP SWAP2 SWAP1 POP JUMP JUMPDEST PUSH1 0x0 PUSH2 0xDCA PUSH2 0xDC5 PUSH2 0xDC0 DUP5 PUSH2 0x77D JUMP JUMPDEST PUSH2 0xDA5 JUMP JUMPDEST PUSH2 0x77D JUMP JUMPDEST SWAP1 POP SWAP2 SWAP1 POP JUMP JUMPDEST PUSH1 0x0 DUP2 SWAP1 POP SWAP2 SWAP1 POP JUMP JUMPDEST PUSH2 0xDE4 DUP4 PUSH2 0xDAF JUMP JUMPDEST PUSH2 0xDF8 PUSH2 0xDF0 DUP3 PUSH2 0xDD1 JUMP JUMPDEST DUP5 DUP5 SLOAD PUSH2 0xD53 JUMP JUMPDEST DUP3 SSTORE POP POP POP POP JUMP JUMPDEST PUSH1 0x0 SWAP1 JUMP JUMPDEST PUSH2 0xE0D PUSH2 0xE00 JUMP JUMPDEST PUSH2 0xE18 DUP2 DUP5 DUP5 PUSH2 0xDDB JUMP JUMPDEST POP POP POP JUMP JUMPDEST JUMPDEST DUP2 DUP2 LT ISZERO PUSH2 0xE3C JUMPI PUSH2 0xE31 PUSH1 0x0 DUP3 PUSH2 0xE05 JUMP JUMPDEST PUSH1 0x1 DUP2 ADD SWAP1 POP PUSH2 0xE1E JUMP JUMPDEST POP POP JUMP JUMPDEST PUSH1 0x1F DUP3 GT ISZERO PUSH2 0xE81 JUMPI PUSH2 0xE52 DUP2 PUSH2 0xD21 JUMP JUMPDEST PUSH2 0xE5B DUP5 PUSH2 0xD36 JUMP JUMPDEST DUP2 ADD PUSH1 0x20 DUP6 LT ISZERO PUSH2 0xE6A JUMPI DUP2 SWAP1 POP JUMPDEST PUSH2 0xE7E PUSH2 0xE76 DUP6 PUSH2 0xD36 JUMP JUMPDEST DUP4 ADD DUP3 PUSH2 0xE1D JUMP JUMPDEST POP POP JUMPDEST POP POP POP JUMP JUMPDEST PUSH1 0x0 DUP3 DUP3 SHR SWAP1 POP SWAP3 SWAP2 POP POP JUMP JUMPDEST PUSH1 0x0 PUSH2 0xEA4 PUSH1 0x0 NOT DUP5 PUSH1 0x8 MUL PUSH2 0xE86 JUMP JUMPDEST NOT DUP1 DUP4 AND SWAP2 POP POP SWAP3 SWAP2 POP POP JUMP JUMPDEST PUSH1 0x0 PUSH2 0xEBD DUP4 DUP4 PUSH2 0xE93 JUMP JUMPDEST SWAP2 POP DUP3 PUSH1 0x2 MUL DUP3 OR SWAP1 POP SWAP3 SWAP2 POP POP JUMP JUMPDEST PUSH2 0xED6 DUP3 PUSH2 0x7EF JUMP JUMPDEST PUSH8 0xFFFFFFFFFFFFFFFF DUP2 GT ISZERO PUSH2 0xEEF JUMPI PUSH2 0xEEE PUSH2 0x997 JUMP JUMPDEST JUMPDEST PUSH2 0xEF9 DUP3 SLOAD PUSH2 0xC45 JUMP JUMPDEST PUSH2 0xF04 DUP3 DUP3 DUP6 PUSH2 0xE40 JUMP JUMPDEST PUSH1 0x0 PUSH1 0x20 SWAP1 POP PUSH1 0x1F DUP4 GT PUSH1 0x1 DUP2 EQ PUSH2 0xF37 JUMPI PUSH1 0x0 DUP5 ISZERO PUSH2 0xF25 JUMPI DUP3 DUP8 ADD MLOAD SWAP1 POP JUMPDEST PUSH2 0xF2F DUP6 DUP3 PUSH2 0xEB1 JUMP JUMPDEST DUP7 SSTORE POP PUSH2 0xF97 JUMP JUMPDEST PUSH1 0x1F NOT DUP5 AND PUSH2 0xF45 DUP7 PUSH2 0xD21 JUMP JUMPDEST PUSH1 0x0 JUMPDEST DUP3 DUP2 LT ISZERO PUSH2 0xF6D JUMPI DUP5 DUP10 ADD MLOAD DUP3 SSTORE PUSH1 0x1 DUP3 ADD SWAP2 POP PUSH1 0x20 DUP6 ADD SWAP5 POP PUSH1 0x20 DUP2 ADD SWAP1 POP PUSH2 0xF48 JUMP JUMPDEST DUP7 DUP4 LT ISZERO PUSH2 0xF8A JUMPI DUP5 DUP10 ADD MLOAD PUSH2 0xF86 PUSH1 0x1F DUP10 AND DUP3 PUSH2 0xE93 JUMP JUMPDEST DUP4 SSTORE POP JUMPDEST PUSH1 0x1 PUSH1 0x2 DUP9 MUL ADD DUP9 SSTORE POP POP POP JUMPDEST POP POP POP POP POP POP JUMP JUMPDEST PUSH32 0x4E487B7100000000000000000000000000000000000000000000000000000000 PUSH1 0x0 MSTORE PUSH1 0x32 PUSH1 0x4 MSTORE PUSH1 0x24 PUSH1 0x0 REVERT JUMPDEST PUSH1 0x0 PUSH2 0xFD9 DUP3 PUSH2 0xB1E JUMP JUMPDEST SWAP2 POP PUSH1 0xFF DUP3 SUB PUSH2 0xFEC JUMPI PUSH2 0xFEB PUSH2 0xC76 JUMP JUMPDEST JUMPDEST PUSH1 0x1 DUP3 ADD SWAP1 POP SWAP2 SWAP1 POP JUMP INVALID LOG2 PUSH5 0x6970667358 0x22 SLT KECCAK256 0xBA 0xE9 0x2F AND 0xE9 CALLER PUSH28 0xD13B1C797547A9F84B8E3A580D30F73738E5D2329392D6948964736F PUSH13 0x63430008130033000000000000 "
				},
				"gasEstimates": {
					"creation": {
						"codeDepositCost": "828200",
						"executionCost": "130187",
						"totalCost": "958387"
					},
					"external": {
						"VoterCount()": "2474",
						"addProposalDetail(uint256,string)": "infinite",
						"chairperson()": "2537",
						"proposalCount()": "2517",
						"proposals(uint256)": "infinite",
						"register(address)": "infinite",
						"stage()": "2626",
						"vote(uint8)": "infinite",
						"winningProposal()": "infinite"
					}
				},
				"methodIdentifiers": {
					"VoterCount()": "2e46fb9a",
					"addProposalDetail(uint256,string)": "585cc4c4",
					"chairperson()": "2e4176cf",
					"proposalCount()": "da35c664",
					"proposals(uint256)": "013cf08b",
					"register(address)": "4420e486",
					"stage()": "c040e6b8",
					"vote(uint8)": "b3f98adc",
					"winningProposal()": "609ff1bd"
				}
			},
			"storageLayout": {
				"storage": [
					{
						"astId": 18,
						"contract": "bc-lab7/E3BallotWithStage.sol:Ballot",
						"label": "proposalCount",
						"offset": 0,
						"slot": "0",
						"type": "t_uint256"
					},
					{
						"astId": 21,
						"contract": "bc-lab7/E3BallotWithStage.sol:Ballot",
						"label": "VoterCount",
						"offset": 0,
						"slot": "1",
						"type": "t_uint256"
					},
					{
						"astId": 23,
						"contract": "bc-lab7/E3BallotWithStage.sol:Ballot",
						"label": "finalWinningProposal",
						"offset": 0,
						"slot": "2",
						"type": "t_uint256"
					},
					{
						"astId": 25,
						"contract": "bc-lab7/E3BallotWithStage.sol:Ballot",
						"label": "chairperson",
						"offset": 0,
						"slot": "3",
						"type": "t_address"
					},
					{
						"astId": 30,
						"contract": "bc-lab7/E3BallotWithStage.sol:Ballot",
						"label": "voters",
						"offset": 0,
						"slot": "4",
						"type": "t_mapping(t_address,t_struct(Voter)8_storage)"
					},
					{
						"astId": 34,
						"contract": "bc-lab7/E3BallotWithStage.sol:Ballot",
						"label": "proposals",
						"offset": 0,
						"slot": "5",
						"type": "t_array(t_struct(Proposal)15_storage)dyn_storage"
					},
					{
						"astId": 44,
						"contract": "bc-lab7/E3BallotWithStage.sol:Ballot",
						"label": "stage",
						"offset": 0,
						"slot": "6",
						"type": "t_enum(Stage)39"
					},
					{
						"astId": 46,
						"contract": "bc-lab7/E3BallotWithStage.sol:Ballot",
						"label": "startTime",
						"offset": 0,
						"slot": "7",
						"type": "t_uint256"
					}
				],
				"types": {
					"t_address": {
						"encoding": "inplace",
						"label": "address",
						"numberOfBytes": "20"
					},
					"t_array(t_struct(Proposal)15_storage)dyn_storage": {
						"base": "t_struct(Proposal)15_storage",
						"encoding": "dynamic_array",
						"label": "struct Ballot.Proposal[]",
						"numberOfBytes": "32"
					},
					"t_bool": {
						"encoding": "inplace",
						"label": "bool",
						"numberOfBytes": "1"
					},
					"t_enum(Stage)39": {
						"encoding": "inplace",
						"label": "enum Ballot.Stage",
						"numberOfBytes": "1"
					},
					"t_mapping(t_address,t_struct(Voter)8_storage)": {
						"encoding": "mapping",
						"key": "t_address",
						"label": "mapping(address => struct Ballot.Voter)",
						"numberOfBytes": "32",
						"value": "t_struct(Voter)8_storage"
					},
					"t_string_storage": {
						"encoding": "bytes",
						"label": "string",
						"numberOfBytes": "32"
					},
					"t_struct(Proposal)15_storage": {
						"encoding": "inplace",
						"label": "struct Ballot.Proposal",
						"members": [
							{
								"astId": 10,
								"contract": "bc-lab7/E3BallotWithStage.sol:Ballot",
								"label": "proposalID",
								"offset": 0,
								"slot": "0",
								"type": "t_uint256"
							},
							{
								"astId": 12,
								"contract": "bc-lab7/E3BallotWithStage.sol:Ballot",
								"label": "topic",
								"offset": 0,
								"slot": "1",
								"type": "t_string_storage"
							},
							{
								"astId": 14,
								"contract": "bc-lab7/E3BallotWithStage.sol:Ballot",
								"label": "voteCount",
								"offset": 0,
								"slot": "2",
								"type": "t_uint256"
							}
						],
						"numberOfBytes": "96"
					},
					"t_struct(Voter)8_storage": {
						"encoding": "inplace",
						"label": "struct Ballot.Voter",
						"members": [
							{
								"astId": 3,
								"contract": "bc-lab7/E3BallotWithStage.sol:Ballot",
								"label": "weight",
								"offset": 0,
								"slot": "0",
								"type": "t_uint256"
							},
							{
								"astId": 5,
								"contract": "bc-lab7/E3BallotWithStage.sol:Ballot",
								"label": "voted",
								"offset": 0,
								"slot": "1",
								"type": "t_bool"
							},
							{
								"astId": 7,
								"contract": "bc-lab7/E3BallotWithStage.sol:Ballot",
								"label": "vote",
								"offset": 1,
								"slot": "1",
								"type": "t_uint8"
							}
						],
						"numberOfBytes": "64"
					},
					"t_uint256": {
						"encoding": "inplace",
						"label": "uint256",
						"numberOfBytes": "32"
					},
					"t_uint8": {
						"encoding": "inplace",
						"label": "uint8",
						"numberOfBytes": "1"
					}
				}
			},
			"userdoc": {
				"kind": "user",
				"methods": {
					"vote(uint8)": {
						"notice": "Give a single vote to proposal $(toProposal)."
					}
				},
				"version": 1
			}
		}
	}
}