{
	"bc-lab7/E1BallotBasic.sol": {
		"Ballot": {
			"abi": [
				{
					"inputs": [],
					"stateMutability": "nonpayable",
					"type": "constructor"
				},
				{
					"inputs": [],
					"name": "VoterCount",
					"outputs": [
						{
							"internalType": "uint256",
							"name": "",
							"type": "uint256"
						}
					],
					"stateMutability": "view",
					"type": "function"
				},
				{
					"inputs": [
						{
							"internalType": "uint256",
							"name": "_id",
							"type": "uint256"
						},
						{
							"internalType": "string",
							"name": "_subjectProposal",
							"type": "string"
						}
					],
					"name": "addProposalDetail",
					"outputs": [],
					"stateMutability": "nonpayable",
					"type": "function"
				},
				{
					"inputs": [],
					"name": "chairperson",
					"outputs": [
						{
							"internalType": "address",
							"name": "",
							"type": "address"
						}
					],
					"stateMutability": "view",
					"type": "function"
				},
				{
					"inputs": [],
					"name": "proposalCount",
					"outputs": [
						{
							"internalType": "uint256",
							"name": "",
							"type": "uint256"
						}
					],
					"stateMutability": "view",
					"type": "function"
				},
				{
					"inputs": [
						{
							"internalType": "uint256",
							"name": "",
							"type": "uint256"
						}
					],
					"name": "proposals",
					"outputs": [
						{
							"internalType": "uint256",
							"name": "proposalID",
							"type": "uint256"
						},
						{
							"internalType": "string",
							"name": "topic",
							"type": "string"
						},
						{
							"internalType": "uint256",
							"name": "voteCount",
							"type": "uint256"
						}
					],
					"stateMutability": "view",
					"type": "function"
				},
				{
					"inputs": [
						{
							"internalType": "address",
							"name": "toVoter",
							"type": "address"
						}
					],
					"name": "register",
					"outputs": [],
					"stateMutability": "nonpayable",
					"type": "function"
				},
				{
					"inputs": [
						{
							"internalType": "uint8",
							"name": "toProposal",
							"type": "uint8"
						}
					],
					"name": "vote",
					"outputs": [],
					"stateMutability": "nonpayable",
					"type": "function"
				},
				{
					"inputs": [],
					"name": "winningProposal",
					"outputs": [
						{
							"internalType": "uint8",
							"name": "_winningProposal",
							"type": "uint8"
						}
					],
					"stateMutability": "view",
					"type": "function"
				}
			],
			"devdoc": {
				"kind": "dev",
				"methods": {},
				"version": 1
			},
			"evm": {
				"assembly": "    /* \"bc-lab7/E1BallotBasic.sol\":57:1979  contract Ballot {\r... */\n  mstore(0x40, 0x80)\n    /* \"bc-lab7/E1BallotBasic.sol\":298:299  0 */\n  0x00\n    /* \"bc-lab7/E1BallotBasic.sol\":272:299  uint public proposalCount=0 */\n  dup1\n  sstore\n    /* \"bc-lab7/E1BallotBasic.sol\":329:330  0 */\n  0x00\n    /* \"bc-lab7/E1BallotBasic.sol\":306:330  uint public VoterCount=0 */\n  0x01\n  sstore\n    /* \"bc-lab7/E1BallotBasic.sol\":517:615  constructor (){\r... */\n  callvalue\n  dup1\n  iszero\n  tag_1\n  jumpi\n  0x00\n  dup1\n  revert\ntag_1:\n  pop\n    /* \"bc-lab7/E1BallotBasic.sol\":556:566  msg.sender */\n  caller\n    /* \"bc-lab7/E1BallotBasic.sol\":542:553  chairperson */\n  0x02\n  0x00\n    /* \"bc-lab7/E1BallotBasic.sol\":542:566  chairperson = msg.sender */\n  0x0100\n  exp\n  dup2\n  sload\n  dup2\n  0xffffffffffffffffffffffffffffffffffffffff\n  mul\n  not\n  and\n  swap1\n  dup4\n  0xffffffffffffffffffffffffffffffffffffffff\n  and\n  mul\n  or\n  swap1\n  sstore\n  pop\n    /* \"bc-lab7/E1BallotBasic.sol\":606:607  2 */\n  0x02\n    /* \"bc-lab7/E1BallotBasic.sol\":577:583  voters */\n  0x03\n    /* \"bc-lab7/E1BallotBasic.sol\":577:596  voters[chairperson] */\n  0x00\n    /* \"bc-lab7/E1BallotBasic.sol\":584:595  chairperson */\n  0x02\n  0x00\n  swap1\n  sload\n  swap1\n  0x0100\n  exp\n  swap1\n  div\n  0xffffffffffffffffffffffffffffffffffffffff\n  and\n    /* \"bc-lab7/E1BallotBasic.sol\":577:596  voters[chairperson] */\n  0xffffffffffffffffffffffffffffffffffffffff\n  and\n  0xffffffffffffffffffffffffffffffffffffffff\n  and\n  dup2\n  mstore\n  0x20\n  add\n  swap1\n  dup2\n  mstore\n  0x20\n  add\n  0x00\n  keccak256\n    /* \"bc-lab7/E1BallotBasic.sol\":577:603  voters[chairperson].weight */\n  0x00\n  add\n    /* \"bc-lab7/E1BallotBasic.sol\":577:607  voters[chairperson].weight = 2 */\n  dup2\n  swap1\n  sstore\n  pop\n    /* \"bc-lab7/E1BallotBasic.sol\":57:1979  contract Ballot {\r... */\n  dataSize(sub_0)\n  dup1\n  dataOffset(sub_0)\n  0x00\n  codecopy\n  0x00\n  return\nstop\n\nsub_0: assembly {\n        /* \"bc-lab7/E1BallotBasic.sol\":57:1979  contract Ballot {\r... */\n      mstore(0x40, 0x80)\n      callvalue\n      dup1\n      iszero\n      tag_1\n      jumpi\n      0x00\n      dup1\n      revert\n    tag_1:\n      pop\n      jumpi(tag_2, lt(calldatasize, 0x04))\n      shr(0xe0, calldataload(0x00))\n      dup1\n      0x585cc4c4\n      gt\n      tag_11\n      jumpi\n      dup1\n      0x585cc4c4\n      eq\n      tag_7\n      jumpi\n      dup1\n      0x609ff1bd\n      eq\n      tag_8\n      jumpi\n      dup1\n      0xb3f98adc\n      eq\n      tag_9\n      jumpi\n      dup1\n      0xda35c664\n      eq\n      tag_10\n      jumpi\n      jump(tag_2)\n    tag_11:\n      dup1\n      0x013cf08b\n      eq\n      tag_3\n      jumpi\n      dup1\n      0x2e4176cf\n      eq\n      tag_4\n      jumpi\n      dup1\n      0x2e46fb9a\n      eq\n      tag_5\n      jumpi\n      dup1\n      0x4420e486\n      eq\n      tag_6\n      jumpi\n    tag_2:\n      0x00\n      dup1\n      revert\n        /* \"bc-lab7/E1BallotBasic.sol\":477:504  Proposal[] public proposals */\n    tag_3:\n      tag_12\n      0x04\n      dup1\n      calldatasize\n      sub\n      dup2\n      add\n      swap1\n      tag_13\n      swap2\n      swap1\n      tag_14\n      jump\t// in\n    tag_13:\n      tag_15\n      jump\t// in\n    tag_12:\n      mload(0x40)\n      tag_16\n      swap4\n      swap3\n      swap2\n      swap1\n      tag_17\n      jump\t// in\n    tag_16:\n      mload(0x40)\n      dup1\n      swap2\n      sub\n      swap1\n      return\n        /* \"bc-lab7/E1BallotBasic.sol\":337:363  address public chairperson */\n    tag_4:\n      tag_18\n      tag_19\n      jump\t// in\n    tag_18:\n      mload(0x40)\n      tag_20\n      swap2\n      swap1\n      tag_21\n      jump\t// in\n    tag_20:\n      mload(0x40)\n      dup1\n      swap2\n      sub\n      swap1\n      return\n        /* \"bc-lab7/E1BallotBasic.sol\":306:330  uint public VoterCount=0 */\n    tag_5:\n      tag_22\n      tag_23\n      jump\t// in\n    tag_22:\n      mload(0x40)\n      tag_24\n      swap2\n      swap1\n      tag_25\n      jump\t// in\n    tag_24:\n      mload(0x40)\n      dup1\n      swap2\n      sub\n      swap1\n      return\n        /* \"bc-lab7/E1BallotBasic.sol\":1024:1248  function register(address toVoter) public {\r... */\n    tag_6:\n      tag_26\n      0x04\n      dup1\n      calldatasize\n      sub\n      dup2\n      add\n      swap1\n      tag_27\n      swap2\n      swap1\n      tag_28\n      jump\t// in\n    tag_27:\n      tag_29\n      jump\t// in\n    tag_26:\n      stop\n        /* \"bc-lab7/E1BallotBasic.sol\":627:827  function addProposalDetail(uint _id, string memory _subjectProposal) public {\r... */\n    tag_7:\n      tag_30\n      0x04\n      dup1\n      calldatasize\n      sub\n      dup2\n      add\n      swap1\n      tag_31\n      swap2\n      swap1\n      tag_32\n      jump\t// in\n    tag_31:\n      tag_33\n      jump\t// in\n    tag_30:\n      stop\n        /* \"bc-lab7/E1BallotBasic.sol\":1609:1976  function winningProposal() public view returns (uint8 _winningProposal) {\r... */\n    tag_8:\n      tag_34\n      tag_35\n      jump\t// in\n    tag_34:\n      mload(0x40)\n      tag_36\n      swap2\n      swap1\n      tag_37\n      jump\t// in\n    tag_36:\n      mload(0x40)\n      dup1\n      swap2\n      sub\n      swap1\n      return\n        /* \"bc-lab7/E1BallotBasic.sol\":1309:1601  function vote(uint8 toProposal) public {\r... */\n    tag_9:\n      tag_38\n      0x04\n      dup1\n      calldatasize\n      sub\n      dup2\n      add\n      swap1\n      tag_39\n      swap2\n      swap1\n      tag_40\n      jump\t// in\n    tag_39:\n      tag_41\n      jump\t// in\n    tag_38:\n      stop\n        /* \"bc-lab7/E1BallotBasic.sol\":272:299  uint public proposalCount=0 */\n    tag_10:\n      tag_42\n      tag_43\n      jump\t// in\n    tag_42:\n      mload(0x40)\n      tag_44\n      swap2\n      swap1\n      tag_25\n      jump\t// in\n    tag_44:\n      mload(0x40)\n      dup1\n      swap2\n      sub\n      swap1\n      return\n        /* \"bc-lab7/E1BallotBasic.sol\":477:504  Proposal[] public proposals */\n    tag_15:\n      0x04\n      dup2\n      dup2\n      sload\n      dup2\n      lt\n      tag_45\n      jumpi\n      0x00\n      dup1\n      revert\n    tag_45:\n      swap1\n      0x00\n      mstore\n      keccak256(0x00, 0x20)\n      swap1\n      0x03\n      mul\n      add\n      0x00\n      swap2\n      pop\n      swap1\n      pop\n      dup1\n      0x00\n      add\n      sload\n      swap1\n      dup1\n      0x01\n      add\n      dup1\n      sload\n      tag_47\n      swap1\n      tag_48\n      jump\t// in\n    tag_47:\n      dup1\n      0x1f\n      add\n      0x20\n      dup1\n      swap2\n      div\n      mul\n      0x20\n      add\n      mload(0x40)\n      swap1\n      dup2\n      add\n      0x40\n      mstore\n      dup1\n      swap3\n      swap2\n      swap1\n      dup2\n      dup2\n      mstore\n      0x20\n      add\n      dup3\n      dup1\n      sload\n      tag_49\n      swap1\n      tag_48\n      jump\t// in\n    tag_49:\n      dup1\n      iszero\n      tag_50\n      jumpi\n      dup1\n      0x1f\n      lt\n      tag_51\n      jumpi\n      0x0100\n      dup1\n      dup4\n      sload\n      div\n      mul\n      dup4\n      mstore\n      swap2\n      0x20\n      add\n      swap2\n      jump(tag_50)\n    tag_51:\n      dup3\n      add\n      swap2\n      swap1\n      0x00\n      mstore\n      keccak256(0x00, 0x20)\n      swap1\n    tag_52:\n      dup2\n      sload\n      dup2\n      mstore\n      swap1\n      0x01\n      add\n      swap1\n      0x20\n      add\n      dup1\n      dup4\n      gt\n      tag_52\n      jumpi\n      dup3\n      swap1\n      sub\n      0x1f\n      and\n      dup3\n      add\n      swap2\n    tag_50:\n      pop\n      pop\n      pop\n      pop\n      pop\n      swap1\n      dup1\n      0x02\n      add\n      sload\n      swap1\n      pop\n      dup4\n      jump\t// out\n        /* \"bc-lab7/E1BallotBasic.sol\":337:363  address public chairperson */\n    tag_19:\n      0x02\n      0x00\n      swap1\n      sload\n      swap1\n      0x0100\n      exp\n      swap1\n      div\n      0xffffffffffffffffffffffffffffffffffffffff\n      and\n      dup2\n      jump\t// out\n        /* \"bc-lab7/E1BallotBasic.sol\":306:330  uint public VoterCount=0 */\n    tag_23:\n      sload(0x01)\n      dup2\n      jump\t// out\n        /* \"bc-lab7/E1BallotBasic.sol\":1024:1248  function register(address toVoter) public {\r... */\n    tag_29:\n        /* \"bc-lab7/E1BallotBasic.sol\":1095:1106  chairperson */\n      0x02\n      0x00\n      swap1\n      sload\n      swap1\n      0x0100\n      exp\n      swap1\n      div\n      0xffffffffffffffffffffffffffffffffffffffff\n      and\n        /* \"bc-lab7/E1BallotBasic.sol\":1081:1106  msg.sender != chairperson */\n      0xffffffffffffffffffffffffffffffffffffffff\n      and\n        /* \"bc-lab7/E1BallotBasic.sol\":1081:1091  msg.sender */\n      caller\n        /* \"bc-lab7/E1BallotBasic.sol\":1081:1106  msg.sender != chairperson */\n      0xffffffffffffffffffffffffffffffffffffffff\n      and\n      eq\n      iszero\n        /* \"bc-lab7/E1BallotBasic.sol\":1081:1131  msg.sender != chairperson || voters[toVoter].voted */\n      dup1\n      tag_54\n      jumpi\n      pop\n        /* \"bc-lab7/E1BallotBasic.sol\":1110:1116  voters */\n      0x03\n        /* \"bc-lab7/E1BallotBasic.sol\":1110:1125  voters[toVoter] */\n      0x00\n        /* \"bc-lab7/E1BallotBasic.sol\":1117:1124  toVoter */\n      dup3\n        /* \"bc-lab7/E1BallotBasic.sol\":1110:1125  voters[toVoter] */\n      0xffffffffffffffffffffffffffffffffffffffff\n      and\n      0xffffffffffffffffffffffffffffffffffffffff\n      and\n      dup2\n      mstore\n      0x20\n      add\n      swap1\n      dup2\n      mstore\n      0x20\n      add\n      0x00\n      keccak256\n        /* \"bc-lab7/E1BallotBasic.sol\":1110:1131  voters[toVoter].voted */\n      0x01\n      add\n      0x00\n      swap1\n      sload\n      swap1\n      0x0100\n      exp\n      swap1\n      div\n      0xff\n      and\n        /* \"bc-lab7/E1BallotBasic.sol\":1081:1131  msg.sender != chairperson || voters[toVoter].voted */\n    tag_54:\n        /* \"bc-lab7/E1BallotBasic.sol\":1077:1140  if (msg.sender != chairperson || voters[toVoter].voted) return; */\n      iszero\n      tag_55\n      jumpi\n        /* \"bc-lab7/E1BallotBasic.sol\":1133:1140  return; */\n      jump(tag_53)\n        /* \"bc-lab7/E1BallotBasic.sol\":1077:1140  if (msg.sender != chairperson || voters[toVoter].voted) return; */\n    tag_55:\n        /* \"bc-lab7/E1BallotBasic.sol\":1175:1176  1 */\n      0x01\n        /* \"bc-lab7/E1BallotBasic.sol\":1150:1156  voters */\n      0x03\n        /* \"bc-lab7/E1BallotBasic.sol\":1150:1165  voters[toVoter] */\n      0x00\n        /* \"bc-lab7/E1BallotBasic.sol\":1157:1164  toVoter */\n      dup4\n        /* \"bc-lab7/E1BallotBasic.sol\":1150:1165  voters[toVoter] */\n      0xffffffffffffffffffffffffffffffffffffffff\n      and\n      0xffffffffffffffffffffffffffffffffffffffff\n      and\n      dup2\n      mstore\n      0x20\n      add\n      swap1\n      dup2\n      mstore\n      0x20\n      add\n      0x00\n      keccak256\n        /* \"bc-lab7/E1BallotBasic.sol\":1150:1172  voters[toVoter].weight */\n      0x00\n      add\n        /* \"bc-lab7/E1BallotBasic.sol\":1150:1176  voters[toVoter].weight = 1 */\n      dup2\n      swap1\n      sstore\n      pop\n        /* \"bc-lab7/E1BallotBasic.sol\":1211:1216  false */\n      0x00\n        /* \"bc-lab7/E1BallotBasic.sol\":1187:1193  voters */\n      0x03\n        /* \"bc-lab7/E1BallotBasic.sol\":1187:1202  voters[toVoter] */\n      0x00\n        /* \"bc-lab7/E1BallotBasic.sol\":1194:1201  toVoter */\n      dup4\n        /* \"bc-lab7/E1BallotBasic.sol\":1187:1202  voters[toVoter] */\n      0xffffffffffffffffffffffffffffffffffffffff\n      and\n      0xffffffffffffffffffffffffffffffffffffffff\n      and\n      dup2\n      mstore\n      0x20\n      add\n      swap1\n      dup2\n      mstore\n      0x20\n      add\n      0x00\n      keccak256\n        /* \"bc-lab7/E1BallotBasic.sol\":1187:1208  voters[toVoter].voted */\n      0x01\n      add\n      0x00\n        /* \"bc-lab7/E1BallotBasic.sol\":1187:1216  voters[toVoter].voted = false */\n      0x0100\n      exp\n      dup2\n      sload\n      dup2\n      0xff\n      mul\n      not\n      and\n      swap1\n      dup4\n      iszero\n      iszero\n      mul\n      or\n      swap1\n      sstore\n      pop\n        /* \"bc-lab7/E1BallotBasic.sol\":1227:1237  VoterCount */\n      0x01\n      0x00\n        /* \"bc-lab7/E1BallotBasic.sol\":1227:1240  VoterCount ++ */\n      dup2\n      sload\n      dup1\n      swap3\n      swap2\n      swap1\n      tag_56\n      swap1\n      tag_57\n      jump\t// in\n    tag_56:\n      swap2\n      swap1\n      pop\n      sstore\n      pop\n        /* \"bc-lab7/E1BallotBasic.sol\":1024:1248  function register(address toVoter) public {\r... */\n    tag_53:\n      pop\n      jump\t// out\n        /* \"bc-lab7/E1BallotBasic.sol\":627:827  function addProposalDetail(uint _id, string memory _subjectProposal) public {\r... */\n    tag_33:\n        /* \"bc-lab7/E1BallotBasic.sol\":713:730  Proposal memory b */\n      0x00\n        /* \"bc-lab7/E1BallotBasic.sol\":733:767  Proposal(_id, _subjectProposal, 0) */\n      mload(0x40)\n      dup1\n      0x60\n      add\n      0x40\n      mstore\n      dup1\n        /* \"bc-lab7/E1BallotBasic.sol\":742:745  _id */\n      dup5\n        /* \"bc-lab7/E1BallotBasic.sol\":733:767  Proposal(_id, _subjectProposal, 0) */\n      dup2\n      mstore\n      0x20\n      add\n        /* \"bc-lab7/E1BallotBasic.sol\":747:763  _subjectProposal */\n      dup4\n        /* \"bc-lab7/E1BallotBasic.sol\":733:767  Proposal(_id, _subjectProposal, 0) */\n      dup2\n      mstore\n      0x20\n      add\n        /* \"bc-lab7/E1BallotBasic.sol\":765:766  0 */\n      0x00\n        /* \"bc-lab7/E1BallotBasic.sol\":733:767  Proposal(_id, _subjectProposal, 0) */\n      dup2\n      mstore\n      pop\n        /* \"bc-lab7/E1BallotBasic.sol\":713:767  Proposal memory b = Proposal(_id, _subjectProposal, 0) */\n      swap1\n      pop\n        /* \"bc-lab7/E1BallotBasic.sol\":777:786  proposals */\n      0x04\n        /* \"bc-lab7/E1BallotBasic.sol\":792:793  b */\n      dup2\n        /* \"bc-lab7/E1BallotBasic.sol\":777:794  proposals.push(b) */\n      swap1\n      dup1\n      0x01\n      dup2\n      sload\n      add\n      dup1\n      dup3\n      sstore\n      dup1\n      swap2\n      pop\n      pop\n      0x01\n      swap1\n      sub\n      swap1\n      0x00\n      mstore\n      keccak256(0x00, 0x20)\n      swap1\n      0x03\n      mul\n      add\n      0x00\n      swap1\n      swap2\n      swap1\n      swap2\n      swap1\n      swap2\n      pop\n      0x00\n      dup3\n      add\n      mload\n      dup2\n      0x00\n      add\n      sstore\n      0x20\n      dup3\n      add\n      mload\n      dup2\n      0x01\n      add\n      swap1\n      dup1\n      mload\n      swap1\n      0x20\n      add\n      swap1\n      tag_60\n      swap3\n      swap2\n      swap1\n      tag_61\n      jump\t// in\n    tag_60:\n      pop\n      0x40\n      dup3\n      add\n      mload\n      dup2\n      0x02\n      add\n      sstore\n      pop\n      pop\n        /* \"bc-lab7/E1BallotBasic.sol\":804:817  proposalCount */\n      0x00\n      dup1\n        /* \"bc-lab7/E1BallotBasic.sol\":804:819  proposalCount++ */\n      dup2\n      sload\n      dup1\n      swap3\n      swap2\n      swap1\n      tag_62\n      swap1\n      tag_57\n      jump\t// in\n    tag_62:\n      swap2\n      swap1\n      pop\n      sstore\n      pop\n        /* \"bc-lab7/E1BallotBasic.sol\":627:827  function addProposalDetail(uint _id, string memory _subjectProposal) public {\r... */\n      pop\n      pop\n      pop\n      jump\t// out\n        /* \"bc-lab7/E1BallotBasic.sol\":1609:1976  function winningProposal() public view returns (uint8 _winningProposal) {\r... */\n    tag_35:\n        /* \"bc-lab7/E1BallotBasic.sol\":1657:1679  uint8 _winningProposal */\n      0x00\n        /* \"bc-lab7/E1BallotBasic.sol\":1692:1716  uint256 winningVoteCount */\n      dup1\n        /* \"bc-lab7/E1BallotBasic.sol\":1719:1720  0 */\n      0x00\n        /* \"bc-lab7/E1BallotBasic.sol\":1692:1720  uint256 winningVoteCount = 0 */\n      swap1\n      pop\n        /* \"bc-lab7/E1BallotBasic.sol\":1736:1746  uint8 prop */\n      0x00\n        /* \"bc-lab7/E1BallotBasic.sol\":1731:1969  for (uint8 prop = 0; prop < proposals.length; prop++)\r... */\n    tag_64:\n        /* \"bc-lab7/E1BallotBasic.sol\":1759:1768  proposals */\n      0x04\n        /* \"bc-lab7/E1BallotBasic.sol\":1759:1775  proposals.length */\n      dup1\n      sload\n      swap1\n      pop\n        /* \"bc-lab7/E1BallotBasic.sol\":1752:1756  prop */\n      dup2\n        /* \"bc-lab7/E1BallotBasic.sol\":1752:1775  prop < proposals.length */\n      0xff\n      and\n      lt\n        /* \"bc-lab7/E1BallotBasic.sol\":1731:1969  for (uint8 prop = 0; prop < proposals.length; prop++)\r... */\n      iszero\n      tag_65\n      jumpi\n        /* \"bc-lab7/E1BallotBasic.sol\":1830:1846  winningVoteCount */\n      dup2\n        /* \"bc-lab7/E1BallotBasic.sol\":1802:1811  proposals */\n      0x04\n        /* \"bc-lab7/E1BallotBasic.sol\":1812:1816  prop */\n      dup3\n        /* \"bc-lab7/E1BallotBasic.sol\":1802:1817  proposals[prop] */\n      0xff\n      and\n      dup2\n      sload\n      dup2\n      lt\n      tag_67\n      jumpi\n      mstore(0x00, 0x4e487b7100000000000000000000000000000000000000000000000000000000)\n      mstore(0x04, 0x32)\n      revert(0x00, 0x24)\n    tag_67:\n      swap1\n      0x00\n      mstore\n      keccak256(0x00, 0x20)\n      swap1\n      0x03\n      mul\n      add\n        /* \"bc-lab7/E1BallotBasic.sol\":1802:1827  proposals[prop].voteCount */\n      0x02\n      add\n      sload\n        /* \"bc-lab7/E1BallotBasic.sol\":1802:1846  proposals[prop].voteCount > winningVoteCount */\n      gt\n        /* \"bc-lab7/E1BallotBasic.sol\":1798:1969  if (proposals[prop].voteCount > winningVoteCount) {\r... */\n      iszero\n      tag_69\n      jumpi\n        /* \"bc-lab7/E1BallotBasic.sol\":1886:1895  proposals */\n      0x04\n        /* \"bc-lab7/E1BallotBasic.sol\":1896:1900  prop */\n      dup2\n        /* \"bc-lab7/E1BallotBasic.sol\":1886:1901  proposals[prop] */\n      0xff\n      and\n      dup2\n      sload\n      dup2\n      lt\n      tag_70\n      jumpi\n      mstore(0x00, 0x4e487b7100000000000000000000000000000000000000000000000000000000)\n      mstore(0x04, 0x32)\n      revert(0x00, 0x24)\n    tag_70:\n      swap1\n      0x00\n      mstore\n      keccak256(0x00, 0x20)\n      swap1\n      0x03\n      mul\n      add\n        /* \"bc-lab7/E1BallotBasic.sol\":1886:1911  proposals[prop].voteCount */\n      0x02\n      add\n      sload\n        /* \"bc-lab7/E1BallotBasic.sol\":1867:1911  winningVoteCount = proposals[prop].voteCount */\n      swap2\n      pop\n        /* \"bc-lab7/E1BallotBasic.sol\":1949:1953  prop */\n      dup1\n        /* \"bc-lab7/E1BallotBasic.sol\":1930:1953  _winningProposal = prop */\n      swap3\n      pop\n        /* \"bc-lab7/E1BallotBasic.sol\":1798:1969  if (proposals[prop].voteCount > winningVoteCount) {\r... */\n    tag_69:\n        /* \"bc-lab7/E1BallotBasic.sol\":1777:1783  prop++ */\n      dup1\n      dup1\n      tag_72\n      swap1\n      tag_73\n      jump\t// in\n    tag_72:\n      swap2\n      pop\n      pop\n        /* \"bc-lab7/E1BallotBasic.sol\":1731:1969  for (uint8 prop = 0; prop < proposals.length; prop++)\r... */\n      jump(tag_64)\n    tag_65:\n      pop\n        /* \"bc-lab7/E1BallotBasic.sol\":1609:1976  function winningProposal() public view returns (uint8 _winningProposal) {\r... */\n      pop\n      swap1\n      jump\t// out\n        /* \"bc-lab7/E1BallotBasic.sol\":1309:1601  function vote(uint8 toProposal) public {\r... */\n    tag_41:\n        /* \"bc-lab7/E1BallotBasic.sol\":1359:1379  Voter storage sender */\n      0x00\n        /* \"bc-lab7/E1BallotBasic.sol\":1382:1388  voters */\n      0x03\n        /* \"bc-lab7/E1BallotBasic.sol\":1382:1400  voters[msg.sender] */\n      0x00\n        /* \"bc-lab7/E1BallotBasic.sol\":1389:1399  msg.sender */\n      caller\n        /* \"bc-lab7/E1BallotBasic.sol\":1382:1400  voters[msg.sender] */\n      0xffffffffffffffffffffffffffffffffffffffff\n      and\n      0xffffffffffffffffffffffffffffffffffffffff\n      and\n      dup2\n      mstore\n      0x20\n      add\n      swap1\n      dup2\n      mstore\n      0x20\n      add\n      0x00\n      keccak256\n        /* \"bc-lab7/E1BallotBasic.sol\":1359:1400  Voter storage sender = voters[msg.sender] */\n      swap1\n      pop\n        /* \"bc-lab7/E1BallotBasic.sol\":1415:1421  sender */\n      dup1\n        /* \"bc-lab7/E1BallotBasic.sol\":1415:1427  sender.voted */\n      0x01\n      add\n      0x00\n      swap1\n      sload\n      swap1\n      0x0100\n      exp\n      swap1\n      div\n      0xff\n      and\n        /* \"bc-lab7/E1BallotBasic.sol\":1415:1461  sender.voted || toProposal >= proposals.length */\n      dup1\n      tag_75\n      jumpi\n      pop\n        /* \"bc-lab7/E1BallotBasic.sol\":1445:1454  proposals */\n      0x04\n        /* \"bc-lab7/E1BallotBasic.sol\":1445:1461  proposals.length */\n      dup1\n      sload\n      swap1\n      pop\n        /* \"bc-lab7/E1BallotBasic.sol\":1431:1441  toProposal */\n      dup3\n        /* \"bc-lab7/E1BallotBasic.sol\":1431:1461  toProposal >= proposals.length */\n      0xff\n      and\n      lt\n      iszero\n        /* \"bc-lab7/E1BallotBasic.sol\":1415:1461  sender.voted || toProposal >= proposals.length */\n    tag_75:\n        /* \"bc-lab7/E1BallotBasic.sol\":1411:1470  if (sender.voted || toProposal >= proposals.length) return; */\n      iszero\n      tag_76\n      jumpi\n        /* \"bc-lab7/E1BallotBasic.sol\":1463:1470  return; */\n      pop\n      jump(tag_74)\n        /* \"bc-lab7/E1BallotBasic.sol\":1411:1470  if (sender.voted || toProposal >= proposals.length) return; */\n    tag_76:\n        /* \"bc-lab7/E1BallotBasic.sol\":1495:1499  true */\n      0x01\n        /* \"bc-lab7/E1BallotBasic.sol\":1480:1486  sender */\n      dup2\n        /* \"bc-lab7/E1BallotBasic.sol\":1480:1492  sender.voted */\n      0x01\n      add\n      0x00\n        /* \"bc-lab7/E1BallotBasic.sol\":1480:1499  sender.voted = true */\n      0x0100\n      exp\n      dup2\n      sload\n      dup2\n      0xff\n      mul\n      not\n      and\n      swap1\n      dup4\n      iszero\n      iszero\n      mul\n      or\n      swap1\n      sstore\n      pop\n        /* \"bc-lab7/E1BallotBasic.sol\":1524:1534  toProposal */\n      dup2\n        /* \"bc-lab7/E1BallotBasic.sol\":1510:1516  sender */\n      dup2\n        /* \"bc-lab7/E1BallotBasic.sol\":1510:1521  sender.vote */\n      0x01\n      add\n      0x01\n        /* \"bc-lab7/E1BallotBasic.sol\":1510:1534  sender.vote = toProposal */\n      0x0100\n      exp\n      dup2\n      sload\n      dup2\n      0xff\n      mul\n      not\n      and\n      swap1\n      dup4\n      0xff\n      and\n      mul\n      or\n      swap1\n      sstore\n      pop\n        /* \"bc-lab7/E1BallotBasic.sol\":1580:1586  sender */\n      dup1\n        /* \"bc-lab7/E1BallotBasic.sol\":1580:1593  sender.weight */\n      0x00\n      add\n      sload\n        /* \"bc-lab7/E1BallotBasic.sol\":1545:1554  proposals */\n      0x04\n        /* \"bc-lab7/E1BallotBasic.sol\":1555:1565  toProposal */\n      dup4\n        /* \"bc-lab7/E1BallotBasic.sol\":1545:1566  proposals[toProposal] */\n      0xff\n      and\n      dup2\n      sload\n      dup2\n      lt\n      tag_77\n      jumpi\n      mstore(0x00, 0x4e487b7100000000000000000000000000000000000000000000000000000000)\n      mstore(0x04, 0x32)\n      revert(0x00, 0x24)\n    tag_77:\n      swap1\n      0x00\n      mstore\n      keccak256(0x00, 0x20)\n      swap1\n      0x03\n      mul\n      add\n        /* \"bc-lab7/E1BallotBasic.sol\":1545:1576  proposals[toProposal].voteCount */\n      0x02\n      add\n      0x00\n        /* \"bc-lab7/E1BallotBasic.sol\":1545:1593  proposals[toProposal].voteCount += sender.weight */\n      dup3\n      dup3\n      sload\n      tag_79\n      swap2\n      swap1\n      tag_80\n      jump\t// in\n    tag_79:\n      swap3\n      pop\n      pop\n      dup2\n      swap1\n      sstore\n      pop\n        /* \"bc-lab7/E1BallotBasic.sol\":1309:1601  function vote(uint8 toProposal) public {\r... */\n      pop\n    tag_74:\n      pop\n      jump\t// out\n        /* \"bc-lab7/E1BallotBasic.sol\":272:299  uint public proposalCount=0 */\n    tag_43:\n      sload(0x00)\n      dup2\n      jump\t// out\n    tag_61:\n      dup3\n      dup1\n      sload\n      tag_81\n      swap1\n      tag_48\n      jump\t// in\n    tag_81:\n      swap1\n      0x00\n      mstore\n      keccak256(0x00, 0x20)\n      swap1\n      0x1f\n      add\n      0x20\n      swap1\n      div\n      dup2\n      add\n      swap3\n      dup3\n      tag_83\n      jumpi\n      0x00\n      dup6\n      sstore\n      jump(tag_82)\n    tag_83:\n      dup3\n      0x1f\n      lt\n      tag_84\n      jumpi\n      dup1\n      mload\n      not(0xff)\n      and\n      dup4\n      dup1\n      add\n      or\n      dup6\n      sstore\n      jump(tag_82)\n    tag_84:\n      dup3\n      dup1\n      add\n      0x01\n      add\n      dup6\n      sstore\n      dup3\n      iszero\n      tag_82\n      jumpi\n      swap2\n      dup3\n      add\n    tag_85:\n      dup3\n      dup2\n      gt\n      iszero\n      tag_86\n      jumpi\n      dup3\n      mload\n      dup3\n      sstore\n      swap2\n      0x20\n      add\n      swap2\n      swap1\n      0x01\n      add\n      swap1\n      jump(tag_85)\n    tag_86:\n    tag_82:\n      pop\n      swap1\n      pop\n      tag_87\n      swap2\n      swap1\n      tag_88\n      jump\t// in\n    tag_87:\n      pop\n      swap1\n      jump\t// out\n    tag_88:\n    tag_89:\n      dup1\n      dup3\n      gt\n      iszero\n      tag_90\n      jumpi\n      0x00\n      dup2\n      0x00\n      swap1\n      sstore\n      pop\n      0x01\n      add\n      jump(tag_89)\n    tag_90:\n      pop\n      swap1\n      jump\t// out\n        /* \"#utility.yul\":7:351   */\n    tag_92:\n      0x00\n        /* \"#utility.yul\":110:175   */\n      tag_94\n        /* \"#utility.yul\":125:174   */\n      tag_95\n        /* \"#utility.yul\":167:173   */\n      dup5\n        /* \"#utility.yul\":125:174   */\n      tag_96\n      jump\t// in\n    tag_95:\n        /* \"#utility.yul\":110:175   */\n      tag_97\n      jump\t// in\n    tag_94:\n        /* \"#utility.yul\":101:175   */\n      swap1\n      pop\n        /* \"#utility.yul\":198:204   */\n      dup3\n        /* \"#utility.yul\":191:196   */\n      dup2\n        /* \"#utility.yul\":184:205   */\n      mstore\n        /* \"#utility.yul\":236:240   */\n      0x20\n        /* \"#utility.yul\":229:234   */\n      dup2\n        /* \"#utility.yul\":225:241   */\n      add\n        /* \"#utility.yul\":274:277   */\n      dup5\n        /* \"#utility.yul\":265:271   */\n      dup5\n        /* \"#utility.yul\":260:263   */\n      dup5\n        /* \"#utility.yul\":256:272   */\n      add\n        /* \"#utility.yul\":253:278   */\n      gt\n        /* \"#utility.yul\":250:252   */\n      iszero\n      tag_98\n      jumpi\n        /* \"#utility.yul\":291:292   */\n      0x00\n        /* \"#utility.yul\":288:289   */\n      dup1\n        /* \"#utility.yul\":281:293   */\n      revert\n        /* \"#utility.yul\":250:252   */\n    tag_98:\n        /* \"#utility.yul\":304:345   */\n      tag_99\n        /* \"#utility.yul\":338:344   */\n      dup5\n        /* \"#utility.yul\":333:336   */\n      dup3\n        /* \"#utility.yul\":328:331   */\n      dup6\n        /* \"#utility.yul\":304:345   */\n      tag_100\n      jump\t// in\n    tag_99:\n        /* \"#utility.yul\":91:351   */\n      pop\n      swap4\n      swap3\n      pop\n      pop\n      pop\n      jump\t// out\n        /* \"#utility.yul\":357:496   */\n    tag_101:\n      0x00\n        /* \"#utility.yul\":441:447   */\n      dup2\n        /* \"#utility.yul\":428:448   */\n      calldataload\n        /* \"#utility.yul\":419:448   */\n      swap1\n      pop\n        /* \"#utility.yul\":457:490   */\n      tag_103\n        /* \"#utility.yul\":484:489   */\n      dup2\n        /* \"#utility.yul\":457:490   */\n      tag_104\n      jump\t// in\n    tag_103:\n        /* \"#utility.yul\":409:496   */\n      swap3\n      swap2\n      pop\n      pop\n      jump\t// out\n        /* \"#utility.yul\":516:789   */\n    tag_105:\n      0x00\n        /* \"#utility.yul\":621:624   */\n      dup3\n        /* \"#utility.yul\":614:618   */\n      0x1f\n        /* \"#utility.yul\":606:612   */\n      dup4\n        /* \"#utility.yul\":602:619   */\n      add\n        /* \"#utility.yul\":598:625   */\n      slt\n        /* \"#utility.yul\":588:590   */\n      tag_107\n      jumpi\n        /* \"#utility.yul\":639:640   */\n      0x00\n        /* \"#utility.yul\":636:637   */\n      dup1\n        /* \"#utility.yul\":629:641   */\n      revert\n        /* \"#utility.yul\":588:590   */\n    tag_107:\n        /* \"#utility.yul\":679:685   */\n      dup2\n        /* \"#utility.yul\":666:686   */\n      calldataload\n        /* \"#utility.yul\":704:783   */\n      tag_108\n        /* \"#utility.yul\":779:782   */\n      dup5\n        /* \"#utility.yul\":771:777   */\n      dup3\n        /* \"#utility.yul\":764:768   */\n      0x20\n        /* \"#utility.yul\":756:762   */\n      dup7\n        /* \"#utility.yul\":752:769   */\n      add\n        /* \"#utility.yul\":704:783   */\n      tag_92\n      jump\t// in\n    tag_108:\n        /* \"#utility.yul\":695:783   */\n      swap2\n      pop\n        /* \"#utility.yul\":578:789   */\n      pop\n      swap3\n      swap2\n      pop\n      pop\n      jump\t// out\n        /* \"#utility.yul\":795:934   */\n    tag_109:\n      0x00\n        /* \"#utility.yul\":879:885   */\n      dup2\n        /* \"#utility.yul\":866:886   */\n      calldataload\n        /* \"#utility.yul\":857:886   */\n      swap1\n      pop\n        /* \"#utility.yul\":895:928   */\n      tag_111\n        /* \"#utility.yul\":922:927   */\n      dup2\n        /* \"#utility.yul\":895:928   */\n      tag_112\n      jump\t// in\n    tag_111:\n        /* \"#utility.yul\":847:934   */\n      swap3\n      swap2\n      pop\n      pop\n      jump\t// out\n        /* \"#utility.yul\":940:1075   */\n    tag_113:\n      0x00\n        /* \"#utility.yul\":1022:1028   */\n      dup2\n        /* \"#utility.yul\":1009:1029   */\n      calldataload\n        /* \"#utility.yul\":1000:1029   */\n      swap1\n      pop\n        /* \"#utility.yul\":1038:1069   */\n      tag_115\n        /* \"#utility.yul\":1063:1068   */\n      dup2\n        /* \"#utility.yul\":1038:1069   */\n      tag_116\n      jump\t// in\n    tag_115:\n        /* \"#utility.yul\":990:1075   */\n      swap3\n      swap2\n      pop\n      pop\n      jump\t// out\n        /* \"#utility.yul\":1081:1343   */\n    tag_28:\n      0x00\n        /* \"#utility.yul\":1189:1191   */\n      0x20\n        /* \"#utility.yul\":1177:1186   */\n      dup3\n        /* \"#utility.yul\":1168:1175   */\n      dup5\n        /* \"#utility.yul\":1164:1187   */\n      sub\n        /* \"#utility.yul\":1160:1192   */\n      slt\n        /* \"#utility.yul\":1157:1159   */\n      iszero\n      tag_118\n      jumpi\n        /* \"#utility.yul\":1205:1206   */\n      0x00\n        /* \"#utility.yul\":1202:1203   */\n      dup1\n        /* \"#utility.yul\":1195:1207   */\n      revert\n        /* \"#utility.yul\":1157:1159   */\n    tag_118:\n        /* \"#utility.yul\":1248:1249   */\n      0x00\n        /* \"#utility.yul\":1273:1326   */\n      tag_119\n        /* \"#utility.yul\":1318:1325   */\n      dup5\n        /* \"#utility.yul\":1309:1315   */\n      dup3\n        /* \"#utility.yul\":1298:1307   */\n      dup6\n        /* \"#utility.yul\":1294:1316   */\n      add\n        /* \"#utility.yul\":1273:1326   */\n      tag_101\n      jump\t// in\n    tag_119:\n        /* \"#utility.yul\":1263:1326   */\n      swap2\n      pop\n        /* \"#utility.yul\":1219:1336   */\n      pop\n        /* \"#utility.yul\":1147:1343   */\n      swap3\n      swap2\n      pop\n      pop\n      jump\t// out\n        /* \"#utility.yul\":1349:1611   */\n    tag_14:\n      0x00\n        /* \"#utility.yul\":1457:1459   */\n      0x20\n        /* \"#utility.yul\":1445:1454   */\n      dup3\n        /* \"#utility.yul\":1436:1443   */\n      dup5\n        /* \"#utility.yul\":1432:1455   */\n      sub\n        /* \"#utility.yul\":1428:1460   */\n      slt\n        /* \"#utility.yul\":1425:1427   */\n      iszero\n      tag_121\n      jumpi\n        /* \"#utility.yul\":1473:1474   */\n      0x00\n        /* \"#utility.yul\":1470:1471   */\n      dup1\n        /* \"#utility.yul\":1463:1475   */\n      revert\n        /* \"#utility.yul\":1425:1427   */\n    tag_121:\n        /* \"#utility.yul\":1516:1517   */\n      0x00\n        /* \"#utility.yul\":1541:1594   */\n      tag_122\n        /* \"#utility.yul\":1586:1593   */\n      dup5\n        /* \"#utility.yul\":1577:1583   */\n      dup3\n        /* \"#utility.yul\":1566:1575   */\n      dup6\n        /* \"#utility.yul\":1562:1584   */\n      add\n        /* \"#utility.yul\":1541:1594   */\n      tag_109\n      jump\t// in\n    tag_122:\n        /* \"#utility.yul\":1531:1594   */\n      swap2\n      pop\n        /* \"#utility.yul\":1487:1604   */\n      pop\n        /* \"#utility.yul\":1415:1611   */\n      swap3\n      swap2\n      pop\n      pop\n      jump\t// out\n        /* \"#utility.yul\":1617:2137   */\n    tag_32:\n      0x00\n      dup1\n        /* \"#utility.yul\":1752:1754   */\n      0x40\n        /* \"#utility.yul\":1740:1749   */\n      dup4\n        /* \"#utility.yul\":1731:1738   */\n      dup6\n        /* \"#utility.yul\":1727:1750   */\n      sub\n        /* \"#utility.yul\":1723:1755   */\n      slt\n        /* \"#utility.yul\":1720:1722   */\n      iszero\n      tag_124\n      jumpi\n        /* \"#utility.yul\":1768:1769   */\n      0x00\n        /* \"#utility.yul\":1765:1766   */\n      dup1\n        /* \"#utility.yul\":1758:1770   */\n      revert\n        /* \"#utility.yul\":1720:1722   */\n    tag_124:\n        /* \"#utility.yul\":1811:1812   */\n      0x00\n        /* \"#utility.yul\":1836:1889   */\n      tag_125\n        /* \"#utility.yul\":1881:1888   */\n      dup6\n        /* \"#utility.yul\":1872:1878   */\n      dup3\n        /* \"#utility.yul\":1861:1870   */\n      dup7\n        /* \"#utility.yul\":1857:1879   */\n      add\n        /* \"#utility.yul\":1836:1889   */\n      tag_109\n      jump\t// in\n    tag_125:\n        /* \"#utility.yul\":1826:1889   */\n      swap3\n      pop\n        /* \"#utility.yul\":1782:1899   */\n      pop\n        /* \"#utility.yul\":1966:1968   */\n      0x20\n        /* \"#utility.yul\":1955:1964   */\n      dup4\n        /* \"#utility.yul\":1951:1969   */\n      add\n        /* \"#utility.yul\":1938:1970   */\n      calldataload\n        /* \"#utility.yul\":1997:2015   */\n      0xffffffffffffffff\n        /* \"#utility.yul\":1989:1995   */\n      dup2\n        /* \"#utility.yul\":1986:2016   */\n      gt\n        /* \"#utility.yul\":1983:1985   */\n      iszero\n      tag_126\n      jumpi\n        /* \"#utility.yul\":2029:2030   */\n      0x00\n        /* \"#utility.yul\":2026:2027   */\n      dup1\n        /* \"#utility.yul\":2019:2031   */\n      revert\n        /* \"#utility.yul\":1983:1985   */\n    tag_126:\n        /* \"#utility.yul\":2057:2120   */\n      tag_127\n        /* \"#utility.yul\":2112:2119   */\n      dup6\n        /* \"#utility.yul\":2103:2109   */\n      dup3\n        /* \"#utility.yul\":2092:2101   */\n      dup7\n        /* \"#utility.yul\":2088:2110   */\n      add\n        /* \"#utility.yul\":2057:2120   */\n      tag_105\n      jump\t// in\n    tag_127:\n        /* \"#utility.yul\":2047:2120   */\n      swap2\n      pop\n        /* \"#utility.yul\":1909:2130   */\n      pop\n        /* \"#utility.yul\":1710:2137   */\n      swap3\n      pop\n      swap3\n      swap1\n      pop\n      jump\t// out\n        /* \"#utility.yul\":2143:2401   */\n    tag_40:\n      0x00\n        /* \"#utility.yul\":2249:2251   */\n      0x20\n        /* \"#utility.yul\":2237:2246   */\n      dup3\n        /* \"#utility.yul\":2228:2235   */\n      dup5\n        /* \"#utility.yul\":2224:2247   */\n      sub\n        /* \"#utility.yul\":2220:2252   */\n      slt\n        /* \"#utility.yul\":2217:2219   */\n      iszero\n      tag_129\n      jumpi\n        /* \"#utility.yul\":2265:2266   */\n      0x00\n        /* \"#utility.yul\":2262:2263   */\n      dup1\n        /* \"#utility.yul\":2255:2267   */\n      revert\n        /* \"#utility.yul\":2217:2219   */\n    tag_129:\n        /* \"#utility.yul\":2308:2309   */\n      0x00\n        /* \"#utility.yul\":2333:2384   */\n      tag_130\n        /* \"#utility.yul\":2376:2383   */\n      dup5\n        /* \"#utility.yul\":2367:2373   */\n      dup3\n        /* \"#utility.yul\":2356:2365   */\n      dup6\n        /* \"#utility.yul\":2352:2374   */\n      add\n        /* \"#utility.yul\":2333:2384   */\n      tag_113\n      jump\t// in\n    tag_130:\n        /* \"#utility.yul\":2323:2384   */\n      swap2\n      pop\n        /* \"#utility.yul\":2279:2394   */\n      pop\n        /* \"#utility.yul\":2207:2401   */\n      swap3\n      swap2\n      pop\n      pop\n      jump\t// out\n        /* \"#utility.yul\":2407:2525   */\n    tag_131:\n        /* \"#utility.yul\":2494:2518   */\n      tag_133\n        /* \"#utility.yul\":2512:2517   */\n      dup2\n        /* \"#utility.yul\":2494:2518   */\n      tag_134\n      jump\t// in\n    tag_133:\n        /* \"#utility.yul\":2489:2492   */\n      dup3\n        /* \"#utility.yul\":2482:2519   */\n      mstore\n        /* \"#utility.yul\":2472:2525   */\n      pop\n      pop\n      jump\t// out\n        /* \"#utility.yul\":2531:2895   */\n    tag_135:\n      0x00\n        /* \"#utility.yul\":2647:2686   */\n      tag_137\n        /* \"#utility.yul\":2680:2685   */\n      dup3\n        /* \"#utility.yul\":2647:2686   */\n      tag_138\n      jump\t// in\n    tag_137:\n        /* \"#utility.yul\":2702:2773   */\n      tag_139\n        /* \"#utility.yul\":2766:2772   */\n      dup2\n        /* \"#utility.yul\":2761:2764   */\n      dup6\n        /* \"#utility.yul\":2702:2773   */\n      tag_140\n      jump\t// in\n    tag_139:\n        /* \"#utility.yul\":2695:2773   */\n      swap4\n      pop\n        /* \"#utility.yul\":2782:2834   */\n      tag_141\n        /* \"#utility.yul\":2827:2833   */\n      dup2\n        /* \"#utility.yul\":2822:2825   */\n      dup6\n        /* \"#utility.yul\":2815:2819   */\n      0x20\n        /* \"#utility.yul\":2808:2813   */\n      dup7\n        /* \"#utility.yul\":2804:2820   */\n      add\n        /* \"#utility.yul\":2782:2834   */\n      tag_142\n      jump\t// in\n    tag_141:\n        /* \"#utility.yul\":2859:2888   */\n      tag_143\n        /* \"#utility.yul\":2881:2887   */\n      dup2\n        /* \"#utility.yul\":2859:2888   */\n      tag_144\n      jump\t// in\n    tag_143:\n        /* \"#utility.yul\":2854:2857   */\n      dup5\n        /* \"#utility.yul\":2850:2889   */\n      add\n        /* \"#utility.yul\":2843:2889   */\n      swap2\n      pop\n        /* \"#utility.yul\":2623:2895   */\n      pop\n      swap3\n      swap2\n      pop\n      pop\n      jump\t// out\n        /* \"#utility.yul\":2901:3019   */\n    tag_145:\n        /* \"#utility.yul\":2988:3012   */\n      tag_147\n        /* \"#utility.yul\":3006:3011   */\n      dup2\n        /* \"#utility.yul\":2988:3012   */\n      tag_148\n      jump\t// in\n    tag_147:\n        /* \"#utility.yul\":2983:2986   */\n      dup3\n        /* \"#utility.yul\":2976:3013   */\n      mstore\n        /* \"#utility.yul\":2966:3019   */\n      pop\n      pop\n      jump\t// out\n        /* \"#utility.yul\":3025:3137   */\n    tag_149:\n        /* \"#utility.yul\":3108:3130   */\n      tag_151\n        /* \"#utility.yul\":3124:3129   */\n      dup2\n        /* \"#utility.yul\":3108:3130   */\n      tag_152\n      jump\t// in\n    tag_151:\n        /* \"#utility.yul\":3103:3106   */\n      dup3\n        /* \"#utility.yul\":3096:3131   */\n      mstore\n        /* \"#utility.yul\":3086:3137   */\n      pop\n      pop\n      jump\t// out\n        /* \"#utility.yul\":3143:3365   */\n    tag_21:\n      0x00\n        /* \"#utility.yul\":3274:3276   */\n      0x20\n        /* \"#utility.yul\":3263:3272   */\n      dup3\n        /* \"#utility.yul\":3259:3277   */\n      add\n        /* \"#utility.yul\":3251:3277   */\n      swap1\n      pop\n        /* \"#utility.yul\":3287:3358   */\n      tag_154\n        /* \"#utility.yul\":3355:3356   */\n      0x00\n        /* \"#utility.yul\":3344:3353   */\n      dup4\n        /* \"#utility.yul\":3340:3357   */\n      add\n        /* \"#utility.yul\":3331:3337   */\n      dup5\n        /* \"#utility.yul\":3287:3358   */\n      tag_131\n      jump\t// in\n    tag_154:\n        /* \"#utility.yul\":3241:3365   */\n      swap3\n      swap2\n      pop\n      pop\n      jump\t// out\n        /* \"#utility.yul\":3371:3593   */\n    tag_25:\n      0x00\n        /* \"#utility.yul\":3502:3504   */\n      0x20\n        /* \"#utility.yul\":3491:3500   */\n      dup3\n        /* \"#utility.yul\":3487:3505   */\n      add\n        /* \"#utility.yul\":3479:3505   */\n      swap1\n      pop\n        /* \"#utility.yul\":3515:3586   */\n      tag_156\n        /* \"#utility.yul\":3583:3584   */\n      0x00\n        /* \"#utility.yul\":3572:3581   */\n      dup4\n        /* \"#utility.yul\":3568:3585   */\n      add\n        /* \"#utility.yul\":3559:3565   */\n      dup5\n        /* \"#utility.yul\":3515:3586   */\n      tag_145\n      jump\t// in\n    tag_156:\n        /* \"#utility.yul\":3469:3593   */\n      swap3\n      swap2\n      pop\n      pop\n      jump\t// out\n        /* \"#utility.yul\":3599:4132   */\n    tag_17:\n      0x00\n        /* \"#utility.yul\":3806:3808   */\n      0x60\n        /* \"#utility.yul\":3795:3804   */\n      dup3\n        /* \"#utility.yul\":3791:3809   */\n      add\n        /* \"#utility.yul\":3783:3809   */\n      swap1\n      pop\n        /* \"#utility.yul\":3819:3890   */\n      tag_158\n        /* \"#utility.yul\":3887:3888   */\n      0x00\n        /* \"#utility.yul\":3876:3885   */\n      dup4\n        /* \"#utility.yul\":3872:3889   */\n      add\n        /* \"#utility.yul\":3863:3869   */\n      dup7\n        /* \"#utility.yul\":3819:3890   */\n      tag_145\n      jump\t// in\n    tag_158:\n        /* \"#utility.yul\":3937:3946   */\n      dup2\n        /* \"#utility.yul\":3931:3935   */\n      dup2\n        /* \"#utility.yul\":3927:3947   */\n      sub\n        /* \"#utility.yul\":3922:3924   */\n      0x20\n        /* \"#utility.yul\":3911:3920   */\n      dup4\n        /* \"#utility.yul\":3907:3925   */\n      add\n        /* \"#utility.yul\":3900:3948   */\n      mstore\n        /* \"#utility.yul\":3965:4043   */\n      tag_159\n        /* \"#utility.yul\":4038:4042   */\n      dup2\n        /* \"#utility.yul\":4029:4035   */\n      dup6\n        /* \"#utility.yul\":3965:4043   */\n      tag_135\n      jump\t// in\n    tag_159:\n        /* \"#utility.yul\":3957:4043   */\n      swap1\n      pop\n        /* \"#utility.yul\":4053:4125   */\n      tag_160\n        /* \"#utility.yul\":4121:4123   */\n      0x40\n        /* \"#utility.yul\":4110:4119   */\n      dup4\n        /* \"#utility.yul\":4106:4124   */\n      add\n        /* \"#utility.yul\":4097:4103   */\n      dup5\n        /* \"#utility.yul\":4053:4125   */\n      tag_145\n      jump\t// in\n    tag_160:\n        /* \"#utility.yul\":3773:4132   */\n      swap5\n      swap4\n      pop\n      pop\n      pop\n      pop\n      jump\t// out\n        /* \"#utility.yul\":4138:4352   */\n    tag_37:\n      0x00\n        /* \"#utility.yul\":4265:4267   */\n      0x20\n        /* \"#utility.yul\":4254:4263   */\n      dup3\n        /* \"#utility.yul\":4250:4268   */\n      add\n        /* \"#utility.yul\":4242:4268   */\n      swap1\n      pop\n        /* \"#utility.yul\":4278:4345   */\n      tag_162\n        /* \"#utility.yul\":4342:4343   */\n      0x00\n        /* \"#utility.yul\":4331:4340   */\n      dup4\n        /* \"#utility.yul\":4327:4344   */\n      add\n        /* \"#utility.yul\":4318:4324   */\n      dup5\n        /* \"#utility.yul\":4278:4345   */\n      tag_149\n      jump\t// in\n    tag_162:\n        /* \"#utility.yul\":4232:4352   */\n      swap3\n      swap2\n      pop\n      pop\n      jump\t// out\n        /* \"#utility.yul\":4358:4641   */\n    tag_97:\n      0x00\n        /* \"#utility.yul\":4424:4426   */\n      0x40\n        /* \"#utility.yul\":4418:4427   */\n      mload\n        /* \"#utility.yul\":4408:4427   */\n      swap1\n      pop\n        /* \"#utility.yul\":4466:4470   */\n      dup2\n        /* \"#utility.yul\":4458:4464   */\n      dup2\n        /* \"#utility.yul\":4454:4471   */\n      add\n        /* \"#utility.yul\":4573:4579   */\n      dup2\n        /* \"#utility.yul\":4561:4571   */\n      dup2\n        /* \"#utility.yul\":4558:4580   */\n      lt\n        /* \"#utility.yul\":4537:4555   */\n      0xffffffffffffffff\n        /* \"#utility.yul\":4525:4535   */\n      dup3\n        /* \"#utility.yul\":4522:4556   */\n      gt\n        /* \"#utility.yul\":4519:4581   */\n      or\n        /* \"#utility.yul\":4516:4518   */\n      iszero\n      tag_164\n      jumpi\n        /* \"#utility.yul\":4584:4602   */\n      tag_165\n      tag_166\n      jump\t// in\n    tag_165:\n        /* \"#utility.yul\":4516:4518   */\n    tag_164:\n        /* \"#utility.yul\":4624:4634   */\n      dup1\n        /* \"#utility.yul\":4620:4622   */\n      0x40\n        /* \"#utility.yul\":4613:4635   */\n      mstore\n        /* \"#utility.yul\":4398:4641   */\n      pop\n      swap2\n      swap1\n      pop\n      jump\t// out\n        /* \"#utility.yul\":4647:4979   */\n    tag_96:\n      0x00\n        /* \"#utility.yul\":4799:4817   */\n      0xffffffffffffffff\n        /* \"#utility.yul\":4791:4797   */\n      dup3\n        /* \"#utility.yul\":4788:4818   */\n      gt\n        /* \"#utility.yul\":4785:4787   */\n      iszero\n      tag_168\n      jumpi\n        /* \"#utility.yul\":4821:4839   */\n      tag_169\n      tag_166\n      jump\t// in\n    tag_169:\n        /* \"#utility.yul\":4785:4787   */\n    tag_168:\n        /* \"#utility.yul\":4906:4910   */\n      0x1f\n        /* \"#utility.yul\":4902:4911   */\n      not\n        /* \"#utility.yul\":4895:4899   */\n      0x1f\n        /* \"#utility.yul\":4887:4893   */\n      dup4\n        /* \"#utility.yul\":4883:4900   */\n      add\n        /* \"#utility.yul\":4879:4912   */\n      and\n        /* \"#utility.yul\":4871:4912   */\n      swap1\n      pop\n        /* \"#utility.yul\":4967:4971   */\n      0x20\n        /* \"#utility.yul\":4961:4965   */\n      dup2\n        /* \"#utility.yul\":4957:4972   */\n      add\n        /* \"#utility.yul\":4949:4972   */\n      swap1\n      pop\n        /* \"#utility.yul\":4714:4979   */\n      swap2\n      swap1\n      pop\n      jump\t// out\n        /* \"#utility.yul\":4985:5084   */\n    tag_138:\n      0x00\n        /* \"#utility.yul\":5071:5076   */\n      dup2\n        /* \"#utility.yul\":5065:5077   */\n      mload\n        /* \"#utility.yul\":5055:5077   */\n      swap1\n      pop\n        /* \"#utility.yul\":5044:5084   */\n      swap2\n      swap1\n      pop\n      jump\t// out\n        /* \"#utility.yul\":5090:5259   */\n    tag_140:\n      0x00\n        /* \"#utility.yul\":5208:5214   */\n      dup3\n        /* \"#utility.yul\":5203:5206   */\n      dup3\n        /* \"#utility.yul\":5196:5215   */\n      mstore\n        /* \"#utility.yul\":5248:5252   */\n      0x20\n        /* \"#utility.yul\":5243:5246   */\n      dup3\n        /* \"#utility.yul\":5239:5253   */\n      add\n        /* \"#utility.yul\":5224:5253   */\n      swap1\n      pop\n        /* \"#utility.yul\":5186:5259   */\n      swap3\n      swap2\n      pop\n      pop\n      jump\t// out\n        /* \"#utility.yul\":5265:5570   */\n    tag_80:\n      0x00\n        /* \"#utility.yul\":5324:5344   */\n      tag_173\n        /* \"#utility.yul\":5342:5343   */\n      dup3\n        /* \"#utility.yul\":5324:5344   */\n      tag_148\n      jump\t// in\n    tag_173:\n        /* \"#utility.yul\":5319:5344   */\n      swap2\n      pop\n        /* \"#utility.yul\":5358:5378   */\n      tag_174\n        /* \"#utility.yul\":5376:5377   */\n      dup4\n        /* \"#utility.yul\":5358:5378   */\n      tag_148\n      jump\t// in\n    tag_174:\n        /* \"#utility.yul\":5353:5378   */\n      swap3\n      pop\n        /* \"#utility.yul\":5512:5513   */\n      dup3\n        /* \"#utility.yul\":5444:5510   */\n      0xffffffffffffffffffffffffffffffffffffffffffffffffffffffffffffffff\n        /* \"#utility.yul\":5440:5514   */\n      sub\n        /* \"#utility.yul\":5437:5438   */\n      dup3\n        /* \"#utility.yul\":5434:5515   */\n      gt\n        /* \"#utility.yul\":5431:5433   */\n      iszero\n      tag_175\n      jumpi\n        /* \"#utility.yul\":5518:5536   */\n      tag_176\n      tag_177\n      jump\t// in\n    tag_176:\n        /* \"#utility.yul\":5431:5433   */\n    tag_175:\n        /* \"#utility.yul\":5562:5563   */\n      dup3\n        /* \"#utility.yul\":5559:5560   */\n      dup3\n        /* \"#utility.yul\":5555:5564   */\n      add\n        /* \"#utility.yul\":5548:5564   */\n      swap1\n      pop\n        /* \"#utility.yul\":5309:5570   */\n      swap3\n      swap2\n      pop\n      pop\n      jump\t// out\n        /* \"#utility.yul\":5576:5672   */\n    tag_134:\n      0x00\n        /* \"#utility.yul\":5642:5666   */\n      tag_179\n        /* \"#utility.yul\":5660:5665   */\n      dup3\n        /* \"#utility.yul\":5642:5666   */\n      tag_180\n      jump\t// in\n    tag_179:\n        /* \"#utility.yul\":5631:5666   */\n      swap1\n      pop\n        /* \"#utility.yul\":5621:5672   */\n      swap2\n      swap1\n      pop\n      jump\t// out\n        /* \"#utility.yul\":5678:5804   */\n    tag_180:\n      0x00\n        /* \"#utility.yul\":5755:5797   */\n      0xffffffffffffffffffffffffffffffffffffffff\n        /* \"#utility.yul\":5748:5753   */\n      dup3\n        /* \"#utility.yul\":5744:5798   */\n      and\n        /* \"#utility.yul\":5733:5798   */\n      swap1\n      pop\n        /* \"#utility.yul\":5723:5804   */\n      swap2\n      swap1\n      pop\n      jump\t// out\n        /* \"#utility.yul\":5810:5887   */\n    tag_148:\n      0x00\n        /* \"#utility.yul\":5876:5881   */\n      dup2\n        /* \"#utility.yul\":5865:5881   */\n      swap1\n      pop\n        /* \"#utility.yul\":5855:5887   */\n      swap2\n      swap1\n      pop\n      jump\t// out\n        /* \"#utility.yul\":5893:5979   */\n    tag_152:\n      0x00\n        /* \"#utility.yul\":5968:5972   */\n      0xff\n        /* \"#utility.yul\":5961:5966   */\n      dup3\n        /* \"#utility.yul\":5957:5973   */\n      and\n        /* \"#utility.yul\":5946:5973   */\n      swap1\n      pop\n        /* \"#utility.yul\":5936:5979   */\n      swap2\n      swap1\n      pop\n      jump\t// out\n        /* \"#utility.yul\":5985:6139   */\n    tag_100:\n        /* \"#utility.yul\":6069:6075   */\n      dup3\n        /* \"#utility.yul\":6064:6067   */\n      dup2\n        /* \"#utility.yul\":6059:6062   */\n      dup4\n        /* \"#utility.yul\":6046:6076   */\n      calldatacopy\n        /* \"#utility.yul\":6131:6132   */\n      0x00\n        /* \"#utility.yul\":6122:6128   */\n      dup4\n        /* \"#utility.yul\":6117:6120   */\n      dup4\n        /* \"#utility.yul\":6113:6129   */\n      add\n        /* \"#utility.yul\":6106:6133   */\n      mstore\n        /* \"#utility.yul\":6036:6139   */\n      pop\n      pop\n      pop\n      jump\t// out\n        /* \"#utility.yul\":6145:6452   */\n    tag_142:\n        /* \"#utility.yul\":6213:6214   */\n      0x00\n        /* \"#utility.yul\":6223:6336   */\n    tag_186:\n        /* \"#utility.yul\":6237:6243   */\n      dup4\n        /* \"#utility.yul\":6234:6235   */\n      dup2\n        /* \"#utility.yul\":6231:6244   */\n      lt\n        /* \"#utility.yul\":6223:6336   */\n      iszero\n      tag_188\n      jumpi\n        /* \"#utility.yul\":6322:6323   */\n      dup1\n        /* \"#utility.yul\":6317:6320   */\n      dup3\n        /* \"#utility.yul\":6313:6324   */\n      add\n        /* \"#utility.yul\":6307:6325   */\n      mload\n        /* \"#utility.yul\":6303:6304   */\n      dup2\n        /* \"#utility.yul\":6298:6301   */\n      dup5\n        /* \"#utility.yul\":6294:6305   */\n      add\n        /* \"#utility.yul\":6287:6326   */\n      mstore\n        /* \"#utility.yul\":6259:6261   */\n      0x20\n        /* \"#utility.yul\":6256:6257   */\n      dup2\n        /* \"#utility.yul\":6252:6262   */\n      add\n        /* \"#utility.yul\":6247:6262   */\n      swap1\n      pop\n        /* \"#utility.yul\":6223:6336   */\n      jump(tag_186)\n    tag_188:\n        /* \"#utility.yul\":6354:6360   */\n      dup4\n        /* \"#utility.yul\":6351:6352   */\n      dup2\n        /* \"#utility.yul\":6348:6361   */\n      gt\n        /* \"#utility.yul\":6345:6347   */\n      iszero\n      tag_189\n      jumpi\n        /* \"#utility.yul\":6434:6435   */\n      0x00\n        /* \"#utility.yul\":6425:6431   */\n      dup5\n        /* \"#utility.yul\":6420:6423   */\n      dup5\n        /* \"#utility.yul\":6416:6432   */\n      add\n        /* \"#utility.yul\":6409:6436   */\n      mstore\n        /* \"#utility.yul\":6345:6347   */\n    tag_189:\n        /* \"#utility.yul\":6194:6452   */\n      pop\n      pop\n      pop\n      pop\n      jump\t// out\n        /* \"#utility.yul\":6458:6778   */\n    tag_48:\n      0x00\n        /* \"#utility.yul\":6539:6540   */\n      0x02\n        /* \"#utility.yul\":6533:6537   */\n      dup3\n        /* \"#utility.yul\":6529:6541   */\n      div\n        /* \"#utility.yul\":6519:6541   */\n      swap1\n      pop\n        /* \"#utility.yul\":6586:6587   */\n      0x01\n        /* \"#utility.yul\":6580:6584   */\n      dup3\n        /* \"#utility.yul\":6576:6588   */\n      and\n        /* \"#utility.yul\":6607:6625   */\n      dup1\n        /* \"#utility.yul\":6597:6599   */\n      tag_191\n      jumpi\n        /* \"#utility.yul\":6663:6667   */\n      0x7f\n        /* \"#utility.yul\":6655:6661   */\n      dup3\n        /* \"#utility.yul\":6651:6668   */\n      and\n        /* \"#utility.yul\":6641:6668   */\n      swap2\n      pop\n        /* \"#utility.yul\":6597:6599   */\n    tag_191:\n        /* \"#utility.yul\":6725:6727   */\n      0x20\n        /* \"#utility.yul\":6717:6723   */\n      dup3\n        /* \"#utility.yul\":6714:6728   */\n      lt\n        /* \"#utility.yul\":6694:6712   */\n      dup2\n        /* \"#utility.yul\":6691:6729   */\n      eq\n        /* \"#utility.yul\":6688:6690   */\n      iszero\n      tag_192\n      jumpi\n        /* \"#utility.yul\":6744:6762   */\n      tag_193\n      tag_194\n      jump\t// in\n    tag_193:\n        /* \"#utility.yul\":6688:6690   */\n    tag_192:\n        /* \"#utility.yul\":6509:6778   */\n      pop\n      swap2\n      swap1\n      pop\n      jump\t// out\n        /* \"#utility.yul\":6784:7017   */\n    tag_57:\n      0x00\n        /* \"#utility.yul\":6846:6870   */\n      tag_196\n        /* \"#utility.yul\":6864:6869   */\n      dup3\n        /* \"#utility.yul\":6846:6870   */\n      tag_148\n      jump\t// in\n    tag_196:\n        /* \"#utility.yul\":6837:6870   */\n      swap2\n      pop\n        /* \"#utility.yul\":6892:6958   */\n      0xffffffffffffffffffffffffffffffffffffffffffffffffffffffffffffffff\n        /* \"#utility.yul\":6885:6890   */\n      dup3\n        /* \"#utility.yul\":6882:6959   */\n      eq\n        /* \"#utility.yul\":6879:6881   */\n      iszero\n      tag_197\n      jumpi\n        /* \"#utility.yul\":6962:6980   */\n      tag_198\n      tag_177\n      jump\t// in\n    tag_198:\n        /* \"#utility.yul\":6879:6881   */\n    tag_197:\n        /* \"#utility.yul\":7009:7010   */\n      0x01\n        /* \"#utility.yul\":7002:7007   */\n      dup3\n        /* \"#utility.yul\":6998:7011   */\n      add\n        /* \"#utility.yul\":6991:7011   */\n      swap1\n      pop\n        /* \"#utility.yul\":6827:7017   */\n      swap2\n      swap1\n      pop\n      jump\t// out\n        /* \"#utility.yul\":7023:7190   */\n    tag_73:\n      0x00\n        /* \"#utility.yul\":7083:7105   */\n      tag_200\n        /* \"#utility.yul\":7099:7104   */\n      dup3\n        /* \"#utility.yul\":7083:7105   */\n      tag_152\n      jump\t// in\n    tag_200:\n        /* \"#utility.yul\":7074:7105   */\n      swap2\n      pop\n        /* \"#utility.yul\":7127:7131   */\n      0xff\n        /* \"#utility.yul\":7120:7125   */\n      dup3\n        /* \"#utility.yul\":7117:7132   */\n      eq\n        /* \"#utility.yul\":7114:7116   */\n      iszero\n      tag_201\n      jumpi\n        /* \"#utility.yul\":7135:7153   */\n      tag_202\n      tag_177\n      jump\t// in\n    tag_202:\n        /* \"#utility.yul\":7114:7116   */\n    tag_201:\n        /* \"#utility.yul\":7182:7183   */\n      0x01\n        /* \"#utility.yul\":7175:7180   */\n      dup3\n        /* \"#utility.yul\":7171:7184   */\n      add\n        /* \"#utility.yul\":7164:7184   */\n      swap1\n      pop\n        /* \"#utility.yul\":7064:7190   */\n      swap2\n      swap1\n      pop\n      jump\t// out\n        /* \"#utility.yul\":7196:7376   */\n    tag_177:\n        /* \"#utility.yul\":7244:7321   */\n      0x4e487b7100000000000000000000000000000000000000000000000000000000\n        /* \"#utility.yul\":7241:7242   */\n      0x00\n        /* \"#utility.yul\":7234:7322   */\n      mstore\n        /* \"#utility.yul\":7341:7345   */\n      0x11\n        /* \"#utility.yul\":7338:7339   */\n      0x04\n        /* \"#utility.yul\":7331:7346   */\n      mstore\n        /* \"#utility.yul\":7365:7369   */\n      0x24\n        /* \"#utility.yul\":7362:7363   */\n      0x00\n        /* \"#utility.yul\":7355:7370   */\n      revert\n        /* \"#utility.yul\":7382:7562   */\n    tag_194:\n        /* \"#utility.yul\":7430:7507   */\n      0x4e487b7100000000000000000000000000000000000000000000000000000000\n        /* \"#utility.yul\":7427:7428   */\n      0x00\n        /* \"#utility.yul\":7420:7508   */\n      mstore\n        /* \"#utility.yul\":7527:7531   */\n      0x22\n        /* \"#utility.yul\":7524:7525   */\n      0x04\n        /* \"#utility.yul\":7517:7532   */\n      mstore\n        /* \"#utility.yul\":7551:7555   */\n      0x24\n        /* \"#utility.yul\":7548:7549   */\n      0x00\n        /* \"#utility.yul\":7541:7556   */\n      revert\n        /* \"#utility.yul\":7568:7748   */\n    tag_166:\n        /* \"#utility.yul\":7616:7693   */\n      0x4e487b7100000000000000000000000000000000000000000000000000000000\n        /* \"#utility.yul\":7613:7614   */\n      0x00\n        /* \"#utility.yul\":7606:7694   */\n      mstore\n        /* \"#utility.yul\":7713:7717   */\n      0x41\n        /* \"#utility.yul\":7710:7711   */\n      0x04\n        /* \"#utility.yul\":7703:7718   */\n      mstore\n        /* \"#utility.yul\":7737:7741   */\n      0x24\n        /* \"#utility.yul\":7734:7735   */\n      0x00\n        /* \"#utility.yul\":7727:7742   */\n      revert\n        /* \"#utility.yul\":7754:7856   */\n    tag_144:\n      0x00\n        /* \"#utility.yul\":7846:7848   */\n      0x1f\n        /* \"#utility.yul\":7842:7849   */\n      not\n        /* \"#utility.yul\":7837:7839   */\n      0x1f\n        /* \"#utility.yul\":7830:7835   */\n      dup4\n        /* \"#utility.yul\":7826:7840   */\n      add\n        /* \"#utility.yul\":7822:7850   */\n      and\n        /* \"#utility.yul\":7812:7850   */\n      swap1\n      pop\n        /* \"#utility.yul\":7802:7856   */\n      swap2\n      swap1\n      pop\n      jump\t// out\n        /* \"#utility.yul\":7862:7984   */\n    tag_104:\n        /* \"#utility.yul\":7935:7959   */\n      tag_208\n        /* \"#utility.yul\":7953:7958   */\n      dup2\n        /* \"#utility.yul\":7935:7959   */\n      tag_134\n      jump\t// in\n    tag_208:\n        /* \"#utility.yul\":7928:7933   */\n      dup2\n        /* \"#utility.yul\":7925:7960   */\n      eq\n        /* \"#utility.yul\":7915:7917   */\n      tag_209\n      jumpi\n        /* \"#utility.yul\":7974:7975   */\n      0x00\n        /* \"#utility.yul\":7971:7972   */\n      dup1\n        /* \"#utility.yul\":7964:7976   */\n      revert\n        /* \"#utility.yul\":7915:7917   */\n    tag_209:\n        /* \"#utility.yul\":7905:7984   */\n      pop\n      jump\t// out\n        /* \"#utility.yul\":7990:8112   */\n    tag_112:\n        /* \"#utility.yul\":8063:8087   */\n      tag_211\n        /* \"#utility.yul\":8081:8086   */\n      dup2\n        /* \"#utility.yul\":8063:8087   */\n      tag_148\n      jump\t// in\n    tag_211:\n        /* \"#utility.yul\":8056:8061   */\n      dup2\n        /* \"#utility.yul\":8053:8088   */\n      eq\n        /* \"#utility.yul\":8043:8045   */\n      tag_212\n      jumpi\n        /* \"#utility.yul\":8102:8103   */\n      0x00\n        /* \"#utility.yul\":8099:8100   */\n      dup1\n        /* \"#utility.yul\":8092:8104   */\n      revert\n        /* \"#utility.yul\":8043:8045   */\n    tag_212:\n        /* \"#utility.yul\":8033:8112   */\n      pop\n      jump\t// out\n        /* \"#utility.yul\":8118:8236   */\n    tag_116:\n        /* \"#utility.yul\":8189:8211   */\n      tag_214\n        /* \"#utility.yul\":8205:8210   */\n      dup2\n        /* \"#utility.yul\":8189:8211   */\n      tag_152\n      jump\t// in\n    tag_214:\n        /* \"#utility.yul\":8182:8187   */\n      dup2\n        /* \"#utility.yul\":8179:8212   */\n      eq\n        /* \"#utility.yul\":8169:8171   */\n      tag_215\n      jumpi\n        /* \"#utility.yul\":8226:8227   */\n      0x00\n        /* \"#utility.yul\":8223:8224   */\n      dup1\n        /* \"#utility.yul\":8216:8228   */\n      revert\n        /* \"#utility.yul\":8169:8171   */\n    tag_215:\n        /* \"#utility.yul\":8159:8236   */\n      pop\n      jump\t// out\n\n    auxdata: 0xa26469706673582212209456ec04d32ce374c0e4ef55ef9e2c37d48add1b7d7a11437debc8f7b0a142a364736f6c63430008000033\n}\n",
				"bytecode": {
					"linkReferences": {},
					"object": "608060405260008055600060015534801561001957600080fd5b5033600260006101000a81548173ffffffffffffffffffffffffffffffffffffffff021916908373ffffffffffffffffffffffffffffffffffffffff160217905550600260036000600260009054906101000a900473ffffffffffffffffffffffffffffffffffffffff1673ffffffffffffffffffffffffffffffffffffffff1673ffffffffffffffffffffffffffffffffffffffff16815260200190815260200160002060000181905550610cae806100d46000396000f3fe608060405234801561001057600080fd5b50600436106100885760003560e01c8063585cc4c41161005b578063585cc4c414610117578063609ff1bd14610133578063b3f98adc14610151578063da35c6641461016d57610088565b8063013cf08b1461008d5780632e4176cf146100bf5780632e46fb9a146100dd5780634420e486146100fb575b600080fd5b6100a760048036038101906100a291906107f7565b61018b565b6040516100b693929190610939565b60405180910390f35b6100c761024d565b6040516100d49190610903565b60405180910390f35b6100e5610273565b6040516100f2919061091e565b60405180910390f35b610115600480360381019061011091906107ce565b610279565b005b610131600480360381019061012c9190610820565b6103eb565b005b61013b610486565b6040516101489190610977565b60405180910390f35b61016b60048036038101906101669190610874565b610563565b005b61017561067e565b604051610182919061091e565b60405180910390f35b6004818154811061019b57600080fd5b90600052602060002090600302016000915090508060000154908060010180546101c490610af0565b80601f01602080910402602001604051908101604052809291908181526020018280546101f090610af0565b801561023d5780601f106102125761010080835404028352916020019161023d565b820191906000526020600020905b81548152906001019060200180831161022057829003601f168201915b5050505050908060020154905083565b600260009054906101000a900473ffffffffffffffffffffffffffffffffffffffff1681565b60015481565b600260009054906101000a900473ffffffffffffffffffffffffffffffffffffffff1673ffffffffffffffffffffffffffffffffffffffff163373ffffffffffffffffffffffffffffffffffffffff161415806103225750600360008273ffffffffffffffffffffffffffffffffffffffff1673ffffffffffffffffffffffffffffffffffffffff16815260200190815260200160002060010160009054906101000a900460ff165b1561032c576103e8565b6001600360008373ffffffffffffffffffffffffffffffffffffffff1673ffffffffffffffffffffffffffffffffffffffff168152602001908152602001600020600001819055506000600360008373ffffffffffffffffffffffffffffffffffffffff1673ffffffffffffffffffffffffffffffffffffffff16815260200190815260200160002060010160006101000a81548160ff021916908315150217905550600160008154809291906103e290610b22565b91905055505b50565b6000604051806060016040528084815260200183815260200160008152509050600481908060018154018082558091505060019003906000526020600020906003020160009091909190915060008201518160000155602082015181600101908051906020019061045d929190610684565b5060408201518160020155505060008081548092919061047c90610b22565b9190505550505050565b6000806000905060005b6004805490508160ff16101561055e578160048260ff16815481106104de577f4e487b7100000000000000000000000000000000000000000000000000000000600052603260045260246000fd5b906000526020600020906003020160020154111561054b5760048160ff1681548110610533577f4e487b7100000000000000000000000000000000000000000000000000000000600052603260045260246000fd5b90600052602060002090600302016002015491508092505b808061055690610b6b565b915050610490565b505090565b6000600360003373ffffffffffffffffffffffffffffffffffffffff1673ffffffffffffffffffffffffffffffffffffffff16815260200190815260200160002090508060010160009054906101000a900460ff16806105cb57506004805490508260ff1610155b156105d6575061067b565b60018160010160006101000a81548160ff021916908315150217905550818160010160016101000a81548160ff021916908360ff160217905550806000015460048360ff1681548110610652577f4e487b7100000000000000000000000000000000000000000000000000000000600052603260045260246000fd5b906000526020600020906003020160020160008282546106729190610a0f565b92505081905550505b50565b60005481565b82805461069090610af0565b90600052602060002090601f0160209004810192826106b257600085556106f9565b82601f106106cb57805160ff19168380011785556106f9565b828001600101855582156106f9579182015b828111156106f85782518255916020019190600101906106dd565b5b509050610706919061070a565b5090565b5b8082111561072357600081600090555060010161070b565b5090565b600061073a610735846109c3565b610992565b90508281526020810184848401111561075257600080fd5b61075d848285610aae565b509392505050565b60008135905061077481610c33565b92915050565b600082601f83011261078b57600080fd5b813561079b848260208601610727565b91505092915050565b6000813590506107b381610c4a565b92915050565b6000813590506107c881610c61565b92915050565b6000602082840312156107e057600080fd5b60006107ee84828501610765565b91505092915050565b60006020828403121561080957600080fd5b6000610817848285016107a4565b91505092915050565b6000806040838503121561083357600080fd5b6000610841858286016107a4565b925050602083013567ffffffffffffffff81111561085e57600080fd5b61086a8582860161077a565b9150509250929050565b60006020828403121561088657600080fd5b6000610894848285016107b9565b91505092915050565b6108a681610a65565b82525050565b60006108b7826109f3565b6108c181856109fe565b93506108d1818560208601610abd565b6108da81610c22565b840191505092915050565b6108ee81610a97565b82525050565b6108fd81610aa1565b82525050565b6000602082019050610918600083018461089d565b92915050565b600060208201905061093360008301846108e5565b92915050565b600060608201905061094e60008301866108e5565b818103602083015261096081856108ac565b905061096f60408301846108e5565b949350505050565b600060208201905061098c60008301846108f4565b92915050565b6000604051905081810181811067ffffffffffffffff821117156109b9576109b8610bf3565b5b8060405250919050565b600067ffffffffffffffff8211156109de576109dd610bf3565b5b601f19601f8301169050602081019050919050565b600081519050919050565b600082825260208201905092915050565b6000610a1a82610a97565b9150610a2583610a97565b9250827fffffffffffffffffffffffffffffffffffffffffffffffffffffffffffffffff03821115610a5a57610a59610b95565b5b828201905092915050565b6000610a7082610a77565b9050919050565b600073ffffffffffffffffffffffffffffffffffffffff82169050919050565b6000819050919050565b600060ff82169050919050565b82818337600083830152505050565b60005b83811015610adb578082015181840152602081019050610ac0565b83811115610aea576000848401525b50505050565b60006002820490506001821680610b0857607f821691505b60208210811415610b1c57610b1b610bc4565b5b50919050565b6000610b2d82610a97565b91507fffffffffffffffffffffffffffffffffffffffffffffffffffffffffffffffff821415610b6057610b5f610b95565b5b600182019050919050565b6000610b7682610aa1565b915060ff821415610b8a57610b89610b95565b5b600182019050919050565b7f4e487b7100000000000000000000000000000000000000000000000000000000600052601160045260246000fd5b7f4e487b7100000000000000000000000000000000000000000000000000000000600052602260045260246000fd5b7f4e487b7100000000000000000000000000000000000000000000000000000000600052604160045260246000fd5b6000601f19601f8301169050919050565b610c3c81610a65565b8114610c4757600080fd5b50565b610c5381610a97565b8114610c5e57600080fd5b50565b610c6a81610aa1565b8114610c7557600080fd5b5056fea26469706673582212209456ec04d32ce374c0e4ef55ef9e2c37d48add1b7d7a11437debc8f7b0a142a364736f6c63430008000033",
					"opcodes": "PUSH1 0x80 PUSH1 0x40 MSTORE PUSH1 0x0 DUP1 SSTORE PUSH1 0x0 PUSH1 0x1 SSTORE CALLVALUE DUP1 ISZERO PUSH2 0x19 JUMPI PUSH1 0x0 DUP1 REVERT JUMPDEST POP CALLER PUSH1 0x2 PUSH1 0x0 PUSH2 0x100 EXP DUP2 SLOAD DUP2 PUSH20 0xFFFFFFFFFFFFFFFFFFFFFFFFFFFFFFFFFFFFFFFF MUL NOT AND SWAP1 DUP4 PUSH20 0xFFFFFFFFFFFFFFFFFFFFFFFFFFFFFFFFFFFFFFFF AND MUL OR SWAP1 SSTORE POP PUSH1 0x2 PUSH1 0x3 PUSH1 0x0 PUSH1 0x2 PUSH1 0x0 SWAP1 SLOAD SWAP1 PUSH2 0x100 EXP SWAP1 DIV PUSH20 0xFFFFFFFFFFFFFFFFFFFFFFFFFFFFFFFFFFFFFFFF AND PUSH20 0xFFFFFFFFFFFFFFFFFFFFFFFFFFFFFFFFFFFFFFFF AND PUSH20 0xFFFFFFFFFFFFFFFFFFFFFFFFFFFFFFFFFFFFFFFF AND DUP2 MSTORE PUSH1 0x20 ADD SWAP1 DUP2 MSTORE PUSH1 0x20 ADD PUSH1 0x0 KECCAK256 PUSH1 0x0 ADD DUP2 SWAP1 SSTORE POP PUSH2 0xCAE DUP1 PUSH2 0xD4 PUSH1 0x0 CODECOPY PUSH1 0x0 RETURN INVALID PUSH1 0x80 PUSH1 0x40 MSTORE CALLVALUE DUP1 ISZERO PUSH2 0x10 JUMPI PUSH1 0x0 DUP1 REVERT JUMPDEST POP PUSH1 0x4 CALLDATASIZE LT PUSH2 0x88 JUMPI PUSH1 0x0 CALLDATALOAD PUSH1 0xE0 SHR DUP1 PUSH4 0x585CC4C4 GT PUSH2 0x5B JUMPI DUP1 PUSH4 0x585CC4C4 EQ PUSH2 0x117 JUMPI DUP1 PUSH4 0x609FF1BD EQ PUSH2 0x133 JUMPI DUP1 PUSH4 0xB3F98ADC EQ PUSH2 0x151 JUMPI DUP1 PUSH4 0xDA35C664 EQ PUSH2 0x16D JUMPI PUSH2 0x88 JUMP JUMPDEST DUP1 PUSH4 0x13CF08B EQ PUSH2 0x8D JUMPI DUP1 PUSH4 0x2E4176CF EQ PUSH2 0xBF JUMPI DUP1 PUSH4 0x2E46FB9A EQ PUSH2 0xDD JUMPI DUP1 PUSH4 0x4420E486 EQ PUSH2 0xFB JUMPI JUMPDEST PUSH1 0x0 DUP1 REVERT JUMPDEST PUSH2 0xA7 PUSH1 0x4 DUP1 CALLDATASIZE SUB DUP2 ADD SWAP1 PUSH2 0xA2 SWAP2 SWAP1 PUSH2 0x7F7 JUMP JUMPDEST PUSH2 0x18B JUMP JUMPDEST PUSH1 0x40 MLOAD PUSH2 0xB6 SWAP4 SWAP3 SWAP2 SWAP1 PUSH2 0x939 JUMP JUMPDEST PUSH1 0x40 MLOAD DUP1 SWAP2 SUB SWAP1 RETURN JUMPDEST PUSH2 0xC7 PUSH2 0x24D JUMP JUMPDEST PUSH1 0x40 MLOAD PUSH2 0xD4 SWAP2 SWAP1 PUSH2 0x903 JUMP JUMPDEST PUSH1 0x40 MLOAD DUP1 SWAP2 SUB SWAP1 RETURN JUMPDEST PUSH2 0xE5 PUSH2 0x273 JUMP JUMPDEST PUSH1 0x40 MLOAD PUSH2 0xF2 SWAP2 SWAP1 PUSH2 0x91E JUMP JUMPDEST PUSH1 0x40 MLOAD DUP1 SWAP2 SUB SWAP1 RETURN JUMPDEST PUSH2 0x115 PUSH1 0x4 DUP1 CALLDATASIZE SUB DUP2 ADD SWAP1 PUSH2 0x110 SWAP2 SWAP1 PUSH2 0x7CE JUMP JUMPDEST PUSH2 0x279 JUMP JUMPDEST STOP JUMPDEST PUSH2 0x131 PUSH1 0x4 DUP1 CALLDATASIZE SUB DUP2 ADD SWAP1 PUSH2 0x12C SWAP2 SWAP1 PUSH2 0x820 JUMP JUMPDEST PUSH2 0x3EB JUMP JUMPDEST STOP JUMPDEST PUSH2 0x13B PUSH2 0x486 JUMP JUMPDEST PUSH1 0x40 MLOAD PUSH2 0x148 SWAP2 SWAP1 PUSH2 0x977 JUMP JUMPDEST PUSH1 0x40 MLOAD DUP1 SWAP2 SUB SWAP1 RETURN JUMPDEST PUSH2 0x16B PUSH1 0x4 DUP1 CALLDATASIZE SUB DUP2 ADD SWAP1 PUSH2 0x166 SWAP2 SWAP1 PUSH2 0x874 JUMP JUMPDEST PUSH2 0x563 JUMP JUMPDEST STOP JUMPDEST PUSH2 0x175 PUSH2 0x67E JUMP JUMPDEST PUSH1 0x40 MLOAD PUSH2 0x182 SWAP2 SWAP1 PUSH2 0x91E JUMP JUMPDEST PUSH1 0x40 MLOAD DUP1 SWAP2 SUB SWAP1 RETURN JUMPDEST PUSH1 0x4 DUP2 DUP2 SLOAD DUP2 LT PUSH2 0x19B JUMPI PUSH1 0x0 DUP1 REVERT JUMPDEST SWAP1 PUSH1 0x0 MSTORE PUSH1 0x20 PUSH1 0x0 KECCAK256 SWAP1 PUSH1 0x3 MUL ADD PUSH1 0x0 SWAP2 POP SWAP1 POP DUP1 PUSH1 0x0 ADD SLOAD SWAP1 DUP1 PUSH1 0x1 ADD DUP1 SLOAD PUSH2 0x1C4 SWAP1 PUSH2 0xAF0 JUMP JUMPDEST DUP1 PUSH1 0x1F ADD PUSH1 0x20 DUP1 SWAP2 DIV MUL PUSH1 0x20 ADD PUSH1 0x40 MLOAD SWAP1 DUP2 ADD PUSH1 0x40 MSTORE DUP1 SWAP3 SWAP2 SWAP1 DUP2 DUP2 MSTORE PUSH1 0x20 ADD DUP3 DUP1 SLOAD PUSH2 0x1F0 SWAP1 PUSH2 0xAF0 JUMP JUMPDEST DUP1 ISZERO PUSH2 0x23D JUMPI DUP1 PUSH1 0x1F LT PUSH2 0x212 JUMPI PUSH2 0x100 DUP1 DUP4 SLOAD DIV MUL DUP4 MSTORE SWAP2 PUSH1 0x20 ADD SWAP2 PUSH2 0x23D JUMP JUMPDEST DUP3 ADD SWAP2 SWAP1 PUSH1 0x0 MSTORE PUSH1 0x20 PUSH1 0x0 KECCAK256 SWAP1 JUMPDEST DUP2 SLOAD DUP2 MSTORE SWAP1 PUSH1 0x1 ADD SWAP1 PUSH1 0x20 ADD DUP1 DUP4 GT PUSH2 0x220 JUMPI DUP3 SWAP1 SUB PUSH1 0x1F AND DUP3 ADD SWAP2 JUMPDEST POP POP POP POP POP SWAP1 DUP1 PUSH1 0x2 ADD SLOAD SWAP1 POP DUP4 JUMP JUMPDEST PUSH1 0x2 PUSH1 0x0 SWAP1 SLOAD SWAP1 PUSH2 0x100 EXP SWAP1 DIV PUSH20 0xFFFFFFFFFFFFFFFFFFFFFFFFFFFFFFFFFFFFFFFF AND DUP2 JUMP JUMPDEST PUSH1 0x1 SLOAD DUP2 JUMP JUMPDEST PUSH1 0x2 PUSH1 0x0 SWAP1 SLOAD SWAP1 PUSH2 0x100 EXP SWAP1 DIV PUSH20 0xFFFFFFFFFFFFFFFFFFFFFFFFFFFFFFFFFFFFFFFF AND PUSH20 0xFFFFFFFFFFFFFFFFFFFFFFFFFFFFFFFFFFFFFFFF AND CALLER PUSH20 0xFFFFFFFFFFFFFFFFFFFFFFFFFFFFFFFFFFFFFFFF AND EQ ISZERO DUP1 PUSH2 0x322 JUMPI POP PUSH1 0x3 PUSH1 0x0 DUP3 PUSH20 0xFFFFFFFFFFFFFFFFFFFFFFFFFFFFFFFFFFFFFFFF AND PUSH20 0xFFFFFFFFFFFFFFFFFFFFFFFFFFFFFFFFFFFFFFFF AND DUP2 MSTORE PUSH1 0x20 ADD SWAP1 DUP2 MSTORE PUSH1 0x20 ADD PUSH1 0x0 KECCAK256 PUSH1 0x1 ADD PUSH1 0x0 SWAP1 SLOAD SWAP1 PUSH2 0x100 EXP SWAP1 DIV PUSH1 0xFF AND JUMPDEST ISZERO PUSH2 0x32C JUMPI PUSH2 0x3E8 JUMP JUMPDEST PUSH1 0x1 PUSH1 0x3 PUSH1 0x0 DUP4 PUSH20 0xFFFFFFFFFFFFFFFFFFFFFFFFFFFFFFFFFFFFFFFF AND PUSH20 0xFFFFFFFFFFFFFFFFFFFFFFFFFFFFFFFFFFFFFFFF AND DUP2 MSTORE PUSH1 0x20 ADD SWAP1 DUP2 MSTORE PUSH1 0x20 ADD PUSH1 0x0 KECCAK256 PUSH1 0x0 ADD DUP2 SWAP1 SSTORE POP PUSH1 0x0 PUSH1 0x3 PUSH1 0x0 DUP4 PUSH20 0xFFFFFFFFFFFFFFFFFFFFFFFFFFFFFFFFFFFFFFFF AND PUSH20 0xFFFFFFFFFFFFFFFFFFFFFFFFFFFFFFFFFFFFFFFF AND DUP2 MSTORE PUSH1 0x20 ADD SWAP1 DUP2 MSTORE PUSH1 0x20 ADD PUSH1 0x0 KECCAK256 PUSH1 0x1 ADD PUSH1 0x0 PUSH2 0x100 EXP DUP2 SLOAD DUP2 PUSH1 0xFF MUL NOT AND SWAP1 DUP4 ISZERO ISZERO MUL OR SWAP1 SSTORE POP PUSH1 0x1 PUSH1 0x0 DUP2 SLOAD DUP1 SWAP3 SWAP2 SWAP1 PUSH2 0x3E2 SWAP1 PUSH2 0xB22 JUMP JUMPDEST SWAP2 SWAP1 POP SSTORE POP JUMPDEST POP JUMP JUMPDEST PUSH1 0x0 PUSH1 0x40 MLOAD DUP1 PUSH1 0x60 ADD PUSH1 0x40 MSTORE DUP1 DUP5 DUP2 MSTORE PUSH1 0x20 ADD DUP4 DUP2 MSTORE PUSH1 0x20 ADD PUSH1 0x0 DUP2 MSTORE POP SWAP1 POP PUSH1 0x4 DUP2 SWAP1 DUP1 PUSH1 0x1 DUP2 SLOAD ADD DUP1 DUP3 SSTORE DUP1 SWAP2 POP POP PUSH1 0x1 SWAP1 SUB SWAP1 PUSH1 0x0 MSTORE PUSH1 0x20 PUSH1 0x0 KECCAK256 SWAP1 PUSH1 0x3 MUL ADD PUSH1 0x0 SWAP1 SWAP2 SWAP1 SWAP2 SWAP1 SWAP2 POP PUSH1 0x0 DUP3 ADD MLOAD DUP2 PUSH1 0x0 ADD SSTORE PUSH1 0x20 DUP3 ADD MLOAD DUP2 PUSH1 0x1 ADD SWAP1 DUP1 MLOAD SWAP1 PUSH1 0x20 ADD SWAP1 PUSH2 0x45D SWAP3 SWAP2 SWAP1 PUSH2 0x684 JUMP JUMPDEST POP PUSH1 0x40 DUP3 ADD MLOAD DUP2 PUSH1 0x2 ADD SSTORE POP POP PUSH1 0x0 DUP1 DUP2 SLOAD DUP1 SWAP3 SWAP2 SWAP1 PUSH2 0x47C SWAP1 PUSH2 0xB22 JUMP JUMPDEST SWAP2 SWAP1 POP SSTORE POP POP POP POP JUMP JUMPDEST PUSH1 0x0 DUP1 PUSH1 0x0 SWAP1 POP PUSH1 0x0 JUMPDEST PUSH1 0x4 DUP1 SLOAD SWAP1 POP DUP2 PUSH1 0xFF AND LT ISZERO PUSH2 0x55E JUMPI DUP2 PUSH1 0x4 DUP3 PUSH1 0xFF AND DUP2 SLOAD DUP2 LT PUSH2 0x4DE JUMPI PUSH32 0x4E487B7100000000000000000000000000000000000000000000000000000000 PUSH1 0x0 MSTORE PUSH1 0x32 PUSH1 0x4 MSTORE PUSH1 0x24 PUSH1 0x0 REVERT JUMPDEST SWAP1 PUSH1 0x0 MSTORE PUSH1 0x20 PUSH1 0x0 KECCAK256 SWAP1 PUSH1 0x3 MUL ADD PUSH1 0x2 ADD SLOAD GT ISZERO PUSH2 0x54B JUMPI PUSH1 0x4 DUP2 PUSH1 0xFF AND DUP2 SLOAD DUP2 LT PUSH2 0x533 JUMPI PUSH32 0x4E487B7100000000000000000000000000000000000000000000000000000000 PUSH1 0x0 MSTORE PUSH1 0x32 PUSH1 0x4 MSTORE PUSH1 0x24 PUSH1 0x0 REVERT JUMPDEST SWAP1 PUSH1 0x0 MSTORE PUSH1 0x20 PUSH1 0x0 KECCAK256 SWAP1 PUSH1 0x3 MUL ADD PUSH1 0x2 ADD SLOAD SWAP2 POP DUP1 SWAP3 POP JUMPDEST DUP1 DUP1 PUSH2 0x556 SWAP1 PUSH2 0xB6B JUMP JUMPDEST SWAP2 POP POP PUSH2 0x490 JUMP JUMPDEST POP POP SWAP1 JUMP JUMPDEST PUSH1 0x0 PUSH1 0x3 PUSH1 0x0 CALLER PUSH20 0xFFFFFFFFFFFFFFFFFFFFFFFFFFFFFFFFFFFFFFFF AND PUSH20 0xFFFFFFFFFFFFFFFFFFFFFFFFFFFFFFFFFFFFFFFF AND DUP2 MSTORE PUSH1 0x20 ADD SWAP1 DUP2 MSTORE PUSH1 0x20 ADD PUSH1 0x0 KECCAK256 SWAP1 POP DUP1 PUSH1 0x1 ADD PUSH1 0x0 SWAP1 SLOAD SWAP1 PUSH2 0x100 EXP SWAP1 DIV PUSH1 0xFF AND DUP1 PUSH2 0x5CB JUMPI POP PUSH1 0x4 DUP1 SLOAD SWAP1 POP DUP3 PUSH1 0xFF AND LT ISZERO JUMPDEST ISZERO PUSH2 0x5D6 JUMPI POP PUSH2 0x67B JUMP JUMPDEST PUSH1 0x1 DUP2 PUSH1 0x1 ADD PUSH1 0x0 PUSH2 0x100 EXP DUP2 SLOAD DUP2 PUSH1 0xFF MUL NOT AND SWAP1 DUP4 ISZERO ISZERO MUL OR SWAP1 SSTORE POP DUP2 DUP2 PUSH1 0x1 ADD PUSH1 0x1 PUSH2 0x100 EXP DUP2 SLOAD DUP2 PUSH1 0xFF MUL NOT AND SWAP1 DUP4 PUSH1 0xFF AND MUL OR SWAP1 SSTORE POP DUP1 PUSH1 0x0 ADD SLOAD PUSH1 0x4 DUP4 PUSH1 0xFF AND DUP2 SLOAD DUP2 LT PUSH2 0x652 JUMPI PUSH32 0x4E487B7100000000000000000000000000000000000000000000000000000000 PUSH1 0x0 MSTORE PUSH1 0x32 PUSH1 0x4 MSTORE PUSH1 0x24 PUSH1 0x0 REVERT JUMPDEST SWAP1 PUSH1 0x0 MSTORE PUSH1 0x20 PUSH1 0x0 KECCAK256 SWAP1 PUSH1 0x3 MUL ADD PUSH1 0x2 ADD PUSH1 0x0 DUP3 DUP3 SLOAD PUSH2 0x672 SWAP2 SWAP1 PUSH2 0xA0F JUMP JUMPDEST SWAP3 POP POP DUP2 SWAP1 SSTORE POP POP JUMPDEST POP JUMP JUMPDEST PUSH1 0x0 SLOAD DUP2 JUMP JUMPDEST DUP3 DUP1 SLOAD PUSH2 0x690 SWAP1 PUSH2 0xAF0 JUMP JUMPDEST SWAP1 PUSH1 0x0 MSTORE PUSH1 0x20 PUSH1 0x0 KECCAK256 SWAP1 PUSH1 0x1F ADD PUSH1 0x20 SWAP1 DIV DUP2 ADD SWAP3 DUP3 PUSH2 0x6B2 JUMPI PUSH1 0x0 DUP6 SSTORE PUSH2 0x6F9 JUMP JUMPDEST DUP3 PUSH1 0x1F LT PUSH2 0x6CB JUMPI DUP1 MLOAD PUSH1 0xFF NOT AND DUP4 DUP1 ADD OR DUP6 SSTORE PUSH2 0x6F9 JUMP JUMPDEST DUP3 DUP1 ADD PUSH1 0x1 ADD DUP6 SSTORE DUP3 ISZERO PUSH2 0x6F9 JUMPI SWAP2 DUP3 ADD JUMPDEST DUP3 DUP2 GT ISZERO PUSH2 0x6F8 JUMPI DUP3 MLOAD DUP3 SSTORE SWAP2 PUSH1 0x20 ADD SWAP2 SWAP1 PUSH1 0x1 ADD SWAP1 PUSH2 0x6DD JUMP JUMPDEST JUMPDEST POP SWAP1 POP PUSH2 0x706 SWAP2 SWAP1 PUSH2 0x70A JUMP JUMPDEST POP SWAP1 JUMP JUMPDEST JUMPDEST DUP1 DUP3 GT ISZERO PUSH2 0x723 JUMPI PUSH1 0x0 DUP2 PUSH1 0x0 SWAP1 SSTORE POP PUSH1 0x1 ADD PUSH2 0x70B JUMP JUMPDEST POP SWAP1 JUMP JUMPDEST PUSH1 0x0 PUSH2 0x73A PUSH2 0x735 DUP5 PUSH2 0x9C3 JUMP JUMPDEST PUSH2 0x992 JUMP JUMPDEST SWAP1 POP DUP3 DUP2 MSTORE PUSH1 0x20 DUP2 ADD DUP5 DUP5 DUP5 ADD GT ISZERO PUSH2 0x752 JUMPI PUSH1 0x0 DUP1 REVERT JUMPDEST PUSH2 0x75D DUP5 DUP3 DUP6 PUSH2 0xAAE JUMP JUMPDEST POP SWAP4 SWAP3 POP POP POP JUMP JUMPDEST PUSH1 0x0 DUP2 CALLDATALOAD SWAP1 POP PUSH2 0x774 DUP2 PUSH2 0xC33 JUMP JUMPDEST SWAP3 SWAP2 POP POP JUMP JUMPDEST PUSH1 0x0 DUP3 PUSH1 0x1F DUP4 ADD SLT PUSH2 0x78B JUMPI PUSH1 0x0 DUP1 REVERT JUMPDEST DUP2 CALLDATALOAD PUSH2 0x79B DUP5 DUP3 PUSH1 0x20 DUP7 ADD PUSH2 0x727 JUMP JUMPDEST SWAP2 POP POP SWAP3 SWAP2 POP POP JUMP JUMPDEST PUSH1 0x0 DUP2 CALLDATALOAD SWAP1 POP PUSH2 0x7B3 DUP2 PUSH2 0xC4A JUMP JUMPDEST SWAP3 SWAP2 POP POP JUMP JUMPDEST PUSH1 0x0 DUP2 CALLDATALOAD SWAP1 POP PUSH2 0x7C8 DUP2 PUSH2 0xC61 JUMP JUMPDEST SWAP3 SWAP2 POP POP JUMP JUMPDEST PUSH1 0x0 PUSH1 0x20 DUP3 DUP5 SUB SLT ISZERO PUSH2 0x7E0 JUMPI PUSH1 0x0 DUP1 REVERT JUMPDEST PUSH1 0x0 PUSH2 0x7EE DUP5 DUP3 DUP6 ADD PUSH2 0x765 JUMP JUMPDEST SWAP2 POP POP SWAP3 SWAP2 POP POP JUMP JUMPDEST PUSH1 0x0 PUSH1 0x20 DUP3 DUP5 SUB SLT ISZERO PUSH2 0x809 JUMPI PUSH1 0x0 DUP1 REVERT JUMPDEST PUSH1 0x0 PUSH2 0x817 DUP5 DUP3 DUP6 ADD PUSH2 0x7A4 JUMP JUMPDEST SWAP2 POP POP SWAP3 SWAP2 POP POP JUMP JUMPDEST PUSH1 0x0 DUP1 PUSH1 0x40 DUP4 DUP6 SUB SLT ISZERO PUSH2 0x833 JUMPI PUSH1 0x0 DUP1 REVERT JUMPDEST PUSH1 0x0 PUSH2 0x841 DUP6 DUP3 DUP7 ADD PUSH2 0x7A4 JUMP JUMPDEST SWAP3 POP POP PUSH1 0x20 DUP4 ADD CALLDATALOAD PUSH8 0xFFFFFFFFFFFFFFFF DUP2 GT ISZERO PUSH2 0x85E JUMPI PUSH1 0x0 DUP1 REVERT JUMPDEST PUSH2 0x86A DUP6 DUP3 DUP7 ADD PUSH2 0x77A JUMP JUMPDEST SWAP2 POP POP SWAP3 POP SWAP3 SWAP1 POP JUMP JUMPDEST PUSH1 0x0 PUSH1 0x20 DUP3 DUP5 SUB SLT ISZERO PUSH2 0x886 JUMPI PUSH1 0x0 DUP1 REVERT JUMPDEST PUSH1 0x0 PUSH2 0x894 DUP5 DUP3 DUP6 ADD PUSH2 0x7B9 JUMP JUMPDEST SWAP2 POP POP SWAP3 SWAP2 POP POP JUMP JUMPDEST PUSH2 0x8A6 DUP2 PUSH2 0xA65 JUMP JUMPDEST DUP3 MSTORE POP POP JUMP JUMPDEST PUSH1 0x0 PUSH2 0x8B7 DUP3 PUSH2 0x9F3 JUMP JUMPDEST PUSH2 0x8C1 DUP2 DUP6 PUSH2 0x9FE JUMP JUMPDEST SWAP4 POP PUSH2 0x8D1 DUP2 DUP6 PUSH1 0x20 DUP7 ADD PUSH2 0xABD JUMP JUMPDEST PUSH2 0x8DA DUP2 PUSH2 0xC22 JUMP JUMPDEST DUP5 ADD SWAP2 POP POP SWAP3 SWAP2 POP POP JUMP JUMPDEST PUSH2 0x8EE DUP2 PUSH2 0xA97 JUMP JUMPDEST DUP3 MSTORE POP POP JUMP JUMPDEST PUSH2 0x8FD DUP2 PUSH2 0xAA1 JUMP JUMPDEST DUP3 MSTORE POP POP JUMP JUMPDEST PUSH1 0x0 PUSH1 0x20 DUP3 ADD SWAP1 POP PUSH2 0x918 PUSH1 0x0 DUP4 ADD DUP5 PUSH2 0x89D JUMP JUMPDEST SWAP3 SWAP2 POP POP JUMP JUMPDEST PUSH1 0x0 PUSH1 0x20 DUP3 ADD SWAP1 POP PUSH2 0x933 PUSH1 0x0 DUP4 ADD DUP5 PUSH2 0x8E5 JUMP JUMPDEST SWAP3 SWAP2 POP POP JUMP JUMPDEST PUSH1 0x0 PUSH1 0x60 DUP3 ADD SWAP1 POP PUSH2 0x94E PUSH1 0x0 DUP4 ADD DUP7 PUSH2 0x8E5 JUMP JUMPDEST DUP2 DUP2 SUB PUSH1 0x20 DUP4 ADD MSTORE PUSH2 0x960 DUP2 DUP6 PUSH2 0x8AC JUMP JUMPDEST SWAP1 POP PUSH2 0x96F PUSH1 0x40 DUP4 ADD DUP5 PUSH2 0x8E5 JUMP JUMPDEST SWAP5 SWAP4 POP POP POP POP JUMP JUMPDEST PUSH1 0x0 PUSH1 0x20 DUP3 ADD SWAP1 POP PUSH2 0x98C PUSH1 0x0 DUP4 ADD DUP5 PUSH2 0x8F4 JUMP JUMPDEST SWAP3 SWAP2 POP POP JUMP JUMPDEST PUSH1 0x0 PUSH1 0x40 MLOAD SWAP1 POP DUP2 DUP2 ADD DUP2 DUP2 LT PUSH8 0xFFFFFFFFFFFFFFFF DUP3 GT OR ISZERO PUSH2 0x9B9 JUMPI PUSH2 0x9B8 PUSH2 0xBF3 JUMP JUMPDEST JUMPDEST DUP1 PUSH1 0x40 MSTORE POP SWAP2 SWAP1 POP JUMP JUMPDEST PUSH1 0x0 PUSH8 0xFFFFFFFFFFFFFFFF DUP3 GT ISZERO PUSH2 0x9DE JUMPI PUSH2 0x9DD PUSH2 0xBF3 JUMP JUMPDEST JUMPDEST PUSH1 0x1F NOT PUSH1 0x1F DUP4 ADD AND SWAP1 POP PUSH1 0x20 DUP2 ADD SWAP1 POP SWAP2 SWAP1 POP JUMP JUMPDEST PUSH1 0x0 DUP2 MLOAD SWAP1 POP SWAP2 SWAP1 POP JUMP JUMPDEST PUSH1 0x0 DUP3 DUP3 MSTORE PUSH1 0x20 DUP3 ADD SWAP1 POP SWAP3 SWAP2 POP POP JUMP JUMPDEST PUSH1 0x0 PUSH2 0xA1A DUP3 PUSH2 0xA97 JUMP JUMPDEST SWAP2 POP PUSH2 0xA25 DUP4 PUSH2 0xA97 JUMP JUMPDEST SWAP3 POP DUP3 PUSH32 0xFFFFFFFFFFFFFFFFFFFFFFFFFFFFFFFFFFFFFFFFFFFFFFFFFFFFFFFFFFFFFFFF SUB DUP3 GT ISZERO PUSH2 0xA5A JUMPI PUSH2 0xA59 PUSH2 0xB95 JUMP JUMPDEST JUMPDEST DUP3 DUP3 ADD SWAP1 POP SWAP3 SWAP2 POP POP JUMP JUMPDEST PUSH1 0x0 PUSH2 0xA70 DUP3 PUSH2 0xA77 JUMP JUMPDEST SWAP1 POP SWAP2 SWAP1 POP JUMP JUMPDEST PUSH1 0x0 PUSH20 0xFFFFFFFFFFFFFFFFFFFFFFFFFFFFFFFFFFFFFFFF DUP3 AND SWAP1 POP SWAP2 SWAP1 POP JUMP JUMPDEST PUSH1 0x0 DUP2 SWAP1 POP SWAP2 SWAP1 POP JUMP JUMPDEST PUSH1 0x0 PUSH1 0xFF DUP3 AND SWAP1 POP SWAP2 SWAP1 POP JUMP JUMPDEST DUP3 DUP2 DUP4 CALLDATACOPY PUSH1 0x0 DUP4 DUP4 ADD MSTORE POP POP POP JUMP JUMPDEST PUSH1 0x0 JUMPDEST DUP4 DUP2 LT ISZERO PUSH2 0xADB JUMPI DUP1 DUP3 ADD MLOAD DUP2 DUP5 ADD MSTORE PUSH1 0x20 DUP2 ADD SWAP1 POP PUSH2 0xAC0 JUMP JUMPDEST DUP4 DUP2 GT ISZERO PUSH2 0xAEA JUMPI PUSH1 0x0 DUP5 DUP5 ADD MSTORE JUMPDEST POP POP POP POP JUMP JUMPDEST PUSH1 0x0 PUSH1 0x2 DUP3 DIV SWAP1 POP PUSH1 0x1 DUP3 AND DUP1 PUSH2 0xB08 JUMPI PUSH1 0x7F DUP3 AND SWAP2 POP JUMPDEST PUSH1 0x20 DUP3 LT DUP2 EQ ISZERO PUSH2 0xB1C JUMPI PUSH2 0xB1B PUSH2 0xBC4 JUMP JUMPDEST JUMPDEST POP SWAP2 SWAP1 POP JUMP JUMPDEST PUSH1 0x0 PUSH2 0xB2D DUP3 PUSH2 0xA97 JUMP JUMPDEST SWAP2 POP PUSH32 0xFFFFFFFFFFFFFFFFFFFFFFFFFFFFFFFFFFFFFFFFFFFFFFFFFFFFFFFFFFFFFFFF DUP3 EQ ISZERO PUSH2 0xB60 JUMPI PUSH2 0xB5F PUSH2 0xB95 JUMP JUMPDEST JUMPDEST PUSH1 0x1 DUP3 ADD SWAP1 POP SWAP2 SWAP1 POP JUMP JUMPDEST PUSH1 0x0 PUSH2 0xB76 DUP3 PUSH2 0xAA1 JUMP JUMPDEST SWAP2 POP PUSH1 0xFF DUP3 EQ ISZERO PUSH2 0xB8A JUMPI PUSH2 0xB89 PUSH2 0xB95 JUMP JUMPDEST JUMPDEST PUSH1 0x1 DUP3 ADD SWAP1 POP SWAP2 SWAP1 POP JUMP JUMPDEST PUSH32 0x4E487B7100000000000000000000000000000000000000000000000000000000 PUSH1 0x0 MSTORE PUSH1 0x11 PUSH1 0x4 MSTORE PUSH1 0x24 PUSH1 0x0 REVERT JUMPDEST PUSH32 0x4E487B7100000000000000000000000000000000000000000000000000000000 PUSH1 0x0 MSTORE PUSH1 0x22 PUSH1 0x4 MSTORE PUSH1 0x24 PUSH1 0x0 REVERT JUMPDEST PUSH32 0x4E487B7100000000000000000000000000000000000000000000000000000000 PUSH1 0x0 MSTORE PUSH1 0x41 PUSH1 0x4 MSTORE PUSH1 0x24 PUSH1 0x0 REVERT JUMPDEST PUSH1 0x0 PUSH1 0x1F NOT PUSH1 0x1F DUP4 ADD AND SWAP1 POP SWAP2 SWAP1 POP JUMP JUMPDEST PUSH2 0xC3C DUP2 PUSH2 0xA65 JUMP JUMPDEST DUP2 EQ PUSH2 0xC47 JUMPI PUSH1 0x0 DUP1 REVERT JUMPDEST POP JUMP JUMPDEST PUSH2 0xC53 DUP2 PUSH2 0xA97 JUMP JUMPDEST DUP2 EQ PUSH2 0xC5E JUMPI PUSH1 0x0 DUP1 REVERT JUMPDEST POP JUMP JUMPDEST PUSH2 0xC6A DUP2 PUSH2 0xAA1 JUMP JUMPDEST DUP2 EQ PUSH2 0xC75 JUMPI PUSH1 0x0 DUP1 REVERT JUMPDEST POP JUMP INVALID LOG2 PUSH5 0x6970667358 0x22 SLT KECCAK256 SWAP5 JUMP 0xEC DIV 0xD3 0x2C 0xE3 PUSH21 0xC0E4EF55EF9E2C37D48ADD1B7D7A11437DEBC8F7B0 LOG1 TIMESTAMP LOG3 PUSH5 0x736F6C6343 STOP ADDMOD STOP STOP CALLER "
				},
				"gasEstimates": {
					"creation": {
						"codeDepositCost": "649200",
						"executionCost": "52507",
						"totalCost": "701707"
					},
					"external": {
						"VoterCount()": "1174",
						"addProposalDetail(uint256,string)": "infinite",
						"chairperson()": "1237",
						"proposalCount()": "1195",
						"proposals(uint256)": "infinite",
						"register(address)": "64386",
						"vote(uint8)": "infinite",
						"winningProposal()": "infinite"
					}
				},
				"methodIdentifiers": {
					"VoterCount()": "2e46fb9a",
					"addProposalDetail(uint256,string)": "585cc4c4",
					"chairperson()": "2e4176cf",
					"proposalCount()": "da35c664",
					"proposals(uint256)": "013cf08b",
					"register(address)": "4420e486",
					"vote(uint8)": "b3f98adc",
					"winningProposal()": "609ff1bd"
				}
			},
			"storageLayout": {
				"storage": [
					{
						"astId": 18,
						"contract": "bc-lab7/E1BallotBasic.sol:Ballot",
						"label": "proposalCount",
						"offset": 0,
						"slot": "0",
						"type": "t_uint256"
					},
					{
						"astId": 21,
						"contract": "bc-lab7/E1BallotBasic.sol:Ballot",
						"label": "VoterCount",
						"offset": 0,
						"slot": "1",
						"type": "t_uint256"
					},
					{
						"astId": 23,
						"contract": "bc-lab7/E1BallotBasic.sol:Ballot",
						"label": "chairperson",
						"offset": 0,
						"slot": "2",
						"type": "t_address"
					},
					{
						"astId": 28,
						"contract": "bc-lab7/E1BallotBasic.sol:Ballot",
						"label": "voters",
						"offset": 0,
						"slot": "3",
						"type": "t_mapping(t_address,t_struct(Voter)8_storage)"
					},
					{
						"astId": 32,
						"contract": "bc-lab7/E1BallotBasic.sol:Ballot",
						"label": "proposals",
						"offset": 0,
						"slot": "4",
						"type": "t_array(t_struct(Proposal)15_storage)dyn_storage"
					}
				],
				"types": {
					"t_address": {
						"encoding": "inplace",
						"label": "address",
						"numberOfBytes": "20"
					},
					"t_array(t_struct(Proposal)15_storage)dyn_storage": {
						"base": "t_struct(Proposal)15_storage",
						"encoding": "dynamic_array",
						"label": "struct Ballot.Proposal[]",
						"numberOfBytes": "32"
					},
					"t_bool": {
						"encoding": "inplace",
						"label": "bool",
						"numberOfBytes": "1"
					},
					"t_mapping(t_address,t_struct(Voter)8_storage)": {
						"encoding": "mapping",
						"key": "t_address",
						"label": "mapping(address => struct Ballot.Voter)",
						"numberOfBytes": "32",
						"value": "t_struct(Voter)8_storage"
					},
					"t_string_storage": {
						"encoding": "bytes",
						"label": "string",
						"numberOfBytes": "32"
					},
					"t_struct(Proposal)15_storage": {
						"encoding": "inplace",
						"label": "struct Ballot.Proposal",
						"members": [
							{
								"astId": 10,
								"contract": "bc-lab7/E1BallotBasic.sol:Ballot",
								"label": "proposalID",
								"offset": 0,
								"slot": "0",
								"type": "t_uint256"
							},
							{
								"astId": 12,
								"contract": "bc-lab7/E1BallotBasic.sol:Ballot",
								"label": "topic",
								"offset": 0,
								"slot": "1",
								"type": "t_string_storage"
							},
							{
								"astId": 14,
								"contract": "bc-lab7/E1BallotBasic.sol:Ballot",
								"label": "voteCount",
								"offset": 0,
								"slot": "2",
								"type": "t_uint256"
							}
						],
						"numberOfBytes": "96"
					},
					"t_struct(Voter)8_storage": {
						"encoding": "inplace",
						"label": "struct Ballot.Voter",
						"members": [
							{
								"astId": 3,
								"contract": "bc-lab7/E1BallotBasic.sol:Ballot",
								"label": "weight",
								"offset": 0,
								"slot": "0",
								"type": "t_uint256"
							},
							{
								"astId": 5,
								"contract": "bc-lab7/E1BallotBasic.sol:Ballot",
								"label": "voted",
								"offset": 0,
								"slot": "1",
								"type": "t_bool"
							},
							{
								"astId": 7,
								"contract": "bc-lab7/E1BallotBasic.sol:Ballot",
								"label": "vote",
								"offset": 1,
								"slot": "1",
								"type": "t_uint8"
							}
						],
						"numberOfBytes": "64"
					},
					"t_uint256": {
						"encoding": "inplace",
						"label": "uint256",
						"numberOfBytes": "32"
					},
					"t_uint8": {
						"encoding": "inplace",
						"label": "uint8",
						"numberOfBytes": "1"
					}
				}
			},
			"userdoc": {
				"kind": "user",
				"methods": {
					"vote(uint8)": {
						"notice": "Give a single vote to proposal $(toProposal)."
					}
				},
				"version": 1
			}
		}
	}
}